:100000000C9463000C948B000C948B000C94690A84
:100010000C94690A0C94690A0C948B000C948B0064
:100020000C948B000C948B000C948B000C948B0024
:100030000C948B000C948B000C948B000C948B0014
:100040000C94A8080C948B000C9418090C94F208DA
:100050000C948B000C948B000C948B000C948B00F4
:100060000C944A090C948B00000000002400270027
:100070002A0000000008000201000003040700003D
:1000800000000000000000000000230026002900FE
:1000900000000000250028002B00040404040404D0
:1000A0000404020202020202030303030303010227
:1000B00004081020408001020408102001020408F6
:1000C0001020E10ADA1611241FBECFEFD8E0DEBF00
:1000D000CDBF24E0A6E5B1E001C01D92A739B2076B
:1000E000E1F711E0A0E0B1E0E8E7F3E302C005903A
:1000F0000D92A635B107D9F710E0C2E6D0E004C0F2
:100100002197FE010E94A317C136D107C9F70E94AB
:10011000E10B0C94AF190C940000482FEBE5F3E0D1
:1001200020E08FEF9FEF241791F03191832738E083
:10013000BC016170772796958795672B21F051E078
:10014000852750EA9527315099F72F5FECCF089516
:10015000833081F028F4813099F08230A9F008953D
:100160008730A9F08830C9F08430B1F480918000E4
:100170008F7D03C0809180008F77809380000895E9
:1001800084B58F7784BD089584B58F7DFBCF809132
:10019000B0008F778093B00008958091B0008F7D7C
:1001A000F9CFCF93DF93282F30E0F901EE58FF4FBE
:1001B0008491F901E255FF4FD491F901E656FF4FC2
:1001C000C491CC23A1F081110E94A800EC2FF0E093
:1001D000EE0FFF1FEA57FF4FA591B491EC91ED236D
:1001E00081E090E009F480E0DF91CF91089580E014
:1001F00090E0FACF1F93CF93DF93282F30E0F901DF
:10020000EE58FF4F8491F901E255FF4FD491F90167
:10021000E656FF4FC491CC23A9F0162F81110E94FE
:10022000A800EC2FF0E0EE0FFF1FE057FF4FA59165
:10023000B4918FB7F894EC91111108C0D095DE23DA
:10024000DC938FBFDF91CF911F910895DE2BF8CF04
:10025000CF93DF9390915B03992309F44BC0C82F90
:100260000E948D00D0E0FE01EC5AFC4F87839087FE
:1002700080915A038F3F19F061E00E94FA0080914B
:10028000580390915903AE014E5F5F4FDC01ED9131
:10029000FC910280F381E02D6BE573E0099580917C
:1002A000580390915903DC01ED91FC910680F78190
:1002B000E02D099580915A038F3F19F060E00E946C
:1002C000FA008091580390915903DC01ED91FC9163
:1002D0000084F185E02D0995892B61F08091580308
:1002E00090915903DC01ED91FC910284F385E02D9E
:1002F0000995E7CFDF91CF910895E4E5F3E090858C
:1003000090689087818783E00C942801CF93DF93D6
:1003100090E0FC01E255FF4F249186569F4FFC016F
:1003200084918823D1F090E0880F991FFC01E8594F
:10033000FF4FA591B491FC01E057FF4FC591D491B7
:1003400061110EC09FB7F8948C91E22FE0958E2337
:100350008C932881E223E8839FBFDF91CF9108959A
:100360008FB7F894EC91E22BEC938FBFF6CF8E30E1
:1003700008F08E508770806480937C0080917A00B2
:10038000806480937A0080917A0086FDFCCF809112
:1003900078009091790008953FB7F89480912702F2
:1003A00090912802A0912902B0912A0226B5A89B1B
:1003B00005C02F3F19F00196A11DB11D3FBFBA2FF7
:1003C000A92F982F8827BC01CD01620F711D811DB7
:1003D000911D42E0660F771F881F991F4A95D1F73C
:1003E00008958F929F92AF92BF92CF92DF92EF9239
:1003F000FF924B015C010E94CC016B017C010E94C9
:10040000CC016C197D098E099F09683E73408105F6
:100410009105A8F321E0821A9108A108B10888EE9D
:10042000C80E83E0D81EE11CF11C81149104A104C4
:10043000B10429F7FF90EF90DF90CF90BF90AF907D
:100440009F908F9008952FB7F89460912302709138
:10045000240280912502909126022FBF08950F93C8
:100460001F9380913A0390913B03019709F054C088
:100470008091380390913903019721F50E9423025E
:10048000AB01BC018091340390913503A0913603F8
:10049000B091370300913003109131032091320362
:1004A00030913303801B910BA20BB30B840F951F6C
:1004B000A61FB71F8093340390933503A093360390
:1004C000B09337038091380390913903892B21F53C
:1004D0000E94CC01AB01BC018091340390913503A3
:1004E000A0913603B091370300913003109131038E
:1004F0002091320330913303801B910BA20BB30B7D
:10050000840F951FA61FB71F809334039093350364
:10051000A0933603B093370310923B0310923A0333
:100520001F910F91089508950895FC01248135814C
:100530006217730748F480819181009729F0860F34
:10054000971FFC018081089580E00895AF92BF92CB
:10055000CF92DF92EF92FF920F931F93CF93DF938F
:100560006C017B018B01040F151FEB015E01AE18BE
:10057000BF08C017D10759F06991D601ED91FC91E0
:100580000190F081E02DC6010995892B79F7C5010D
:10059000DF91CF911F910F91FF90EF90DF90CF905F
:1005A000BF90AF900895FC01538D448D252F30E00E
:1005B000842F90E0821B930B541710F0CF96089570
:1005C00001970895FC01918D828D981761F0A28D9D
:1005D000AE0FBF2FB11D5D968C91928D9F5F9F7363
:1005E000928F90E008958FEF9FEF0895FC01918D19
:1005F000828D981731F0828DE80FF11D858D90E086
:1006000008958FEF9FEF0895FC01918D228D892F22
:1006100090E0805C9F4F821B91098F73992708950A
:100620008BE792E00E94040321E0892B09F420E08B
:10063000822F089580E090E0892B29F00E9410031A
:1006400081110C9400000895FC01A48DA80FB92F0E
:10065000B11DA35ABF4F2C91848D90E001968F73EA
:100660009927848FA689B7892C93A089B1898C9109
:10067000837080648C93938D848D981306C0028858
:10068000F389E02D80818F7D80830895EF92FF9222
:100690000F931F93CF93DF93EC0181E0888F9B8DA5
:1006A0008C8D98131AC0E889F989808185FF15C05F
:1006B0009FB7F894EE89FF896083E889F989808182
:1006C0008370806480839FBF81E090E0DF91CF9151
:1006D0001F910F91FF90EF900895F62E0B8D10E073
:1006E0000F5F1F4F0F731127E02E8C8D8E110CC0E2
:1006F0000FB607FCFACFE889F989808185FFF5CF2D
:10070000CE010E942403F1CFEB8DEC0FFD2FF11DE4
:10071000E35AFF4FF0829FB7F8940B8FEA89FB8969
:1007200080818062CFCFCF93DF93EC01888D8823C7
:10073000B9F0AA89BB89E889F9898C9185FD03C044
:10074000808186FD0DC00FB607FCF7CF8C9185FF29
:10075000F2CF808185FFEDCFCE010E942403E9CF47
:10076000DF91CF9108952091D701260F3327331FB2
:1007700021323105ECF420915102FC0190E080E03F
:10078000243069F082E00895A091D7012191AC0155
:1007900049545E4FA40FB52FB11D2C9301968617B7
:1007A00098F38091D701680F6093D70180E0089596
:1007B00081E008951092510281E0809350021092DE
:1007C0002B0261E082E10E94FA0061E083E10E9475
:1007D000FA00E9EBF0E080818E7F808380818D7F5D
:1007E000808388E48093B80085E48093BC000895FA
:1007F000CF93DF9391E09093B6018823B9F0C09135
:10080000B800D091BA008091BC008A7B8093BC0074
:1008100060E082E10E94FA0060E083E10E94FA0059
:100820000E94DA03D093BA00C093B800DF91CF9151
:100830000895CF92DF92EF92FF920F931F93CF9381
:10084000DF93D0917A0281E0D13208F09CC0C09150
:1008500079020E94CC016B017C01809151028111CF
:100860006CC082E08093510281E0809350028FEF50
:1008700080934F0210924E02D0934D02A9E5B2E050
:10088000EDE2F2E080E0D8138DC010922C0280914E
:100890002C02CC0FC82BC0932C0280912B028130EC
:1008A00009F084C010922B020E94CC016B017C01E4
:1008B00080912C028093BB0080915302909154024E
:1008C000A0915502B0915602892B8A2B8B2BA1F057
:1008D0000E94CC01009153021091540220915502C4
:1008E000309156026C197D098E099F09061717076A
:1008F0002807390708F442C08091BC0083FDD8CF97
:1009000085EC8093BC000E94CC016B017C0180913E
:100910005102823009F44CC080914F028F3F09F49C
:1009200069C080914F02803209F466C080914F0205
:10093000803309F463C084E026C080915302909113
:100940005402A0915502B0915602892B8A2B8B2B11
:1009500009F483CF0E94CC010091530210915402FC
:1009600020915502309156026C197D098E099F091C
:10097000061717072807390708F06FCF8091520232
:100980000E94F80385E01092580210927A021092A9
:100990005702DF91CF911F910F91FF90EF90DF9061
:1009A000CF9008959D9191938F5F6DCF85EEA9CFE4
:1009B0008091530290915402A0915502B091560239
:1009C000892B8A2B8B2B09F4A2CF0E94CC0100919A
:1009D00053021091540220915502309156026C1925
:1009E0007D098E099F09061717072807390708F0A0
:1009F0008ECFC4CF80E0C7CF82E0C5CF83E0C3CF26
:100A00000895E091030280910202E81730F4F0E0CB
:100A1000EA56FE4F808190E008958FEF9FEF089592
:100A200090910302809102022FEF3FEF981748F454
:100A3000E92FF0E0EA56FE4F208130E09F5F90936F
:100A40000302C90108958091020290910302891B5B
:100A5000990B0895CF92DF92EF92FF920F931F931D
:100A6000CF93DF937C01CB018A012091570222238F
:100A700089F0EB016B01C40ED51ECC15DD0569F0C4
:100A80006991D701ED91FC910190F081E02DC701B2
:100A90000995F3CF642F0E94B303C801DF91CF9172
:100AA0001F910F91FF90EF90DF90CF900895CF931B
:100AB000DF931F92CDB7DEB76983209157022223BF
:100AC000F9F020917A02203258F021E030E0FC0168
:100AD0003383228390E080E00F90DF91CF910895DF
:100AE00080915802E82FF0E0E75AFD4F99819083FA
:100AF0008F5F8093580280937A0281E090E0ECCF80
:100B000061E0CE0101960E94B303F7CF682F88E120
:100B100093E00C9457050F931F93CF93DF93FC0141
:100B2000228533852130310531F5EC012085318571
:100B300021303105D9F40E942302AB01BC018C8124
:100B40009D81AE81BF81088119812A813B81801BF3
:100B5000910BA20BB30B840F951FA61FB71FBC01EF
:100B6000CD01DF91CF911F910F910895232B19F49F
:100B70000E94CC01E2CFFC0184819581A681B781DE
:100B8000EECFCF93DF93FC012285338522303105F0
:100B9000C9F4EC0180859185019731F40E9423020C
:100BA000688379838A839B8388859985892B31F42F
:100BB0000E94CC01688379838A839B8381E090E0E3
:100BC0009B878A87DF91CF910895CF92DF92EF9232
:100BD000FF920F931F93CF93DF93FC012285338500
:100BE00021303105C9F5EC01808591850197B1F47B
:100BF000C480D580E680F7800E9423020881198195
:100C00002A813B81C01AD10AE20AF30AC60ED71E16
:100C1000E81EF91ECC82DD82EE82FF8288859985EE
:100C2000892BB1F4CC80DD80EE80FF800E94CC0166
:100C3000088119812A813B81C01AD10AE20AF30A8C
:100C4000C60ED71EE81EF91ECC82DD82EE82FF8220
:100C500082E090E09B878A87DF91CF911F910F916F
:100C6000FF90EF90DF90CF900895CF93DF93EC014A
:100C70001C821D821E821F8288859985019731F40E
:100C80000E942302688379838A839B838885998560
:100C9000892B31F40E94CC01688379838A839B83FA
:100CA00081E090E09B878A87DF91CF910895209122
:100CB000FC013091FD012817390771F49091FA0178
:100CC0008091FB01981741F0E091FA01F0E0EA5AB7
:100CD000FE4F808190E008958FEF9FEF0895EF928F
:100CE000FF920F931F93CF93DF93DC015C96ED90FF
:100CF000FC905D97E114F10479F481E090E01396A3
:100D00009C938E93129790E080E0DF91CF911F919A
:100D10000F91FF90EF9008955196ED91FC915297AD
:100D200050968C915097982F90950FB75E962C9176
:100D30005E97122F127021FD6095F8942081112387
:100D400019F1282B2083E7012197F1F728E0462F9E
:100D500050E0308160FF1AC0382B3083E7012197C3
:100D6000F1F7BA0175956795215089F7112381F044
:100D70008081892380830FBF5C968D919C91019720
:100D8000F1F781E090E0C1CF2923DCCF3923E5CF13
:100D90009081892BEFCF2091FC013091FD01281724
:100DA000390761F48091FB012091FA0190E0805CA9
:100DB0009F4F821B91098F739927089590E080E0DF
:100DC00008952091FC013091FD0128173907B9F4ED
:100DD0009091FA018091FB01981789F0E091FA0156
:100DE000F0E0EA5AFE4F80812091FA0130E02F5F57
:100DF0003F4F2F7333272093FA0190E008958FEF30
:100E00009FEF089590E080E008958091080281307E
:100E100091F018F08230E1F0089560E08DE00E94DA
:100E2000FA0068EE73E080E090E00E94F10161E07A
:100E30008DE00C94FA0060E081E10E94FA0068EE17
:100E400073E080E090E00E94F10161E081E1F1CF88
:100E500060E08DE00E94FA0060E081E10E94FA000B
:100E600068EE73E080E090E00E94F10161E08DE0C7
:100E70000E94FA00EACF60E08DE00E94FA006AE08A
:100E800070E080E090E00E94F10161E08DE00E945E
:100E9000FA006AE070E080E090E00E94F10160E01A
:100EA00081E10E94FA006AE070E080E090E00E9438
:100EB000F10161E081E10E94FA006AE070E080E007
:100EC00090E00E94F10160E08DE00E94FA006AE08B
:100ED00070E080E090E00E94F10161E08DE00E940E
:100EE000FA006AE070E080E090E00C94F101CF92AB
:100EF000DF92FF920F931F93CF93DF93EC01F62EB7
:100F0000862F0E94B7010BE91FE0C8010197F1F796
:100F10008F2D0E94B701CC0FDD1FC050DF4F19820B
:100F20001882C8010197F1F70AE010E09BECC92E86
:100F300097E0D92E8F2D0E94B70128813981820F29
:100F4000931F99838883F6013197F1F701501109B6
:100F500089F76AE070E00E946D1779836883A8952D
:100F6000DF91CF911F910F91FF90DF90CF90089567
:100F7000CF93DF93C4E1D0E060E08DE00E94FA00FF
:100F800069E170E080E090E00E94F10161E08DE0B5
:100F90000E94FA0069E170E080E090E00E94F101B7
:100FA00060E081E10E94FA0069E170E080E090E099
:100FB0000E94F10161E081E10E94FA0069E170E0C4
:100FC00080E090E00E94F1012197B1F6DF91CF918E
:100FD0000895FC0180819181009711F00C945918BB
:100FE0000895CF92DF92EF92FF920F931F93CF93CA
:100FF000DF93CDB7DEB729970FB6F894DEBF0FBEEB
:10100000CDBF8C01862FF8011182108213821282CB
:10101000158214824AE09E012F5F3F4F6901B9019A
:1010200090E00E94F616F60101900020E9F7319752
:101030007F01EC18FD08F80180819181009729F06B
:10104000228133812E153F0590F4B7016F5F7F4FEA
:101050000E94E218F801009799F091838083F3824F
:10106000E28224813581232B11F4FC011082F801E6
:10107000F582E482B601808191810E94A8190DC099
:1010800080819181009711F00E945918F801118216
:101090001082158214821382128229960FB6F89458
:1010A000DEBF0FBECDBFDF91CF911F910F91FF909B
:1010B000EF90DF90CF90089585ED8093BC008091F4
:1010C000530290915402A0915502B0915602079696
:1010D000A11DB11D23E0B695A795979587952A95F3
:1010E000D1F72091BC0024FD03C010925102089555
:1010F00040915302509154026091550270915602F2
:10110000452B462B472B69F30097A105B10541F00C
:101110002AE22A95F1F700C00197A109B109E1CFB0
:10112000809152020C94F8031F93CF93DF93EC014C
:10113000162F0E942017181739F0612FCE01DF916A
:10114000CF911F910C942817DF91CF911F91089593
:101150001F920F920FB60F9211242F933F938F93EC
:101160009F93AF93BF938091230290912402A0910B
:101170002502B09126023091220223E0230F2D3761
:1011800058F50196A11DB11D2093220280932302E0
:1011900090932402A0932502B09326028091270207
:1011A00090912802A0912902B0912A020196A11DD6
:1011B000B11D8093270290932802A0932902B09337
:1011C0002A02BF91AF919F918F913F912F910F90E4
:1011D0000FBE0F901F90189526E8230F0296A11DB1
:1011E000B11DD2CF1F920F920FB60F9211242F93E1
:1011F0003F934F935F936F937F938F939F93AF939F
:10120000BF93EF93FF938BE792E00E942403FF913B
:10121000EF91BF91AF919F918F917F916F915F916E
:101220004F913F912F910F900FBE0F901F901895E7
:101230001F920F920FB60F9211242F938F939F93AB
:10124000EF93FF93E0918B02F0918C028081E0910B
:101250009102F091920282FD1BC0908180919402D4
:101260008F5F8F7320919502821741F0E091940275
:10127000F0E0E558FD4F958F80939402FF91EF9138
:101280009F918F912F910F900FBE0F901F901895E7
:101290008081F4CF1F920F920FB60F9211242F93DB
:1012A0003F934F935F936F937F938F939F93AF93EE
:1012B000BF93EF93FF938091B900887F803609F444
:1012C0004AC0F0F5883209F4A7C018F5803109F456
:1012D0009BC0B8F4882309F4F9C0883009F494C09D
:1012E000FF91EF91BF91AF919F918F917F916F91FE
:1012F0005F914F913F912F910F900FBE0F901F90D4
:101300001895883109F488C0803251F780934F02D4
:1013100014C0803409F49DC040F48033B9F388339D
:10132000F9F680934F0285ECB0C0803509F485C092
:10133000883509F496C0883499F60E945C08D0CFAD
:10134000883909F48CC038F5883729F050F488368C
:1013500011F0803729F683E0809351021092F90151
:1013600057C0883809F47BC0803919F0803809F0FB
:10137000B7CF8091F901803208F071C0E091F90196
:1013800081E08E0F8093F9018091BB00F0E0E7527D
:10139000FE4F80833DC0803B39F0E0F4803A09F491
:1013A00079C0883A09F09CCF84E080935102109272
:1013B000D8011092D701E0910002F0910102099545
:1013C0008091D70181110FC081E08093D7011092E5
:1013D000B70109C0803C09F4A6CF883C09F4A3CF2B
:1013E000883B09F07DCFE091D80181E08E0F80939A
:1013F000D801F0E0E954FE4F80818093BB009091CA
:10140000D8018091D70129C080912C028093BB0024
:1014100085EC8093BC0064CF90914E0280914D0288
:10142000981758F5E0914E0281E08E0F80934E029E
:10143000F0E0E35DFD4F8081E9CFE0914E0281E075
:101440008E0F80934E028091BB00F0E0E35DFD4F74
:10145000808390914E0280914D029817C8F285E8E2
:10146000D8CFE0914E0281E08E0F80934E028091A2
:10147000BB00F0E0E35DFD4F80838091500281115D
:101480005CCF81E080932B0284EA8093BC001092B1
:10149000510226CF85EC8093BC00109251028091BE
:1014A000F901803230F4E091F901F0E0E752FE4FAB
:1014B00010826091F90170E0E091FE01F091FF016E
:1014C00089ED91E009951092F9010ACF10924F022F
:1014D00034CF1F920F920FB60F9211242F933F9388
:1014E0004F935F936F937F938F939F93AF93BF932C
:1014F000EF93FF93E091FC01F091FD01309749F0EB
:10150000A685B7858585968D91FF14C09C9189230A
:10151000A1F4FF91EF91BF91AF919F918F917F9136
:101520006F915F914F913F912F910F900FBE0F9050
:101530001F9018959C91892361F7A389B4899C9188
:101540008589809589238C93868997890197F1F7FE
:10155000608D718DA685B785558538E020E0CB017B
:101560000197F1F7822F90E095958795282F4C9160
:10157000452309F02068315091F7868D81FD209533
:101580008091FB0190E001968F7399273091FA01C9
:10159000381799F0A091FB01B0E0AA5ABE4F2C93E6
:1015A0008093FB01828D938D0197F1F7A389B48914
:1015B0008C919589892B8C93ACCF868D8160868F99
:1015C000F1CF10927E0210927D0288EE93E0A0E0AF
:1015D000B0E080937F0290938002A0938102B09349
:1015E000820221E231E030937C0220937B0225ECE1
:1015F00030E0309388022093870224EC30E030936F
:101600008A022093890220EC30E030938C022093F0
:101610008B0221EC30E030938E0220938D0222EC7D
:1016200030E03093900220938F0226EC30E030932C
:1016300092022093910210929402109295021092BD
:1016400096021092970210921B0310921A03809335
:101650001C0390931D03A0931E03B0931F0323E369
:1016600031E03093190320931803109277041092FD
:1016700076048093780490937904A0937A04B093CD
:101680007B0485E491E09093750480937404109238
:101690008B0410928A0410928D0410928C04109284
:1016A0008F0410928E041092910410929004609115
:1016B00092046E7F6D7F609392046695617081E005
:1016C00068278BE00E94FA0061E08BE00E948601AF
:1016D000E9EBF0E0E491E0938404E5EAF0E0E491E2
:1016E000F0E0EE0FFF1FE057FF4F8591949190932C
:1016F00086048093850460E08AE00E9486018091E0
:10170000920481FD04C061E08AE00E94FA0084E74F
:1017100094E02AE020938004E8EBF0E0E491E09389
:101720008104E4EAF0E0E491F0E0EE0FFF1FEA57F5
:10173000FF4F2591349130938304209382041092BB
:10174000640410926304109266041092650410926F
:1017500068041092670410926A041092690410924F
:10176000550310925403909357038093560390931C
:1017700059038093580310925C0410925B041092FA
:101780005E0410925D041092600410925F04109247
:1017900062041092610482E080935A0381E090E039
:1017A0009093510380935003909345038093440397
:1017B000909339038093380390932D0380932C03E7
:1017C0000895CF93DF93CDB7DEB7A1970FB6F89406
:1017D000DEBF0FBECDBF789484B5826084BD84B572
:1017E000816084BD85B5826085BD85B5816085BD1C
:1017F00080916E00816080936E00109281008091D4
:10180000810082608093810080918100816080935B
:101810008100809180008160809380008091B10080
:1018200084608093B1008091B00081608093B000AB
:1018300080917A00846080937A0080917A0082603F
:1018400080937A0080917A00816080937A00809101
:101850007A00806880937A001092C10080E490E062
:101860000E9420178034A1F060E480E490E00E94A0
:10187000940861E081E090E00E94940861E082E0D9
:1018800090E00E94940861E083E090E00E94940858
:1018900081E090E00E942017182F80930C0282E0D4
:1018A00090E00E94201780930802E82FF0E0EE0FEE
:1018B000FF1FE15FFE4F808191819093070280932B
:1018C000060283E090E00E94201791E0811101C0A0
:1018D00090E09093210261E08DE00E94860161E03A
:1018E00081E10E94860160E088E00E94860160E05C
:1018F00089E00E94860161E087E00E94860161E044
:1019000083E00E94860161E084E00E94860161E03C
:1019100085E00E94860161E086E00E94860161E028
:101920008CE00E94860160E08CE00E94FA0061E099
:1019300081E10E94FA0061E08DE00E94FA0087E1F7
:1019400092E090935E0480935D048AE090E090932F
:101950006604809365048EE092E090936004809327
:101960005F0483E090E090936804809367048FEFB6
:10197000810F873F08F057C110936B04E091540327
:10198000F0915503309709F451C18CE29AE0A0E040
:10199000B0E080936C0490936D04A0936E04B093B8
:1019A0006F048FE492E1A0E0B0E080937004909324
:1019B0007104A0937204B0937304A089B18982E08A
:1019C0008C93A485B5851C92A685B7858FEC8C93E6
:1019D000108EA489B58986E08C93A289B3898C91F5
:1019E00080618C93A289B3898C9188608C93A28941
:1019F000B3898C9180688C930288F389E02D808173
:101A00008F7D808380915A038F3F41F061E00E9477
:101A1000860160E080915A030E94FA000E94CC0186
:101A20006B017C018091580390915903DC01ED9189
:101A3000FC910084F185E02D0995892B79F00E94B5
:101A4000CC016B017C018091580390915903DC011A
:101A5000ED91FC910284F385E02D09950E94CC0163
:101A60006C197D098E099F09009170041091710411
:101A700020917204309173046017710782079307F5
:101A800088F210920302109202020E94DA0383E9A4
:101A900092E0909301028093000284E992E0909397
:101AA000FF018093FE018CE08093B80081E0809379
:101AB000570287E2809379021092580210927A02BC
:101AC00086E090E00E94860590E080E00E94860516
:101AD00090E080E00E9486050E94190488E493E06B
:101AE0000E9435068CE393E00E94350684E293E081
:101AF0000E94350664E670E080E090E00E94F1010B
:101B0000312C212C812C912C54018394FF24F394AB
:101B100084E293E00E948B0520EA3FE040E050E041
:101B20000E948117643F71408105910508F030C221
:101B30006EE070E090E080E00E94770765E070E082
:101B400080E090E00E94F1016FE070E081E090E0C1
:101B50000E94770765E070E080E090E00E94F1016C
:101B6000C0900602D090070280910001909101017F
:101B70008C159D050CF000C1F092170280910201B6
:101B8000909103018C159D050CF0F9C0F09218029C
:101B900010920502109204020091040210910502B5
:101BA000083011050CF0F0C0602F617083E00E94D6
:101BB000FA00B80175956795617084E00E94FA009B
:101BC000B8017595679575956795617085E00E9478
:101BD000FA0060E170E082E090E00E94770765E043
:101BE00070E080E090E00E94F101F0E0E0E0083079
:101BF000110528F4F801EB5EFE4FE081F0E08091E2
:101C0000040190910501E95EFD4F8C159D050CF0D6
:101C1000B9C04424439440820F5F1F4F10930502C4
:101C200000930402B9CF10926B04A8CEE091560342
:101C3000F0915703309709F4E5CE8CE29AE0A0E0EA
:101C4000B0E080936C0490936D04A0936E04B09305
:101C50006F048FE492E1A0E0B0E080937004909371
:101C60007104A0937204B0937304138E128E118EBC
:101C7000108E178A168A8DE991E0958F848F84855E
:101C80008631E0F52DEB30E0378B268B2BE931E008
:101C9000318F208F2CE231E0338F228F90916800BA
:101CA000883008F45AC021E08E3008F420E081E04A
:101CB00001C0880F2A95EAF7892B809368009485E4
:101CC0002DE630E0983050F02BE630E09E3030F0DA
:101CD0002CE630E0963110F030E020E0348B238B9E
:101CE000292F30E09830D8F581E001C0880F9A950F
:101CF000EAF7858B848D958D0197F1F7828D938D11
:101D0000892B09F47FCE4091FC015091FD01E4172D
:101D1000F50709F477CE4115510569F0DA015396BC
:101D20002D913C91D9019C91DA0155968C91809529
:101D30008923D9018C93868D8E7F868F1092FB012B
:101D40001092FA01F093FD01E093FC01A389B4899C
:101D50008C919589892B8C9355CE84E0ADCF9E30A4
:101D600040F42850310981E001C0880F2A95EAF734
:101D7000C0CF2E503109F7CF10921702FFCE10922C
:101D8000180206CF108248CF8091580390915903D2
:101D9000DC01ED91FC910084F185E02D0995892B02
:101DA00009F4F6C0412C512C320110E000E0809182
:101DB000580390915903DC01ED91FC910084F18569
:101DC000E02D0995892BA9F00E94CC012B013C0143
:101DD0008091580390915903DC01ED91FC910284AC
:101DE000F385E02D0995F801EC5AFC4F87830F5FCE
:101DF0001F4F0E94CC01641975098609970920912B
:101E00006C0430916D0440916E0450916F0426175C
:101E100037074807590720F00F3F110541F238F204
:101E20000E94CC01641975098609970920917004F4
:101E300030917104409172045091730462177307DA
:101E40008407950768F38091580390915903DC014A
:101E5000ED91FC910084F185E02D0995892B09F025
:101E600097C080915B0390916B04891711F08111E9
:101E70008FC08EEF800F0E948D00F801EC5AFC4F4E
:101E8000268135812327322723278217930709F0DC
:101E90007FC0E0915C03E150E03108F030C0F0E039
:101EA000EC5AF04F0C94A317640FBD111D126F1262
:101EB000C112F4127F0F7F0F7F0F7F0F7F0F7F0FF5
:101EC0007F0F7F0F1C137D1360915D0370915E0384
:101ED00076276727762780915F0390916003982784
:101EE00089279827A0915B04B0915C04109739F082
:101EF00040916304509164044115510511F481E04F
:101F000006C0FC013197E03DF74020F083E00E94DD
:101F10007D013EC04817590728F0481B590B46174A
:101F2000570710F482E0F3CFAC01495F5F4F33E015
:101F3000569547953A95E1F740935D03A60FB71F75
:101F400050E040E06D919A0127703327240135015C
:101F500004C0440C551C661C771C2A95D2F78201DC
:101F6000FA0123E0F695E7952A95E1F7E95AFC4F47
:101F70007781662309F4FDC1072B07834F5F5F4F0D
:101F800048175907F9F680915D038D5F0E9428017B
:101F9000609117028091070130912102509118023F
:101FA0004091190220911A0290911B0231110BC429
:101FB00030910801662309F4F2C33F7E3093080193
:101FC00030910801552309F4ECC3377F30930801A1
:101FD000442309F4E8C38E7F8093070180910701B1
:101FE000222309F4E2C38D7F8093070180910701CA
:101FF000992309F4DCC38B7F80930701809107014B
:1020000090911C02992309F4D4C3877F8093070120
:102010008091070190911D02992309F4CCC38F7E12
:10202000809307018091080190911E02992309F481
:10203000C4C38E7F809308018091080190911F0294
:10204000992309F4BCC38D7F809308018091080116
:1020500090912002992309F4B4C38B7F80930801E7
:10206000F0925702E7E2E093790210925802109240
:102070007A0282E090E00E9486050E94230210917D
:10208000070124EF31E040E050E00E9481176A3FF1
:1020900071058105910508F0C2C3612F88E193E0C5
:1020A0000E9457056091080188E193E00E9457055E
:1020B0008091160260E08111BBC30E9419041F3F8A
:1020C00009F0BAC3809108018F3F09F0B5C310929F
:1020D000160261E087E00E94FA000E94230220EAD3
:1020E0003FE040E050E00E9481176C327140810572
:1020F000910508F0A7C3809115028111A3C38091B7
:10210000140281119FC360E081E10E94FA006AE03D
:1021100070E080E090E00E94F10161E081E10E94C6
:10212000FA0064E670E080E090E00E94F10160E077
:1021300081E10E94FA0080910E0290910F02803C92
:10214000910509F053C080911002909111028035E1
:10215000910509F04BC0209112023091130250E01A
:1021600040E019A28E010F5D1F4F9AE0492E512CBD
:10217000612C712CCA01B901A30192010E9481173F
:10218000605DD8016E938D01211531054105510522
:1021900089F7109769F0FD0101900020E9F7319768
:1021A000AF014A1B5B0BBD018BE792E00E94A602C8
:1021B00042E050E063E571E08BE792E00E94A60206
:1021C0006091120270911302663E710508F03CC3E3
:1021D00081E090E00E9494080E94B80768EE73E0E6
:1021E00080E090E00E94F101F101099580910E02DA
:1021F00090910F020197D9F48091100290911102F1
:102200000197A9F48091120290911302019779F439
:1022100061E081E090E00E9494080E94B80768EEB7
:1022200073E080E090E00E94F101F1010995809156
:102230000E0290910F020A97B1F4809110029091D2
:1022400011020A9781F480911202909113020A9769
:1022500051F40E94B80768EE73E080E090E00E94BD
:10226000F101F101099580910E0290910F020597FD
:10227000E9F480911002909111020597B9F4A895A4
:1022800060911202709113026330710508F0DEC292
:1022900082E090E00E9494080E94B80768EE73E024
:1022A00080E090E00E94F101F101099580910E0219
:1022B00090910F02069749F48091100290911102BB
:1022C0008636910511F4F101099580910E029091E5
:1022D0000F02C39731F58091100290911102C397BC
:1022E00001F58091120290911302892B29F460E08C
:1022F00083E090E00E949408809112029091130272
:10230000019729F461E083E090E00E9494080E9424
:10231000B80768EE73E080E090E00E94F101F101FF
:1023200009950FB6F894A895809160008861809314
:102330006000109260000FBE88E00E94D100892BDF
:1023400049F480911402811105C0809116028823FE
:1023500009F47EC280910D0281115FC388E493E08D
:102360000E94350688E493E00E94E50510920D0274
:102370007BC200957023778301CE60915D037091DD
:102380005E0376276727762780915F03909160032D
:10239000982789279827A0915D04B0915E04109733
:1023A00009F4ADCD40916504509166044115510585
:1023B00009F4A5CDFC013197E03DF74008F0A6CD2A
:1023C0004817590708F4AECD481B590B4617570755
:1023D00008F4A8CDAC01495F5F4F03E056954795DF
:1023E0000A95E1F740935D03A60FB71F50E040E068
:1023F0006D919A01277033272401350104C0440CE4
:10240000551C661C771C2A95D2F78201FA0113E04D
:10241000F695E7951A95E1F7E95AFC4F778166231F
:1024200041F0072B07834F5F5F4F4817590701F7AC
:10243000AACD009570237783F6CFE0915D03F091EC
:102440005E03FE27EF27FE2740915F045091600452
:102450004115510509F453CD20916704309168046A
:102460002115310509F44BCD80915F0390916003F4
:10247000982789279827BC01615071096D3771052C
:1024800008F044CD2817390708F44CCD281B390B28
:102490002E173F0708F446CD282F220F20935D0307
:1024A000EE0FFF1FBF01640F751FA4E5B3E030E01E
:1024B00020E0FB0141816E5F7F4F1A964C931A9783
:1024C000AB0142505109FA0140811B964C931B9776
:1024D0002F5F3F4F12962817390759F754CDE091D7
:1024E0005D03F0915E03FE27EF27FE274091610414
:1024F000509162044115510509F401CD2091690400
:1025000030916A042115310509F4F9CC80915F03FB
:1025100090916003982789279827BC016150710921
:102520006D37710508F0F2CC2817390708F4FACC9A
:10253000281B390B2E173F0708F4F4CC282F220F45
:1025400020935D03EE0FFF1FBF01640F751FA4E50D
:10255000B3E030E020E0FB0141816E5F7F4F1A96CF
:102560004C931A97AB0142505109FA0140811B96D6
:102570004C931B972F5F3F4F12962817390759F737
:1025800002CD40915D0350915E03542745275427A7
:1025900080915F0390916003982789279827209165
:1025A0005B0430915C042115310509F4A8CC6091DD
:1025B0006304709164046115710509F4A0CC00975F
:1025C00029F08115FFEF9F0709F0A0CC46175707A8
:1025D00008F0A8CC240F351F41E0892B09F440E016
:1025E000D9014C9386E0D2CC80915D0390915E033B
:1025F00098278927982720915F033091600332271D
:1026000023273227E0915F04F0916004309709F4AA
:1026100076CC40916704509168044115510509F446
:102620006ECC8417950708F07DCC880F991FE80FB2
:10263000F91F31832083D6CF60915D0370915E03D3
:1026400076276727762780915F039091600398270C
:102650008927982720915B0430915C04232B09F48F
:102660004ECC20916304309164042115310509F4A6
:1026700046CCAC0141505109403BB7E05B0708F044
:1026800045CCE0916103485F5F4F03E05695479565
:102690000A95E1F7E417150609F038CC2817390731
:1026A00008F440CC281B390B2617370708F43ACC1E
:1026B00050E040E0E0915B04F0915C04E40FF51F12
:1026C000E60FF71FDA0113E0B695A7951A95E1F723
:1026D000AC5ABC4F1E962C9130E0DA01A770BB2794
:1026E00002C035952795AA95E2F7217020834F5FA8
:1026F0005F4F48175907F1F675CF80915D039091B0
:102700005E0398278927982720915F033091600303
:1027100032272327322740915F0450916004452BD4
:1027200009F4EDCB409167045091680441155105BF
:1027300009F4E5CBB901615071096B37710508F0F7
:10274000E5CBE0916103B901660F771FE617170625
:1027500009F0DCCB4217530708F4E4CB421B530BC0
:102760004817590708F4DECB880F991FE4E5F3E01A
:1027700050E040E084559340A0915F04B091600424
:10278000AE0FBF1FA80FB91F768567856D937C9329
:102790004F5F5F4F32964217530771F723CF306177
:1027A0000DCC386013CC816017CC82601DCC846066
:1027B00023CC88602BCC806133CC81603BCC8260A1
:1027C00043CC84604BCC662301F18E7F809307015C
:1027D000809107015523D9F08D7F80930701809167
:1027E00007014423B1F08B7F80930701809107019B
:1027F000222389F0877F8093070180910701992325
:1028000061F08F7E809307012BCC8160DFCF8260E7
:10281000E4CF8460E9CF8860EECF8061F3CF8FEFA3
:1028200090E00E9486058FEF90E00E94860561E0AF
:102830008DE00E94FA0041CCF092160260E087E041
:102840000E94FA0061E074CC61E0C2CC60E020CD6F
:1028500062E370E080E090E00E94F101F0920D02EE
:1028600088E493E00E94C10588E493E00E948B0510
:102870006838734181059105B8F080911502811186
:102880000DC088E00E94D100892B41F40E94B80756
:1028900080E393E00E943506F092150264E670E052
:1028A00080E090E00E94F10188E00E94D100892B35
:1028B00009F046C080911502882309F441C0809137
:1028C000160281113DC062E370E080E090E00E945A
:1028D000F1010E942F0280910601882309F49FC113
:1028E00080910B02893008F097C18F5F80930B02B3
:1028F00060E081E10E94FA0064E670E080E090E030
:102900000E94F10161E081E10E94FA0064E670E05A
:1029100080E090E00E94F10190910A0280910B0208
:10292000AAE09A9F800D112480930C0264E670E067
:1029300080E090E00E94F10180E393E00E94350680
:1029400089E00E94D10020911502892B09F07EC1F7
:10295000222309F47DC18091160281113FC062E3F8
:1029600070E080E090E00E94F1010E942F020AE0F6
:1029700010E060E08DE00E94FA006CE070E080E022
:1029800090E00E94F10161E08DE00E94FA006CE0AD
:1029900070E080E090E00E94F10160E081E10E943F
:1029A000FA006CE070E080E090E00E94F10161E0EC
:1029B00081E10E94FA006CE070E080E090E00E940B
:1029C000F10101501109A9F680910601B1E08B27B0
:1029D0008093060180E393E00E94350680E393E054
:1029E0000E948B05613177428105910508F430C161
:1029F00010910C02112339F081E090E00E94201721
:102A0000612F181301C061E081E090E00E949408FA
:102A10000E94B807F10109951BC18091150281112F
:102A20009DCC0E943B0760910C02CE0101960E9452
:102A3000F1070D811E81CE0101960E94E907023047
:102A40001105F1F10330110509F47FC001301105C2
:102A500009F0DBC060910C02CE0101960E94F107E3
:102A600070E060E0CE0101960E949502E82ECE0152
:102A700001960E94E907EE2009F4C7C0D12CC12CB1
:102A8000EE2DE053FF0B8F01C016D1060CF0BDC038
:102A900060E081E10E94FA0064EF71E080E090E084
:102AA0000E94F10161E081E10E94FA0064EF71E0AF
:102AB00080E090E00E94F101FFEFCF1ADF0AE4CF3F
:102AC00060910C02CE0101960E94F10761E070E076
:102AD000CE0101960E949502E82ECE0101960E9439
:102AE000E90760910C02CE0101960E94F10770E0A7
:102AF00060E0CE0101960E949502082FCE0101965A
:102B00000E94E907002309F4B6CFD12CC12C005351
:102B1000110BC016D1060CF0AECF60E08DE00E9424
:102B2000FA0064EF71E080E090E00E94F10161E062
:102B30008DE00E94FA0064EF71E080E090E00E9476
:102B4000F101AFEFCA1ADA0AE4CF60910C02CE01AC
:102B500001960E94F10762E070E0CE0101960E94AA
:102B60009502E82ECE0101960E94E90760910C02C1
:102B7000CE0101960E94F10761E070E0CE0101965E
:102B80000E949502082FCE0101960E94E9076091EC
:102B90000C02CE0101960E94F10770E060E0CE01C8
:102BA00001960E949502182FCE0101960E94E90716
:102BB000112309F4A7CF712C612C812F8053990B1D
:102BC0006C016C147D040CF09DCF60E08DE00E94E0
:102BD000FA0060E081E10E94FA0064EF71E080E0B9
:102BE00090E00E94F10161E08DE00E94FA0061E056
:102BF00081E10E94FA0064EF71E080E090E00E94C1
:102C0000F1019FEF691A790ADCCF64E670E080E099
:102C100090E00E94F101A2CB10920B0269CE80914C
:102C20000A02863180F48F5F80930A0260E08DE0B3
:102C30000E94FA0064E670E080E090E00E94F101FA
:102C400061E08DE061CE10920A02F0CF2111C6CE74
:102C500089E00E94D100892B41F4809115028111F5
:102C600004C080911602882379F0809109028111B5
:102C700058C08CE393E00E9435068CE393E00E94F9
:102C8000E505109209020CC062E370E080E090E07C
:102C90000E94F101F09209028CE393E00E94C105C9
:102CA0008CE393E00E948B056838734181059105A0
:102CB000E8F080911402811113C089E00E94D100D4
:102CC000892B71F462E370E080E090E00E94F101F2
:102CD00080E393E00E9435060E94B807F092140248
:102CE00064E670E080E090E00E94F10188E00E94DC
:102CF000D100892BF9F480911402811138C080E051
:102D0000482E80E0582E452811F40C94880D0E941E
:102D10001003882311F40C94880D0E9400000C9479
:102D2000860D809114028111A4CF0E943B070E945E
:102D300005079FCF89E00E94D100892BE1F28091A5
:102D400014028823E1F280E393E00E948B05613155
:102D500077428105910598F26091080282E090E047
:102D60000E9494080E94B807F1010995C8CF80918C
:102D700016028111E8CF62E370E080E090E00E94EB
:102D8000F1010E942F02809108028F5F833078F456
:102D9000809308020E94050780E393E00E943506B5
:102DA00064E670E080E090E00E94F101C8CF1092EC
:102DB0000802F0CF85E491E0909375048093740449
:102DC0008091FC019091FD018457944071F4E09151
:102DD0008704F091880490818091890480958923EB
:102DE00080831092FD011092FC010895BB27FB0126
:102DF0005527AA27880F991FAA1FA41710F0A41BF4
:102E000083955051B9F7A05DAA3308F0A95DA1934D
:102E1000009779F7B111B1931192CB010C9410176F
:102E2000DC01FC01672F71917723E1F7329704C031
:102E30007C916D9370836291AE17BF07C8F30895BC
:102E4000F999FECF92BD81BDF89A992780B5089572
:102E5000262FF999FECF1FBA92BD81BD20BD0FB6B6
:102E6000F894FA9AF99A0FBE019608952F923F921C
:102E70004F925F926F927F928F929F92AF92BF928A
:102E8000CF92DF92EF92FF920F931F93CF93DF9336
:102E9000CDB7DEB7CA1BDB0B0FB6F894DEBF0FBE93
:102EA000CDBF09942A88398848885F846E847D84E0
:102EB0008C849B84AA84B984C884DF80EE80FD80E2
:102EC0000C811B81AA81B981CE0FD11D0FB6F89458
:102ED000DEBF0FBECDBFED01089597FB072E16F4A0
:102EE000009407D077FD09D00E94A91707FC05D0F0
:102EF0003EF4909581959F4F0895709561957F4F11
:102F00000895A1E21A2EAA1BBB1BFD010DC0AA1F2A
:102F1000BB1FEE1FFF1FA217B307E407F50720F042
:102F2000A21BB30BE40BF50B661F771F881F991FBD
:102F30001A9469F760957095809590959B01AC0106
:102F4000BD01CF010895EE0FFF1F0590F491E02D14
:102F50000994AA1BBB1B51E107C0AA1FBB1FA617E0
:102F6000B70710F0A61BB70B881F991F5A95A9F732
:102F700080959095BC01CD0108950F931F93CF9339
:102F8000DF938230910510F482E090E0E0919504A7
:102F9000F091960430E020E0B0E0A0E0309799F4A2
:102FA0002115310509F44AC0281B390B243031059D
:102FB000D8F58A819B816115710589F1FB019383A5
:102FC0008283FE0111C04081518102811381481723
:102FD0005907E0F04817590799F4109761F01296D5
:102FE0000C93129713961C933296CF01DF91CF91D9
:102FF0001F910F9108950093950410939604F4CFB8
:103000002115310551F04217530738F0A901DB01B2
:103010009A01BD01DF01F801C1CFEF01F9CF909313
:10302000960480939504CDCFFE01E20FF31F8193A8
:1030300091932250310939832883D7CF209193046B
:1030400030919404232B41F420910B0130910C0119
:1030500030939404209393042091090130910A0144
:103060002115310541F42DB73EB740910D01509126
:103070000E01241B350BE0919304F0919404E217A8
:10308000F307A0F42E1B3F0B2817390778F0AC018B
:103090004E5F5F4F2417350748F04E0F5F1F509368
:1030A000940440939304819391939FCFF0E0E0E0E8
:1030B0009CCFCF93DF930097E9F0FC013297138206
:1030C0001282A0919504B0919604ED0130E020E0C9
:1030D0001097A1F420813181820F931F20919304D6
:1030E000309194042817390709F061C0F0939404D3
:1030F000E0939304DF91CF910895EA01CE17DF07A3
:10310000E8F54A815B819E0141155105B1F7E9015E
:10311000FB83EA8349915991C40FD51FEC17FD0732
:1031200061F4808191810296840F951FE901998352
:103130008883828193819B838A83F0E0E0E012960A
:103140008D919C9113970097B9F52D913C91119712
:10315000CD010296820F931F209193043091940425
:103160002817390739F6309751F5109296041092C6
:103170009504B0939404A0939304BCCFD383C283EB
:1031800040815181840F951FC817D90761F44E5FA4
:103190005F4F88819981480F591F518340838A81ED
:1031A0009B81938382832115310509F0B0CFF09381
:1031B0009604E09395049ECFFD01DC01C0CF1382FD
:1031C0001282D7CFB0E0A0E0E8EEF8E10C94381717
:1031D0008C01009751F4CB010E94BD178C01C801EE
:1031E000CDB7DEB7E0E10C945417FC01E60FF71FF2
:1031F0009C0122503109E217F30708F49DC0D90160
:10320000CD91DC911197C617D70798F0C530D1053D
:1032100030F3CE0104978617970708F3C61BD70B28
:103220002297C193D1936D937C93CF010E9459183B
:10323000D6CF5B01AC1ABD0A4C018C0E9D1EA0912D
:103240009504B0919604512C412CF12CE12C10974F
:1032500031F580919304909194048815990509F0B3
:103260005CC04616570608F058C08091090190913D
:103270000A01009741F48DB79EB740910D0150911E
:103280000E01841B950BE817F90708F055C0F09361
:103290009404E0939304F90171836083A0CF8D912E
:1032A0009C91119712966C90129713967C9013979D
:1032B000A815B90559F56C0142E0C40ED11CCA1419
:1032C000DB0420F1AC014A195B09DA01129615976B
:1032D00080F06282738251834083D9016D937C9325
:1032E000E114F10471F0D7011396FC93EE93129759
:1032F00076CF22968C0F9D1FF90191838083F30175
:10330000EFCFF0939604E093950469CF48165906E1
:1033100008F42C017D01D3019ACFCB010E94BD1787
:103320007C01009749F0AE01B8010E949F19C801C5
:103330000E945918870153CF10E000E050CFFB01E5
:10334000DC0102C001900D9241505040D8F7089521
:10335000FB01DC0101900D920020E1F7089510E0DF
:10336000C2E6D0E004C0FE010E94A3172196C33636
:08337000D107C9F7F894FFCF63
:1033780000040004000401FFFF0000970480005EC1
:1033880001F4018A02020304090807060500000087
:10339800004603A602D30293030403E202F60200E6
:1033A80000000057052A050207000523051005013E
:1033B80005000000006F06A60202070005CB06E123
:0633C8000657060D0A0085
:00000001FF
