:100000000C9463000C948B000C948B000C94130BD9
:100010000C94130B0C94130B0C948B000C948B000E
:100020000C948B000C948B000C948B000C948B0024
:100030000C948B000C948B000C948B000C948B0014
:100040000C9452090C948B000C94C2090C949C09DA
:100050000C948B000C948B000C948B000C948B00F4
:100060000C94F4090C948B0000000000240027007D
:100070002A0000000008000201000003040700003D
:1000800000000000000000000000230026002900FE
:1000900000000000250028002B00040404040404D0
:1000A0000404020202020202030303030303010227
:1000B00004081020408001020408102001020408F6
:1000C00010208B0BD11711241FBECFEFD8E0DEBF5D
:1000D000CDBF24E0ACE5B1E001C01D92A73AB20764
:1000E000E1F711E0A0E0B1E0E6E6F5E302C005903B
:1000F0000D92AC35B107D9F710E0C2E6D0E004C0EC
:100100002197FE010E949A18C136D107C9F70E94B3
:100110008B0C0C94A61A0C940000FC01A089B189E8
:1001200082E08C93A485B5851C92A685B7858FEC5B
:100130008C93108EA489B5896C93A289B3898C9114
:1001400080618C93A289B3898C9188608C93A289F9
:10015000B3898C9180688C930288F389E02D80812B
:100160008F7D80830895482FEBE6F3E020E08FEF4A
:100170009FEF241791F03191832738E0BC01617023
:10018000772796958795672B21F051E0852750EAD0
:100190009527315099F72F5FECCF0895833081F088
:1001A00028F4813099F08230A9F008958730A9F0C1
:1001B0008830C9F08430B1F4809180008F7D03C015
:1001C000809180008F7780938000089584B58F7729
:1001D00084BD089584B58F7DFBCF8091B0008F776B
:1001E0008093B00008958091B0008F7DF9CFCF93B8
:1001F000DF93282F30E0F901EE58FF4F8491F90189
:10020000E255FF4FD491F901E656FF4FC491CC233C
:10021000A1F081110E94CE00EC2FF0E0EE0FFF1F45
:10022000EA57FF4FA591B491EC91ED2381E090E066
:1002300009F480E0DF91CF91089580E090E0FACF5B
:100240001F93CF93DF93282F30E0F901EE58FF4F33
:100250008491F901E255FF4FD491F901E656FF4F21
:10026000C491CC23A9F0162F81110E94CE00EC2F4F
:10027000F0E0EE0FFF1FE057FF4FA591B4918FB74D
:10028000F894EC91111108C0D095DE23DC938FBF58
:10029000DF91CF911F910895DE2BF8CFCF93DF939D
:1002A00090916B03992309F44BC0C82F0E94B300AF
:1002B000D0E0FE01EC59FC4F8783908780916A0360
:1002C0008F3F19F061E00E942001809168039091B6
:1002D0006903AE014E5F5F4FDC01ED91FC9102803E
:1002E000F381E02D6BE673E00995809168039091AE
:1002F0006903DC01ED91FC910680F781E02D099501
:1003000080916A038F3F19F060E00E942001809184
:10031000680390916903DC01ED91FC910084F18503
:10032000E02D0995892B61F0809168039091690314
:10033000DC01ED91FC910284F385E02D0995E7CF76
:10034000DF91CF910895E4E6F3E09085906890877F
:10035000818783E00C944E01CF93DF9390E0FC0102
:10036000E255FF4F249186569F4FFC0184918823CC
:10037000D1F090E0880F991FFC01E859FF4FA5913B
:10038000B491FC01E057FF4FC591D49161110EC0AB
:100390009FB7F8948C91E22FE0958E238C9328815F
:1003A000E223E8839FBFDF91CF9108958FB7F89440
:1003B000EC91E22BEC938FBFF6CF8E3008F08E508D
:1003C0008770806480937C0080917A008064809341
:1003D0007A0080917A0086FDFCCF80917800909120
:1003E000790008953FB7F8948091370290913802D0
:1003F000A0913902B0913A0226B5A89B05C02F3FC3
:1004000019F00196A11DB11D3FBFBA2FA92F982F3A
:100410008827BC01CD01620F711D811D911D42E035
:10042000660F771F881F991F4A95D1F708958F92FD
:100430009F92AF92BF92CF92DF92EF92FF924B01C9
:100440005C010E94F2016B017C010E94F2016C19B7
:100450007D098E099F09683E734081059105A8F3C7
:1004600021E0821A9108A108B10888EEC80E83E045
:10047000D81EE11CF11C81149104A104B10429F7D8
:10048000FF90EF90DF90CF90BF90AF909F908F90B4
:1004900008952FB7F89460913302709134028091DF
:1004A0003502909136022FBF08950F931F938091CC
:1004B0004A0390914B03019709F054C0809148037F
:1004C00090914903019721F50E944902AB01BC01BB
:1004D0008091440390914503A0914603B091470356
:1004E0000091400310914103209142033091430356
:1004F000801B910BA20BB30B840F951FA61FB71F78
:100500008093440390934503A0934603B09347031D
:100510008091480390914903892B21F50E94F201B3
:10052000AB01BC018091440390914503A091460327
:10053000B091470300914003109141032091420381
:1005400030914303801B910BA20BB30B840F951FBB
:10055000A61FB71F8093440390934503A0934603BF
:10056000B093470310924B0310924A031F910F91CF
:10057000089508950895FC01248135816217730759
:1005800048F480819181009729F0860F971FFC0124
:100590008081089580E00895AF92BF92CF92DF925C
:1005A000EF92FF920F931F93CF93DF936C017B0128
:1005B0008B01040F151FEB015E01AE18BF08C017B9
:1005C000D10759F06991D601ED91FC910190F0812C
:1005D000E02DC6010995892B79F7C501DF91CF91EF
:1005E0001F910F91FF90EF90DF90CF90BF90AF9051
:1005F0000895FC01538D448D252F30E0842F90E029
:10060000821B930B541710F0CF960895019708950D
:10061000FC01918D828D981761F0A28DAE0FBF2FD6
:10062000B11D5D968C91928D9F5F9F73928F90E02C
:1006300008958FEF9FEF0895FC01918D828D98179B
:1006400031F0828DE80FF11D858D90E008958FEFD8
:100650009FEF0895FC01918D228D892F90E0805CA1
:100660009F4F821B91098F73992708958BE892E021
:100670000E942A0321E0892B09F420E0822F0895AB
:1006800080E090E0892B29F00E94360381110C94C0
:1006900000000895FC01A48DA80FB92FB11DA35A25
:1006A000BF4F2C91848D90E001968F739927848F92
:1006B000A689B7892C93A089B1898C9183708064B5
:1006C0008C93938D848D981306C00288F389E02D56
:1006D00080818F7D80830895EF92FF920F931F9307
:1006E000CF93DF93EC0181E0888F9B8D8C8D9813E5
:1006F0001AC0E889F989808185FF15C09FB7F894F1
:10070000EE89FF896083E889F9898081837080643C
:1007100080839FBF81E090E0DF91CF911F910F9187
:10072000FF90EF900895F62E0B8D10E00F5F1F4F96
:100730000F731127E02E8C8D8E110CC00FB607FCA5
:10074000FACFE889F989808185FFF5CFCE010E9433
:100750004A03F1CFEB8DEC0FFD2FF11DE35AFF4F54
:10076000F0829FB7F8940B8FEA89FB8980818062C1
:10077000CFCFCF93DF93EC01888D8823B9F0AA897E
:10078000BB89E889F9898C9185FD03C0808186FD4C
:100790000DC00FB607FCF7CF8C9185FFF2CF80819B
:1007A00085FFEDCFCE010E944A03E9CFDF91CF91C3
:1007B00008952091DD01260F3327331F21323105A3
:1007C000ECF420916102FC0190E080E0243069F0BB
:1007D00082E00895A091DD012191AC0143545E4F68
:1007E000A40FB52FB11D2C930196861798F3809115
:1007F000DD01680F6093DD0180E0089581E00895D8
:100800001092610281E08093600210923B0261E0ED
:1008100082E10E94200161E083E10E942001E9EB76
:10082000F0E080818E7F808380818D7F808388E46B
:100830008093B80085E48093BC000895CF93DF9344
:1008400091E09093BC018823B9F0C091B800D09199
:10085000BA008091BC008A7B8093BC0060E082E19A
:100860000E94200160E083E10E9420010E940004B8
:10087000D093BA00C093B800DF91CF910895CF9282
:10088000DF92EF92FF920F931F93CF93DF93D0915C
:100890008A0281E0D13208F09CC0C09189020E9496
:1008A000F2016B017C018091610281116CC082E0D8
:1008B0008093610281E0809360028FEF80935F02FA
:1008C00010925E02D0935D02A9E6B2E0EDE3F2E0A1
:1008D00080E0D8138DC010923C0280913C02CC0F76
:1008E000C82BC0933C0280913B02813009F084C048
:1008F00010923B020E94F2016B017C0180913C024C
:100900008093BB008091630290916402A091650284
:10091000B0916602892B8A2B8B2BA1F00E94F201E9
:100920000091630210916402209165023091660289
:100930006C197D098E099F090617170728073907C3
:1009400008F442C08091BC0083FDD8CF85EC809331
:10095000BC000E94F2016B017C0180916102823037
:1009600009F44CC080915F028F3F09F469C0809107
:100970005F02803209F466C080915F02803309F41F
:1009800063C084E026C08091630290916402A091CC
:100990006502B0916602892B8A2B8B2B09F483CFD9
:1009A0000E94F2010091630210916402209165029D
:1009B000309166026C197D098E099F090617170789
:1009C0002807390708F06FCF809162020E941E0449
:1009D00085E01092680210928A0210926702DF91FD
:1009E000CF911F910F91FF90EF90DF90CF900895DE
:1009F0009D9191938F5F6DCF85EEA9CF809163021A
:100A000090916402A0916502B0916602892B8A2BB5
:100A10008B2B09F4A2CF0E94F20100916302109186
:100A2000640220916502309166026C197D098E097D
:100A30009F09061717072807390708F08ECFC4CF7C
:100A400080E0C7CF82E0C5CF83E0C3CF0895E091B7
:100A5000090280910802E81730F4F0E0E456FE4FF6
:100A6000808190E008958FEF9FEF089590910902A3
:100A7000809108022FEF3FEF981748F4E92FF0E03C
:100A8000E456FE4F208130E09F5F90930902C90138
:100A900008958091080290910902891B990B08958D
:100AA000CF92DF92EF92FF920F931F93CF93DF933A
:100AB0007C01CB018A0120916702222389F0EB019E
:100AC0006B01C40ED51ECC15DD0569F06991D70107
:100AD000ED91FC910190F081E02DC7010995F3CFD4
:100AE000642F0E94D903C801DF91CF911F910F910C
:100AF000FF90EF90DF90CF900895CF93DF931F92F8
:100B0000CDB7DEB76983209167022223F9F02091E7
:100B10008A02203258F021E030E0FC013383228346
:100B200090E080E00F90DF91CF910895809168026E
:100B3000E82FF0E0E759FD4F998190838F5F809314
:100B4000680280938A0281E090E0ECCF61E0CE0100
:100B500001960E94D903F7CF682F88E293E00C94A6
:100B60007D050F931F93CF93DF93FC01228533857F
:100B70002130310531F5EC012085318521303105F9
:100B8000D9F40E944902AB01BC018C819D81AE81E8
:100B9000BF81088119812A813B81801B910BA20BA7
:100BA000B30B840F951FA61FB71FBC01CD01DF91AA
:100BB000CF911F910F910895232B19F40E94F201F8
:100BC000E2CFFC0184819581A681B781EECFCF93DE
:100BD000DF93FC012285338522303105C9F4EC0115
:100BE00080859185019731F40E9449026883798359
:100BF0008A839B8388859985892B31F40E94F20131
:100C0000688379838A839B8381E090E09B878A87CE
:100C1000DF91CF910895CF92DF92EF92FF920F93E1
:100C20001F93CF93DF93FC0122853385213031055B
:100C3000C9F5EC01808591850197B1F4C480D58018
:100C4000E680F7800E944902088119812A813B8150
:100C5000C01AD10AE20AF30AC60ED71EE81EF91E10
:100C6000CC82DD82EE82FF8288859985892BB1F462
:100C7000CC80DD80EE80FF800E94F2010881198126
:100C80002A813B81C01AD10AE20AF30AC60ED71E96
:100C9000E81EF91ECC82DD82EE82FF8282E090E0C7
:100CA0009B878A87DF91CF911F910F91FF90EF90E3
:100CB000DF90CF900895CF93DF93EC011C821D82CB
:100CC0001E821F8288859985019731F40E9449020E
:100CD000688379838A839B8388859985892B31F4FE
:100CE0000E94F201688379838A839B8381E090E08C
:100CF0009B878A87DF91CF910895209102023091DE
:100D000003022817390771F49091000280910102C3
:100D1000981741F0E0910002F0E0E45AFE4F808124
:100D200090E008958FEF9FEF0895EF92FF920F9359
:100D30001F93CF93DF93DC015C96ED90FC905D9761
:100D4000E114F10479F481E090E013969C938E9382
:100D5000129790E080E0DF91CF911F910F91FF906B
:100D6000EF9008955196ED91FC91529750968C9189
:100D70005097982F90950FB75E962C915E97122FF3
:100D8000127021FD6095F8942081112319F1282B10
:100D90002083E7012197F1F728E0462F50E03081CA
:100DA00060FF1AC0382B3083E7012197F1F7BA01B1
:100DB00075956795215089F7112381F080818923EA
:100DC00080830FBF5C968D919C910197F1F781E034
:100DD00090E0C1CF2923DCCF3923E5CF9081892B47
:100DE000EFCF20910202309103022817390761F4F6
:100DF000809101022091000290E0805C9F4F821B55
:100E000091098F739927089590E080E008952091CB
:100E100002023091030228173907B9F490910002B9
:100E200080910102981789F0E0910002F0E0E45A05
:100E3000FE4F80812091000230E02F5F3F4F2F73E3
:100E400033272093000290E008958FEF9FEF0895DD
:100E500090E080E0089580910E02813091F018F0CA
:100E60008230E1F0089560E08DE00E94200168EE9C
:100E700073E080E090E00E94170261E08DE00C9446
:100E8000200160E081E10E94200168EE73E080E0D3
:100E900090E00E94170261E081E1F1CF60E08DE017
:100EA0000E94200160E081E10E94200168EE73E071
:100EB00080E090E00E94170261E08DE00E94200136
:100EC000EACF60E08DE00E9420016AE070E080E0FF
:100ED00090E00E94170261E08DE00E9420016AE02C
:100EE00070E080E090E00E94170260E081E10E94E3
:100EF00020016AE070E080E090E00E94170261E06B
:100F000081E10E9420016AE070E080E090E00E94B0
:100F1000170260E08DE00E9420016AE070E080E04E
:100F200090E00E94170261E08DE00E9420016AE0DB
:100F300070E080E090E00C941702CF92DF92FF9275
:100F40000F931F93CF93DF93EC01F62E862F0E9411
:100F5000DD010BE91FE0C8010197F1F78F2D0E9419
:100F6000DD01CC0FDD1FC050DF4F19821882C80190
:100F70000197F1F70AE010E09BECC92E97E0D92E1B
:100F80008F2D0E94DD0128813981820F931F998363
:100F90008883F6013197F1F70150110989F76AE06A
:100FA00070E00E94641879836883A895DF91CF91DF
:100FB0001F910F91FF90DF90CF900895CF93DF9313
:100FC000C4E1D0E060E08DE00E94200169E170E0C2
:100FD00080E090E00E94170261E08DE00E94200115
:100FE00069E170E080E090E00E94170260E081E13A
:100FF0000E94200169E170E080E090E00E94170209
:1010000061E081E10E94200169E170E080E090E010
:101010000E9417022197B1F6DF91CF910895FC014C
:1010200001900020E9F73197AF01481B590BBC0133
:101030008BE892E00C94CC028F929F92AF92BF9279
:101040000F931F93CF93DF93CDB7DEB7A1970FB662
:10105000F894DEBF0FBECDBF19A2423008F44AE0BB
:101060008E010F5D1F4F842E912CB12CA12CA50158
:1010700094010E947818E62FB901CA01EA30F4F40D
:10108000E05DD801EE938D01232B242B252B79F7DE
:1010900090E080E0109719F0CD010E940F08A19612
:1010A0000FB6F894DEBF0FBECDBFDF91CF911F9179
:1010B0000F91BF90AF909F908F900895E95CE1CF22
:1010C000CF92DF92EF92FF92CF93C82F0E94DD0163
:1010D0006C01990FEE08FF084AE0C701B601F7FE60
:1010E0000DC06DE28BE892E00E946C0366277727C3
:1010F000CB016C197D098E099F094AE00E941C08EA
:1011000083E591E00E940F088C2F0E94DD0121E011
:10111000833F93400CF020E0822FCF91FF90EF901F
:10112000DF90CF900895FC0180819181009711F0AC
:101130000C9450190895CF92DF92EF92FF920F9383
:101140001F93CF93DF93CDB7DEB729970FB6F894EF
:10115000DEBF0FBECDBF8C01862FF8011182108239
:1011600013821282158214824AE09E012F5F3F4F44
:101170006901B90190E00E94ED17F601019000208D
:10118000E9F731977F01EC18FD08F8018081918122
:10119000009729F0228133812E153F0590F4B70185
:1011A0006F5F7F4F0E94D919F801009799F09183E2
:1011B0008083F382E28224813581232B11F4FC01A8
:1011C0001082F801F582E482B601808191810E944B
:1011D0009F1A0DC080819181009711F00E945019D3
:1011E000F8011182108215821482138212822996CC
:1011F0000FB6F894DEBF0FBECDBFDF91CF911F9128
:101200000F91FF90EF90DF90CF90089585ED809340
:10121000BC008091630290916402A0916502B0913C
:1012200066020796A11DB11D23E0B695A795979577
:1012300087952A95D1F72091BC0024FD03C0109218
:1012400061020895409163025091640260916502C9
:1012500070916602452B462B472B69F30097A10539
:10126000B10541F02AE22A95F1F700C00197A109E2
:10127000B109E1CF809162020C941E041F93CF93B9
:10128000DF93EC01162F0E941718181739F0612F01
:10129000CE01DF91CF911F910C941F18DF91CF9158
:1012A0001F9108951F920F920FB60F9211242F9342
:1012B0003F938F939F93AF93BF938091330290910D
:1012C0003402A0913502B09136023091320223E00F
:1012D000230F2D3758F50196A11DB11D2093320221
:1012E0008093330290933402A0933502B093360278
:1012F0008091370290913802A0913902B0913A0260
:101300000196A11DB11D8093370290933802A093DE
:101310003902B0933A02BF91AF919F918F913F9163
:101320002F910F900FBE0F901F90189526E8230F56
:101330000296A11DB11DD2CF1F920F920FB60F9230
:1013400011242F933F934F935F936F937F938F93CA
:101350009F93AF93BF93EF93FF938BE892E00E942C
:101360004A03FF91EF91BF91AF919F918F917F9130
:101370006F915F914F913F912F910F900FBE0F9002
:101380001F9018951F920F920FB60F9211242F9352
:101390008F939F93EF93FF93E0919B02F0919C02B8
:1013A0008081E091A102F091A20282FD1BC0908198
:1013B0008091A4028F5F8F732091A502821741F064
:1013C000E091A402F0E0E557FD4F958F8093A402D1
:1013D000FF91EF919F918F912F910F900FBE0F90E2
:1013E0001F9018958081F4CF1F920F920FB60F9225
:1013F00011242F933F934F935F936F937F938F931A
:101400009F93AF93BF93EF93FF938091B900887F31
:10141000803609F44AC0F0F5883209F4A7C018F5FF
:10142000803109F49BC0B8F4882309F4F9C08830EE
:1014300009F494C0FF91EF91BF91AF919F918F916B
:101440007F916F915F914F913F912F910F900FBEC0
:101450000F901F901895883109F488C0803251F799
:1014600080935F0214C0803409F49DC040F480333F
:10147000B9F38833F9F680935F0285ECB0C080350C
:1014800009F485C0883509F496C0883499F60E941D
:101490000609D0CF883909F48CC038F5883729F08F
:1014A00050F4883611F0803729F683E0809361028A
:1014B0001092FF0157C0883809F47BC0803919F0B9
:1014C000803809F0B7CF8091FF01803208F071C0F9
:1014D000E091FF0181E08E0F8093FF018091BB00BE
:1014E000F0E0E152FE4F80833DC0803B39F0E0F4F4
:1014F000803A09F479C0883A09F09CCF84E080935F
:1015000061021092DE011092DD01E0910602F0917D
:10151000070209958091DD0181110FC081E0809360
:10152000DD011092BD0109C0803C09F4A6CF883CC2
:1015300009F4A3CF883B09F07DCFE091DE0181E083
:101540008E0F8093DE01F0E0E354FE4F80818093A4
:10155000BB009091DE018091DD0129C080913C02A9
:101560008093BB0085EC8093BC0064CF90915E02B9
:1015700080915D02981758F5E0915E0281E08E0F30
:1015800080935E02F0E0E35CFD4F8081E9CFE09163
:101590005E0281E08E0F80935E028091BB00F0E0DE
:1015A000E35CFD4F808390915E0280915D0298170D
:1015B000C8F285E8D8CFE0915E0281E08E0F80937B
:1015C0005E028091BB00F0E0E35CFD4F8083809180
:1015D000600281115CCF81E080933B0284EA8093BA
:1015E000BC001092610226CF85EC8093BC00109263
:1015F00061028091FF01803230F4E091FF01F0E060
:10160000E152FE4F10826091FF0170E0E091040210
:10161000F09105028FED91E009951092FF010ACF3C
:1016200010925F0234CF1F920F920FB60F921124C7
:101630002F933F934F935F936F937F938F939F93DA
:10164000AF93BF93EF93FF93E0910202F0910302F7
:10165000309749F0A685B7858585968D91FF14C092
:101660009C918923A1F4FF91EF91BF91AF919F913C
:101670008F917F916F915F914F913F912F910F903B
:101680000FBE0F901F9018959C91892361F7A38935
:10169000B4899C918589809589238C9386899789C3
:1016A0000197F1F7608D718DA685B785558538E076
:1016B00020E0CB010197F1F7822F90E09595879577
:1016C000282F4C91452309F02068315091F7868DE1
:1016D00081FD20958091010290E001968F739927FA
:1016E00030910002381799F0A0910102B0E0A45A9D
:1016F000BE4F2C9380930102828D938D0197F1F759
:10170000A389B4898C919589892B8C93ACCF868DD4
:101710008160868FF1CF10928E0210928D0288EE3A
:1017200093E0A0E0B0E080938F0290939002A093AA
:101730009102B093920221E231E030938C02209327
:101740008B0225EC30E0309398022093970224EC32
:1017500030E030939A022093990220EC30E03093ED
:101760009C0220939B0221EC30E030939E02209358
:101770009D0222EC30E03093A00220939F0226ECE1
:1017800030E03093A2022093A1021092A4021092A2
:10179000A5021092A6021092A70210922B0310929B
:1017A0002A0380932C0390932D03A0932E03B093D0
:1017B0002F0323E331E03093290320932803109271
:1017C0008704109286048093880490938904A093E0
:1017D0008A04B0938B0485E491E090938504809310
:1017E000840410929B0410929A0410929D0410920B
:1017F0009C0410929F0410929E041092A1041092D7
:10180000A0046091A2046E7F6D7F6093A204669530
:10181000617081E068278BE00E94200161E08BE02D
:101820000E94AC01E9EBF0E0E491E0939404E5EA76
:10183000F0E0E491F0E0EE0FFF1FE057FF4F8591DD
:101840009491909396048093950460E08AE00E94BE
:10185000AC018091A20481FD04C061E08AE00E9495
:10186000200184E894E02AE020939004E8EBF0E083
:10187000E491E0939104E4EAF0E0E491F0E0EE0F0B
:10188000FF1FEA57FF4F2591349130939304209323
:1018900092041092740410927304109276041092C1
:1018A0007504109278041092770410927A041092C2
:1018B00079041092650310926403909367038093F8
:1018C0006603909369038093680310926C041092EE
:1018D0006B0410926E0410926D04109270041092BA
:1018E0006F04109272041092710482E080936A0374
:1018F00081E090E09093610380936003909355039F
:1019000080935403909349038093480390933D033D
:1019100080933C030895CF93DF9300D000D000D094
:10192000CDB7DEB7789484B5826084BD84B581601C
:1019300084BD85B5826085BD85B5816085BD80919A
:101940006E00816080936E00109281008091810012
:10195000826080938100809181008160809381000A
:10196000809180008160809380008091B1008460CC
:101970008093B1008091B00081608093B00080912D
:101980007A00846080937A0080917A0082608093EC
:101990007A0080917A00816080937A0080917A0049
:1019A000806880937A001092C10080E490E00E94E9
:1019B00017188034A1F060E480E490E00E943E09B2
:1019C00061E081E090E00E943E0961E082E090E009
:1019D0000E943E0961E083E090E00E943E0981E0C0
:1019E00090E00E941718182F8093120282E090E076
:1019F0000E94171880930E02E82FF0E0EE0FFF1FF1
:101A0000E15FFE4F8081918190930D0280930C02E3
:101A100083E090E00E94171891E0811101C090E0EE
:101A20009093310261E08DE00E94AC0161E081E1C0
:101A30000E94AC0160E088E00E94AC0160E089E0B7
:101A40000E94AC0161E087E00E94AC0161E083E0AC
:101A50000E94AC0161E084E00E94AC0161E085E09D
:101A60000E94AC0161E086E00E94AC0161E08CE084
:101A70000E94AC0160E08CE00E94200161E081E105
:101A80000E94200161E08DE00E9420018DE192E042
:101A900090936E0480936D0484E190E090937604BB
:101AA0008093750484E192E09093700480936F04B6
:101AB00083E090E090937804809377048FEF810F18
:101AC000873F08F060C110937B048091640390917C
:101AD0006503009709F45AC14CE25AE060E070E0F7
:101AE00040937C0450937D0460937E0470937F0444
:101AF0004FE452E160E070E0409380045093810431
:101B0000609382047093830466E00E948D0080914C
:101B10006A038F3F41F061E00E94AC0160E0809178
:101B20006A030E9420010E94F2016B017C018091F6
:101B3000680390916903DC01ED91FC910084F185CB
:101B4000E02D0995892B79F00E94F2016B017C014F
:101B50008091680390916903DC01ED91FC9102840E
:101B6000F385E02D09950E94F2016C197D098E091B
:101B70009F0900918004109181042091820430918A
:101B80008304601771078207930788F21092090295
:101B9000109208020E94000489EB92E090930702E1
:101BA000809306028AEB92E09093050280930402F0
:101BB0008CE08093B80081E08093670287E2809395
:101BC00089021092680210928A0286E090E00E94D8
:101BD000AC0590E080E00E94AC0590E080E00E94BF
:101BE000AC050E943F0488E593E00E945B068CE40C
:101BF00093E00E945B0684E393E00E945B0664E648
:101C000070E080E090E00E94170266E08BE892E0CE
:101C10000E948D00312C212C412C512C32014394F7
:101C200001E011E084E393E00E94B10520EA3FE087
:101C300040E050E00E947818643F714081059105B2
:101C400008F075C190E080E00E946008811144C1F5
:101C50001093270281E090E00E94600881113FC14B
:101C6000109328026EE070E090E080E00E949D07F3
:101C700065E070E080E090E00E9417026FE070E0A5
:101C800081E090E00E949D0765E070E080E090E0D8
:101C90000E94170280910C0290910D022091000188
:101CA00030910101281739070CF01CC110931D0257
:101CB0001092270220910201309103012817390761
:101CC0000CF013C110931E021092280210920B0206
:101CD00010920A02E0900A02F0900B02E8E0EE1681
:101CE000F1040CF00CC16E2D617083E00E942001A4
:101CF000B70175956795617084E00E942001B70176
:101D00007595679575956795617085E00E942001CE
:101D100060E170E082E090E00E949D0765E070E085
:101D200080E090E00E941702F8E0EF16F10408F05E
:101D3000DFC0F701EB5EFE4FE080F12C82E090E027
:101D40000E946008D701A95DBD4F8111D4C00C93DA
:101D5000209104013091050180910C0290910D02B7
:101D6000F701E35EFD4F281739070CF0C6C000836A
:101D70001C9280910A0290910B02019690930B02A3
:101D800080930A02A7CF10927B049FCEE091660356
:101D9000F0916703309709F4BACE8CE29AE0A0E0A4
:101DA000B0E080937C0490937D04A0937E04B09374
:101DB0007F048FE492E1A0E0B0E0809380049093F0
:101DC0008104A0938204B0938304138E128E118E2B
:101DD000108E178A168A8DE991E0958F848F8485FD
:101DE0008631E0F52DEB30E0378B268B2BE931E0A7
:101DF000318F208F2CE231E0338F228F9091680059
:101E0000883008F45AC021E08E3008F420E081E0E8
:101E100001C0880F2A95EAF7892B80936800948582
:101E20002DE630E0983050F02BE630E09E3030F078
:101E30002CE630E0963110F030E020E0348B238B3C
:101E4000292F30E09830D8F581E001C0880F9A95AD
:101E5000EAF7858B848D958D0197F1F7828D938DAF
:101E6000892B09F454CE4091020250910302E417E9
:101E7000F50709F44CCE4115510569F0DA01539686
:101E80002D913C91D9019C91DA0155968C918095C8
:101E90008923D9018C93868D8E7F868F10920102C3
:101EA00010920002F0930302E0930202A389B48926
:101EB0008C919589892B8C932ACE84E0ADCF9E306E
:101EC00040F42850310981E001C0880F2A95EAF7D3
:101ED000C0CF2E503109F7CF10922702BBCE1092FF
:101EE0002802C0CE10921D02E5CE10921E02EECE48
:101EF000F12CE12C23CF1C922BCF10823ACF86E518
:101F000091E00E940F0883E591E00E940F08809104
:101F10003102882311F40C94CB1710922C021092EA
:101F20002D0210922E0210922F0210923002209158
:101F30001D0280910701909131029111A9C19091E8
:101F40000801211105C020912702222309F48CC128
:101F50009F7E909308019091080120911E0221110B
:101F600005C020912802222309F480C1977F909315
:101F7000080190911F02911105C0909129029923A7
:101F800009F476C18E7F80930701809107019091BB
:101F90002002911105C090912A02992309F46AC187
:101FA0008D7F80930701809107019091210291110B
:101FB00005C090912B02992309F45EC18B7F809319
:101FC00007018091070190912202911105C0909123
:101FD0002C02992309F452C1877F809307018091D5
:101FE000070190912302911105C090912D02992330
:101FF00009F446C18F7E809307018091080190917A
:102000002402911105C090912E02992309F43AC13E
:102010008E7F809308018091080190912502911193
:1020200005C090912F02992309F42EC18D7F8093D2
:1020300008018091080190912602911105C09091AC
:102040003002992309F422C18B7F809308011093F9
:10205000670227E2209389021092680210928A0296
:1020600082E090E00E94AC050E944902F0900701D6
:1020700024EF31E040E050E00E9478186A3F71059B
:102080008105910508F04CC16F2D88E293E00E9414
:102090007D056091080188E293E00E947D058091B2
:1020A0001C0260E0811145C10E943F048FEFF812CD
:1020B00044C1809108018F3F09F03FC110921C027A
:1020C00061E087E00E9420010E94490220EA3FE08F
:1020D00040E050E00E9478186C3271408105910513
:1020E00008F031C180911B0281112DC180911A022B
:1020F000811129C160E081E10E9420016AE070E065
:1021000080E090E00E94170261E081E10E942001DE
:1021100064E670E080E090E00E94170260E081E1F8
:102120000E9420018091680390916903DC01ED9188
:10213000FC910084F185E02D0995892B09F468C193
:10214000812C912C5401F12CE12C80916803909109
:102150006903DC01ED91FC910084F185E02D099586
:10216000892BB1F00E94F2014B015C018091680360
:1021700090916903DC01ED91FC910284F385E02DDF
:102180000995F701EC59FC4F8783BFEFEB1AFB0A67
:102190000E94F201681979098A099B0920917C043F
:1021A00030917D0440917E0450917F0426173707BB
:1021B0004807590728F0EFEFEE16F10431F228F244
:1021C0000E94F201681979098A099B09209180040B
:1021D0003091810440918204509183046217730707
:1021E0008407950768F38091680390916903DC0187
:1021F000ED91FC910084F185E02D0995892B09F082
:1022000007C180916B0390917B04891711F08111B4
:10221000FFC08EEF8E0D0E94B300F701EC59FC4F0A
:10222000268135812327322723278217930709F038
:10223000EFC0E0916C03E150E03108F0A1C0F0E0A4
:10224000EC5DFE4E0C949A18A51100135F13B113A8
:1022500003143614C011C011C011C011C011C01137
:10226000C011C0115E14BF14906173CE98607FCE10
:10227000816089CE826095CE8460A1CE8860ADCE2B
:102280008061B9CE8160C5CE8260D1CE8460DDCE62
:10229000211104C0909127029923C1F18E7F809370
:1022A00007018091070190911E02911104C0909145
:1022B0002802992369F18D7F80930701809107019E
:1022C00090911F02911104C090912902992311F15C
:1022D0008B7F8093070180910701909120029111DB
:1022E00004C090912A029923B9F0877F8093070157
:1022F0008091070190912102911104C090912B02CD
:10230000992361F08F7E80930701A1CE8160C7CFB2
:102310008260D2CF8460DDCF8860E8CF8061F3CF68
:102320008FEF90E00E94AC058FEF90E00E94AC052B
:1023300061E08DE00E942001B7CE10931C0260E0A6
:1023400087E00E94200161E0EACE60916D03709108
:102350006E0376276727762780916F03909170032D
:10236000982789279827A0916B04B0916C04109747
:1023700039F040917304509174044115510511F4E2
:1023800081E006C0FC013197E03DF74020F083E09A
:102390000E94A3013DC04817590728F0481B590B5C
:1023A0004617570710F482E0F3CFAC01495F5F4F47
:1023B00033E0569547953A95E1F740936D03A60FA4
:1023C000B71F50E040E06D919A01277033277301E9
:1023D000620104C0CC0CDD1CEE1CFF1C2A95D2F758
:1023E000FA0123E0F695E7952A95E1F7E959FC4FC4
:1023F0002781662309F400C1C22AC7824F5F5F4F5D
:102400004817590701F780916D038D5F0E944E01B7
:102410008091140290911502803C910551F58091B4
:102420001602909117028035910519F560911802F6
:102430007091190290E080E04AE00E941C0883E558
:1024400091E00E940F086091180270911902663E97
:10245000710508F0E6C281E090E00E943E090E940A
:10246000DE0768EE73E080E090E00E941702F10161
:10247000099580911402909115020197D9F48091E9
:102480001602909117020197A9F480911802909179
:102490001902019779F461E081E090E00E943E0921
:1024A0000E94DE0768EE73E080E090E00E94170271
:1024B000F101099580911402909115020A97B1F4E7
:1024C00080911602909117020A9781F48091180268
:1024D000909119020A9751F40E94DE0768EE73E0AA
:1024E00080E090E00E941702F101099580911402AA
:1024F000909115020597E9F48091160290911702C8
:102500000597B9F4A895609118027091190263308B
:10251000710508F088C282E090E00E943E090E94A6
:10252000DE0768EE73E080E090E00E941702F101A0
:1025300009958091140290911502069749F48091B3
:102540001602909117028636910511F4F101099552
:102550008091140290911502C39731F58091160273
:1025600090911702C39701F580911802909119027A
:10257000892B29F460E083E090E00E943E0980917D
:10258000180290911902019729F461E083E090E02C
:102590000E943E090E94DE0768EE73E080E090E052
:1025A0000E941702F10109950FB6F894A895809141
:1025B0006000886180936000109260000FBE88E028
:1025C0000E94F700892B49F480911A02811105C0FD
:1025D00080911C02882309F428C280911302811182
:1025E0000AC388E593E00E945B0688E593E00E94B9
:1025F0000B061092130225C2C0942C212783FECE15
:1026000060916D0370916E0376276727762780911E
:102610006F0390917003982789279827A0916D04E4
:10262000B0916E04109709F4ABCE409175045091AF
:1026300076044115510509F4A3CEFC013197E03D24
:10264000F74008F0A4CE4817590708F4ACCE481B51
:10265000590B4617570708F4A6CEAC01495F5F4FE8
:10266000E3E056954795EA95E1F740936D03A60F91
:10267000B71F50E040E06D919A0127703327730136
:10268000620104C0CC0CDD1CEE1CFF1C2A95D2F7A5
:10269000FA0133E0F695E7953A95E1F7E959FC4FF1
:1026A0002781662341F0C22AC7824F5F5F4F4817D8
:1026B000590709F7A8CEC0942C212783F6CFE091C3
:1026C0006D03F0916E03FE27EF27FE2740916F0404
:1026D000509170044115510509F452CE20917704B0
:1026E000309178042115310509F44ACE80916F03A9
:1026F00090917003982789279827BC016150710930
:102700006D37710508F043CE2817390708F44BCE12
:10271000281B390B2E173F0708F445CE282F220F10
:1027200020936D03EE0FFF1FBF01640F751FA4E61A
:10273000B3E030E020E0FB0141816E5F7F4F1A96ED
:102740004C931A97AB0142505109FA0140811B96F4
:102750004C931B972F5F3F4F12968217930759F7A1
:1027600052CEE0916D03F0916E03FE27EF27FE2716
:1027700040917104509172044115510509F400CE45
:102780002091790430917A042115310509F4F8CDAE
:1027900080916F0390917003982789279827BC0137
:1027A000615071096D37710508F0F1CD28173907AF
:1027B00008F4F9CD281B390B2E173F0708F4F3CD89
:1027C000282F220F20936D03EE0FFF1FBF01640F10
:1027D000751FA4E6B3E030E020E0FB0141816E5FAD
:1027E0007F4F1A964C931A97AB0142505109FA0148
:1027F00040811B964C931B972F5F3F4F12962817D3
:10280000390759F700CE40916D0350916E0354275C
:102810004527542780916F0390917003982789274B
:10282000982720916B0430916C042115310509F42F
:10283000A7CD60917304709174046115710509F45A
:102840009FCD009729F08115FFEF9F0709F09FCDDD
:102850004617570708F0A7CD240F351F41E0892BF5
:1028600009F440E0D9014C9386E0D0CD80916D030E
:1028700090916E0398278927982720916F033091B4
:102880007003322723273227E0916F04F091700400
:10289000309709F475CD4091770450917804411533
:1028A000510509F46DCD8417950708F07CCD880F8C
:1028B000991FE80FF91F31832083D6CF60916D03F4
:1028C00070916E0376276727762780916F0390912A
:1028D000700398278927982720916B0430916C0406
:1028E000232B09F44DCD20917304309174042115EC
:1028F000310509F445CDAC0141505109403BB7E0E9
:102900005B0708F044CDE0917103485F5F4FF3E04F
:1029100056954795FA95E1F7E417150609F037CD76
:102920002817390708F43FCD281B390B261737071E
:1029300008F439CD50E040E0E0916B04F0916C0474
:10294000E40FF51FE60FF71FDA0123E0B695A79510
:102950002A95E1F7AC59BC4F1E962C9130E0DA0174
:10296000A770BB2702C035952795AA95E2F721707D
:1029700020834F5F5F4F48175907F1F675CF80915D
:102980006D0390916E0398278927982720916F03F4
:102990003091700332272327322740916F045091E2
:1029A0007004452B09F4ECCC4091770450917804E5
:1029B0004115510509F4E4CCB901615071096B3737
:1029C000710508F0E4CCE0917103B901660F771F3F
:1029D000E617170609F0DBCC4217530708F4E3CCDF
:1029E000421B530B4817590708F4DDCC880F991F79
:1029F000E4E6F3E050E040E084569340A0916F0499
:102A0000B0917004AE0FBF1FA80FB91F7685678500
:102A10006D937C934F5F5F4F32964217530771F768
:102A200023CF61E018CD60E076CD62E370E080E016
:102A300090E00E9417021093130288E593E00E9431
:102A4000E70588E593E00E94B10568387341810588
:102A50009105B8F080911B0281110DC088E00E94A1
:102A6000F700892B41F40E94DE0780E493E00E9486
:102A70005B0610931B0264E670E080E090E00E9429
:102A8000170288E00E94F700892B09F046C0809168
:102A90001B02882309F441C080911C0281113DC0B2
:102AA00062E370E080E090E00E9417020E9455020D
:102AB00080910601882309F4A5C180911102893013
:102AC00008F09DC18F5F8093110260E081E10E9458
:102AD000200164E670E080E090E00E94170261E06F
:102AE00081E10E94200164E670E080E090E00E94B5
:102AF00017029091100280911102BAE09B9F800D05
:102B000011248093120264E670E080E090E00E945D
:102B1000170280E493E00E945B0689E00E94F700C0
:102B200020911B02892B09F084C1222309F483C15F
:102B300080911C02811140C062E370E080E090E06F
:102B40000E9417020E9455028AE0E82EF12C60E0F4
:102B50008DE00E9420016CE070E080E090E00E9437
:102B6000170261E08DE00E9420016CE070E080E0DF
:102B700090E00E94170260E081E10E9420016CE079
:102B800070E080E090E00E94170261E081E10E9425
:102B900020016CE070E080E090E00E941702E1E02C
:102BA000EE1AF108A1F680910601802780930601B4
:102BB00080E493E00E945B0680E493E00E94B1050C
:102BC000613177428105910508F435C1F090120218
:102BD000FF2039F081E090E00E9417186F2DF81265
:102BE00001C061E081E090E00E943E090E94DE07A2
:102BF000F101099520C180911B028111F2CC0E9444
:102C0000610760911202CE0101960E949B08ED803F
:102C1000FE80CE0101960E949308F2E0EF16F104C7
:102C200009F43FC023E0E216F10409F481C0EA94FC
:102C3000EF2809F0DDC060911202CE0101960E94DA
:102C40009B0870E060E0CE0101960E94BB02E82E76
:102C5000CE0101960E949308EE2009F4C9C0D12C40
:102C6000C12C8E2D8053990B7C01CE14DF040CF007
:102C7000BFC060E081E10E94200164EF71E080E06C
:102C800090E00E94170261E081E10E94200164EF60
:102C900071E080E090E00E9417029FEFC91AD90A04
:102CA000E4CF60911202CE0101960E949B0861E080
:102CB00070E0CE0101960E94BB02E82ECE01019683
:102CC0000E94930860911202CE0101960E949B0817
:102CD00070E060E0CE0101960E94BB02C82ECE01DA
:102CE00001960E949308CC2009F4B6CFB12CA12CF8
:102CF000EC2DE053FF0B6F01AC14BD040CF0ACCF16
:102D000060E08DE00E94200164EF71E080E090E0DF
:102D10000E94170261E08DE00E94200164EF71E0E3
:102D200080E090E00E941702FFEFAF1ABF0AE4CFE5
:102D300060911202CE0101960E949B0862E070E051
:102D4000CE0101960E94BB02E82ECE0101960E94A0
:102D5000930860911202CE0101960E949B0861E0E7
:102D600070E0CE0101960E94BB02C82ECE010196F2
:102D70000E94930860911202CE0101960E949B0866
:102D800070E060E0CE0101960E94BB02A82ECE0149
:102D900001960E949308AA2009F4A5CF912C812CBA
:102DA000AA2DA053BB0B5D018A149B040CF09BCF92
:102DB00060E08DE00E94200160E081E10E9420013E
:102DC00064EF71E080E090E00E94170261E08DE026
:102DD0000E94200161E081E10E94200164EF71E026
:102DE00080E090E00E941702BFEF8B1A9B0ADCCFB5
:102DF00064E670E080E090E00E941702F2CB10924F
:102E0000110263CE80911002863180F48F5F80932F
:102E1000100260E08DE00E94200164E670E080E036
:102E200090E00E94170261E08DE05BCE10921002EC
:102E3000F0CF2111C1CE89E00E94F700892B41F427
:102E400080911B02811104C080911C02882379F0BB
:102E500080910F02811156C08CE493E00E945B06C2
:102E60008CE493E00E940B0610920F020CC062E308
:102E700070E080E090E00E94170210930F028CE453
:102E800093E00E94E7058CE493E00E94B105683866
:102E9000734181059105E8F080911A02811113C0F8
:102EA00089E00E94F700892B71F462E370E080E012
:102EB00090E00E94170280E493E00E945B060E946B
:102EC000DE0710931A0264E670E080E090E00E9452
:102ED000170288E00E94F700892BE9F480911A021A
:102EE000811136C080E090E0892B11F40C94120E11
:102EF0000E943603882311F40C94120E0E940000E5
:102F00000C94100E80911A028111A6CF0E946107C5
:102F10000E942B07A1CF89E00E94F700892BF1F2D4
:102F200080911A028823F1F280E493E00E94B105B7
:102F30006131774281059105A8F260910E0282E02D
:102F400090E00E943E090E94DE07F1010995CACF78
:102F500080911C028111E8CF62E370E080E090E094
:102F60000E9417020E94550280910E028F5F8330EB
:102F700078F480930E020E942B0780E493E00E9475
:102F80005B0664E670E080E090E00E941702C8CF24
:102F900010920E02F0CF20911D02809107010C9437
:102FA0009F0F85E491E09093850480938404809141
:102FB0000202909103028458944071F4E0919704C6
:102FC000F091980490818091990480958923808361
:102FD00010920302109202020895BB27FB015527AD
:102FE000AA27880F991FAA1FA41710F0A41B839566
:102FF0005051B9F7A05DAA3308F0A95DA1930097DD
:1030000079F7B111B1931192CB010C940718DC013F
:10301000FC01672F71917723E1F7329704C07C910F
:103020006D9370836291AE17BF07C8F30895F99945
:10303000FECF92BD81BDF89A992780B50895262FBD
:10304000F999FECF1FBA92BD81BD20BD0FB6F8948D
:10305000FA9AF99A0FBE019608952F923F924F92D5
:103060005F926F927F928F929F92AF92BF92CF9218
:10307000DF92EF92FF920F931F93CF93DF93CDB721
:10308000DEB7CA1BDB0B0FB6F894DEBF0FBECDBF99
:1030900009942A88398848885F846E847D848C846A
:1030A0009B84AA84B984C884DF80EE80FD800C8173
:1030B0001B81AA81B981CE0FD11D0FB6F894DEBF56
:1030C0000FBECDBFED01089597FB072E16F40094B7
:1030D00007D077FD09D00E94A01807FC05D03EF468
:1030E000909581959F4F0895709561957F4F0895B4
:1030F000A1E21A2EAA1BBB1BFD010DC0AA1FBB1FFC
:10310000EE1FFF1FA217B307E407F50720F0A21B6D
:10311000B30BE40BF50B661F771F881F991F1A94DA
:1031200069F760957095809590959B01AC01BD0104
:10313000CF010895EE0FFF1F0590F491E02D099443
:10314000AA1BBB1B51E107C0AA1FBB1FA617B707CD
:1031500010F0A61BB70B881F991F5A95A9F78095E9
:103160009095BC01CD0108950F931F93CF93DF93EA
:103170008230910510F482E090E0E091A504F09196
:10318000A60430E020E0B0E0A0E0309799F42115EB
:10319000310509F44AC0281B390B24303105D8F514
:1031A0008A819B816115710589F1FB01938382837B
:1031B000FE0111C0408151810281138148175907D6
:1031C000E0F04817590799F4109761F012960C93A4
:1031D000129713961C933296CF01DF91CF911F91D6
:1031E0000F9108950093A5041093A604F4CF211520
:1031F000310551F04217530738F0A901DB019A015C
:10320000BD01DF01F801C1CFEF01F9CF9093A60412
:103210008093A504CDCFFE01E20FF31F819391931C
:103220002250310939832883D7CF2091A3043091CC
:10323000A404232B41F420910B0130910C01309315
:10324000A4042093A3042091090130910A012115BF
:10325000310541F42DB73EB740910D0150910E015B
:10326000241B350BE091A304F091A404E217F307AB
:10327000A0F42E1B3F0B2817390778F0AC014E5FE6
:103280005F4F2417350748F04E0F5F1F5093A4047B
:103290004093A304819391939FCFF0E0E0E09CCF13
:1032A000CF93DF930097E9F0FC01329713821282EB
:1032B000A091A504B091A604ED0130E020E01097A4
:1032C000A1F420813181820F931F2091A3043091BA
:1032D000A4042817390709F061C0F093A404E0930F
:1032E000A304DF91CF910895EA01CE17DF07E8F537
:1032F0004A815B819E0141155105B1F7E901FB83CC
:10330000EA8349915991C40FD51FEC17FD0761F469
:10331000808191810296840F951FE90199838883AA
:10332000828193819B838A83F0E0E0E012968D9105
:103330009C9113970097B9F52D913C911197CD0170
:103340000296820F931F2091A3043091A4042817A2
:10335000390739F6309751F51092A6041092A5045A
:10336000B093A404A093A304BCCFD383C2834081B1
:103370005181840F951FC817D90761F44E5F5F4FC5
:1033800088819981480F591F518340838A819B818D
:10339000938382832115310509F0B0CFF093A60401
:1033A000E093A5049ECFFD01DC01C0CF1382128201
:1033B000D7CFB0E0A0E0EFEDF9E10C942F188C012D
:1033C000009751F4CB010E94B4188C01C801CDB70D
:1033D000DEB7E0E10C944B18FC01E60FF71F9C01EF
:1033E00022503109E217F30708F49DC0D901CD91AD
:1033F000DC911197C617D70798F0C530D10530F387
:10340000CE0104978617970708F3C61BD70B2297A0
:10341000C193D1936D937C93CF010E945019D6CF65
:103420005B01AC1ABD0A4C018C0E9D1EA091A50437
:10343000B091A604512C412CF12CE12C109731F5C0
:103440008091A3049091A4048815990509F05CC0AB
:103450004616570608F058C08091090190910A015C
:10346000009741F48DB79EB740910D0150910E0128
:10347000841B950BE817F90708F055C0F093A404D6
:10348000E093A304F90171836083A0CF8D919C9197
:10349000119712966C90129713967C901397A8151B
:1034A000B90559F56C0142E0C40ED11CCA14DB0405
:1034B00020F1AC014A195B09DA011296159780F0E8
:1034C0006282738251834083D9016D937C93E114AE
:1034D000F10471F0D7011396FC93EE93129776CF17
:1034E00022968C0F9D1FF90191838083F301EFCF0A
:1034F000F093A604E093A50469CF4816590608F492
:103500002C017D01D3019ACFCB010E94B4187C011C
:10351000009749F0AE01B8010E94961AC8010E94B6
:103520005019870153CF10E000E050CFFB01DC01C0
:1035300002C001900D9241505040D8F70895FB0110
:10354000DC0101900D920020E1F7089510E0C2E641
:10355000D0E004C0FE010E949A182196C336D1071C
:06356000C9F7F894FFCF4B
:1035660000040004000401FFFF0000A70480000E11
:103576000190010000020304090807060500000087
:10358600006C03CC02F902B9032A0308031C0300EA
:103596000000007D05500528072605490536052744
:1035A60005000000009506CC0228072605F106074F
:0C35B600077D060D0A005F5F5F5F5F008D
:00000001FF
