:100000000C9463000C948B000C948B000C948F0A5E
:100010000C948F0A0C948F0A0C948B000C948B0018
:100020000C948B000C948B000C948B000C948B0024
:100030000C948B000C948B000C948B000C948B0014
:100040000C94CE080C948B000C943E090C94180967
:100050000C948B000C948B000C948B000C948B00F4
:100060000C9470090C948B00000000002400270001
:100070002A0000000008000201000003040700003D
:1000800000000000000000000000230026002900FE
:1000900000000000250028002B00040404040404D0
:1000A0000404020202020202030303030303010227
:1000B00004081020408001020408102001020408F6
:1000C0001020070B371711241FBECFEFD8E0DEBF7B
:1000D000CDBF24E0A4E5B1E001C01D92AF39B20765
:1000E000E1F711E0A0E0B1E0E2E3F4E302C0059043
:1000F0000D92A435B107D9F710E0C2E6D0E004C0F4
:100100002197FE010E940018C136D107C9F70E944D
:10011000070C0C940C1A0C940000FC01A089B18906
:1001200082E08C93A485B5851C92A685B7858FEC5B
:100130008C93108EA489B5896C93A289B3898C9114
:1001400080618C93A289B3898C9188608C93A289F9
:10015000B3898C9180688C930288F389E02D80812B
:100160008F7D80830895482FE3E6F3E020E08FEF52
:100170009FEF241791F03191832738E0BC01617023
:10018000772796958795672B21F051E0852750EAD0
:100190009527315099F72F5FECCF0895833081F088
:1001A00028F4813099F08230A9F008958730A9F0C1
:1001B0008830C9F08430B1F4809180008F7D03C015
:1001C000809180008F7780938000089584B58F7729
:1001D00084BD089584B58F7DFBCF8091B0008F776B
:1001E0008093B00008958091B0008F7DF9CFCF93B8
:1001F000DF93282F30E0F901EE58FF4F8491F90189
:10020000E255FF4FD491F901E656FF4FC491CC233C
:10021000A1F081110E94CE00EC2FF0E0EE0FFF1F45
:10022000EA57FF4FA591B491EC91ED2381E090E066
:1002300009F480E0DF91CF91089580E090E0FACF5B
:100240001F93CF93DF93282F30E0F901EE58FF4F33
:100250008491F901E255FF4FD491F901E656FF4F21
:10026000C491CC23A9F0162F81110E94CE00EC2F4F
:10027000F0E0EE0FFF1FE057FF4FA591B4918FB74D
:10028000F894EC91111108C0D095DE23DC938FBF58
:10029000DF91CF911F910895DE2BF8CFCF93DF939D
:1002A00090916303992309F44BC0C82F0E94B300B7
:1002B000D0E0FE01E45AFC4F87839087809162036F
:1002C0008F3F19F061E00E942001809160039091BE
:1002D0006103AE014E5F5F4FDC01ED91FC91028046
:1002E000F381E02D63E673E00995809160039091BE
:1002F0006103DC01ED91FC910680F781E02D099509
:10030000809162038F3F19F060E00E94200180918C
:10031000600390916103DC01ED91FC910084F18513
:10032000E02D0995892B61F0809160039091610324
:10033000DC01ED91FC910284F385E02D0995E7CF76
:10034000DF91CF910895ECE5F3E090859068908778
:10035000818783E00C944E01CF93DF9390E0FC0102
:10036000E255FF4F249186569F4FFC0184918823CC
:10037000D1F090E0880F991FFC01E859FF4FA5913B
:10038000B491FC01E057FF4FC591D49161110EC0AB
:100390009FB7F8948C91E22FE0958E238C9328815F
:1003A000E223E8839FBFDF91CF9108958FB7F89440
:1003B000EC91E22BEC938FBFF6CF8E3008F08E508D
:1003C0008770806480937C0080917A008064809341
:1003D0007A0080917A0086FDFCCF80917800909120
:1003E000790008953FB7F89480912F0290913002E0
:1003F000A0913102B091320226B5A89B05C02F3FD3
:1004000019F00196A11DB11D3FBFBA2FA92F982F3A
:100410008827BC01CD01620F711D811D911D42E035
:10042000660F771F881F991F4A95D1F708958F92FD
:100430009F92AF92BF92CF92DF92EF92FF924B01C9
:100440005C010E94F2016B017C010E94F2016C19B7
:100450007D098E099F09683E734081059105A8F3C7
:1004600021E0821A9108A108B10888EEC80E83E045
:10047000D81EE11CF11C81149104A104B10429F7D8
:10048000FF90EF90DF90CF90BF90AF909F908F90B4
:1004900008952FB7F89460912B0270912C028091EF
:1004A0002D0290912E022FBF08950F931F938091DC
:1004B000420390914303019709F054C08091400397
:1004C00090914103019721F50E944902AB01BC01C3
:1004D00080913C0390913D03A0913E03B0913F0376
:1004E000009138031091390320913A0330913B0376
:1004F000801B910BA20BB30B840F951FA61FB71F78
:1005000080933C0390933D03A0933E03B0933F033D
:100510008091400390914103892B21F50E94F201C3
:10052000AB01BC0180913C0390913D03A0913E033F
:10053000B0913F03009138031091390320913A03A1
:1005400030913B03801B910BA20BB30B840F951FC3
:10055000A61FB71F80933C0390933D03A0933E03D7
:10056000B0933F0310924303109242031F910F91E7
:10057000089508950895FC01248135816217730759
:1005800048F480819181009729F0860F971FFC0124
:100590008081089580E00895AF92BF92CF92DF925C
:1005A000EF92FF920F931F93CF93DF936C017B0128
:1005B0008B01040F151FEB015E01AE18BF08C017B9
:1005C000D10759F06991D601ED91FC910190F0812C
:1005D000E02DC6010995892B79F7C501DF91CF91EF
:1005E0001F910F91FF90EF90DF90CF90BF90AF9051
:1005F0000895FC01538D448D252F30E0842F90E029
:10060000821B930B541710F0CF960895019708950D
:10061000FC01918D828D981761F0A28DAE0FBF2FD6
:10062000B11D5D968C91928D9F5F9F73928F90E02C
:1006300008958FEF9FEF0895FC01918D828D98179B
:1006400031F0828DE80FF11D858D90E008958FEFD8
:100650009FEF0895FC01918D228D892F90E0805CA1
:100660009F4F821B91098F739927089583E892E029
:100670000E942A0321E0892B09F420E0822F0895AB
:1006800080E090E0892B29F00E94360381110C94C0
:1006900000000895FC01A48DA80FB92FB11DA35A25
:1006A000BF4F2C91848D90E001968F739927848F92
:1006B000A689B7892C93A089B1898C9183708064B5
:1006C0008C93938D848D981306C00288F389E02D56
:1006D00080818F7D80830895EF92FF920F931F9307
:1006E000CF93DF93EC0181E0888F9B8D8C8D9813E5
:1006F0001AC0E889F989808185FF15C09FB7F894F1
:10070000EE89FF896083E889F9898081837080643C
:1007100080839FBF81E090E0DF91CF911F910F9187
:10072000FF90EF900895F62E0B8D10E00F5F1F4F96
:100730000F731127E02E8C8D8E110CC00FB607FCA5
:10074000FACFE889F989808185FFF5CFCE010E9433
:100750004A03F1CFEB8DEC0FFD2FF11DE35AFF4F54
:10076000F0829FB7F8940B8FEA89FB8980818062C1
:10077000CFCFCF93DF93EC01888D8823B9F0AA897E
:10078000BB89E889F9898C9185FD03C0808186FD4C
:100790000DC00FB607FCF7CF8C9185FFF2CF80819B
:1007A00085FFEDCFCE010E944A03E9CFDF91CF91C3
:1007B00008952091D501260F3327331F21323105AB
:1007C000ECF420915902FC0190E080E0243069F0C3
:1007D00082E00895A091D5012191AC014B545E4F68
:1007E000A40FB52FB11D2C930196861798F3809115
:1007F000D501680F6093D50180E0089581E00895E8
:100800001092590281E0809358021092330261E005
:1008100082E10E94200161E083E10E942001E9EB76
:10082000F0E080818E7F808380818D7F808388E46B
:100830008093B80085E48093BC000895CF93DF9344
:1008400091E09093B4018823B9F0C091B800D091A1
:10085000BA008091BC008A7B8093BC0060E082E19A
:100860000E94200160E083E10E9420010E940004B8
:10087000D093BA00C093B800DF91CF910895CF9282
:10088000DF92EF92FF920F931F93CF93DF93D0915C
:10089000820281E0D13208F09CC0C09181020E94A6
:1008A000F2016B017C018091590281116CC082E0E0
:1008B0008093590281E0809358028FEF8093570212
:1008C00010925602D0935502A1E6B2E0E5E3F2E0C1
:1008D00080E0D8138DC01092340280913402CC0F86
:1008E000C82BC093340280913302813009F084C058
:1008F000109233020E94F2016B017C01809134025C
:100900008093BB0080915B0290915C02A0915D029C
:10091000B0915E02892B8A2B8B2BA1F00E94F201F1
:1009200000915B0210915C0220915D0230915E02A9
:100930006C197D098E099F090617170728073907C3
:1009400008F442C08091BC0083FDD8CF85EC809331
:10095000BC000E94F2016B017C018091590282303F
:1009600009F44CC0809157028F3F09F469C080910F
:100970005702803209F466C080915702803309F42F
:1009800063C084E026C080915B0290915C02A091DC
:100990005D02B0915E02892B8A2B8B2B09F483CFE9
:1009A0000E94F20100915B0210915C0220915D02B5
:1009B00030915E026C197D098E099F090617170791
:1009C0002807390708F06FCF80915A020E941E0451
:1009D00085E0109260021092820210925F02DF9115
:1009E000CF911F910F91FF90EF90DF90CF900895DE
:1009F0009D9191938F5F6DCF85EEA9CF80915B0222
:100A000090915C02A0915D02B0915E02892B8A2BCD
:100A10008B2B09F4A2CF0E94F20100915B0210918E
:100A20005C0220915D0230915E026C197D098E0995
:100A30009F09061717072807390708F08ECFC4CF7C
:100A400080E0C7CF82E0C5CF83E0C3CF0895E091B7
:100A5000010280910002E81730F4F0E0EC56FE4FFE
:100A6000808190E008958FEF9FEF089590910102AB
:100A7000809100022FEF3FEF981748F4E92FF0E044
:100A8000EC56FE4F208130E09F5F90930102C90138
:100A900008958091000290910102891B990B08959D
:100AA000CF92DF92EF92FF920F931F93CF93DF933A
:100AB0007C01CB018A0120915F02222389F0EB01A6
:100AC0006B01C40ED51ECC15DD0569F06991D70107
:100AD000ED91FC910190F081E02DC7010995F3CFD4
:100AE000642F0E94D903C801DF91CF911F910F910C
:100AF000FF90EF90DF90CF900895CF93DF931F92F8
:100B0000CDB7DEB7698320915F022223F9F02091EF
:100B10008202203258F021E030E0FC01338322834E
:100B200090E080E00F90DF91CF9108958091600276
:100B3000E82FF0E0EF59FD4F998190838F5F80930C
:100B400060028093820281E090E0ECCF61E0CE0110
:100B500001960E94D903F7CF682F80E293E00C94AE
:100B60007D050F931F93CF93DF93FC01228533857F
:100B70002130310531F5EC012085318521303105F9
:100B8000D9F40E944902AB01BC018C819D81AE81E8
:100B9000BF81088119812A813B81801B910BA20BA7
:100BA000B30B840F951FA61FB71FBC01CD01DF91AA
:100BB000CF911F910F910895232B19F40E94F201F8
:100BC000E2CFFC0184819581A681B781EECFCF93DE
:100BD000DF93FC012285338522303105C9F4EC0115
:100BE00080859185019731F40E9449026883798359
:100BF0008A839B8388859985892B31F40E94F20131
:100C0000688379838A839B8381E090E09B878A87CE
:100C1000DF91CF910895CF92DF92EF92FF920F93E1
:100C20001F93CF93DF93FC0122853385213031055B
:100C3000C9F5EC01808591850197B1F4C480D58018
:100C4000E680F7800E944902088119812A813B8150
:100C5000C01AD10AE20AF30AC60ED71EE81EF91E10
:100C6000CC82DD82EE82FF8288859985892BB1F462
:100C7000CC80DD80EE80FF800E94F2010881198126
:100C80002A813B81C01AD10AE20AF30AC60ED71E96
:100C9000E81EF91ECC82DD82EE82FF8282E090E0C7
:100CA0009B878A87DF91CF911F910F91FF90EF90E3
:100CB000DF90CF900895CF93DF93EC011C821D82CB
:100CC0001E821F8288859985019731F40E9449020E
:100CD000688379838A839B8388859985892B31F4FE
:100CE0000E94F201688379838A839B8381E090E08C
:100CF0009B878A87DF91CF9108952091FA013091E7
:100D0000FB012817390771F49091F8018091F901DE
:100D1000981741F0E091F801F0E0EC5AFE4F808125
:100D200090E008958FEF9FEF0895EF92FF920F9359
:100D30001F93CF93DF93DC015C96ED90FC905D9761
:100D4000E114F10479F481E090E013969C938E9382
:100D5000129790E080E0DF91CF911F910F91FF906B
:100D6000EF9008955196ED91FC91529750968C9189
:100D70005097982F90950FB75E962C915E97122FF3
:100D8000127021FD6095F8942081112319F1282B10
:100D90002083E7012197F1F728E0462F50E03081CA
:100DA00060FF1AC0382B3083E7012197F1F7BA01B1
:100DB00075956795215089F7112381F080818923EA
:100DC00080830FBF5C968D919C910197F1F781E034
:100DD00090E0C1CF2923DCCF3923E5CF9081892B47
:100DE000EFCF2091FA013091FB012817390761F408
:100DF0008091F9012091F80190E0805C9F4F821B67
:100E000091098F739927089590E080E008952091CB
:100E1000FA013091FB0128173907B9F49091F801D4
:100E20008091F901981789F0E091F801F0E0EC5A0F
:100E3000FE4F80812091F80130E02F5F3F4F2F73EC
:100E400033272093F80190E008958FEF9FEF0895E6
:100E500090E080E0089580910602813091F018F0D2
:100E60008230E1F0089560E08DE00E94200168EE9C
:100E700073E080E090E00E94170261E08DE00C9446
:100E8000200160E081E10E94200168EE73E080E0D3
:100E900090E00E94170261E081E1F1CF60E08DE017
:100EA0000E94200160E081E10E94200168EE73E071
:100EB00080E090E00E94170261E08DE00E94200136
:100EC000EACF60E08DE00E9420016AE070E080E0FF
:100ED00090E00E94170261E08DE00E9420016AE02C
:100EE00070E080E090E00E94170260E081E10E94E3
:100EF00020016AE070E080E090E00E94170261E06B
:100F000081E10E9420016AE070E080E090E00E94B0
:100F1000170260E08DE00E9420016AE070E080E04E
:100F200090E00E94170261E08DE00E9420016AE0DB
:100F300070E080E090E00C941702CF92DF92FF9275
:100F40000F931F93CF93DF93EC01F62E862F0E9411
:100F5000DD010BE91FE0C8010197F1F78F2D0E9419
:100F6000DD01CC0FDD1FC050DF4F19821882C80190
:100F70000197F1F70AE010E09BECC92E97E0D92E1B
:100F80008F2D0E94DD0128813981820F931F998363
:100F90008883F6013197F1F70150110989F76AE06A
:100FA00070E00E94CA1779836883A895DF91CF917A
:100FB0001F910F91FF90DF90CF900895CF93DF9313
:100FC000C4E1D0E060E08DE00E94200169E170E0C2
:100FD00080E090E00E94170261E08DE00E94200115
:100FE00069E170E080E090E00E94170260E081E13A
:100FF0000E94200169E170E080E090E00E94170209
:1010000061E081E10E94200169E170E080E090E010
:101010000E9417022197B1F6DF91CF910895FC014C
:1010200080819181009711F00C94B6180895CF92A9
:10103000DF92EF92FF920F931F93CF93DF93CDB781
:10104000DEB729970FB6F894DEBF0FBECDBF8C0177
:10105000862FF80111821082138212821582148267
:101060004AE09E012F5F3F4F6901B90190E00E9465
:101070005317F60101900020E9F731977F01EC1832
:10108000FD08F80180819181009729F02281338148
:101090002E153F0590F4B7016F5F7F4F0E943F19F7
:1010A000F801009799F091838083F382E282248192
:1010B0003581232B11F4FC011082F801F582E482C2
:1010C000B601808191810E94051A0DC080819181B5
:1010D000009711F00E94B618F80111821082158253
:1010E00014821382128229960FB6F894DEBF0FBEC7
:1010F000CDBFDF91CF911F910F91FF90EF90DF90C7
:10110000CF90089585ED8093BC0080915B02909113
:101110005C02A0915D02B0915E020796A11DB11D17
:1011200023E0B695A795979587952A95D1F72091B5
:10113000BC0024FD03C010925902089540915B0247
:1011400050915C0260915D0270915E02452B462BCE
:10115000472B69F30097A105B10541F02AE22A95D2
:10116000F1F700C00197A109B109E1CF80915A02BE
:101170000C941E041F93CF93DF93EC01162F0E9453
:101180007D17181739F0612FCE01DF91CF911F9194
:101190000C948517DF91CF911F9108951F920F92A4
:1011A0000FB60F9211242F933F938F939F93AF937A
:1011B000BF9380912B0290912C02A0912D02B091AF
:1011C0002E0230912A0223E0230F2D3758F5019685
:1011D000A11DB11D20932A0280932B0290932C0213
:1011E000A0932D02B0932E0280912F029091300295
:1011F000A0913102B09132020196A11DB11D8093E0
:101200002F0290933002A0933102B0933202BF912B
:10121000AF919F918F913F912F910F900FBE0F90A3
:101220001F90189526E8230F0296A11DB11DD2CF5D
:101230001F920F920FB60F9211242F933F934F934B
:101240005F936F937F938F939F93AF93BF93EF932E
:10125000FF9383E892E00E944A03FF91EF91BF91D0
:10126000AF919F918F917F916F915F914F913F913E
:101270002F910F900FBE0F901F9018951F920F92F5
:101280000FB60F9211242F938F939F93EF93FF9399
:10129000E0919302F09194028081E0919902F091A3
:1012A0009A0282FD1BC0908180919C028F5F8F7398
:1012B00020919D02821741F0E0919C02F0E0ED57F1
:1012C000FD4F958F80939C02FF91EF919F918F919D
:1012D0002F910F900FBE0F901F9018958081F4CF23
:1012E0001F920F920FB60F9211242F933F934F939B
:1012F0005F936F937F938F939F93AF93BF93EF937E
:10130000FF938091B900887F803609F44AC0F0F5D8
:10131000883209F4A7C018F5803109F49BC0B8F4ED
:10132000882309F4F9C0883009F494C0FF91EF9143
:10133000BF91AF919F918F917F916F915F914F91ED
:101340003F912F910F900FBE0F901F9018958831ED
:1013500009F488C0803251F78093570214C080345A
:1013600009F49DC040F48033B9F38833F9F68093D3
:10137000570285ECB0C0803509F485C0883509F482
:1013800096C0883499F60E948208D0CF883909F433
:101390008CC038F5883729F050F4883611F0803742
:1013A00029F683E0809359021092F70157C08838DC
:1013B00009F47BC0803919F0803809F0B7CF8091EB
:1013C000F701803208F071C0E091F70181E08E0FE3
:1013D0008093F7018091BB00F0E0E952FE4F8083DB
:1013E0003DC0803B39F0E0F4803A09F479C0883A96
:1013F00009F09CCF84E0809359021092D60110929C
:10140000D501E091FE01F091FF0109958091D50190
:1014100081110FC081E08093D5011092B50109C000
:10142000803C09F4A6CF883C09F4A3CF883B09F09F
:101430007DCFE091D60181E08E0F8093D601F0E060
:10144000EB54FE4F80818093BB009091D601809138
:10145000D50129C0809134028093BB0085EC809334
:10146000BC0064CF9091560280915502981758F5B0
:10147000E091560281E08E0F80935602F0E0EB5C23
:10148000FD4F8081E9CFE091560281E08E0F80937D
:1014900056028091BB00F0E0EB5CFD4F80839091A1
:1014A0005602809155029817C8F285E8D8CFE0918E
:1014B000560281E08E0F809356028091BB00F0E0CF
:1014C000EB5CFD4F80838091580281115CCF81E0FD
:1014D0008093330284EA8093BC001092590226CF95
:1014E00085EC8093BC00109259028091F701803204
:1014F00030F4E091F701F0E0E952FE4F1082609184
:10150000F70170E0E091FC01F091FD0187ED91E0C1
:1015100009951092F7010ACF1092570234CF1F920B
:101520000F920FB60F9211242F933F934F935F9317
:101530006F937F938F939F93AF93BF93EF93FF939B
:10154000E091FA01F091FB01309749F0A685B7854B
:101550008585968D91FF14C09C918923A1F4FF91FC
:10156000EF91BF91AF919F918F917F916F915F911B
:101570004F913F912F910F900FBE0F901F90189594
:101580009C91892361F7A389B4899C918589809571
:1015900089238C93868997890197F1F7608D718DE6
:1015A000A685B785558538E020E0CB010197F1F796
:1015B000822F90E095958795282F4C91452309F02F
:1015C0002068315091F7868D81FD20958091F90139
:1015D00090E001968F7399273091F801381799F0B0
:1015E000A091F901B0E0AC5ABE4F2C938093F90161
:1015F000828D938D0197F1F7A389B4898C91958998
:10160000892B8C93ACCF868D8160868FF1CF109221
:1016100086021092850288EE93E0A0E0B0E080930D
:10162000870290938802A0938902B0938A0221E2F4
:1016300031E0309384022093830225EC30E0309334
:10164000900220938F0224EC30E03093920220939A
:10165000910220EC30E0309394022093930221EC2D
:1016600030E0309396022093950222EC30E03093E4
:1016700098022093970226EC30E030939A02209350
:10168000990210929C0210929D0210929E0210925A
:101690009F021092230310922203809324039093BD
:1016A0002503A0932603B093270323E331E030936F
:1016B00021032093200310927F0410927E048093D4
:1016C000800490938104A0938204B093830485E402
:1016D00091E090937D0480937C0410929304109287
:1016E0009204109295041092940410929704109210
:1016F0009604109299041092980460919A046E7F57
:101700006D7F60939A046695617081E068278BE035
:101710000E94200161E08BE00E94AC01E9EBF0E067
:10172000E491E0938C04E5EAF0E0E491F0E0EE0F60
:10173000FF1FE057FF4F8591949190938E04809303
:101740008D0460E08AE00E94AC0180919A0481FDE2
:1017500004C061E08AE00E9420018CE794E02AE066
:1017600020938804E8EBF0E0E491E0938904E4EA54
:10177000F0E0E491F0E0EE0FFF1FEA57FF4F2591F4
:10178000349130938B0420938A0410926C0410924D
:101790006B0410926E0410926D04109270041092FB
:1017A0006F04109272041092710410925D031092F3
:1017B0005C0390935F0380935E0390936103809337
:1017C00060031092640410926304109266041092F5
:1017D0006504109268041092670410926A041092D3
:1017E000690482E08093620381E090E09093590362
:1017F0008093580390934D0380934C03909341033F
:101800008093400390933503809334030895CF93DE
:10181000DF9300D000D000D0CDB7DEB7789484B588
:10182000826084BD84B5816084BD85B5826085BDDC
:1018300085B5816085BD80916E00816080936E006A
:10184000109281008091810082608093810080915C
:10185000810081608093810080918000816080930D
:1018600080008091B10084608093B1008091B000CD
:1018700081608093B00080917A00846080937A00C8
:1018800080917A00826080937A0080917A008160F2
:1018900080937A0080917A00806880937A00109219
:1018A000C10080E490E00E947D178034A1F060E4E4
:1018B00080E490E00E94BA0861E081E090E00E943C
:1018C000BA0861E082E090E00E94BA0861E083E03B
:1018D00090E00E94BA0881E090E00E947D17182FE6
:1018E00080930A0282E090E00E947D1780930602B6
:1018F000E82FF0E0EE0FFF1FE15FFE4F8081918146
:10190000909305028093040283E090E00E947D178B
:1019100091E0811101C090E09093290261E08DE097
:101920000E94AC0161E081E10E94AC0160E088E0CE
:101930000E94AC0160E089E00E94AC0161E087E0B8
:101940000E94AC0161E083E00E94AC0161E084E0B0
:101950000E94AC0161E085E00E94AC0161E086E09C
:101960000E94AC0161E08CE00E94AC0160E08CE080
:101970000E94200161E081E10E94200161E08DE090
:101980000E94200185E192E09093660480936504B3
:1019900084E190E090936E0480936D048CE092E07B
:1019A000909368048093670483E090E090937004C0
:1019B00080936F048FEF810F873F08F062C110930F
:1019C000730480915C0390915D03009709F45CC1FE
:1019D0004CE25AE060E070E0409374045093750468
:1019E00060937604709377044FE452E160E070E016
:1019F000409378045093790460937A0470937B0445
:101A000066E00E948D00809162038F3F41F061E0AB
:101A10000E94AC0160E0809162030E9420010E945C
:101A2000F2016B017C018091600390916103DC0104
:101A3000ED91FC910084F185E02D0995892B79F0D9
:101A40000E94F2016B017C0180916003909161031F
:101A5000DC01ED91FC910284F385E02D09950E9453
:101A6000F2016C197D098E099F090091780410918B
:101A7000790420917A0430917B0460177107820702
:101A8000930788F210920102109200020E94000453
:101A900089EB92E09093FF018093FE018AEB92E044
:101AA0009093FD018093FC018CE08093B80081E06D
:101AB00080935F0287E2809381021092600210920D
:101AC000820286E090E00E94AC0590E080E00E94F7
:101AD000AC0590E080E00E94AC050E943F0480E5E8
:101AE00093E00E945B0684E493E00E945B068CE234
:101AF00093E00E945B0664E670E080E090E00E9464
:101B0000170266E083E892E00E948D00312C212CC0
:101B1000412C512C3201439401E011E08CE293E01E
:101B20000E94B10520EA3FE040E050E00E94DE174D
:101B3000643F71408105910508F06CC180E00E940E
:101B4000DD01833F93400CF445C110931F0281E0F7
:101B50000E94DD01833F93400CF03FC110922002B0
:101B60006EE070E090E080E00E949D0765E070E02C
:101B700080E090E00E9417026FE070E081E090E06A
:101B80000E949D0765E070E080E090E00E941702EF
:101B90008091040290910502209100013091010191
:101BA000281739070CF01CC11093150210921F0260
:101BB0002091020130910301281739070CF013C15D
:101BC0001093160210922002109203021092020249
:101BD000E0900202F090030228E0E216F1040CF01B
:101BE00009C16E2D617083E00E942001B7017595D7
:101BF0006795617084E00E942001B7017595679533
:101C000075956795617085E00E94200160E170E044
:101C100082E090E00E949D0765E070E080E090E047
:101C20000E941702D12CC12C68E0E616F10428F4BA
:101C3000F701EB5EFE4FC080D12C82E00E94DD01F7
:101C4000D601A15EBD4F833F93400CF0CFC01C92E4
:101C500020910401309105018091040290910502C8
:101C6000F601EB5EFD4F281739070CF0C1C0008369
:101C70001C92FFEFEF1AFF0AF0920302E0920202B9
:101C8000A7CF109273049DCEE0915E03F0915F03A5
:101C9000309709F4B8CE8CE29AE0A0E0B0E08093EF
:101CA000740490937504A0937604B09377048FE442
:101CB00092E1A0E0B0E08093780490937904A0933F
:101CC0007A04B0937B04138E128E118E108E178AB5
:101CD000168A8DE991E0958F848F84858631E0F5B1
:101CE0002DEB30E0378B268B2BE931E0318F208FC5
:101CF0002CE231E0338F228F90916800883008F415
:101D00005AC021E08E3008F420E081E001C0880F45
:101D10002A95EAF7892B8093680094852DE630E0B8
:101D2000983050F02BE630E09E3030F02CE630E07A
:101D3000963110F030E020E0348B238B292F30E0F7
:101D40009830D8F581E001C0880F9A95EAF7858B25
:101D5000848D958D0197F1F7828D938D892B09F4F0
:101D600052CE4091FA015091FB01E417F50709F4B6
:101D70004ACE4115510569F0DA0153962D913C91F7
:101D8000D9019C91DA0155968C9180958923D901CE
:101D90008C93868D8E7F868F1092F9011092F801B8
:101DA000F093FB01E093FA01A389B4898C919589A2
:101DB000892B8C9328CE84E0ADCF9E3040F4285000
:101DC000310981E001C0880F2A95EAF7C0CF2E5073
:101DD0003109F7CF10921F02BACE10932002C0CE65
:101DE00010921502E5CE10921602EECE0C9330CF73
:101DF00010823FCF80912902882311F40C9431176F
:101E000010922402109225021092260210922702AC
:101E100010922802209115028091070190912902C9
:101E20009111A9C190910801211105C020911F02B3
:101E3000222309F48CC19F7E9093080190910801A0
:101E400020911602211105C020912002222309F4BD
:101E500080C1977F9093080190911702911105C05E
:101E600090912102992309F476C18E7F8093070116
:101E70008091070190911802911105C09091220262
:101E8000992309F46AC18D7F80930701809107012E
:101E900090911902911105C090912302992309F4A0
:101EA0005EC18B7F809307018091070190911A0298
:101EB000911105C090912402992309F452C1877FA2
:101EC000809307018091070190911B02911105C039
:101ED00090912502992309F446C18F7E80930701D2
:101EE0008091080190911C02911105C090912602E9
:101EF000992309F43AC18E7F8093080180910801EB
:101F000090911D02911105C090912702992309F427
:101F10002EC18D7F809308018091080190911E024F
:101F2000911105C090912802992309F422C18B7F59
:101F30008093080110935F0227E2209381021092A0
:101F400060021092820282E090E00E94AC050E9442
:101F50004902F090070124EF31E040E050E00E9498
:101F6000DE176A3F71058105910508F04CC16F2DA0
:101F700080E293E00E947D056091080180E293E099
:101F80000E947D058091140260E0811145C10E948C
:101F90003F046FEFF61244C1809108018F3F09F0B2
:101FA0003FC11092140261E087E00E9420010E946C
:101FB000490220EA3FE040E050E00E94DE176C3228
:101FC00071408105910508F031C1809113028111A2
:101FD0002DC180911202811129C160E081E10E942E
:101FE00020016AE070E080E090E00E94170261E06A
:101FF00081E10E94200164E670E080E090E00E94B0
:10200000170260E081E10E942001809160039091BD
:102010006103DC01ED91FC910084F185E02D0995CF
:10202000892B09F468C1812C912C5401F12CE12CED
:102030008091600390916103DC01ED91FC9100843B
:10204000F185E02D0995892BB1F00E94F2014B0139
:102050005C018091600390916103DC01ED91FC9142
:102060000284F385E02D0995F701E45AFC4F87833C
:10207000BFEFEB1AFB0A0E94F201681979098A097D
:102080009B0920917404309175044091760450911D
:102090007704261737074807590728F0EFEFEE16A1
:1020A000F10431F228F20E94F201681979098A09D3
:1020B0009B09209178043091790440917A045091E1
:1020C0007B04621773078407950768F380916003A8
:1020D00090916103DC01ED91FC910084F185E02D8C
:1020E0000995892B09F007C18091630390917304CE
:1020F000891711F08111FFC08EEF8E0D0E94B30081
:10210000F701E45AFC4F2681358123273227232704
:102110008217930709F0EFC0E0916403E150E031CA
:1021200008F0A1C0F0E0E956FF4E0C940018181119
:102130006612C512171369139C133311331133112F
:1021400033113311331133113311C413251490613A
:1021500073CE98607FCE816089CE826095CE846098
:10216000A1CE8860ADCE8061B9CE8160C5CE8260DF
:10217000D1CE8460DDCE211104C090911F0299233D
:10218000C1F18E7F80930701809107019091160223
:10219000911104C090912002992369F18D7F809361
:1021A00007018091070190911702911104C090914D
:1021B0002102992311F18B7F809307018091070100
:1021C00090911802911104C0909122029923B9F0C4
:1021D000877F8093070180910701909119029111E7
:1021E00004C090912302992361F08F7E80930701B0
:1021F000A1CE8160C7CF8260D2CF8460DDCF8860FE
:10220000E8CF8061F3CF8FEF90E00E94AC058FEFB5
:1022100090E00E94AC0561E08DE00E942001B7CE05
:102220001093140260E087E00E94200161E0EACE92
:102230006091650370916603762767277627809102
:10224000670390916803982789279827A0916304D2
:10225000B0916404109739F040916B0450916C0474
:102260004115510511F481E006C0FC013197E03DB4
:10227000F74020F083E00E94A3013DC048175907B2
:1022800028F0481B590B4617570710F482E0F3CF8C
:10229000AC01495F5F4FE3E056954795EA95E1F75A
:1022A00040936503A60FB71F50E040E06D919A017F
:1022B000277033277301620104C0CC0CDD1CEE1CB7
:1022C000FF1C2A95D2F7FA0173E0F695E7957A9507
:1022D000E1F7E15AFC4F2781662309F4F3C0C22AD3
:1022E000C7824F5F5F4F4817590701F78091650319
:1022F0008D5F0E944E0180910C0290910D02803CF6
:102300009105E9F480910E0290910F0280359105BC
:10231000B1F46091100270911102663E710508F0EF
:10232000E6C281E090E00E94BA080E94DE0768EEF3
:1023300073E080E090E00E941702F101099580911E
:102340000C0290910D020197D9F480910E029091A8
:102350000F020197A9F48091100290911102019748
:1023600079F461E081E090E00E94BA080E94DE0703
:1023700068EE73E080E090E00E941702F101099599
:1023800080910C0290910D020A97B1F480910E0297
:1023900090910F020A9781F480911002909111029E
:1023A0000A9751F40E94DE0768EE73E080E090E047
:1023B0000E941702F101099580910C0290910D0283
:1023C0000597E9F480910E0290910F020597B9F4F8
:1023D000A89560911002709111026330710508F0A8
:1023E00088C282E090E00E94BA080E94DE0768EE90
:1023F00073E080E090E00E941702F101099580915E
:102400000C0290910D02069749F480910E02909172
:102410000F028636910511F4F101099580910C02A5
:1024200090910D02C39731F580910E0290910F02A9
:10243000C39701F58091100290911102892B29F424
:1024400060E083E090E00E94BA08809110029091D1
:102450001102019729F461E083E090E00E94BA083C
:102460000E94DE0768EE73E080E090E00E941702B1
:10247000F10109950FB6F894A895809160008861E4
:1024800080936000109260000FBE88E00E94F70009
:10249000892B49F480911202811105C080911402A8
:1024A000882309F428C280910B0281110AC380E5B8
:1024B00093E00E945B0680E593E00E940B06109279
:1024C0000B0225C2C0942C2127830BCF20916503DA
:1024D000309166033227232732278091670390913A
:1024E0006803982789279827A0916504B09166040E
:1024F000109709F4B8CE40916D0450916E044115C7
:10250000510509F4B0CEFC013197E03DF74008F0E9
:10251000B1CE4817590708F4B9CE481B590B4217DA
:10252000530708F4B3CEAC01495F5F4F63E05695A3
:1025300047956A95E1F740936503A20FB31F50E0FA
:1025400040E06D919A01277033277301620104C046
:10255000CC0CDD1CEE1CFF1C2A95D2F7FA0133E0EF
:10256000F695E7953A95E1F7E15AFC4F2781662306
:1025700041F0C22AC7824F5F5F4F4817590709F7DA
:10258000B5CEC0942C212783F6CFE0916503F0915E
:102590006603FE27EF27FE274091670450916804E9
:1025A0004115510509F45FCE20916F0430917004FC
:1025B0002115310509F457CE809167039091680386
:1025C000982789279827BC01615071096D377105DB
:1025D00008F050CE2817390708F458CE281B390BBD
:1025E0002E173F0708F452CE282F220F20936503A1
:1025F000EE0FFF1FBF01640F751FACE5B3E030E0C5
:1026000020E0FB0141816E5F7F4F1A964C931A9731
:10261000AB0142505109FA0140811B964C931B9724
:102620002F5F3F4F12962817390759F75FCEE09179
:102630006503F0916603FE27EF27FE2740916904AA
:1026400050916A044115510509F40DCE2091710491
:10265000309172042115310509F405CE809167038C
:1026600090916803982789279827BC0161507109C8
:102670006D37710508F0FECD2817390708F406CE2E
:10268000281B390B2E173F0708F400CE282F220FE6
:1026900020936503EE0FFF1FBF01640F751FACE5AC
:1026A000B3E030E020E0FB0141816E5F7F4F1A967E
:1026B0004C931A97AB0142505109FA0140811B9685
:1026C0004C931B972F5F3F4F12962817390759F7E6
:1026D0000DCE40916503509166035427452754273A
:1026E0008091670390916803982789279827209104
:1026F0006304309164042115310509F4B4CD60916F
:102700006B0470916C046115710509F4ACCD0097F0
:1027100029F08115FFEF9F0709F0ACCD4617570749
:1027200008F0B4CD240F351F41E0892B09F440E0B7
:10273000D9014C9386E0DDCD8091650390916603CD
:1027400098278927982720916703309168033227BB
:1027500023273227E0916704F0916804309709F449
:1027600082CD40916F04509170044115510509F4D8
:102770007ACD8417950708F089CD880F991FE80F47
:10278000F91F31832083D6CF609165037091660372
:1027900076276727762780916703909168039827AB
:1027A000892798272091630430916404232B09F42E
:1027B0005ACD20916B0430916C042115310509F438
:1027C00052CDAC0141505109403BB7E05B0708F0E6
:1027D00051CDE0916903485F5F4FF3E0569547950F
:1027E000FA95E1F7E417150609F044CD28173907E3
:1027F00008F44CCD281B390B2617370708F446CDB3
:1028000050E040E0E0916304F0916404E40FF51FB0
:10281000E60FF71FDA0123E0B695A7952A95E1F7B1
:10282000A45ABC4F1E962C9130E0DA01A770BB274A
:1028300002C035952795AA95E2F7217020834F5F56
:102840005F4F48175907F1F675CF80916503909156
:10285000660398278927982720916703309168039A
:102860003227232732274091670450916804452B73
:1028700009F4F9CC40916F04509170044115510551
:1028800009F4F1CCB901615071096B37710508F099
:10289000F1CCE0916903B901660F771FE6171706BF
:1028A00009F0E8CC4217530708F4F0CC421B530B55
:1028B0004817590708F4EACC880F991FECE5F3E0B4
:1028C00050E040E08C559340A0916704B0916804BB
:1028D000AE0FBF1FA80FB91F768567856D937C93D8
:1028E0004F5F5F4F32964217530771F723CF61E076
:1028F00018CD60E076CD62E370E080E090E00E9469
:10290000170210930B0280E593E00E94E70580E533
:1029100093E00E94B1056838734181059105B8F0D4
:102920008091130281110DC088E00E94F700892B6D
:1029300041F40E94DE0788E393E00E945B06109357
:10294000130264E670E080E090E00E94170288E0E5
:102950000E94F700892B09F046C08091130288235A
:1029600009F441C08091140281113DC062E370E01E
:1029700080E090E00E9417020E94550280910601BB
:10298000882309F4A5C180910902893008F09DC10E
:102990008F5F8093090260E081E10E94200164E67C
:1029A00070E080E090E00E94170261E081E10E9407
:1029B000200164E670E080E090E00E9417029091B0
:1029C0000802809109026AE0969F800D112480938D
:1029D0000A0264E670E080E090E00E94170288E35B
:1029E00093E00E945B0689E00E94F70020911302A9
:1029F000892B09F084C1222309F483C18091140238
:102A0000811140C062E370E080E090E00E94170214
:102A10000E9455028AE0E82EF12C60E08DE00E94D1
:102A200020016CE070E080E090E00E94170261E01D
:102A30008DE00E9420016CE070E080E090E00E9458
:102A4000170260E081E10E9420016CE070E080E00C
:102A500090E00E94170261E081E10E9420016CE099
:102A600070E080E090E00E94170281E0E81AF1082F
:102A7000A1F68091060180278093060188E393E008
:102A80000E945B0688E393E00E94B10561317742C2
:102A90008105910508F435C1F0900A02FF2039F054
:102AA00081E090E00E947D176F2DF81201C061E077
:102AB00081E090E00E94BA080E94DE07F1010995CA
:102AC00020C1809113028111F2CC0E9461076091B4
:102AD0000A02CE0101960E941708ED80FE80CE0109
:102AE00001960E940F08F2E0EF16F10409F43FC0CE
:102AF00023E0E216F10409F481C0EA94EF2809F01A
:102B0000DDC060910A02CE0101960E94170870E0B4
:102B100060E0CE0101960E94BB02E82ECE01019634
:102B20000E940F08EE2009F4C9C0D12CC12CEE2D53
:102B3000E053FF0B7F01CE14DF040CF0BFC060E058
:102B400081E10E94200164EF71E080E090E00E944A
:102B5000170261E081E10E94200164EF71E080E0F2
:102B600090E00E941702FFEFCF1ADF0AE4CF6091D6
:102B70000A02CE0101960E94170861E070E0CE01C2
:102B800001960E94BB02E82ECE0101960E940F081A
:102B900060910A02CE0101960E94170870E060E081
:102BA000CE0101960E94BB02C82ECE0101960E9462
:102BB0000F08CC2009F4B6CFB12CA12CAC2DA0531A
:102BC000BB0B6D01AC14BD040CF0ACCF60E08DE02C
:102BD0000E94200164EF71E080E090E00E94170203
:102BE00061E08DE00E94200164EF71E080E090E000
:102BF0000E941702BFEFAB1ABB0AE4CF60910A0232
:102C0000CE0101960E94170862E070E0CE010196A5
:102C10000E94BB02E82ECE0101960E940F0860912F
:102C20000A02CE0101960E94170861E070E0CE0111
:102C300001960E94BB02C82ECE0101960E940F0889
:102C400060910A02CE0101960E94170870E060E0D0
:102C5000CE0101960E94BB02A82ECE0101960E94D1
:102C60000F08AA2009F4A5CF912C812C8A2D80531E
:102C7000990B5C018A149B040CF09BCF60E08DE003
:102C80000E94200160E081E10E94200164EF71E078
:102C900080E090E00E94170261E08DE00E94200138
:102CA00061E081E10E94200164EF71E080E090E04A
:102CB0000E9417029FEF891A990ADCCF64E670E040
:102CC00080E090E00E941702F2CB1092090263CEDE
:102CD00080910802863180F48F5F8093080260E063
:102CE0008DE00E94200164E670E080E090E00E94A8
:102CF000170261E08DE05BCE10920802F0CF211147
:102D0000C1CE89E00E94F700892B41F48091130223
:102D1000811104C080911402882379F08091070208
:102D2000811156C084E493E00E945B0684E493E042
:102D30000E940B06109207020CC062E370E080E074
:102D400090E00E9417021093070284E493E00E942F
:102D5000E70584E493E00E94B1056838734181057A
:102D60009105E8F080911202811113C089E00E9460
:102D7000F700892B71F462E370E080E090E00E943C
:102D8000170288E393E00E945B060E94DE0710931F
:102D9000120264E670E080E090E00E94170288E092
:102DA0000E94F700892BE9F480911202811136C04C
:102DB00080E090E0892B11F40C948E0D0E94360374
:102DC000882311F40C948E0D0E9400000C948C0D3D
:102DD000809112028111A6CF0E9461070E942B07E9
:102DE000A1CF89E00E94F700892BF1F280911202B5
:102DF0008823F1F288E393E00E94B10561317742C4
:102E000081059105A8F26091060282E090E00E949F
:102E1000BA080E94DE07F1010995CACF8091140219
:102E20008111E8CF62E370E080E090E00E94170239
:102E30000E945502809106028F5F833078F4809360
:102E400006020E942B0788E393E00E945B0664E67B
:102E500070E080E090E00E941702C8CF1092060256
:102E6000F0CF20911502809107010C94120F85E498
:102E700091E090937D0480937C048091FA0190917D
:102E8000FB018C57944071F4E0918F04F091900411
:102E90009081809191048095892380831092FB0119
:102EA0001092FA010895BB27FB015527AA27880F26
:102EB000991FAA1FA41710F0A41B83955051B9F7AE
:102EC000A05DAA3308F0A95DA193009779F7B1112D
:102ED000B1931192CB010C946D17DC01FC01672FAB
:102EE00071917723E1F7329704C07C916D937083E1
:102EF0006291AE17BF07C8F30895F999FECF92BD4E
:102F000081BDF89A992780B50895262FF999FECFAB
:102F10001FBA92BD81BD20BD0FB6F894FA9AF99AF6
:102F20000FBE019608952F923F924F925F926F923B
:102F30007F928F929F92AF92BF92CF92DF92EF9249
:102F4000FF920F931F93CF93DF93CDB7DEB7CA1BCA
:102F5000DB0B0FB6F894DEBF0FBECDBF09942A88F5
:102F6000398848885F846E847D848C849B84AA849D
:102F7000B984C884DF80EE80FD800C811B81AA812A
:102F8000B981CE0FD11D0FB6F894DEBF0FBECDBFF5
:102F9000ED01089597FB072E16F4009407D077FDF6
:102FA00009D00E94061807FC05D03EF49095819543
:102FB0009F4F0895709561957F4F0895A1E21A2E55
:102FC000AA1BBB1BFD010DC0AA1FBB1FEE1FFF1FCD
:102FD000A217B307E407F50720F0A21BB30BE40B1D
:102FE000F50B661F771F881F991F1A9469F7609564
:102FF0007095809590959B01AC01BD01CF0108951E
:10300000EE0FFF1F0590F491E02D0994AA1BBB1B46
:1030100051E107C0AA1FBB1FA617B70710F0A61BD8
:10302000B70B881F991F5A95A9F780959095BC01F9
:10303000CD0108950F931F93CF93DF9382309105B5
:1030400010F482E090E0E0919D04F0919E0430E065
:1030500020E0B0E0A0E0309799F42115310509F4A3
:103060004AC0281B390B24303105D8F58A819B8151
:103070006115710589F1FB0193838283FE0111C003
:10308000408151810281138148175907E0F04817A8
:10309000590799F4109761F012960C9312971396B2
:1030A0001C933296CF01DF91CF911F910F9108951C
:1030B00000939D0410939E04F4CF2115310551F027
:1030C0004217530738F0A901DB019A01BD01DF0166
:1030D000F801C1CFEF01F9CF90939E0480939D0436
:1030E000CDCFFE01E20FF31F81939193225031095E
:1030F00039832883D7CF20919B0430919C04232BC4
:1031000041F420910B0130910C0130939C042093E9
:103110009B042091090130910A012115310541F4E8
:103120002DB73EB740910D0150910E01241B350B78
:10313000E0919B04F0919C04E217F307A0F42E1B8E
:103140003F0B2817390778F0AC014E5F5F4F24170B
:10315000350748F04E0F5F1F50939C0440939B042B
:10316000819391939FCFF0E0E0E09CCFCF93DF93EA
:103170000097E9F0FC01329713821282A0919D041E
:10318000B0919E04ED0130E020E01097A1F4208181
:103190003181820F931F20919B0430919C0428174A
:1031A000390709F061C0F0939C04E0939B04DF9120
:1031B000CF910895EA01CE17DF07E8F54A815B81D8
:1031C0009E0141155105B1F7E901FB83EA8349915D
:1031D0005991C40FD51FEC17FD0761F480819181CF
:1031E0000296840F951FE9019983888382819381D8
:1031F0009B838A83F0E0E0E012968D919C91139777
:103200000097B9F52D913C911197CD010296820F4F
:10321000931F20919B0430919C042817390739F69D
:10322000309751F510929E0410929D04B0939C0427
:10323000A0939B04BCCFD383C28340815181840F70
:10324000951FC817D90761F44E5F5F4F8881998138
:10325000480F591F518340838A819B8193838283C6
:103260002115310509F0B0CFF0939E04E0939D0441
:103270009ECFFD01DC01C0CF13821282D7CFB0E018
:10328000A0E0E5E4F9E10C9495178C01009751F466
:10329000CB010E941A188C01C801CDB7DEB7E0E15E
:1032A0000C94B117FC01E60FF71F9C012250310965
:1032B000E217F30708F49DC0D901CD91DC91119775
:1032C000C617D70798F0C530D10530F3CE01049763
:1032D0008617970708F3C61BD70B2297C193D19384
:1032E0006D937C93CF010E94B618D6CF5B01AC1AC8
:1032F000BD0A4C018C0E9D1EA0919D04B0919E04B0
:10330000512C412CF12CE12C109731F580919B042C
:1033100090919C048815990509F05CC046165706E3
:1033200008F058C08091090190910A01009741F47A
:103330008DB79EB740910D0150910E01841B950BE6
:10334000E817F90708F055C0F0939C04E0939B043C
:10335000F90171836083A0CF8D919C911197129692
:103360006C90129713967C901397A815B90559F590
:103370006C0142E0C40ED11CCA14DB0420F1AC0184
:103380004A195B09DA011296159780F062827382FE
:1033900051834083D9016D937C93E114F10471F062
:1033A000D7011396FC93EE93129776CF22968C0F4B
:1033B0009D1FF90191838083F301EFCFF0939E0469
:1033C000E0939D0469CF4816590608F42C017D014D
:1033D000D3019ACFCB010E941A187C01009749F0C3
:1033E000AE01B8010E94FC19C8010E94B6188701FD
:1033F00053CF10E000E050CFFB01DC0102C0019090
:103400000D9241505040D8F70895FB01DC01019026
:103410000D920020E1F7089510E0C2E6D0E004C06C
:10342000FE010E9400182196C336D107C9F7F8940F
:02343000FFCFCC
:1034320000040004000401FFFF00009F0480000E4E
:1034420001900100000203040908070605000000BC
:10345200006C03CC02F902B9032A0308031C03001F
:103462000000007D05500528072605490536052779
:1034720005000000009506CC0228072605F1060784
:04348200077D0600BC
:00000001FF
