:100000000C9463000C948B000C948B000C944407AC
:100010000C9444070C9444070C948B000C948B00B4
:100020000C948B000C948B000C948B000C948B0024
:100030000C948B000C948B000C948B000C948B0014
:100040000C94A2060C948B000C9412070C94EC06F2
:100050000C948B000C948B000C948B000C948B00F4
:100060000C948B000C948B000000000024002700EF
:100070002A0000000008000201000003040700003D
:1000800000000000000000000000230026002900FE
:1000900000000000250028002B00040404040404D0
:1000A0000404020202020202030303030303010227
:1000B00004081020408001020408102001020408F6
:1000C0001020BC07041211241FBECFEFD8E0DEBF02
:1000D000CDBF23E0AAE3B1E001C01D92AB3AB20765
:1000E000E1F711E0A0E0B1E0ECECF9E202C005902C
:1000F0000D92AA33B107D9F710E0C2E6D0E004C0F0
:100100002197FE010E94CD12C136D107C9F70E9486
:10011000AA080C94D9140C940000482FEFE6F2E0E2
:1001200020E08FEF9FEF241791F03191832738E083
:10013000BC016170772796958795672B21F051E078
:10014000852750EA9527315099F72F5FECCF089516
:10015000833081F028F4813099F08230A9F008953D
:100160008730A9F08830C9F08430B1F480918000E4
:100170008F7D03C0809180008F77809380000895E9
:1001800084B58F7784BD089584B58F7DFBCF809132
:10019000B0008F778093B00008958091B0008F7D7C
:1001A000F9CFCF93DF93282F30E0F901EE58FF4FBE
:1001B0008491F901E255FF4FD491F901E656FF4FC2
:1001C000C491CC23A1F081110E94A800EC2FF0E093
:1001D000EE0FFF1FEA57FF4FA591B491EC91ED236D
:1001E00081E090E009F480E0DF91CF91089580E014
:1001F00090E0FACF1F93CF93DF93282F30E0F901DF
:10020000EE58FF4F8491F901E255FF4FD491F90167
:10021000E656FF4FC491CC23A9F0162F81110E94FE
:10022000A800EC2FF0E0EE0FFF1FE057FF4FA59165
:10023000B4918FB7F894EC91111108C0D095DE23DA
:10024000DC938FBFDF91CF911F910895DE2BF8CF04
:10025000CF93DF9390916F02992309F44BC0C82F7D
:100260000E948D00D0E0FE01E859FD4F8783908702
:1002700080916E028F3F19F061E00E94FA00809138
:100280006C0290916D02AE014E5F5F4FDC01ED910B
:10029000FC910280F381E02D6FE672E00995809178
:1002A0006C0290916D02DC01ED91FC910680F7816A
:1002B000E02D099580916E028F3F19F060E00E9459
:1002C000FA0080916C0290916D02DC01ED91FC913D
:1002D0000084F185E02D0995892B61F080916C02F5
:1002E00090916D02DC01ED91FC910284F385E02D8B
:1002F0000995E7CFDF91CF910895E8E6F2E0908588
:1003000090689087818783E00C942801CF93DF93D6
:1003100090E0FC01E255FF4F249186569F4FFC016F
:1003200084918823C9F090E0880F991FFC01E85957
:10033000FF4FA591B491FC01E057FF4FC591D491B7
:1003400061110DC09FB7F8948C91209582238C93F6
:100350008881282328839FBFDF91CF910895623041
:1003600051F49FB7F8943C91822F809583238C930E
:10037000E8812E2BEFCF8FB7F894EC912E2B2C9396
:100380008FBFEACF8E3008F08E50877080648093E4
:100390007C0080917A00806480937A0080917A005A
:1003A00086FDFCCF809178009091790008953FB749
:1003B000F8948091970190919801A0919901B09142
:1003C0009A0126B5A89B05C02F3F19F00196A11DE3
:1003D000B11D3FBFBA2FA92F982F8827BC01CD018F
:1003E000620F711D811D911D42E0660F771F881FEE
:1003F000991F4A95D1F708958F929F92AF92BF921D
:10040000CF92DF92EF92FF924B015C010E94D701E5
:100410006B017C010E94D7016C197D098E099F092F
:10042000683E734081059105A8F321E0821A910886
:10043000A108B10888EEC80E83E0D81EE11CF11CAB
:1004400081149104A104B10429F7FF90EF90DF908B
:10045000CF90BF90AF909F908F9008952FB7F89452
:100460006091930170919401809195019091960112
:100470002FBF08950F931F9380914E0290914F02CA
:10048000019709F054C080914C0290914D02019760
:1004900021F50E942E02AB01BC018091480290918F
:1004A0004902A0914A02B0914B020091440210917E
:1004B00045022091460230914702801B910BA20B0E
:1004C000B30B840F951FA61FB71F8093480290930C
:1004D0004902A0934A02B0934B0280914C02909142
:1004E0004D02892B21F50E94D701AB01BC018091FF
:1004F000480290914902A0914A02B0914B020091AA
:100500004402109145022091460230914702801B1F
:10051000910BA20BB30B840F951FA61FB71F8093DF
:10052000480290934902A0934A02B0934B02109262
:100530004F0210924E021F910F910895FC012481E9
:1005400035816217730748F480819181009729F003
:10055000860F971FFC018081089580E00895AF9277
:10056000BF92CF92DF92EF92FF920F931F93CF93A0
:10057000DF936C017B018B01040F151FEB015E0102
:10058000AE18BF08C017D10759F06991D601ED9197
:10059000FC910190F081E02DC6010995892B79F736
:1005A000C501DF91CF911F910F91FF90EF90DF90E8
:1005B000CF90BF90AF900895FC01538D448D252FAF
:1005C00030E0842F90E0821B930B541710F0CF96ED
:1005D000089501970895FC01918D828D981761F01F
:1005E000A28DAE0FBF2FB11D5D968C91928D9F5F36
:1005F0009F73928F90E008958FEF9FEF0895FC0115
:10060000918D828D981731F0828DE80FF11D858DC7
:1006100090E008958FEF9FEF0895FC01918D228D5A
:10062000892F90E0805C9F4F821B91098F739927DF
:1006300008958BE991E00E940D0321E0892B09F4D4
:1006400020E0822F089580E090E0892B29F00E941D
:10065000190381110C9400000895FC01A48DA80FCA
:10066000B92FB11DA35ABF4F2C91848D90E00196F4
:100670008F739927848FA689B7892C93A089B18914
:100680008C91837080648C93938D848D981306C0B5
:100690000288F389E02D80818F7D80830895EF9219
:1006A000FF920F931F93CF93DF93EC0181E0888F2C
:1006B0009B8D8C8D98131AC0E889F989808185FFFC
:1006C00015C09FB7F894EE89FF896083E889F9899E
:1006D00080818370806480839FBF81E090E0DF91A0
:1006E000CF911F910F91FF90EF900895F62E0B8DF3
:1006F00010E00F5F1F4F0F731127E02E8C8D8E11AE
:100700000CC00FB607FCFACFE889F989808185FF14
:10071000F5CFCE010E942D03F1CFEB8DEC0FFD2F15
:10072000F11DE35AFF4FF0829FB7F8940B8FEA89CF
:10073000FB8980818062CFCFCF93DF93EC01888DDE
:100740008823B9F0AA89BB89E889F9898C9185FD4C
:1007500003C0808186FD0DC00FB607FCF7CF8C91DA
:1007600085FFF2CF808185FFEDCFCE010E942D0362
:10077000E9CFDF91CF9108950F931F93CF93DF932C
:10078000FC01228533852130310531F5EC012085CE
:10079000318521303105D9F40E942E02AB01BC0114
:1007A0008C819D81AE81BF81088119812A813B8125
:1007B000801B910BA20BB30B840F951FA61FB71FB5
:1007C000BC01CD01DF91CF911F910F910895232B93
:1007D00019F40E94D701E2CFFC0184819581A681A2
:1007E000B781EECFCF93DF93FC0122853385223092
:1007F0003105C9F4EC0180859185019731F40E949F
:100800002E02688379838A839B8388859985892BC7
:1008100031F40E94D701688379838A839B8381E0C6
:1008200090E09B878A87DF91CF910895CF92DF92E6
:10083000EF92FF920F931F93CF93DF93FC012285DA
:10084000338521303105C9F5EC018085918501970B
:10085000B1F4C480D580E680F7800E942E02088122
:1008600019812A813B81C01AD10AE20AF30AC60E15
:10087000D71EE81EF91ECC82DD82EE82FF828885BB
:100880009985892BB1F4CC80DD80EE80FF800E94B9
:10089000D701088119812A813B81C01AD10AE20A55
:1008A000F30AC60ED71EE81EF91ECC82DD82EE8248
:1008B000FF8282E090E09B878A87DF91CF911F9132
:1008C0000F91FF90EF90DF90CF900895CF93DF933B
:1008D000EC011C821D821E821F82888599850197EA
:1008E00031F40E942E02688379838A839B838885F2
:1008F0009985892B31F40E94D701688379838A8393
:100900009B8381E090E09B878A87DF91CF91089558
:1009100020917C0130917D012817390771F4909165
:100920007A0180917B01981741F0E0917A01F0E023
:10093000E65CFE4F808190E008958FEF9FEF089571
:100940000895EF92FF920F931F93CF93DF93DC01F3
:100950005C96ED90FC905D97E114F10479F481E0F0
:1009600090E013969C938E93129790E080E0DF9135
:10097000CF911F910F91FF90EF9008955196ED91B7
:10098000FC91529750968C915097982F90950FB755
:100990005E962C915E97122F127021FD6095F8944F
:1009A0002081112319F1282B2083E7012197F1F7EA
:1009B00028E0462F50E0308160FF1AC0382B30838A
:1009C000E7012197F1F7BA0175956795215089F7ED
:1009D000112381F08081892380830FBF5C968D91E4
:1009E0009C910197F1F781E090E0C1CF2923DCCF02
:1009F0003923E5CF9081892BEFCF20917C01309175
:100A00007D012817390761F480917B0120917A01DB
:100A100090E0805C9F4F821B91098F739927089506
:100A200090E080E0089520917C0130917D012817AD
:100A30003907B9F490917A0180917B01981789F078
:100A4000E0917A01F0E0E65CFE4F808120917A012E
:100A500030E02F5F3F4F2F73332720937A0190E0D0
:100A600008958FEF9FEF089590E080E008958091C2
:100A70008101813091F018F08230E1F0089561E059
:100A80008DE00E94FA0068EE73E080E090E00E9442
:100A9000FC0160E08DE00C94FA0061E089E00E94C6
:100AA000FA0068EE73E080E090E00E94FC0160E0F4
:100AB00089E0F1CF61E08DE00E94FA0061E089E019
:100AC0000E94FA0068EE73E080E090E00E94FC0172
:100AD00060E08DE00E94FA00EACF61E08DE00E94C4
:100AE000FA006AE070E080E090E00E94FC0160E0C3
:100AF0008DE00E94FA006AE070E080E090E00E94E1
:100B0000FC0161E089E00E94FA006AE070E080E0A8
:100B100090E00E94FC0160E089E00E94FA006AE037
:100B200070E080E090E00E94FC0161E08DE00E94B6
:100B3000FA006AE070E080E090E00E94FC0160E072
:100B40008DE00E94FA006AE070E080E090E00C9492
:100B5000FC01CF92DF92FF920F931F93CF93DF930D
:100B6000EC01F62E862F0E94C2010BE91FE0C8019E
:100B70000197F1F78F2D0E94C201CC0FDD1FCF5FCF
:100B8000DE4F19821882C8010197F1F70AE010E0E0
:100B90009BECC92E97E0D92E8F2D0E94C20128818F
:100BA0003981820F931F99838883F6013197F1F77A
:100BB0000150110989F76AE070E00E949712798369
:100BC0006883A895DF91CF911F910F91FF90DF90DF
:100BD000CF900895CF93DF93C4E1D0E061E08DE042
:100BE0000E94FA0069E170E080E090E00E94FC0160
:100BF00060E08DE00E94FA0069E170E080E090E042
:100C00000E94FC0161E089E00E94FA0069E170E065
:100C100080E090E00E94FC0160E089E00E94FA0020
:100C200069E170E080E090E00E94FC012197B1F65C
:100C3000DF91CF910895FC0180819181009711F09F
:100C40000C9483130895CF92DF92EF92FF920F934B
:100C50001F93CF93DF93CDB7DEB729970FB6F894E4
:100C6000DEBF0FBECDBF8C01862FF801118210822E
:100C700013821282158214824AE09E012F5F3F4F39
:100C80006901B90190E00E942012F6010190002054
:100C9000E9F731977F01EC18FD08F8018081918117
:100CA000009729F0228133812E153F0590F4B7017A
:100CB0006F5F7F4F0E940C14F801009799F09183A9
:100CC0008083F382E28224813581232B11F4FC019D
:100CD0001082F801F582E482B601808191810E9440
:100CE000D2140DC080819181009711F00E9483136E
:100CF000F8011182108215821482138212822996C1
:100D00000FB6F894DEBF0FBECDBFDF91CF911F911C
:100D10000F91FF90EF90DF90CF9008951F93CF93A6
:100D2000DF93EC01162F0E944A12181739F0612F39
:100D3000CE01DF91CF911F910C945212DF91CF9190
:100D40001F9108951F920F920FB60F9211242F93A7
:100D50003F938F939F93AF93BF9380919301909113
:100D60009401A0919501B09196013091920123E0F8
:100D7000230F2D3758F50196A11DB11D2093920127
:100D80008093930190939401A0939501B093960161
:100D90008091970190919801A0919901B0919A0149
:100DA0000196A11DB11D8093970190939801A09386
:100DB0009901B0939A01BF91AF919F918F913F910B
:100DC0002F910F900FBE0F901F90189526E8230FBC
:100DD0000296A11DB11DD2CF1F920F920FB60F9296
:100DE00011242F933F934F935F936F937F938F9330
:100DF0009F93AF93BF93EF93FF938BE991E00E9492
:100E00002D03FF91EF91BF91AF919F918F917F91B2
:100E10006F915F914F913F912F910F900FBE0F9067
:100E20001F9018951F920F920FB60F9211242F93B7
:100E30008F939F93EF93FF93E091AB01F091AC01FF
:100E40008081E091B101F091B20182FD1BC09081DF
:100E50008091B4018F5F8F732091B501821741F0AB
:100E6000E091B401F0E0E556FE4F958F8093B40118
:100E7000FF91EF919F918F912F910F900FBE0F9047
:100E80001F9018958081F4CF1F920F920FB60F928A
:100E900011242F933F934F935F936F937F938F937F
:100EA0009F93AF93BF93EF93FF93E0917C01F091F9
:100EB0007D01309749F0A685B7858585968D91FF90
:100EC00014C09C918923A1F4FF91EF91BF91AF9140
:100ED0009F918F917F916F915F914F913F912F9152
:100EE0000F900FBE0F901F9018959C91892361F76A
:100EF000A389B4899C918589809589238C9386895F
:100F000097890197F1F7608D718DA685B785558515
:100F100038E020E0CB010197F1F7822F90E0959522
:100F20008795282F4C91452309F02068315091F77F
:100F3000868D81FD209580917B0190E001968F73D5
:100F4000992730917A01381799F0A0917B01B0E090
:100F5000A65CBE4F2C9380937B01828D938D01976D
:100F6000F1F7A389B4898C919589892B8C93ACCFA7
:100F7000868D8160868FF1CF10929E0110929D0127
:100F800088EE93E0A0E0B0E080939F019093A001F1
:100F9000A093A101B093A20127E131E030939C011D
:100FA00020939B0125EC30E03093A8012093A7010A
:100FB00024EC30E03093AA012093A90120EC30E02A
:100FC0003093AC012093AB0121EC30E03093AE01C3
:100FD0002093AD0122EC30E03093B0012093AF01BB
:100FE00026EC30E03093B2012093B1011092B401AD
:100FF0001092B5011092B6011092B70110928B03B6
:1010000010928A0380938C0390938D03A0938E0398
:10101000B0938F0389E291E09093890380938803D2
:1010200010929F0310929E031092A1031092A003AE
:101030001092A3031092A2031092A5031092A4038E
:101040006091A6036E7F6D7F6093A60366956170C5
:1010500081E068278BE00E94FA0061E08BE00E944B
:101060008601E9EBF0E0E491E0939803E5EAF0E033
:10107000E491F0E0EE0FFF1FE057FF4F8591949150
:1010800090939A038093990360E08AE00E9486011E
:101090008091A60381FD04C061E08AE00E94FA000D
:1010A00088E893E02AE020939403E8EBF0E0E491F1
:1010B000E0939503E4EAF0E0E491F0E0EE0FFF1F27
:1010C000EA57FF4F2591349130939703209396036D
:1010D000109278031092770310927A03109279039A
:1010E00010927C0310927B0310927E0310927D037A
:1010F000109269021092680290936B0280936A02C8
:1011000090936D0280936C021092700310926F03A3
:101110001092720310927103109274031092730371
:10112000109276031092750382E080936E0281E044
:1011300090E09093650280936402909359028093AB
:10114000580290934D0280934C02909341028093F9
:1011500040020895CF93DF93CDB7DEB7A1970FB6C6
:10116000F894DEBF0FBECDBF789484B5826084BD95
:1011700084B5816084BD85B5826085BD85B581609B
:1011800085BD80916E00816080936E001092810019
:1011900080918100826080938100809181008160D4
:1011A0008093810080918000816080938000809195
:1011B000B10084608093B1008091B0008160809321
:1011C000B00080917A00846080937A0080917A00E8
:1011D000826080937A0080917A00816080937A00A7
:1011E00080917A00806880937A001092C10080E438
:1011F00090E00E944A12803479F060E480E490E04C
:101200000E948E0661E081E090E00E948E0661E01F
:1012100082E090E00E948E0681E090E00E944A12F7
:10122000182F8093850182E090E00E944A128093FB
:101230008101E82FF0E0EE0FFF1FE35FFE4F80819A
:101240009181909391018093900162E082E00E94ED
:10125000860162E083E00E94860162E084E00E94F1
:10126000860161E08DE00E94860161E089E00E94D4
:10127000860160E085E00E94860160E084E00E94D3
:10128000860161E087E00E9486018EE791E09093FD
:1012900072038093710383E090E090937A038093CC
:1012A000790329E831E0309374032093730390931A
:1012B0007C0380937B038FEF810F873F08F08DC104
:1012C00010937F03E0916802F0916902309709F46E
:1012D00087C18CE29AE0A0E0B0E080938003909315
:1012E0008103A0938203B09383038FE492E1A0E093
:1012F000B0E08093840390938503A0938603B0931A
:101300008703A089B18982E08C93A485B5851C925E
:10131000A685B7858FEC8C93108EA489B58986E05D
:101320008C93A289B3898C9180618C93A289B389B3
:101330008C9188608C93A289B3898C9180688C93FE
:101340000288F389E02D80818F7D808380916E02F9
:101350008F3F41F061E00E94860160E080916E0263
:101360000E94FA000E94D7016B017C0180916C02FF
:1013700090916D02DC01ED91FC910084F185E02DEE
:101380000995892B79F00E94D7016B017C0180912E
:101390006C0290916D02DC01ED91FC910284F38569
:1013A000E02D09950E94D7016C197D098E099F09CE
:1013B0000091840310918503209186033091870367
:1013C000601771078207930788F28CE592E00E940C
:1013D000660480E592E00E94660488E392E00E9441
:1013E000660461E088E00E94FA0064E670E080E054
:1013F00090E00E94FC0111E0812C912C5401839417
:1014000050E0252E50E0352E0AE06EE070E090E0CE
:1014100080E00E94A90565E070E080E090E00E9415
:10142000FC016FE070E081E090E00E94A90565E0BA
:1014300070E080E090E00E94FC0160E170E082E0FA
:1014400090E00E94A90565E070E080E090E00E94D5
:10145000FC018091900190919101209101013091C6
:101460000201281739070CF061C110938001209107
:10147000030130910401281739070CF05AC1109369
:101480007F012091050130910601281739070CF0E2
:1014900053C110937E0180916C0290916D02DC012A
:1014A000ED91FC910084F185E02D0995892B09F4DB
:1014B000A9C1412C512C3201F12CE12C80916C02FC
:1014C00090916D02DC01ED91FC910084F185E02D9D
:1014D0000995892BB1F00E94D7012B013C01809125
:1014E0006C0290916D02DC01ED91FC910284F38518
:1014F000E02D0995F701E859FD4F8783BFEFEB1AFF
:10150000FB0A0E94D7016419750986099709209181
:101510008003309181034091820350918303261709
:1015200037074807590728F0EFEFEE16F10431F2BC
:1015300028F20E94D701641975098609970920913C
:10154000840330918503409186035091870362178D
:1015500073078407950768F380916C0290916D0280
:10156000DC01ED91FC910084F185E02D0995892B3A
:1015700009F048C180916F0290917F03891711F0A3
:10158000811140C18EEF8E0D0E948D00F701E85948
:10159000FD4F268135812327322723278217930782
:1015A00009F030C1E0917002E150E03108F0E2C092
:1015B000F0E0E352F54F0C94CD129F0B0D0E6C0E24
:1015C000BE0E100F430FBA0BBA0BBA0BBA0BBA0B05
:1015D000BA0BBA0BBA0B6B0FCC0F10927F0372CE03
:1015E000E0916A02F0916B02309709F4AFCE8CE281
:1015F0009AE0A0E0B0E08093800390938103A093F1
:101600008203B09383038FE492E1A0E0B0E0809383
:10161000840390938503A0938603B0938703138E6E
:10162000128E118E108E178A168A8DE991E0958F91
:10163000848F84858631E0F52DEB30E0378B268B67
:101640002BE931E0318F208F2CE231E0338F228F74
:1016500090916800883008F45AC021E08E3008F478
:1016600020E081E001C0880F2A95EAF7892B80935A
:10167000680094852DE630E0983050F02BE630E09D
:101680009E3030F02CE630E0963110F030E020E073
:10169000348B238B292F30E09830D8F581E001C0BE
:1016A000880F9A95EAF7858B848D958D0197F1F7D0
:1016B000828D938D892B09F449CE40917C01509104
:1016C0007D01E417F50709F441CE4115510569F094
:1016D000DA0153962D913C91D9019C91DA015596EE
:1016E0008C9180958923D9018C93868D8E7F868FEE
:1016F00010927B0110927A01F0937D01E0937C01BE
:10170000A389B4898C919589892B8C931FCE84E011
:10171000ADCF9E3040F42850310981E001C0880FE0
:101720002A95EAF7C0CF2E503109F7CF10928001E9
:101730009ECE10927F01A5CE10927E01ACCE60911C
:101740007102709172027627672776278091730263
:1017500090917402982789279827A0916F03B091E0
:101760007003109739F04091770350917803411539
:10177000510511F481E006C0FC013197E03DF740CE
:1017800020F083E00E947D013DC04817590728F0F2
:10179000481B590B4617570710F482E0F3CFAC01F2
:1017A000495F5F4F33E0569547953A95E1F740938F
:1017B0007102A60FB71F50E040E06D919A012770AB
:1017C00033277501640104C0CC0CDD1CEE1CFF1C2A
:1017D0002A95D2F7FA0123E0F695E7952A95E1F7E5
:1017E000E559FD4F2781662309F413C2C22AC78237
:1017F0004F5F5F4F4817590701F7809171028D5F66
:101800000E94280180919001909191012091010105
:1018100030910201821793070CF010C4209103014C
:1018200030910401821793070CF008C42091050140
:1018300030910601821793070CF000C410928F01BB
:1018400061E087E00E94FA0060E08DE00E94FA000B
:101850000E942E0220EA3FE040E050E00E94AB12DE
:101860006C32714081059105C0F461E089E00E940D
:10187000FA006AE070E080E090E00E94FC0160E025
:1018800089E00E94FA0064E670E080E090E00E9447
:10189000FC0161E089E00E94FA0080918901909149
:1018A0008A01803C910509F055C080918B0190918F
:1018B0008C018035910509F04DC020918D0130914A
:1018C0008E0150E040E019A27E01F1E2EF0EF11C22
:1018D0009AE0492E512C612C712CCA01B901A30147
:1018E00092010E94AB12605DD7016E937D012115BC
:1018F00031054105510589F7109769F0FD01019007
:101900000020E9F73197AF014A1B5B0BBD018BE962
:1019100091E00E94AF0242E050E067E371E08BE9A2
:1019200091E00E94AF0260918D0170918E01663E40
:10193000710508F09BC381E090E00E948E060E9432
:10194000EA0568EE73E080E090E00E94FC01F0E0C0
:10195000E0E009958091890190918A010197E1F475
:1019600080918B0190918C010197B1F480918D0150
:1019700090918E01019781F461E081E090E00E94F6
:101980008E060E94EA0568EE73E080E090E00E9417
:10199000FC01F0E0E0E009958091890190918A01D5
:1019A0000A97B9F480918B0190918C010A9789F480
:1019B00080918D0190918E010A9759F40E94EA0559
:1019C00068EE73E080E090E00E94FC01F0E0E0E06F
:1019D00009958091890190918A010597F1F4809190
:1019E0008B0190918C010597C1F4A89560918D01B0
:1019F00070918E016330710508F03AC382E090E087
:101A00000E948E060E94EA0568EE73E080E090E096
:101A10000E94FC01F0E0E0E009958091890190913D
:101A20008A01069751F480918B0190918C01863642
:101A3000910519F4F0E0E0E009950FB6F894A89547
:101A400080916000886180936000109260000FBEFA
:101A500085E00E94D100892B09F00CC38091880198
:101A6000811108C380918F01811104C310938701F4
:101A70008CE592E00E94F2038CE592E00E94BC03A8
:101A80006838734181059105B8F080918601811114
:101A90000DC085E00E94D100892B41F40E94EA0527
:101AA00084E492E00E9466041093860164E670E08C
:101AB00080E090E00E94FC0185E00E94D100892B2B
:101AC00009F03EC0809186018823D1F180918F0179
:101AD000811136C00E943A0280910001882309F4E6
:101AE000DFC380918401893008F0D7C38F5F809372
:101AF000840161E089E00E94FA0064E670E080E021
:101B000090E00E94FC0160E089E00E94FA0064E637
:101B100070E080E090E00E94FC0190918301809150
:101B20008401909F800D11248093850164E670E00C
:101B300080E090E00E94FC0184E492E00E94660450
:101B400084E00E94D10020918601892B09F0BFC357
:101B5000222309F4BEC380918F0181113AC00E94F3
:101B60003A028AE0E82EF12C61E08DE00E94FA0052
:101B70006CE070E080E090E00E94FC0160E08DE0AD
:101B80000E94FA006CE070E080E090E00E94FC01AE
:101B900061E089E00E94FA006CE070E080E090E093
:101BA0000E94FC0160E089E00E94FA006CE070E0B5
:101BB00080E090E00E94FC01B1E0EB1AF108A1F690
:101BC0008091000181278093000184E492E00E94CB
:101BD000660484E492E00E94BC036131774281058F
:101BE000910508F476C3F0908501FF2039F081E07B
:101BF00090E00E944A126F2DF81201C061E081E06E
:101C000090E00E948E060E94EA05F0E0E0E009956F
:101C100060C3C0942C212783EBCD60917102709139
:101C2000720276276727762780917302909174025B
:101C3000982789279827A0917103B0917203109774
:101C400009F498CD4091790350917A0341155105DB
:101C500009F490CDFC013197E03DF74008F091CDBB
:101C60004817590708F499CD481B590B46175707D1
:101C700008F493CDAC01495F5F4FE3E0569547957B
:101C8000EA95E1F740937102A60FB71F50E040E0DC
:101C90006D919A01277033277501640104C0CC0C43
:101CA000DD1CEE1CFF1C2A95D2F7FA0133E0F695F5
:101CB000E7953A95E1F7E559FD4F2781662341F015
:101CC000C22AC7824F5F5F4F8417950709F795CDEA
:101CD000C0942C212783F6CFE0917102F09172021B
:101CE000FE27EF27FE27409173035091740341159F
:101CF000510509F43FCD20917B0330917C032115E0
:101D0000310509F437CD80917302909174029827C0
:101D100089279827BC01615071096D37710508F05A
:101D200030CD2817390708F438CD281B390B2E176A
:101D30003F0708F432CD282F220F20937102EE0FB7
:101D4000FF1FBF01640F751FA8E6B2E030E020E07E
:101D5000FB0141816E5F7F4F1A964C931A97AB013E
:101D600042505109FA0140811B964C931B972F5FFB
:101D70003F4F12962817390759F73FCDE09171026E
:101D8000F0917202FE27EF27FE27409175035091D4
:101D900076034115510509F4EDCC20917D03309176
:101DA0007E032115310509F4E5CC809173029091F1
:101DB0007402982789279827BC01615071096D37F3
:101DC000710508F0DECC2817390708F4E6CC281B8B
:101DD000390B2E173F0708F4E0CC282F220F209351
:101DE0007102EE0FFF1FBF01640F751FA8E6B2E07E
:101DF00030E020E0FB0141816E5F7F4F1A964C93EB
:101E00001A97AB0142505109FA0140811B964C933D
:101E10001B972F5F3F4F12962817390759F7EDCCC4
:101E200040917102509172025427452754278091A6
:101E300073029091740298278927982720916F0345
:101E4000309170032115310509F494CC609177032A
:101E5000709178036115710509F48CCC009729F015
:101E60008115FFEF9F0709F08CCC4617570708F044
:101E700094CC240F351F41E0892B09F440E0D901AF
:101E80004C9386E0BDCC80917102909172029827AC
:101E900089279827209173023091740232272327D3
:101EA0003227E0917303F0917403309709F462CC08
:101EB00040917B0350917C034115510509F45ACCA4
:101EC0008417950708F069CC880F991FE80FF91F50
:101ED00031832083D6CF6091710270917202762790
:101EE000672776278091730290917402982789273B
:101EF000982720916F0330917003232B09F43ACC7B
:101F000020917703309178032115310509F432CC03
:101F1000AC0141505109403BB7E05B0708F031CCC0
:101F2000E0917502485F5F4FF3E056954795FA954B
:101F3000E1F7E417150609F024CC2817390708F44F
:101F40002CCC281B390B2617370708F426CC50E079
:101F500040E0E0916F03F0917003E40FF51FE60F8E
:101F6000F71FDA0123E0B695A7952A95E1F7A8595E
:101F7000BD4F1E962C9130E0DA01A770BB2702C03E
:101F800035952795AA95E2F7217020834F5F5F4F23
:101F900048175907F1F675CF80917102909172023E
:101FA000982789279827209173023091740232274D
:101FB000232732274091730350917403452B09F472
:101FC000D9CB40917B0350917C034115510509F415
:101FD000D1CBB901615071096B37710508F0D1CBD4
:101FE000E0917502B901660F771FE617170609F031
:101FF000C8CB4217530708F4D0CB421B530B4817EA
:10200000590708F4CACB880F991FE8E6F2E050E0C0
:1020100040E088569240A0917303B0917403AE0FD4
:10202000BF1FA80FB91F768567856D937C934F5F9F
:102030005F4F32964217530771F723CF10938F01EA
:1020400060E087E00E94FA000E942E0224E630E061
:1020500040E050E00E94AB126233710581059105AA
:1020600018F461E08DE017CC60E0FCCF61E063CC58
:1020700060E0C4CC80918701882309F403C180917A
:1020800086018111FFC00E946D0560918501CE011E
:1020900001960E942306ED80FE80CE0101960E94EB
:1020A0001B06F2E0EF16F10409F43FC023E0E2164C
:1020B000F10409F481C0EA94EF2809F0DDC06091D1
:1020C0008501CE0101960E94230670E060E0CE01FA
:1020D00001960E949E02E82ECE0101960E941B06E8
:1020E000EE2009F4C9C0D12CC12C8E2D8053990B40
:1020F0007C01CE14DF040CF0BFC061E089E00E94D7
:10210000FA0064EF71E080E090E00E94FC0160E082
:1021100089E00E94FA0064EF71E080E090E00E94A4
:10212000FC019FEFC91AD90AE4CF60918501CE0165
:1021300001960E94230661E070E0CE0101960E94A4
:102140009E02E82ECE0101960E941B066091850139
:10215000CE0101960E94230670E060E0CE01019658
:102160000E949E02C82ECE0101960E941B06CC2022
:1021700009F4B6CF712C612CEC2DE053FF0B6F01ED
:102180006C147D040CF0ACCF61E08DE00E94FA008D
:1021900064EF71E080E090E00E94FC0160E08DE07F
:1021A0000E94FA0064EF71E080E090E00E94FC0180
:1021B000FFEF6F1A7F0AE4CF60918501CE0101968F
:1021C0000E94230662E070E0CE0101960E949E020A
:1021D000E82ECE0101960E941B0660918501CE017A
:1021E00001960E94230661E070E0CE0101960E94F4
:1021F0009E02C82ECE0101960E941B0660918501A9
:10220000CE0101960E94230670E060E0CE010196A7
:102210000E949E02682ECE0101960E941B06662037
:1022200009F4A5CF512C412CA62DA053BB0B3D0189
:10223000461457040CF09BCF61E08DE00E94FA0039
:1022400061E089E00E94FA0064EF71E080E090E0D4
:102250000E94FC0160E08DE00E94FA0060E089E0ED
:102260000E94FA0064EF71E080E090E00E94FC01BF
:10227000BFEF4B1A5B0ADCCF64E670E080E090E0D1
:102280000E94FC018CE592E00E9466048CE592E0DD
:102290000E94160410928701EFCB1092840129CC82
:1022A00080918301863180F48F5F8093830161E0A8
:1022B0008DE00E94FA0064E670E080E090E00E9409
:1022C000FC0160E08DE021CC10928301F0CF211160
:1022D00080CC84E00E94D100892B41F4809186015A
:1022E000811104C080918F01882379F0809182014F
:1022F000811146C080E592E00E94660480E592E08C
:102300000E9416041092820106C01093820180E59B
:1023100092E00E94F20380E592E00E94BC036838DC
:10232000734181059105B8F08091880181110DC03C
:1023300084E00E94D100892B41F484E492E00E9461
:1023400066040E94EA051093880164E670E080E06C
:1023500090E00E94FC0185E00E94D100892BC9F425
:1023600080918801811133C02114310409F44DC8D2
:102370000E941903882309F448C80E94000044C839
:10238000809188018111B6CF0E946D050E943705AA
:10239000B1CF84E00E94D100892B11F38091880194
:1023A000882311F384E492E00E94BC0361317742F8
:1023B00081059105C8F26091810182E090E00E9460
:1023C0008E060E94EA05F0E0E0E00995CDCF80910D
:1023D0008F018111E7CF0E943A02809181018F5FC6
:1023E000833078F4809381010E94370584E492E081
:1023F0000E94660464E670E080E090E00E94FC01C8
:10240000CDCF10928101F0CF89E291E090938903C2
:102410008093880380917C0190917D01885893403E
:1024200071F4E0919B03F0919C03908180919D0356
:1024300080958923808310927D0110927C010895FC
:10244000BB27FB015527AA27880F991FAA1FA4178E
:1024500010F0A41B83955051B9F7A05DAA3308F082
:10246000A95DA193009779F7B111B1931192CB01B6
:102470000C943A12DC01FC01672F71917723E1F78C
:10248000329704C07C916D9370836291AE17BF0741
:10249000C8F30895F999FECF92BD81BDF89A9927A6
:1024A00080B50895262FF999FECF1FBA92BD81BD40
:1024B00020BD0FB6F894FA9AF99A0FBE01960895C6
:1024C0002F923F924F925F926F927F928F929F9244
:1024D000AF92BF92CF92DF92EF92FF920F931F9332
:1024E000CF93DF93CDB7DEB7CA1BDB0B0FB6F894E3
:1024F000DEBF0FBECDBF09942A88398848885F8423
:102500006E847D848C849B84AA84B984C884DF8093
:10251000EE80FD800C811B81AA81B981CE0FD11D77
:102520000FB6F894DEBF0FBECDBFED01089597FB47
:10253000072E16F4009407D077FD09D00E94D3121D
:1025400007FC05D03EF4909581959F4F08957095B6
:1025500061957F4F0895A1E21A2EAA1BBB1BFD01B6
:102560000DC0AA1FBB1FEE1FFF1FA217B307E40772
:10257000F50720F0A21BB30BE40BF50B661F771FCA
:10258000881F991F1A9469F76095709580959095AA
:102590009B01AC01BD01CF010895EE0FFF1F059017
:1025A000F491E02D0994AA1BBB1B51E107C0AA1F9F
:1025B000BB1FA617B70710F0A61BB70B881F991FE4
:1025C0005A95A9F780959095BC01CD0108950F9378
:1025D0001F93CF93DF938230910510F482E090E057
:1025E000E091A903F091AA0330E020E0B0E0A0E080
:1025F000309799F42115310509F44AC0281B390B8D
:1026000024303105D8F58A819B816115710589F1E6
:10261000FB0193838283FE0111C0408151810281BD
:10262000138148175907E0F04817590799F4109794
:1026300061F012960C93129713961C933296CF0169
:10264000DF91CF911F910F9108950093A9031093EB
:10265000AA03F4CF2115310551F04217530738F082
:10266000A901DB019A01BD01DF01F801C1CFEF0132
:10267000F9CF9093AA038093A903CDCFFE01E20F77
:10268000F31F819391932250310939832883D7CF47
:102690002091A7033091A803232B41F42091090135
:1026A00030910A013093A8032093A70320910701DA
:1026B000309108012115310541F42DB73EB7409105
:1026C0000B0150910C01241B350BE091A703F091F5
:1026D000A803E217F307A0F42E1B3F0B28173907B6
:1026E00078F0AC014E5F5F4F2417350748F04E0F6E
:1026F0005F1F5093A8034093A703819391939FCFAB
:10270000F0E0E0E09CCFCF93DF930097E9F0FC018D
:10271000329713821282A091A903B091AA03ED010E
:1027200030E020E01097A1F420813181820F931FC7
:102730002091A7033091A8032817390709F061C039
:10274000F093A803E093A703DF91CF910895EA01E6
:10275000CE17DF07E8F54A815B819E0141155105DF
:10276000B1F7E901FB83EA8349915991C40FD51F61
:10277000EC17FD0761F4808191810296840F951F0B
:10278000E90199838883828193819B838A83F0E026
:10279000E0E012968D919C9113970097B9F52D91D9
:1027A0003C911197CD010296820F931F2091A703B0
:1027B0003091A8032817390739F6309751F5109250
:1027C000AA031092A903B093A803A093A703BCCFB8
:1027D000D383C28340815181840F951FC817D907C5
:1027E00061F44E5F5F4F88819981480F591F518373
:1027F00040838A819B81938382832115310509F06F
:10280000B0CFF093AA03E093A9039ECFFD01DC01B2
:10281000C0CF13821282D7CFB0E0A0E0E2E1F4E1B2
:102820000C9462128C01009751F4CB010E94E712C4
:102830008C01C801CDB7DEB7E0E10C947E12FC013B
:10284000E60FF71F9C0122503109E217F30708F445
:102850009DC0D901CD91DC911197C617D70798F08B
:10286000C530D10530F3CE0104978617970708F3DA
:10287000C61BD70B2297C193D1936D937C93CF0145
:102880000E948313D6CF5B01AC1ABD0A4C018C0E9B
:102890009D1EA091A903B091AA03512C412CF12CAB
:1028A000E12C109731F58091A7039091A80388152A
:1028B000990509F05CC04616570608F058C080918B
:1028C000070190910801009741F48DB79EB74091A0
:1028D0000B0150910C01841B950BE817F90708F0C8
:1028E00055C0F093A803E093A703F90171836083B7
:1028F000A0CF8D919C91119712966C901297139680
:102900007C901397A815B90559F56C0142E0C40EE7
:10291000D11CCA14DB0420F1AC014A195B09DA01AD
:102920001296159780F06282738251834083D90199
:102930006D937C93E114F10471F0D7011396FC932D
:10294000EE93129776CF22968C0F9D1FF9019183FB
:102950008083F301EFCFF093AA03E093A90369CF3B
:102960004816590608F42C017D01D3019ACFCB01FA
:102970000E94E7127C01009749F0AE01B8010E9465
:10298000C914C8010E948313870153CF10E000E0EF
:1029900050CFFB01DC0102C001900D92415050402C
:1029A000D8F70895FB01DC0101900D920020E1F7BA
:1029B000089510E0C2E6D0E004C0FE010E94CD12EE
:0C29C0002196C336D107C9F7F894FFCF69
:1029CC00010004000400040000AB0380005E01F46D
:1029DC00018A02000000004F03AF02DC029C030DD1
:1029EC0003EB02FF0200000000A104AF023405A0BB
:0A29FC0004FD04130588040D0A0011
:00000001FF
