:100000000C9463000C948B000C948B000C944407AC
:100010000C9444070C9444070C948B000C948B00B4
:100020000C948B000C948B000C948B000C948B0024
:100030000C948B000C948B000C948B000C948B0014
:100040000C94A2060C948B000C9412070C94EC06F2
:100050000C948B000C948B000C948B000C948B00F4
:100060000C948B000C948B000000000024002700EF
:100070002A0000000008000201000003040700003D
:1000800000000000000000000000230026002900FE
:1000900000000000250028002B00040404040404D0
:1000A0000404020202020202030303030303010227
:1000B00004081020408001020408102001020408F6
:1000C0001020BC073A1211241FBECFEFD8E0DEBFCC
:1000D000CDBF23E0AAE3B1E001C01D92AC3AB20764
:1000E000E1F711E0A0E0B1E0E8E3FAE202C0059038
:1000F0000D92AA33B107D9F710E0C2E6D0E004C0F0
:100100002197FE010E940313C136D107C9F70E944F
:10011000AA080C940F150C940000482FE0E7F2E0B9
:1001200020E08FEF9FEF241791F03191832738E083
:10013000BC016170772796958795672B21F051E078
:10014000852750EA9527315099F72F5FECCF089516
:10015000833081F028F4813099F08230A9F008953D
:100160008730A9F08830C9F08430B1F480918000E4
:100170008F7D03C0809180008F77809380000895E9
:1001800084B58F7784BD089584B58F7DFBCF809132
:10019000B0008F778093B00008958091B0008F7D7C
:1001A000F9CFCF93DF93282F30E0F901EE58FF4FBE
:1001B0008491F901E255FF4FD491F901E656FF4FC2
:1001C000C491CC23A1F081110E94A800EC2FF0E093
:1001D000EE0FFF1FEA57FF4FA591B491EC91ED236D
:1001E00081E090E009F480E0DF91CF91089580E014
:1001F00090E0FACF1F93CF93DF93282F30E0F901DF
:10020000EE58FF4F8491F901E255FF4FD491F90167
:10021000E656FF4FC491CC23A9F0162F81110E94FE
:10022000A800EC2FF0E0EE0FFF1FE057FF4FA59165
:10023000B4918FB7F894EC91111108C0D095DE23DA
:10024000DC938FBFDF91CF911F910895DE2BF8CF04
:10025000CF93DF9390917002992309F44BC0C82F7C
:100260000E948D00D0E0FE01E759FD4F8783908703
:1002700080916F028F3F19F061E00E94FA00809137
:100280006D0290916E02AE014E5F5F4FDC01ED9109
:10029000FC910280F381E02D60E772E00995809186
:1002A0006D0290916E02DC01ED91FC910680F78168
:1002B000E02D099580916F028F3F19F060E00E9458
:1002C000FA0080916D0290916E02DC01ED91FC913B
:1002D0000084F185E02D0995892B61F080916D02F4
:1002E00090916E02DC01ED91FC910284F385E02D8A
:1002F0000995E7CFDF91CF910895E9E6F2E0908587
:1003000090689087818783E00C942801CF93DF93D6
:1003100090E0FC01E255FF4F249186569F4FFC016F
:1003200084918823C9F090E0880F991FFC01E85957
:10033000FF4FA591B491FC01E057FF4FC591D491B7
:1003400061110DC09FB7F8948C91209582238C93F6
:100350008881282328839FBFDF91CF910895623041
:1003600051F49FB7F8943C91822F809583238C930E
:10037000E8812E2BEFCF8FB7F894EC912E2B2C9396
:100380008FBFEACF8E3008F08E50877080648093E4
:100390007C0080917A00806480937A0080917A005A
:1003A00086FDFCCF809178009091790008953FB749
:1003B000F8948091980190919901A0919A01B0913F
:1003C0009B0126B5A89B05C02F3F19F00196A11DE2
:1003D000B11D3FBFBA2FA92F982F8827BC01CD018F
:1003E000620F711D811D911D42E0660F771F881FEE
:1003F000991F4A95D1F708958F929F92AF92BF921D
:10040000CF92DF92EF92FF924B015C010E94D701E5
:100410006B017C010E94D7016C197D098E099F092F
:10042000683E734081059105A8F321E0821A910886
:10043000A108B10888EEC80E83E0D81EE11CF11CAB
:1004400081149104A104B10429F7FF90EF90DF908B
:10045000CF90BF90AF909F908F9008952FB7F89452
:10046000609194017091950180919601909197010E
:100470002FBF08950F931F9380914F0290915002C8
:10048000019709F054C080914D0290914E0201975E
:1004900021F50E942E02AB01BC018091490290918E
:1004A0004A02A0914B02B0914C020091450210917A
:1004B00046022091470230914802801B910BA20B0B
:1004C000B30B840F951FA61FB71F8093490290930B
:1004D0004A02A0934B02B0934C0280914D0290913E
:1004E0004E02892B21F50E94D701AB01BC018091FE
:1004F000490290914A02A0914B02B0914C020091A6
:100500004502109146022091470230914802801B1B
:10051000910BA20BB30B840F951FA61FB71F8093DF
:10052000490290934A02A0934B02B0934C0210925E
:10053000500210924F021F910F910895FC012481E7
:1005400035816217730748F480819181009729F003
:10055000860F971FFC018081089580E00895AF9277
:10056000BF92CF92DF92EF92FF920F931F93CF93A0
:10057000DF936C017B018B01040F151FEB015E0102
:10058000AE18BF08C017D10759F06991D601ED9197
:10059000FC910190F081E02DC6010995892B79F736
:1005A000C501DF91CF911F910F91FF90EF90DF90E8
:1005B000CF90BF90AF900895FC01538D448D252FAF
:1005C00030E0842F90E0821B930B541710F0CF96ED
:1005D000089501970895FC01918D828D981761F01F
:1005E000A28DAE0FBF2FB11D5D968C91928D9F5F36
:1005F0009F73928F90E008958FEF9FEF0895FC0115
:10060000918D828D981731F0828DE80FF11D858DC7
:1006100090E008958FEF9FEF0895FC01918D228D5A
:10062000892F90E0805C9F4F821B91098F739927DF
:1006300008958CE991E00E940D0321E0892B09F4D3
:1006400020E0822F089580E090E0892B29F00E941D
:10065000190381110C9400000895FC01A48DA80FCA
:10066000B92FB11DA35ABF4F2C91848D90E00196F4
:100670008F739927848FA689B7892C93A089B18914
:100680008C91837080648C93938D848D981306C0B5
:100690000288F389E02D80818F7D80830895EF9219
:1006A000FF920F931F93CF93DF93EC0181E0888F2C
:1006B0009B8D8C8D98131AC0E889F989808185FFFC
:1006C00015C09FB7F894EE89FF896083E889F9899E
:1006D00080818370806480839FBF81E090E0DF91A0
:1006E000CF911F910F91FF90EF900895F62E0B8DF3
:1006F00010E00F5F1F4F0F731127E02E8C8D8E11AE
:100700000CC00FB607FCFACFE889F989808185FF14
:10071000F5CFCE010E942D03F1CFEB8DEC0FFD2F15
:10072000F11DE35AFF4FF0829FB7F8940B8FEA89CF
:10073000FB8980818062CFCFCF93DF93EC01888DDE
:100740008823B9F0AA89BB89E889F9898C9185FD4C
:1007500003C0808186FD0DC00FB607FCF7CF8C91DA
:1007600085FFF2CF808185FFEDCFCE010E942D0362
:10077000E9CFDF91CF9108950F931F93CF93DF932C
:10078000FC01228533852130310531F5EC012085CE
:10079000318521303105D9F40E942E02AB01BC0114
:1007A0008C819D81AE81BF81088119812A813B8125
:1007B000801B910BA20BB30B840F951FA61FB71FB5
:1007C000BC01CD01DF91CF911F910F910895232B93
:1007D00019F40E94D701E2CFFC0184819581A681A2
:1007E000B781EECFCF93DF93FC0122853385223092
:1007F0003105C9F4EC0180859185019731F40E949F
:100800002E02688379838A839B8388859985892BC7
:1008100031F40E94D701688379838A839B8381E0C6
:1008200090E09B878A87DF91CF910895CF92DF92E6
:10083000EF92FF920F931F93CF93DF93FC012285DA
:10084000338521303105C9F5EC018085918501970B
:10085000B1F4C480D580E680F7800E942E02088122
:1008600019812A813B81C01AD10AE20AF30AC60E15
:10087000D71EE81EF91ECC82DD82EE82FF828885BB
:100880009985892BB1F4CC80DD80EE80FF800E94B9
:10089000D701088119812A813B81C01AD10AE20A55
:1008A000F30AC60ED71EE81EF91ECC82DD82EE8248
:1008B000FF8282E090E09B878A87DF91CF911F9132
:1008C0000F91FF90EF90DF90CF900895CF93DF933B
:1008D000EC011C821D821E821F82888599850197EA
:1008E00031F40E942E02688379838A839B838885F2
:1008F0009985892B31F40E94D701688379838A8393
:100900009B8381E090E09B878A87DF91CF91089558
:1009100020917C0130917D012817390771F4909165
:100920007A0180917B01981741F0E0917A01F0E023
:10093000E65CFE4F808190E008958FEF9FEF089571
:100940000895EF92FF920F931F93CF93DF93DC01F3
:100950005C96ED90FC905D97E114F10479F481E0F0
:1009600090E013969C938E93129790E080E0DF9135
:10097000CF911F910F91FF90EF9008955196ED91B7
:10098000FC91529750968C915097982F90950FB755
:100990005E962C915E97122F127021FD6095F8944F
:1009A0002081112319F1282B2083E7012197F1F7EA
:1009B00028E0462F50E0308160FF1AC0382B30838A
:1009C000E7012197F1F7BA0175956795215089F7ED
:1009D000112381F08081892380830FBF5C968D91E4
:1009E0009C910197F1F781E090E0C1CF2923DCCF02
:1009F0003923E5CF9081892BEFCF20917C01309175
:100A00007D012817390761F480917B0120917A01DB
:100A100090E0805C9F4F821B91098F739927089506
:100A200090E080E0089520917C0130917D012817AD
:100A30003907B9F490917A0180917B01981789F078
:100A4000E0917A01F0E0E65CFE4F808120917A012E
:100A500030E02F5F3F4F2F73332720937A0190E0D0
:100A600008958FEF9FEF089590E080E008958091C2
:100A70008101813091F018F08230E1F0089561E059
:100A80008DE00E94FA0068EE73E080E090E00E9442
:100A9000FC0160E08DE00C94FA0061E089E00E94C6
:100AA000FA0068EE73E080E090E00E94FC0160E0F4
:100AB00089E0F1CF61E08DE00E94FA0061E089E019
:100AC0000E94FA0068EE73E080E090E00E94FC0172
:100AD00060E08DE00E94FA00EACF61E08DE00E94C4
:100AE000FA006AE070E080E090E00E94FC0160E0C3
:100AF0008DE00E94FA006AE070E080E090E00E94E1
:100B0000FC0161E089E00E94FA006AE070E080E0A8
:100B100090E00E94FC0160E089E00E94FA006AE037
:100B200070E080E090E00E94FC0161E08DE00E94B6
:100B3000FA006AE070E080E090E00E94FC0160E072
:100B40008DE00E94FA006AE070E080E090E00C9492
:100B5000FC01CF92DF92FF920F931F93CF93DF930D
:100B6000EC01F62E862F0E94C2010BE91FE0C8019E
:100B70000197F1F78F2D0E94C201CC0FDD1FCF5FCF
:100B8000DE4F19821882C8010197F1F70AE010E0E0
:100B90009BECC92E97E0D92E8F2D0E94C20128818F
:100BA0003981820F931F99838883F6013197F1F77A
:100BB0000150110989F76AE070E00E94CD12798333
:100BC0006883A895DF91CF911F910F91FF90DF90DF
:100BD000CF900895CF93DF93C4E1D0E061E08DE042
:100BE0000E94FA0069E170E080E090E00E94FC0160
:100BF00060E08DE00E94FA0069E170E080E090E042
:100C00000E94FC0161E089E00E94FA0069E170E065
:100C100080E090E00E94FC0160E089E00E94FA0020
:100C200069E170E080E090E00E94FC012197B1F65C
:100C3000DF91CF910895FC0180819181009711F09F
:100C40000C94B9130895CF92DF92EF92FF920F9315
:100C50001F93CF93DF93CDB7DEB729970FB6F894E4
:100C6000DEBF0FBECDBF8C01862FF801118210822E
:100C700013821282158214824AE09E012F5F3F4F39
:100C80006901B90190E00E945612F601019000201E
:100C9000E9F731977F01EC18FD08F8018081918117
:100CA000009729F0228133812E153F0590F4B7017A
:100CB0006F5F7F4F0E944214F801009799F0918373
:100CC0008083F382E28224813581232B11F4FC019D
:100CD0001082F801F582E482B601808191810E9440
:100CE00008150DC080819181009711F00E94B91301
:100CF000F8011182108215821482138212822996C1
:100D00000FB6F894DEBF0FBECDBFDF91CF911F911C
:100D10000F91FF90EF90DF90CF9008951F93CF93A6
:100D2000DF93EC01162F0E948012181739F0612F03
:100D3000CE01DF91CF911F910C948812DF91CF915A
:100D40001F9108951F920F920FB60F9211242F93A7
:100D50003F938F939F93AF93BF9380919401909112
:100D60009501A0919601B09197013091930123E0F4
:100D7000230F2D3758F50196A11DB11D2093930126
:100D80008093940190939501A0939601B09397015D
:100D90008091980190919901A0919A01B0919B0145
:100DA0000196A11DB11D8093980190939901A09384
:100DB0009A01B0939B01BF91AF919F918F913F9109
:100DC0002F910F900FBE0F901F90189526E8230FBC
:100DD0000296A11DB11DD2CF1F920F920FB60F9296
:100DE00011242F933F934F935F936F937F938F9330
:100DF0009F93AF93BF93EF93FF938CE991E00E9491
:100E00002D03FF91EF91BF91AF919F918F917F91B2
:100E10006F915F914F913F912F910F900FBE0F9067
:100E20001F9018951F920F920FB60F9211242F93B7
:100E30008F939F93EF93FF93E091AC01F091AD01FD
:100E40008081E091B201F091B30182FD1BC09081DD
:100E50008091B5018F5F8F732091B601821741F0A9
:100E6000E091B501F0E0E456FE4F958F8093B50117
:100E7000FF91EF919F918F912F910F900FBE0F9047
:100E80001F9018958081F4CF1F920F920FB60F928A
:100E900011242F933F934F935F936F937F938F937F
:100EA0009F93AF93BF93EF93FF93E0917C01F091F9
:100EB0007D01309749F0A685B7858585968D91FF90
:100EC00014C09C918923A1F4FF91EF91BF91AF9140
:100ED0009F918F917F916F915F914F913F912F9152
:100EE0000F900FBE0F901F9018959C91892361F76A
:100EF000A389B4899C918589809589238C9386895F
:100F000097890197F1F7608D718DA685B785558515
:100F100038E020E0CB010197F1F7822F90E0959522
:100F20008795282F4C91452309F02068315091F77F
:100F3000868D81FD209580917B0190E001968F73D5
:100F4000992730917A01381799F0A0917B01B0E090
:100F5000A65CBE4F2C9380937B01828D938D01976D
:100F6000F1F7A389B4898C919589892B8C93ACCFA7
:100F7000868D8160868FF1CF10929F0110929E0125
:100F800088EE93E0A0E0B0E08093A0019093A101EF
:100F9000A093A201B093A30127E131E030939D011A
:100FA00020939C0125EC30E03093A9012093A80107
:100FB00024EC30E03093AB012093AA0120EC30E028
:100FC0003093AD012093AC0121EC30E03093AF01C0
:100FD0002093AE0122EC30E03093B1012093B001B8
:100FE00026EC30E03093B3012093B2011092B501AA
:100FF0001092B6011092B7011092B80110928C03B2
:1010000010928B0380938D0390938E03A0938F0394
:10101000B093900389E291E090938A0380938903CF
:101020001092A00310929F031092A2031092A103AA
:101030001092A4031092A3031092A6031092A5038A
:101040006091A7036E7F6D7F6093A70366956170C3
:1010500081E068278BE00E94FA0061E08BE00E944B
:101060008601E9EBF0E0E491E0939903E5EAF0E032
:10107000E491F0E0EE0FFF1FE057FF4F8591949150
:1010800090939B0380939A0360E08AE00E9486011C
:101090008091A70381FD04C061E08AE00E94FA000C
:1010A00089E893E02AE020939503E8EBF0E0E491EF
:1010B000E0939603E4EAF0E0E491F0E0EE0FFF1F26
:1010C000EA57FF4F2591349130939803209397036B
:1010D000109279031092780310927B0310927A0396
:1010E00010927D0310927C0310927F0310927E0376
:1010F00010926A021092690290936C0280936B02C4
:1011000090936E0280936D0210927103109270039F
:10111000109273031092720310927503109274036D
:10112000109277031092760382E080936F0281E041
:1011300090E0909366028093650290935A028093A8
:10114000590290934E0280934D02909342028093F5
:1011500041020895CF93DF93CDB7DEB7A1970FB6C5
:10116000F894DEBF0FBECDBF789484B5826084BD95
:1011700084B5816084BD85B5826085BD85B581609B
:1011800085BD80916E00816080936E001092810019
:1011900080918100826080938100809181008160D4
:1011A0008093810080918000816080938000809195
:1011B000B10084608093B1008091B0008160809321
:1011C000B00080917A00846080937A0080917A00E8
:1011D000826080937A0080917A00816080937A00A7
:1011E00080917A00806880937A001092C10080E438
:1011F00090E00E948012803479F060E480E490E016
:101200000E948E0661E081E090E00E948E0661E01F
:1012100082E090E00E948E0681E090E00E948012C1
:10122000182F8093850182E090E00E9480128093C5
:101230008101E82FF0E0EE0FFF1FE35FFE4F80819A
:101240009181909392018093910162E082E00E94EB
:10125000860162E083E00E94860162E084E00E94F1
:10126000860161E08DE00E94860161E089E00E94D4
:10127000860160E085E00E94860160E084E00E94D3
:10128000860161E087E00E9486018EE791E09093FD
:1012900073038093720383E090E090937B038093C9
:1012A0007A0329E831E03093750320937403909317
:1012B0007D0380937C038FEF810F873F08F08DC102
:1012C00010938003E0916902F0916A02309709F46B
:1012D00087C18CE29AE0A0E0B0E080938103909314
:1012E0008203A0938303B09384038FE492E1A0E090
:1012F000B0E08093850390938603A0938703B09317
:101300008803A089B18982E08C93A485B5851C925D
:10131000A685B7858FEC8C93108EA489B58986E05D
:101320008C93A289B3898C9180618C93A289B389B3
:101330008C9188608C93A289B3898C9180688C93FE
:101340000288F389E02D80818F7D808380916F02F8
:101350008F3F41F061E00E94860160E080916F0262
:101360000E94FA000E94D7016B017C0180916D02FE
:1013700090916E02DC01ED91FC910084F185E02DED
:101380000995892B79F00E94D7016B017C0180912E
:101390006D0290916E02DC01ED91FC910284F38567
:1013A000E02D09950E94D7016C197D098E099F09CE
:1013B0000091850310918603209187033091880363
:1013C000601771078207930788F28DE592E00E940B
:1013D000660481E592E00E94660489E392E00E943F
:1013E000660461E088E00E94FA0064E670E080E054
:1013F00090E00E94FC01812C912C5401839450E0D8
:10140000252E50E0352E11E00AE06EE070E090E00D
:1014100080E00E94A90565E070E080E090E00E9415
:10142000FC016FE070E081E090E00E94A90565E0BA
:1014300070E080E090E00E94FC0160E170E082E0FA
:1014400090E00E94A90565E070E080E090E00E94D5
:10145000FC018091910190919201209101013091C4
:101460000201281739070CF061C110938001209107
:10147000030130910401281739070CF05AC1109369
:101480007F012091050130910601281739070CF0E2
:1014900053C110937E0180916D0290916E02DC0128
:1014A000ED91FC910084F185E02D0995892B09F4DB
:1014B000A9C1412C512C3201F12CE12C80916D02FB
:1014C00090916E02DC01ED91FC910084F185E02D9C
:1014D0000995892BB1F00E94D7012B013C01809125
:1014E0006D0290916E02DC01ED91FC910284F38516
:1014F000E02D0995F701E759FD4F8783BFEFEB1A00
:10150000FB0A0E94D7016419750986099709209181
:101510008103309182034091830350918403261705
:1015200037074807590728F0EFEFEE16F10431F2BC
:1015300028F20E94D701641975098609970920913C
:101540008503309186034091870350918803621789
:1015500073078407950768F380916D0290916E027E
:10156000DC01ED91FC910084F185E02D0995892B3A
:1015700009F048C18091700290918003891711F0A1
:10158000811140C18EEF8E0D0E948D00F701E75949
:10159000FD4F268135812327322723278217930782
:1015A00009F030C1E0917102E150E03108F0E2C091
:1015B000F0E0E352F54F0C9403139F0B160E750EDB
:1015C000C70E190F4C0FBA0BBA0BBA0BBA0BBA0BEA
:1015D000BA0BBA0BBA0B740FD50F1092800372CEF0
:1015E000E0916B02F0916C02309709F4AFCE8CE27F
:1015F0009AE0A0E0B0E08093810390938203A093EF
:101600008303B09384038FE492E1A0E0B0E0809381
:10161000850390938603A0938703B0938803138E6A
:10162000128E118E108E178A168A8DE991E0958F91
:10163000848F84858631E0F52DEB30E0378B268B67
:101640002BE931E0318F208F2CE231E0338F228F74
:1016500090916800883008F45AC021E08E3008F478
:1016600020E081E001C0880F2A95EAF7892B80935A
:10167000680094852DE630E0983050F02BE630E09D
:101680009E3030F02CE630E0963110F030E020E073
:10169000348B238B292F30E09830D8F581E001C0BE
:1016A000880F9A95EAF7858B848D958D0197F1F7D0
:1016B000828D938D892B09F449CE40917C01509104
:1016C0007D01E417F50709F441CE4115510569F094
:1016D000DA0153962D913C91D9019C91DA015596EE
:1016E0008C9180958923D9018C93868D8E7F868FEE
:1016F00010927B0110927A01F0937D01E0937C01BE
:10170000A389B4898C919589892B8C931FCE84E011
:10171000ADCF9E3040F42850310981E001C0880FE0
:101720002A95EAF7C0CF2E503109F7CF10928001E9
:101730009ECE10927F01A5CE10927E01ACCE60911C
:101740007202709173027627672776278091740260
:1017500090917502982789279827A0917003B091DE
:101760007103109739F04091780350917903411536
:10177000510511F481E006C0FC013197E03DF740CE
:1017800020F083E00E947D013DC04817590728F0F2
:10179000481B590B4617570710F482E0F3CFAC01F2
:1017A000495F5F4F33E0569547953A95E1F740938F
:1017B0007202A60FB71F50E040E06D919A012770AA
:1017C00033277501640104C0CC0CDD1CEE1CFF1C2A
:1017D0002A95D2F7FA0123E0F695E7952A95E1F7E5
:1017E000E459FD4F2781662309F41CC2C22AC7822F
:1017F0004F5F5F4F4817590701F7809172028D5F65
:101800000E94280189E392E00E94BC0320EA3FE0A5
:1018100040E050E00E94E1126436710581059105B7
:1018200008F046C0809191019091920120910101B0
:1018300030910201821793070CF009C42091030133
:1018400030910401821793070CF001C42091050127
:1018500030910601821793070CF0F9C361E087E02D
:101860000E94FA0061E089E00E94FA006EE170E0F7
:1018700080E090E00E94FC0160E089E00E94FA00B4
:101880006EE170E080E090E00E94FC0161E089E0A0
:101890000E94FA006EE170E080E090E00E94FC019E
:1018A00060E089E00E94FA001092900110928F018E
:1018B0008091890190918A01803C910509F052C084
:1018C00080918B0190918C018035910509F04AC07F
:1018D00020918D0130918E0150E040E019A27E01EF
:1018E000E1E2EE0EF11CCA01B9012AE030E040E06D
:1018F00050E00E94E112605DD7016E937D012115D9
:1019000031054105510579F7109769F0FD01019006
:101910000020E9F73197AF014A1B5B0BBD018CE951
:1019200091E00E94AF0242E050E067E371E08CE991
:1019300091E00E94AF0260918D0170918E01663E30
:10194000710508F08BC381E090E00E948E060E9432
:10195000EA0568EE73E080E090E00E94FC01F0E0B0
:10196000E0E009958091890190918A010197E1F465
:1019700080918B0190918C010197B1F480918D0140
:1019800090918E01019781F461E081E090E00E94E6
:101990008E060E94EA0568EE73E080E090E00E9407
:1019A000FC01F0E0E0E009958091890190918A01C5
:1019B0000A97B9F480918B0190918C010A9789F470
:1019C00080918D0190918E010A9759F40E94EA0549
:1019D00068EE73E080E090E00E94FC01F0E0E0E05F
:1019E00009958091890190918A010597F1F4809180
:1019F0008B0190918C010597C1F4A89560918D01A0
:101A000070918E016330710508F02AC382E090E086
:101A10000E948E060E94EA0568EE73E080E090E086
:101A20000E94FC01F0E0E0E009958091890190912D
:101A30008A01069751F480918B0190918C01863632
:101A4000910519F4F0E0E0E009950FB6F894A89537
:101A500080916000886180936000109260000FBEEA
:101A600085E00E94D100892B09F0FCC28091880199
:101A70008111F8C280918F018111F4C21093870106
:101A80008DE592E00E94F2038DE592E00E94BC0396
:101A90006838734181059105B8F080918601811104
:101AA0000DC085E00E94D100892B41F40E94EA0517
:101AB00085E492E00E9466041093860164E670E07B
:101AC00080E090E00E94FC0185E00E94D100892B1B
:101AD00009F03EC0809186018823D1F180918F0169
:101AE000811136C00E943A0280910001882309F4D6
:101AF000CFC380918401893008F0C7C38F5F809382
:101B0000840161E089E00E94FA0064E670E080E010
:101B100090E00E94FC0160E089E00E94FA0064E627
:101B200070E080E090E00E94FC0190918301809140
:101B30008401909F800D11248093850164E670E0FC
:101B400080E090E00E94FC0185E492E00E9466043F
:101B500084E00E94D10020918601892B09F0AFC357
:101B6000222309F4AEC380918F0181113BC00E94F2
:101B70003A028AE0E82EF12C61E08DE00E94FA0042
:101B80006CE070E080E090E00E94FC0160E08DE09D
:101B90000E94FA006CE070E080E090E00E94FC019E
:101BA00061E089E00E94FA006CE070E080E090E083
:101BB0000E94FC0160E089E00E94FA006CE070E0A5
:101BC00080E090E00E94FC01B1E0EB1AF108A1F680
:101BD00080910001E1E08E278093000185E492E08E
:101BE0000E94660485E492E00E94BC036131774262
:101BF0008105910508F465C3F0908501FF2039F057
:101C000081E090E00E9480126F2DF81201C061E027
:101C100081E090E00E948E060E94EA05F0E0E0E09C
:101C200009954FC3C0942C212783E2CD60917202A5
:101C300070917302762767277627809174029091BE
:101C40007502982789279827A0917203B091730392
:101C5000109709F48FCD40917A0350917B03411581
:101C6000510509F487CDFC013197E03DF74008F0BC
:101C700088CD4817590708F490CD481B590B4617D3
:101C8000570708F48ACDAC01495F5F4FE3E05695F2
:101C90004795EA95E1F740937202A60FB71F50E00F
:101CA00040E06D919A01277033277501640104C0EB
:101CB000CC0CDD1CEE1CFF1C2A95D2F7FA0133E098
:101CC000F695E7953A95E1F7E459FD4F27816623AC
:101CD00041F0C22AC7824F5F5F4F4817590709F783
:101CE0008CCDC0942C212783F6CFE0917202F09125
:101CF0007302FE27EF27FE2740917403509175036E
:101D00004115510509F436CD20917C0330917D03B6
:101D10002115310509F42ECD809174029091750240
:101D2000982789279827BC01615071096D37710583
:101D300008F027CD2817390708F42FCD281B390BB9
:101D40002E173F0708F429CD282F220F2093720267
:101D5000EE0FFF1FBF01640F751FA9E6B2E030E070
:101D600020E0FB0141816E5F7F4F1A964C931A97DA
:101D7000AB0142505109FA0140811B964C931B97CD
:101D80002F5F3F4F12962817390759F736CDE0914C
:101D90007202F0917302FE27EF27FE27409176032F
:101DA000509177034115510509F4E4CC20917E034D
:101DB00030917F032115310509F4DCCC8091740248
:101DC00090917502982789279827BC016150710965
:101DD0006D37710508F0D5CC2817390708F4DDCC2C
:101DE000281B390B2E173F0708F4D7CC282F220FBA
:101DF00020937202EE0FFF1FBF01640F751FA9E64B
:101E0000B2E030E020E0FB0141816E5F7F4F1A9627
:101E10004C931A97AB0142505109FA0140811B962D
:101E20004C931B972F5F3F4F12962817390759F78E
:101E3000E4CC4091720250917302542745275427F5
:101E40008091740290917502982789279827209194
:101E50007003309171032115310509F48BCC609129
:101E60007803709179036115710509F483CC0097AB
:101E700029F08115FFEF9F0709F083CC461757071C
:101E800008F08BCC240F351F41E0892B09F440E08A
:101E9000D9014C9386E0B4CC809172029091730288
:101EA000982789279827209174023091750232274C
:101EB00023273227E0917403F0917503309709F4DA
:101EC00059CC40917C0350917D034115510509F493
:101ED00051CC8417950708F060CC880F991FE80F44
:101EE000F91F31832083D6CF609172027091730203
:101EF000762767277627809174029091750298273C
:101F0000892798272091700330917103232B09F4BE
:101F100031CC20917803309179032115310509F4F2
:101F200029CCAC0141505109403BB7E05B0708F0B8
:101F300028CCE0917602485F5F4FF3E056954795D5
:101F4000FA95E1F7E417150609F01BCC28173907B5
:101F500008F423CC281B390B2617370708F41DCCAF
:101F600050E040E0E0917003F0917103E40FF51F41
:101F7000E60FF71FDA0123E0B695A7952A95E1F75A
:101F8000A759BD4F1E962C9130E0DA01A770BB27F0
:101F900002C035952795AA95E2F7217020834F5FFF
:101FA0005F4F48175907F1F675CF809172029091F3
:101FB000730298278927982720917402309175021F
:101FC0003227232732274091740350917503452B04
:101FD00009F4D0CB40917C0350917D03411551050C
:101FE00009F4C8CBB901615071096B37710508F06C
:101FF000C8CBE0917602B901660F771FE617170686
:1020000009F0BFCB4217530708F4C7CB421B530B51
:102010004817590708F4C1CB880F991FE9E6F2E089
:1020200050E040E089569240A0917403B09175034E
:10203000AE0FBF1FA80FB91F768567856D937C9380
:102040004F5F5F4F32964217530771F723CF80914E
:10205000900181112DCC10938F012ACC61E073CCBB
:1020600060E0D4CC80918701882309F403C180917A
:1020700086018111FFC00E946D0560918501CE012E
:1020800001960E942306ED80FE80CE0101960E94FB
:102090001B06F2E0EF16F10409F43FC023E0E2165C
:1020A000F10409F481C0EA94EF2809F0DDC06091E1
:1020B0008501CE0101960E94230670E060E0CE010A
:1020C00001960E949E02E82ECE0101960E941B06F8
:1020D000EE2009F4C9C0D12CC12C8E2D8053990B50
:1020E0007C01CE14DF040CF0BFC061E089E00E94E7
:1020F000FA0064EF71E080E090E00E94FC0160E093
:1021000089E00E94FA0064EF71E080E090E00E94B4
:10211000FC019FEFC91AD90AE4CF60918501CE0175
:1021200001960E94230661E070E0CE0101960E94B4
:102130009E02E82ECE0101960E941B066091850149
:10214000CE0101960E94230670E060E0CE01019668
:102150000E949E02C82ECE0101960E941B06CC2032
:1021600009F4B6CF712C612CEC2DE053FF0B6F01FD
:102170006C147D040CF0ACCF61E08DE00E94FA009D
:1021800064EF71E080E090E00E94FC0160E08DE08F
:102190000E94FA0064EF71E080E090E00E94FC0190
:1021A000FFEF6F1A7F0AE4CF60918501CE0101969F
:1021B0000E94230662E070E0CE0101960E949E021A
:1021C000E82ECE0101960E941B0660918501CE018A
:1021D00001960E94230661E070E0CE0101960E9404
:1021E0009E02C82ECE0101960E941B0660918501B9
:1021F000CE0101960E94230670E060E0CE010196B8
:102200000E949E02682ECE0101960E941B06662047
:1022100009F4A5CF512C412CA62DA053BB0B3D0199
:10222000461457040CF09BCF61E08DE00E94FA0049
:1022300061E089E00E94FA0064EF71E080E090E0E4
:102240000E94FC0160E08DE00E94FA0060E089E0FD
:102250000E94FA0064EF71E080E090E00E94FC01CF
:10226000BFEF4B1A5B0ADCCF64E670E080E090E0E1
:102270000E94FC018DE592E00E9466048DE592E0EB
:102280000E94160410928701FFCB1092840139CC72
:1022900080918301863180F48F5F8093830161E0B8
:1022A0008DE00E94FA0064E670E080E090E00E9419
:1022B000FC0160E08DE031CC10928301F0CF211160
:1022C00091CC84E00E94D100892B41F48091860159
:1022D000811104C080918F01882379F0809182015F
:1022E00081117AC081E592E00E94660481E592E066
:1022F0000E9416041092820106C01093820181E5AB
:1023000092E00E94F20381E592E00E94BC036838EB
:10231000734181059105B8F08091880181110DC04C
:1023200084E00E94D100892B41F485E492E00E9470
:1023300066040E94EA051093880164E670E080E07C
:1023400090E00E94FC0185E00E94D100892B09F0F9
:102350004CC080918801811169C080918F018823D0
:1023600061F160E087E00E94FA0061E08DE00E9488
:10237000FA0064E670E080E090E00E94FC0160E01A
:102380008DE00E94FA0064E670E080E090E00E9438
:10239000FC0185E00E94D100892B09F064C01092F5
:1023A0008F011093900160E08DE00E94FA006CE2D2
:1023B00071E080E090E00E94FC012114310411F4EE
:1023C0000C94050A0E941903882311F40C94050A41
:1023D0000E9400000C94040A80918801811182CF30
:1023E0000E946D050E9437057DCF84E00E94D100D8
:1023F000892B09F4AECF80918801882309F4ADCFF1
:1024000085E492E00E94BC03613177428105910529
:1024100008F4A3CF6091810182E090E00E948E06D3
:102420000E94EA05F0E0E0E0099597CF80918F01E6
:102430008111E6CF0E943A02809181018F5F833043
:1024400078F4809381010E94370585E492E00E9430
:10245000660464E670E080E090E00E94FC01CBCF6F
:1024600010928101F0CF84E00E94D100892B09F401
:1024700096CFA3CF89E291E090938A03809389035A
:1024800080917C0190917D018958934071F4E09195
:102490009C03F0919D03908180919E0380958923F8
:1024A000808310927D0110927C010895BB27FB016F
:1024B0005527AA27880F991FAA1FA41710F0A41B3D
:1024C00083955051B9F7A05DAA3308F0A95DA19397
:1024D000009779F7B111B1931192CB010C9470125E
:1024E000DC01FC01672F71917723E1F7329704C07B
:1024F0007C916D9370836291AE17BF07C8F3089506
:10250000F999FECF92BD81BDF89A992780B50895BB
:10251000262FF999FECF1FBA92BD81BD20BD0FB6FF
:10252000F894FA9AF99A0FBE019608952F923F9265
:102530004F925F926F927F928F929F92AF92BF92D3
:10254000CF92DF92EF92FF920F931F93CF93DF937F
:10255000CDB7DEB7CA1BDB0B0FB6F894DEBF0FBEDC
:10256000CDBF09942A88398848885F846E847D8429
:102570008C849B84AA84B984C884DF80EE80FD802B
:102580000C811B81AA81B981CE0FD11D0FB6F894A1
:10259000DEBF0FBECDBFED01089597FB072E16F4E9
:1025A000009407D077FD09D00E94091307FC05D0DD
:1025B0003EF4909581959F4F0895709561957F4F5A
:1025C0000895A1E21A2EAA1BBB1BFD010DC0AA1F74
:1025D000BB1FEE1FFF1FA217B307E407F50720F08C
:1025E000A21BB30BE40BF50B661F771F881F991F07
:1025F0001A9469F760957095809590959B01AC0150
:10260000BD01CF010895EE0FFF1F0590F491E02D5D
:102610000994AA1BBB1B51E107C0AA1FBB1FA61729
:10262000B70710F0A61BB70B881F991F5A95A9F77B
:1026300080959095BC01CD0108950F931F93CF9382
:10264000DF938230910510F482E090E0E091AA03DC
:10265000F091AB0330E020E0B0E0A0E0309799F4D7
:102660002115310509F44AC0281B390B24303105E6
:10267000D8F58A819B816115710589F1FB019383EE
:102680008283FE0111C0408151810281138148176C
:102690005907E0F04817590799F4109761F012961E
:1026A0000C93129713961C933296CF01DF91CF9122
:1026B0001F910F9108950093AA031093AB03F4CFD9
:1026C0002115310551F04217530738F0A901DB01FC
:1026D0009A01BD01DF01F801C1CFEF01F9CF90935D
:1026E000AB038093AA03CDCFFE01E20FF31F8193CA
:1026F00091932250310939832883D7CF2091A803A1
:102700003091A903232B41F42091090130910A0152
:102710003093A9032093A803209107013091080169
:102720002115310541F42DB73EB740910B01509171
:102730000C01241B350BE091A803F091A903E217CB
:10274000F307A0F42E1B3F0B2817390778F0AC01D4
:102750004E5F5F4F2417350748F04E0F5F1F5093B1
:10276000A9034093A803819391939FCFF0E0E0E009
:102770009CCFCF93DF930097E9F0FC01329713824F
:102780001282A091AA03B091AB03ED0130E020E0EA
:102790001097A1F420813181820F931F2091A8030B
:1027A0003091A9032817390709F061C0F093A903F4
:1027B000E093A803DF91CF910895EA01CE17DF07D8
:1027C000E8F54A815B819E0141155105B1F7E901A8
:1027D000FB83EA8349915991C40FD51FEC17FD077C
:1027E00061F4808191810296840F951FE90199839C
:1027F0008883828193819B838A83F0E0E0E0129654
:102800008D919C9113970097B9F52D913C9111975B
:10281000CD010296820F931F2091A8033091A90346
:102820002817390739F6309751F51092AB031092FB
:10283000AA03B093A903A093A803BCCFD383C283F8
:1028400040815181840F951FC817D90761F44E5FED
:102850005F4F88819981480F591F518340838A8136
:102860009B81938382832115310509F0B0CFF093CA
:10287000AB03E093AA039ECFFD01DC01C0CF13821E
:102880001282D7CFB0E0A0E0E8E4F4E10C94981213
:102890008C01009751F4CB010E941D138C01C801DB
:1028A000CDB7DEB7E0E10C94B412FC01E60FF71FE0
:1028B0009C0122503109E217F30708F49DC0D901A9
:1028C000CD91DC911197C617D70798F0C530D10587
:1028D00030F3CE0104978617970708F3C61BD70B72
:1028E0002297C193D1936D937C93CF010E94B9132A
:1028F000D6CF5B01AC1ABD0A4C018C0E9D1EA09177
:10290000AA03B091AB03512C412CF12CE12C109770
:1029100031F58091A8039091A9038815990509F0D4
:102920005CC04616570608F058C080910701909188
:102930000801009741F48DB79EB740910B0150916B
:102940000C01841B950BE817F90708F055C0F093AC
:10295000A903E093A803F90171836083A0CF8D914F
:102960009C91119712966C90129713967C901397E6
:10297000A815B90559F56C0142E0C40ED11CCA1462
:10298000DB0420F1AC014A195B09DA0112961597B4
:1029900080F06282738251834083D9016D937C936E
:1029A000E114F10471F0D7011396FC93EE931297A2
:1029B00076CF22968C0F9D1FF90191838083F301BE
:1029C000EFCFF093AB03E093AA0369CF4816590603
:1029D00008F42C017D01D3019ACFCB010E941D1375
:1029E0007C01009749F0AE01B8010E94FF14C801B4
:1029F0000E94B913870153CF10E000E050CFFB01D4
:102A0000DC0102C001900D9241505040D8F708956A
:102A1000FB01DC0101900D920020E1F7089510E028
:102A2000C2E6D0E004C0FE010E9403132196C33623
:082A3000D107C9F7F894FFCFAC
:102A3800010004000400040000AC0380005E01F4FF
:102A4800018A02000000004F03AF02DC029C030D64
:102A580003EB02FF0200000000A104AF023405A04E
:0A2A680004FD04130588040D0A00A4
:00000001FF
