:100000000C9463000C948B000C948B000C944407AC
:100010000C9444070C9444070C948B000C948B00B4
:100020000C948B000C948B000C948B000C948B0024
:100030000C948B000C948B000C948B000C948B0014
:100040000C94A2060C948B000C9412070C94EC06F2
:100050000C948B000C948B000C948B000C948B00F4
:100060000C948B000C948B000000000024002700EF
:100070002A0000000008000201000003040700003D
:1000800000000000000000000000230026002900FE
:1000900000000000250028002B00040404040404D0
:1000A0000404020202020202030303030303010227
:1000B00004081020408001020408102001020408F6
:1000C0001020BC07851211241FBECFEFD8E0DEBF81
:1000D000CDBF23E0AAE3B1E001C01D92AE3AB20762
:1000E000E1F711E0A0E0B1E0EEECFAE202C0059029
:1000F0000D92AA33B107D9F710E0C2E6D0E004C0F0
:100100002197FE010E944E13C136D107C9F70E9404
:10011000AA080C945A150C940000482FE2E7F2E06C
:1001200020E08FEF9FEF241791F03191832738E083
:10013000BC016170772796958795672B21F051E078
:10014000852750EA9527315099F72F5FECCF089516
:10015000833081F028F4813099F08230A9F008953D
:100160008730A9F08830C9F08430B1F480918000E4
:100170008F7D03C0809180008F77809380000895E9
:1001800084B58F7784BD089584B58F7DFBCF809132
:10019000B0008F778093B00008958091B0008F7D7C
:1001A000F9CFCF93DF93282F30E0F901EE58FF4FBE
:1001B0008491F901E255FF4FD491F901E656FF4FC2
:1001C000C491CC23A1F081110E94A800EC2FF0E093
:1001D000EE0FFF1FEA57FF4FA591B491EC91ED236D
:1001E00081E090E009F480E0DF91CF91089580E014
:1001F00090E0FACF1F93CF93DF93282F30E0F901DF
:10020000EE58FF4F8491F901E255FF4FD491F90167
:10021000E656FF4FC491CC23A9F0162F81110E94FE
:10022000A800EC2FF0E0EE0FFF1FE057FF4FA59165
:10023000B4918FB7F894EC91111108C0D095DE23DA
:10024000DC938FBFDF91CF911F910895DE2BF8CF04
:10025000CF93DF9390917202992309F44BC0C82F7A
:100260000E948D00D0E0FE01E559FD4F8783908705
:10027000809171028F3F19F061E00E94FA00809135
:100280006F0290917002AE014E5F5F4FDC01ED9105
:10029000FC910280F381E02D62E772E00995809184
:1002A0006F0290917002DC01ED91FC910680F78164
:1002B000E02D0995809171028F3F19F060E00E9456
:1002C000FA0080916F0290917002DC01ED91FC9137
:1002D0000084F185E02D0995892B61F080916F02F2
:1002E00090917002DC01ED91FC910284F385E02D88
:1002F0000995E7CFDF91CF910895EBE6F2E0908585
:1003000090689087818783E00C942801CF93DF93D6
:1003100090E0FC01E255FF4F249186569F4FFC016F
:1003200084918823C9F090E0880F991FFC01E85957
:10033000FF4FA591B491FC01E057FF4FC591D491B7
:1003400061110DC09FB7F8948C91209582238C93F6
:100350008881282328839FBFDF91CF910895623041
:1003600051F49FB7F8943C91822F809583238C930E
:10037000E8812E2BEFCF8FB7F894EC912E2B2C9396
:100380008FBFEACF8E3008F08E50877080648093E4
:100390007C0080917A00806480937A0080917A005A
:1003A00086FDFCCF809178009091790008953FB749
:1003B000F89480919A0190919B01A0919C01B09139
:1003C0009D0126B5A89B05C02F3F19F00196A11DE0
:1003D000B11D3FBFBA2FA92F982F8827BC01CD018F
:1003E000620F711D811D911D42E0660F771F881FEE
:1003F000991F4A95D1F708958F929F92AF92BF921D
:10040000CF92DF92EF92FF924B015C010E94D701E5
:100410006B017C010E94D7016C197D098E099F092F
:10042000683E734081059105A8F321E0821A910886
:10043000A108B10888EEC80E83E0D81EE11CF11CAB
:1004400081149104A104B10429F7FF90EF90DF908B
:10045000CF90BF90AF909F908F9008952FB7F89452
:100460006091960170919701809198019091990106
:100470002FBF08950F931F938091510290915202C4
:10048000019709F054C080914F029091500201975A
:1004900021F50E942E02AB01BC0180914B0290918C
:1004A0004C02A0914D02B0914E0200914702109172
:1004B00048022091490230914A02801B910BA20B05
:1004C000B30B840F951FA61FB71F80934B02909309
:1004D0004C02A0934D02B0934E0280914F02909136
:1004E0005002892B21F50E94D701AB01BC018091FC
:1004F0004B0290914C02A0914D02B0914E0200919E
:100500004702109148022091490230914A02801B13
:10051000910BA20BB30B840F951FA61FB71F8093DF
:100520004B0290934C02A0934D02B0934E02109256
:100530005202109251021F910F910895FC012481E3
:1005400035816217730748F480819181009729F003
:10055000860F971FFC018081089580E00895AF9277
:10056000BF92CF92DF92EF92FF920F931F93CF93A0
:10057000DF936C017B018B01040F151FEB015E0102
:10058000AE18BF08C017D10759F06991D601ED9197
:10059000FC910190F081E02DC6010995892B79F736
:1005A000C501DF91CF911F910F91FF90EF90DF90E8
:1005B000CF90BF90AF900895FC01538D448D252FAF
:1005C00030E0842F90E0821B930B541710F0CF96ED
:1005D000089501970895FC01918D828D981761F01F
:1005E000A28DAE0FBF2FB11D5D968C91928D9F5F36
:1005F0009F73928F90E008958FEF9FEF0895FC0115
:10060000918D828D981731F0828DE80FF11D858DC7
:1006100090E008958FEF9FEF0895FC01918D228D5A
:10062000892F90E0805C9F4F821B91098F739927DF
:1006300008958EE991E00E940D0321E0892B09F4D1
:1006400020E0822F089580E090E0892B29F00E941D
:10065000190381110C9400000895FC01A48DA80FCA
:10066000B92FB11DA35ABF4F2C91848D90E00196F4
:100670008F739927848FA689B7892C93A089B18914
:100680008C91837080648C93938D848D981306C0B5
:100690000288F389E02D80818F7D80830895EF9219
:1006A000FF920F931F93CF93DF93EC0181E0888F2C
:1006B0009B8D8C8D98131AC0E889F989808185FFFC
:1006C00015C09FB7F894EE89FF896083E889F9899E
:1006D00080818370806480839FBF81E090E0DF91A0
:1006E000CF911F910F91FF90EF900895F62E0B8DF3
:1006F00010E00F5F1F4F0F731127E02E8C8D8E11AE
:100700000CC00FB607FCFACFE889F989808185FF14
:10071000F5CFCE010E942D03F1CFEB8DEC0FFD2F15
:10072000F11DE35AFF4FF0829FB7F8940B8FEA89CF
:10073000FB8980818062CFCFCF93DF93EC01888DDE
:100740008823B9F0AA89BB89E889F9898C9185FD4C
:1007500003C0808186FD0DC00FB607FCF7CF8C91DA
:1007600085FFF2CF808185FFEDCFCE010E942D0362
:10077000E9CFDF91CF9108950F931F93CF93DF932C
:10078000FC01228533852130310531F5EC012085CE
:10079000318521303105D9F40E942E02AB01BC0114
:1007A0008C819D81AE81BF81088119812A813B8125
:1007B000801B910BA20BB30B840F951FA61FB71FB5
:1007C000BC01CD01DF91CF911F910F910895232B93
:1007D00019F40E94D701E2CFFC0184819581A681A2
:1007E000B781EECFCF93DF93FC0122853385223092
:1007F0003105C9F4EC0180859185019731F40E949F
:100800002E02688379838A839B8388859985892BC7
:1008100031F40E94D701688379838A839B8381E0C6
:1008200090E09B878A87DF91CF910895CF92DF92E6
:10083000EF92FF920F931F93CF93DF93FC012285DA
:10084000338521303105C9F5EC018085918501970B
:10085000B1F4C480D580E680F7800E942E02088122
:1008600019812A813B81C01AD10AE20AF30AC60E15
:10087000D71EE81EF91ECC82DD82EE82FF828885BB
:100880009985892BB1F4CC80DD80EE80FF800E94B9
:10089000D701088119812A813B81C01AD10AE20A55
:1008A000F30AC60ED71EE81EF91ECC82DD82EE8248
:1008B000FF8282E090E09B878A87DF91CF911F9132
:1008C0000F91FF90EF90DF90CF900895CF93DF933B
:1008D000EC011C821D821E821F82888599850197EA
:1008E00031F40E942E02688379838A839B838885F2
:1008F0009985892B31F40E94D701688379838A8393
:100900009B8381E090E09B878A87DF91CF91089558
:1009100020917C0130917D012817390771F4909165
:100920007A0180917B01981741F0E0917A01F0E023
:10093000E65CFE4F808190E008958FEF9FEF089571
:100940000895EF92FF920F931F93CF93DF93DC01F3
:100950005C96ED90FC905D97E114F10479F481E0F0
:1009600090E013969C938E93129790E080E0DF9135
:10097000CF911F910F91FF90EF9008955196ED91B7
:10098000FC91529750968C915097982F90950FB755
:100990005E962C915E97122F127021FD6095F8944F
:1009A0002081112319F1282B2083E7012197F1F7EA
:1009B00028E0462F50E0308160FF1AC0382B30838A
:1009C000E7012197F1F7BA0175956795215089F7ED
:1009D000112381F08081892380830FBF5C968D91E4
:1009E0009C910197F1F781E090E0C1CF2923DCCF02
:1009F0003923E5CF9081892BEFCF20917C01309175
:100A00007D012817390761F480917B0120917A01DB
:100A100090E0805C9F4F821B91098F739927089506
:100A200090E080E0089520917C0130917D012817AD
:100A30003907B9F490917A0180917B01981789F078
:100A4000E0917A01F0E0E65CFE4F808120917A012E
:100A500030E02F5F3F4F2F73332720937A0190E0D0
:100A600008958FEF9FEF089590E080E008958091C2
:100A70007E01813091F018F08230E1F0089560E05D
:100A80008DE00E94FA0068EE73E080E090E00E9442
:100A9000FC0161E08DE00C94FA0060E081E10E94CD
:100AA000FA0068EE73E080E090E00E94FC0161E0F3
:100AB00081E1F1CF60E08DE00E94FA0060E081E129
:100AC0000E94FA0068EE73E080E090E00E94FC0172
:100AD00061E08DE00E94FA00EACF60E08DE00E94C4
:100AE000FA006AE070E080E090E00E94FC0161E0C2
:100AF0008DE00E94FA006AE070E080E090E00E94E1
:100B0000FC0160E081E10E94FA006AE070E080E0B0
:100B100090E00E94FC0161E081E10E94FA006AE03D
:100B200070E080E090E00E94FC0160E08DE00E94B7
:100B3000FA006AE070E080E090E00E94FC0161E071
:100B40008DE00E94FA006AE070E080E090E00C9492
:100B5000FC01CF92DF92FF920F931F93CF93DF930D
:100B6000EC01F62E862F0E94C2010BE91FE0C8019E
:100B70000197F1F78F2D0E94C201CC0FDD1FCF5FCF
:100B8000DE4F19821882C8010197F1F70AE010E0E0
:100B90009BECC92E97E0D92E8F2D0E94C20128818F
:100BA0003981820F931F99838883F6013197F1F77A
:100BB0000150110989F76AE070E00E9418137983E7
:100BC0006883A895DF91CF911F910F91FF90DF90DF
:100BD000CF900895CF93DF93C4E1D0E060E08DE043
:100BE0000E94FA0069E170E080E090E00E94FC0160
:100BF00061E08DE00E94FA0069E170E080E090E041
:100C00000E94FC0160E081E10E94FA0069E170E06D
:100C100080E090E00E94FC0161E081E10E94FA0026
:100C200069E170E080E090E00E94FC012197B1F65C
:100C3000DF91CF910895FC0180819181009711F09F
:100C40000C9404140895CF92DF92EF92FF920F93C9
:100C50001F93CF93DF93CDB7DEB729970FB6F894E4
:100C6000DEBF0FBECDBF8C01862FF801118210822E
:100C700013821282158214824AE09E012F5F3F4F39
:100C80006901B90190E00E94A112F60101900020D3
:100C9000E9F731977F01EC18FD08F8018081918117
:100CA000009729F0228133812E153F0590F4B7017A
:100CB0006F5F7F4F0E948D14F801009799F0918328
:100CC0008083F382E28224813581232B11F4FC019D
:100CD0001082F801F582E482B601808191810E9440
:100CE00053150DC080819181009711F00E9404146A
:100CF000F8011182108215821482138212822996C1
:100D00000FB6F894DEBF0FBECDBFDF91CF911F911C
:100D10000F91FF90EF90DF90CF9008951F93CF93A6
:100D2000DF93EC01162F0E94CB12181739F0612FB8
:100D3000CE01DF91CF911F910C94D312DF91CF910F
:100D40001F9108951F920F920FB60F9211242F93A7
:100D50003F938F939F93AF93BF9380919601909110
:100D60009701A0919801B09199013091950123E0EC
:100D7000230F2D3758F50196A11DB11D2093950124
:100D80008093960190939701A0939801B093990155
:100D900080919A0190919B01A0919C01B0919D013D
:100DA0000196A11DB11D80939A0190939B01A09380
:100DB0009C01B0939D01BF91AF919F918F913F9105
:100DC0002F910F900FBE0F901F90189526E8230FBC
:100DD0000296A11DB11DD2CF1F920F920FB60F9296
:100DE00011242F933F934F935F936F937F938F9330
:100DF0009F93AF93BF93EF93FF938EE991E00E948F
:100E00002D03FF91EF91BF91AF919F918F917F91B2
:100E10006F915F914F913F912F910F900FBE0F9067
:100E20001F9018951F920F920FB60F9211242F93B7
:100E30008F939F93EF93FF93E091AE01F091AF01F9
:100E40008081E091B401F091B50182FD1BC09081D9
:100E50008091B7018F5F8F732091B801821741F0A5
:100E6000E091B701F0E0E256FE4F958F8093B70115
:100E7000FF91EF919F918F912F910F900FBE0F9047
:100E80001F9018958081F4CF1F920F920FB60F928A
:100E900011242F933F934F935F936F937F938F937F
:100EA0009F93AF93BF93EF93FF93E0917C01F091F9
:100EB0007D01309749F0A685B7858585968D91FF90
:100EC00014C09C918923A1F4FF91EF91BF91AF9140
:100ED0009F918F917F916F915F914F913F912F9152
:100EE0000F900FBE0F901F9018959C91892361F76A
:100EF000A389B4899C918589809589238C9386895F
:100F000097890197F1F7608D718DA685B785558515
:100F100038E020E0CB010197F1F7822F90E0959522
:100F20008795282F4C91452309F02068315091F77F
:100F3000868D81FD209580917B0190E001968F73D5
:100F4000992730917A01381799F0A0917B01B0E090
:100F5000A65CBE4F2C9380937B01828D938D01976D
:100F6000F1F7A389B4898C919589892B8C93ACCFA7
:100F7000868D8160868FF1CF1092A1011092A00121
:100F800088EE93E0A0E0B0E08093A2019093A301EB
:100F9000A093A401B093A50127E131E030939F0114
:100FA00020939E0125EC30E03093AB012093AA0101
:100FB00024EC30E03093AD012093AC0120EC30E024
:100FC0003093AF012093AE0121EC30E03093B101BA
:100FD0002093B00122EC30E03093B3012093B201B2
:100FE00026EC30E03093B5012093B4011092B701A4
:100FF0001092B8011092B9011092BA0110928E03AA
:1010000010928D0380938F0390939003A09391038C
:10101000B093920389E291E090938C0380938B03C9
:101020001092A2031092A1031092A4031092A303A2
:101030001092A6031092A5031092A8031092A70382
:101040006091A9036E7F6D7F6093A90366956170BF
:1010500081E068278BE00E94FA0061E08BE00E944B
:101060008601E9EBF0E0E491E0939B03E5EAF0E030
:10107000E491F0E0EE0FFF1FE057FF4F8591949150
:1010800090939D0380939C0360E08AE00E94860118
:101090008091A90381FD04C061E08AE00E94FA000A
:1010A0008BE893E02AE020939703E8EBF0E0E491EB
:1010B000E0939803E4EAF0E0E491F0E0EE0FFF1F24
:1010C000EA57FF4F2591349130939A032093990367
:1010D00010927B0310927A0310927D0310927C038E
:1010E00010927F0310927E0310928103109280036E
:1010F00010926C0210926B0290936E0280936D02BC
:101100009093700280936F02109273031092720397
:101110001092750310927403109277031092760365
:10112000109279031092780382E08093710281E03B
:1011300090E0909368028093670290935C028093A2
:101140005B029093500280934F02909344028093ED
:1011500043020895CF93DF93CDB7DEB7A1970FB6C3
:10116000F894DEBF0FBECDBF789484B5826084BD95
:1011700084B5816084BD85B5826085BD85B581609B
:1011800085BD80916E00816080936E001092810019
:1011900080918100826080938100809181008160D4
:1011A0008093810080918000816080938000809195
:1011B000B10084608093B1008091B0008160809321
:1011C000B00080917A00846080937A0080917A00E8
:1011D000826080937A0080917A00816080937A00A7
:1011E00080917A00806880937A001092C10080E438
:1011F00090E00E94CB12803479F060E480E490E0CB
:101200000E948E0661E081E090E00E948E0661E01F
:1012100082E090E00E948E0681E090E00E94CB1276
:10122000182F8093820182E090E00E94CB1280937D
:101230007E01E82FF0E0EE0FFF1FE35FFE4F80819D
:10124000918190938D0180938C0162E082E00E94F5
:10125000860162E083E00E94860162E084E00E94F1
:10126000860161E08DE00E94860161E081E10E94DB
:10127000860160E088E00E94860160E089E00E94CB
:10128000860161E087E00E94860161E083E00E94C0
:10129000860161E084E00E94860161E085E00E94B1
:1012A00086018FE891E0909375038093740383E047
:1012B00090E090937D0380937C0324E831E03093A9
:1012C00077032093760390937F0380937E038FEFC1
:1012D000810F873F08F03AC210938203E0916B02BE
:1012E000F0916C02309709F434C28CE29AE0A0E0ED
:1012F000B0E08093830390938403A0938503B0931D
:1013000086038FE492E1A0E0B0E08093870390939E
:101310008803A0938903B0938A03A089B18982E0EE
:101320008C93A485B5851C92A685B7858FEC8C938C
:10133000108EA489B58986E08C93A289B3898C919B
:1013400080618C93A289B3898C9188608C93A289E7
:10135000B3898C9180688C930288F389E02D808119
:101360008F7D8083809171028F3F41F061E00E9408
:10137000860160E0809171020E94FA000E94D7010C
:101380006B017C0180916F0290917002DC01ED9104
:10139000FC910084F185E02D0995892B79F00E945C
:1013A000D7016B017C0180916F0290917002DC018A
:1013B000ED91FC910284F385E02D09950E94D701FF
:1013C0006C197D098E099F0900918703109188038C
:1013D0002091890330918A03601771078207930770
:1013E00088F28FE592E00E94660483E592E00E9415
:1013F00066048BE392E00E94660464E670E080E09D
:1014000090E00E94FC0140EA242E4FE0342E412C53
:10141000512CC12CD12C7601C3948BE392E00E9415
:10142000BC03A20191010E942C13643F714081050D
:10143000910508F06BC080E00E94C201883E934095
:101440000CF02DC281E08093920181E00E94C201E4
:10145000883E93400CF426C21092930182E00E94D1
:10146000C201883E93400CF421C2109294016EE0B8
:1014700070E090E080E00E94A90565E070E080E007
:1014800090E00E94FC016FE070E081E090E00E943B
:10149000A90565E070E080E090E00E94FC0160E159
:1014A00070E082E090E00E94A90565E070E080E0D5
:1014B00090E00E94FC0180918C0190918D0120911F
:1014C000010130910201281739070CF0F3C121E026
:1014D00020938F0110929201209103013091040119
:1014E000281739070CF0E9C121E0209390011092F0
:1014F00093012091050130910601281739070CF05E
:10150000DFC181E080939101109294010E942E022C
:1015100024EF31E040E050E00E942C136A3F710557
:101520008105910508F0CFC180918F0160E08111A4
:1015300001C061E083E00E94FA008091900160E0C8
:10154000811101C061E084E00E94FA008091910164
:1015500060E0811101C061E085E00E94FA008091A5
:101560008E0160E08111BCC180918C0190918D0150
:101570002091010130910201821793070CF0B4C150
:101580002091030130910401821793070CF0ACC144
:101590002091050130910601821793070CF0A4C138
:1015A00010928E0161E087E00E94FA0061E08DE018
:1015B0000E94FA000E942E02A20191010E942C13A7
:1015C0006C3271408105910508F095C180918B01C5
:1015D000811191C180918A0181118DC160E081E109
:1015E0000E94FA006AE070E080E090E00E94FC0156
:1015F00061E081E10E94FA0064E670E080E090E042
:101600000E94FC0160E081E10E94FA0080916F027B
:1016100090917002DC01ED91FC910084F185E02D48
:101620000995892B09F4CDC1812C912C540110E02E
:1016300000E080916F0290917002DC01ED91FC91CD
:101640000084F185E02D0995892BA9F00E94D7012E
:101650004B015C0180916F0290917002DC01ED9171
:10166000FC910284F385E02D0995F801E559FD4FC1
:1016700087830F5F1F4F0E94D701681979098A0974
:101680009B092091830330918403409185035091FD
:101690008603261737074807590720F00F3F110523
:1016A00041F238F20E94D701681979098A099B0929
:1016B00020918703309188034091890350918A03D8
:1016C000621773078407950768F380916F02909102
:1016D0007002DC01ED91FC910084F185E02D09950B
:1016E000892B09F06EC18091720290918203891753
:1016F00011F0811166C18EEF800F0E948D00F801FC
:10170000E559FD4F2681358123273227232782176C
:10171000930709F056C1E0917302E150E03108F0FF
:1017200007C1F0E0EA56F44F0C944E137D0CDB0D2C
:101730003B0E8D0EDF0E120F980C980C980C980C27
:10174000980C980C980C980C3A0F9B0F10928203EF
:10175000C5CDE0916D02F0916E02309709F402CE92
:101760008CE29AE0A0E0B0E080938303909384033E
:10177000A0938503B09386038FE492E1A0E0B0E0EC
:101780008093870390938803A0938903B0938A037F
:10179000138E128E118E108E178A168A8DE991E0A3
:1017A000958F848F84858631E0F52DEB30E0378B83
:1017B000268B2BE931E0318F208F2CE231E0338F03
:1017C000228F90916800883008F45AC021E08E3052
:1017D00008F420E081E001C0880F2A95EAF7892B00
:1017E0008093680094852DE630E0983050F02BE629
:1017F00030E09E3030F02CE630E0963110F030E0F2
:1018000020E0348B238B292F30E09830D8F581E00D
:1018100001C0880F9A95EAF7858B848D958D019785
:10182000F1F7828D938D892B09F49CCD40917C0139
:1018300050917D01E417F50709F494CD4115510548
:1018400069F0DA0153962D913C91D9019C91DA010E
:1018500055968C9180958923D9018C93868D8E7FA6
:10186000868F10927B0110927A01F0937D01E093B4
:101870007C01A389B4898C919589892B8C9372CD35
:1018800084E0ADCF9E3040F42850310981E001C0A2
:10189000880F2A95EAF7C0CF2E503109F7CF109262
:1018A0009201D3CD81E080939301D8CD81E08093E4
:1018B0009401DDCD10928F010FCE1092900119CEC0
:1018C0001092910123CE61E083E00E94FA0061E072
:1018D00084E00E94FA0061E085E00E94FA0061E085
:1018E0008DE00E94FA0040CE81E080938E0160E09E
:1018F00087E00E94FA0061E086CE609174027091E8
:101900007502762767277627809176029091770275
:10191000982789279827A0917203B0917303109795
:1019200039F040917A0350917B034115510511F430
:1019300081E006C0FC013197E03DF74020F083E0F4
:101940000E947D013EC04817590728F0481B590BDB
:101950004617570710F482E0F3CFAC01495F5F4FA1
:1019600033E0569547953A95E1F740937402A60FF8
:10197000B71F50E040E06D919A0127703327460170
:10198000570104C0880C991CAA1CBB1C2A95D2F7CD
:101990008401FA0123E0F695E7952A95E1F7E259EB
:1019A000FD4F7781662309F402C1072B07834F5F40
:1019B0005F4F48175907F9F6809174028D5F0E94B6
:1019C00028018091840190918501803C910509F066
:1019D00053C080918601909187018035910509F06F
:1019E0004BC0209188013091890150E040E019A25C
:1019F0008E010F5D1F4F6AE0862E912CA12CB12C19
:101A0000CA01B901A50194010E942C13605DF8017F
:101A100062938F01211531054105510589F73097F2
:101A200061F001900020E9F73197AF01401B510BA5
:101A3000B8018EE991E00E94AF0242E050E067E316
:101A400071E08EE991E00E94AF026091880170918F
:101A50008901663E710508F0C0C281E090E00E94F5
:101A60008E060E94EA0568EE73E080E090E00E9436
:101A7000FC01F0E0E0E009958091840190918501FE
:101A80000197E1F480918601909187010197B1F46B
:101A90008091880190918901019781F461E081E052
:101AA00090E00E948E060E94EA0568EE73E080E0F6
:101AB00090E00E94FC01F0E0E0E009958091840153
:101AC000909185010A97B9F48091860190918701E0
:101AD0000A9789F480918801909189010A9759F4B5
:101AE0000E94EA0568EE73E080E090E00E94FC014D
:101AF000F0E0E0E0099580918401909185010597DF
:101B0000F1F480918601909187010597C1F4A89521
:101B100060918801709189016330710508F05FC29E
:101B200082E090E00E948E060E94EA0568EE73E073
:101B300080E090E00E94FC01F0E0E0E009958091F7
:101B4000840190918501069751F4809186019091CE
:101B500087018636910519F4F0E0E0E009950FB6AB
:101B6000F894A8958091600088618093600010923D
:101B700060000FBE88E00E94D100892B49F480915B
:101B80008A01811105C080918E01882309F429C240
:101B9000809183018111FBC28FE592E00E9466046F
:101BA0008FE592E00E9416041092830121C20095F5
:101BB00070237783FCCE2091740230917502322716
:101BC00023273227809176029091770298278927E0
:101BD0009827A0917403B0917503109709F4A8CECB
:101BE00040917C0350917D034115510509F4A0CE2D
:101BF000FC013197E03DF74008F0A1CE48175907A6
:101C000008F4A9CE481B590B4217530708F4A3CE7A
:101C1000AC01495F5F4F03E0569547950A95E1F7A0
:101C200040937402A20FB31F50E040E06D919A01FF
:101C3000277033274601570104C0880C991CAA1C41
:101C4000BB1C2A95D2F78401FA0113E0F695E795BB
:101C50001A95E1F7E259FD4F7781662341F0072B92
:101C600007834F5F5F4F4817590701F7A5CE0095CF
:101C700070237783F6CFE0917402F0917502FE270E
:101C8000EF27FE27409176035091770341155105C8
:101C900009F44ECE20917E0330917F03211531054A
:101CA00009F446CE80917602909177029827892791
:101CB0009827BC01615071096D37710508F03FCE5E
:101CC0002817390708F447CE281B390B2E173F0772
:101CD00008F441CE282F220F20937402EE0FFF1F2D
:101CE000BF01640F751FABE6B2E030E020E0FB01FE
:101CF00041816E5F7F4F1A964C931A97AB01425009
:101D00005109FA0140811B964C931B972F5F3F4F5F
:101D100012962817390759F74FCEE0917402F091C7
:101D20007502FE27EF27FE27409178035091790333
:101D30004115510509F4FCCD2091800330918103B8
:101D40002115310509F4F4CD809176029091770246
:101D5000982789279827BC01615071096D37710553
:101D600008F0EDCD2817390708F4F5CD281B390BFD
:101D70002E173F0708F4EFCD282F220F209374026F
:101D8000EE0FFF1FBF01640F751FABE6B2E030E03E
:101D900020E0FB0141816E5F7F4F1A964C931A97AA
:101DA000AB0142505109FA0140811B964C931B979D
:101DB0002F5F3F4F12968217930759F7FDCD409141
:101DC000740250917502542745275427809176025A
:101DD0009091770298278927982720917203309154
:101DE00073032115310509F4A3CD60917A03709135
:101DF0007B036115710509F49BCD009729F08115CE
:101E0000FFEF9F0709F09BCD4617570708F0A3CDBA
:101E1000240F351F41E0892B09F440E0D9014C9390
:101E200086E0CDCD80917402909175029827892724
:101E30009827209176023091770232272327322784
:101E4000E0917603F0917703309709F471CD4091DA
:101E50007E0350917F034115510509F469CD841724
:101E6000950708F078CD880F991FE80FF91F318387
:101E70002083D6CF60917402709175027627672710
:101E80007627809176029091770298278927982764
:101E90002091720330917303232B09F449CD2091D3
:101EA0007A0330917B032115310509F441CDAC0152
:101EB00041505109403BB7E05B0708F040CDE0914D
:101EC0007802485F5F4F03E0569547950A95E1F722
:101ED000E417150609F033CD2817390708F43BCD70
:101EE000281B390B2617370708F435CD50E040E0A2
:101EF000E0917203F0917303E40FF51FE60FF71FF3
:101F0000DA0113E0B695A7951A95E1F7A559BD4FEB
:101F10001E962C9130E0DA01A770BB2702C03595E0
:101F20002795AA95E2F7217020834F5F5F4F4817EE
:101F30005907F1F675CF8091740290917502982738
:101F4000892798272091760230917702322723271C
:101F500032274091760350917703452B09F4E8CC62
:101F600040917E0350917F034115510509F4E0CC67
:101F7000B901615071096B37710508F0E0CCE0914F
:101F80007802B901660F771FE617170609F0D7CC5C
:101F90004217530708F4DFCC421B530B481759076D
:101FA00008F4D9CC880F991FEBE6F2E050E040E04E
:101FB0008B569240A0917603B0917703AE0FBF1F6E
:101FC000A80FB91F768567856D937C934F5F5F4F30
:101FD00032964217530771F723CF61E03ECD60E0A0
:101FE0009FCD81E0809383018FE592E00E94F20310
:101FF0008FE592E00E94BC0368387341810591052A
:10200000C0F080918B0181110EC088E00E94D10048
:10201000892B49F40E94EA0587E492E00E94660455
:1020200081E080938B0164E670E080E090E00E94A4
:10203000FC0188E00E94D100892B09F040C080910A
:102040008B018823E1F180918E01811138C00E94BB
:102050003A0280910001882309F49BC1809181019B
:10206000893008F093C18F5F8093810160E081E146
:102070000E94FA0064E670E080E090E00E94FC01BB
:1020800061E081E10E94FA0064E670E080E090E0A7
:102090000E94FC0190918001809181012AE0822EB2
:1020A000989D800D11248093820164E670E080E0A9
:1020B00090E00E94FC0187E492E00E94660489E0BF
:1020C0000E94D10020918B01892B09F079C1222334
:1020D00009F478C180918E01811139C00E943A02C1
:1020E0000AE010E060E08DE00E94FA006CE070E031
:1020F00080E090E00E94FC0161E08DE00E94FA0027
:102100006CE070E080E090E00E94FC0160E081E122
:102110000E94FA006CE070E080E090E00E94FC0118
:1021200061E081E10E94FA006CE070E080E090E004
:102130000E94FC0101501109A9F68091000191E073
:1021400089278093000187E492E00E94660487E477
:1021500092E00E94BC03613177428105910508F449
:1021600031C110918201112339F081E090E00E9489
:10217000CB12612F181301C061E081E090E00E9452
:102180008E060E94EA05F0E0E0E009951BC180910F
:102190008B01811101CD0E946D0560918201CE01FC
:1021A00001960E9423060D811E81CE0101960E9498
:1021B0001B0602301105E1F10330110509F47FC05F
:1021C0000130110509F0DBC060918201CE0101965A
:1021D0000E94230670E060E0CE0101960E949E02FC
:1021E000082FCE0101960E941B06002309F4C7C0E8
:1021F000B12CA12C0053110BA016B1060CF0BFC0DE
:1022000060E081E10E94FA0064EF71E080E090E01C
:102210000E94FC0161E081E10E94FA0064EF71E03C
:1022200080E090E00E94FC01EFEFAE1ABE0AE4CF1E
:1022300060918201CE0101960E94230661E070E068
:10224000CE0101960E949E02082FCE0101960E94A7
:102250001B0660918201CE0101960E94230670E068
:1022600060E0CE0101960E949E02182FCE010196D9
:102270000E941B06112309F4B8CF912C812CA12FA9
:10228000A053BB0B5D018A149B040CF0AECF60E041
:102290008DE00E94FA0064EF71E080E090E00E941F
:1022A000FC0161E08DE00E94FA0064EF71E080E0E3
:1022B00090E00E94FC01BFEF8B1A9B0AE4CF609173
:1022C0008201CE0101960E94230662E070E0CE01F9
:1022D00001960E949E02082FCE0101960E941B06C5
:1022E00060918201CE0101960E94230661E070E0B8
:1022F000CE0101960E949E02182FCE0101960E94E7
:102300001B0660918201CE0101960E94230670E0B7
:1023100060E0CE0101960E949E02882ECE010196B9
:102320000E941B06882009F4A5CF712C612C882DF2
:102330008053990B4C01681479040CF09BCF60E03A
:102340008DE00E94FA0060E081E10E94FA0064EFF3
:1023500071E080E090E00E94FC0161E08DE00E946D
:10236000FA0061E081E10E94FA0064EF71E080E030
:1023700090E00E94FC019FEF691A790ADCCF64E6C5
:1023800070E080E090E00E94FC0106CC1092810198
:102390006DCE80918001863180F48F5F80938001C3
:1023A00060E08DE00E94FA0064E670E080E090E07A
:1023B0000E94FC0161E08DE065CE10928001F0CFBB
:1023C0002111C5CE89E00E94D100892B41F4809172
:1023D0008B01811104C080918E01882379F0809156
:1023E0007F0181114EC083E592E00E94660483E57F
:1023F00092E00E94160410927F0107C081E0809352
:102400007F0183E592E00E94F20383E592E00E945F
:10241000BC036838734181059105C0F080918A0141
:1024200081110EC089E00E94D100892B49F487E414
:1024300092E00E9466040E94EA0581E080938A018E
:1024400064E670E080E090E00E94FC0188E00E9479
:10245000D100892BF9F480918A01811139C080E083
:10246000882E80E0982E892811F40C940D0A0E9481
:102470001903882311F40C940D0A0E9400000C9497
:102480000D0A80918A018111AECF0E946D050E94D4
:102490003705A9CF89E00E94D100892BE1F2809114
:1024A0008A018823E1F287E492E00E94BC03613153
:1024B00077428105910598F260917E0182E090E07B
:1024C0000E948E060E94EA05F0E0E0E00995C7CF81
:1024D00080918E018111E7CF0E943A0280917E01A6
:1024E0008F5F833078F480937E010E94370587E404
:1024F00092E00E94660464E670E080E090E00E9452
:10250000FC01CDCF10927E01F0CF89E291E0909353
:102510008C0380938B0380917C0190917D018B587B
:10252000934071F4E0919E03F0919F03908180911C
:10253000A00380958923808310927D0110927C01F5
:102540000895BB27FB015527AA27880F991FAA1FAB
:10255000A41710F0A41B83955051B9F7A05DAA33BE
:1025600008F0A95DA193009779F7B111B193119289
:10257000CB010C94BB12DC01FC01672F7191772316
:10258000E1F7329704C07C916D9370836291AE172E
:10259000BF07C8F30895F999FECF92BD81BDF89A9F
:1025A000992780B50895262FF999FECF1FBA92BDBD
:1025B00081BD20BD0FB6F894FA9AF99A0FBE019624
:1025C00008952F923F924F925F926F927F928F92D7
:1025D0009F92AF92BF92CF92DF92EF92FF920F93B2
:1025E0001F93CF93DF93CDB7DEB7CA1BDB0B0FB6BC
:1025F000F894DEBF0FBECDBF09942A883988488879
:102600005F846E847D848C849B84AA84B984C8840E
:10261000DF80EE80FD800C811B81AA81B981CE0F05
:10262000D11D0FB6F894DEBF0FBECDBFED010895EA
:1026300097FB072E16F4009407D077FD09D00E946F
:10264000541307FC05D03EF4909581959F4F089553
:10265000709561957F4F0895A1E21A2EAA1BBB1BAE
:10266000FD010DC0AA1FBB1FEE1FFF1FA217B3075E
:10267000E407F50720F0A21BB30BE40BF50B661F74
:10268000771F881F991F1A9469F760957095809538
:1026900090959B01AC01BD01CF010895EE0FFF1F86
:1026A0000590F491E02D0994AA1BBB1B51E107C0D2
:1026B000AA1FBB1FA617B70710F0A61BB70B881FD2
:1026C000991F5A95A9F780959095BC01CD01089561
:1026D0000F931F93CF93DF938230910510F482E024
:1026E00090E0E091AC03F091AD0330E020E0B0E089
:1026F000A0E0309799F42115310509F44AC0281B50
:10270000390B24303105D8F58A819B81611571051B
:1027100089F1FB0193838283FE0111C040815181C5
:102720000281138148175907E0F04817590799F4B7
:10273000109761F012960C93129713961C93329691
:10274000CF01DF91CF911F910F9108950093AC03BA
:102750001093AD03F4CF2115310551F04217530703
:1027600038F0A901DB019A01BD01DF01F801C1CFF9
:10277000EF01F9CF9093AD038093AC03CDCFFE0171
:10278000E20FF31F819391932250310939832883FB
:10279000D7CF2091AA033091AB03232B41F4209192
:1027A000090130910A013093AB032093AA032091D1
:1027B0000701309108012115310541F42DB73EB7CD
:1027C00040910B0150910C01241B350BE091AA03A1
:1027D000F091AB03E217F307A0F42E1B3F0B281771
:1027E000390778F0AC014E5F5F4F2417350748F08A
:1027F0004E0F5F1F5093AB034093AA0381939193B5
:102800009FCFF0E0E0E09CCFCF93DF930097E9F01B
:10281000FC01329713821282A091AC03B091AD03F8
:10282000ED0130E020E01097A1F420813181820F8A
:10283000931F2091AA033091AB032817390709F0A1
:1028400061C0F093AB03E093AA03DF91CF910895A9
:10285000EA01CE17DF07E8F54A815B819E01411549
:102860005105B1F7E901FB83EA8349915991C40FFE
:10287000D51FEC17FD0761F4808191810296840FCA
:10288000951FE90199838883828193819B838A8341
:10289000F0E0E0E012968D919C9113970097B9F5C6
:1028A0002D913C911197CD010296820F931F20919B
:1028B000AA033091AB032817390739F6309751F541
:1028C0001092AD031092AC03B093AB03A093AA0394
:1028D000BCCFD383C28340815181840F951FC81719
:1028E000D90761F44E5F5F4F88819981480F591F66
:1028F000518340838A819B81938382832115310593
:1029000009F0B0CFF093AD03E093AC039ECFFD018F
:10291000DC01C0CF13821282D7CFB0E0A0E0E3E9A0
:10292000F4E10C94E3128C01009751F4CB010E9466
:1029300068138C01C801CDB7DEB7E0E10C94FF123B
:10294000FC01E60FF71F9C0122503109E217F30743
:1029500008F49DC0D901CD91DC911197C617D70716
:1029600098F0C530D10530F3CE010497861797074C
:1029700008F3C61BD70B2297C193D1936D937C9319
:10298000CF010E940414D6CF5B01AC1ABD0A4C01E2
:102990008C0E9D1EA091AC03B091AD03512C412C27
:1029A000F12CE12C109731F58091AA039091AB03A3
:1029B0008815990509F05CC04616570608F058C0FE
:1029C0008091070190910801009741F48DB79EB75F
:1029D00040910B0150910C01841B950BE817F907EE
:1029E00008F055C0F093AB03E093AA03F90171839B
:1029F0006083A0CF8D919C91119712966C90129745
:102A000013967C901397A815B90559F56C0142E00F
:102A1000C40ED11CCA14DB0420F1AC014A195B09B5
:102A2000DA011296159780F0628273825183408397
:102A3000D9016D937C93E114F10471F0D7011396E1
:102A4000FC93EE93129776CF22968C0F9D1FF9017F
:102A500091838083F301EFCFF093AD03E093AC0358
:102A600069CF4816590608F42C017D01D3019ACF8D
:102A7000CB010E9468137C01009749F0AE01B801B8
:102A80000E944A15C8010E940414870153CF10E028
:102A900000E050CFFB01DC0102C001900D924150DB
:102AA0005040D8F70895FB01DC0101900D92002001
:102AB000E1F7089510E0C2E6D0E004C0FE010E94F4
:0E2AC0004E132196C336D107C9F7F894FFCF05
:102ACE00010004000400040000AE0380005E01F467
:102ADE00018A02000000004F03AF02DC029C030DCE
:102AEE0003EB02FF0200000000A104AF023405A0B8
:0A2AFE0004FD04130588040D0A000E
:00000001FF
