:100000000C9463000C948B000C948B000C94BD0B2F
:100010000C94BD0B0C94BD0B0C948B000C948B00BA
:100020000C948B000C948B000C948B000C948B0024
:100030000C948B000C948B000C948B000C948B0014
:100040000C94FC090C948B000C946C0A0C94460ADA
:100050000C948B000C948B000C948B000C948B00F4
:100060000C949E0A0C948B000000000024002700D2
:100070002A0000000008000201000003040700003D
:1000800000000000000000000000230026002900FE
:1000900000000000250028002B00040404040404D0
:1000A0000404020202020202030303030303010227
:1000B00004081020408001020408102001020408F6
:1000C0001020350C241711241FBECFEFD8E0DEBF5F
:1000D000CDBF24E0AAE4B1E001C01D92A838B20768
:1000E000E1F711E0A0E0B1E0ECE0F4E302C005903C
:1000F0000D92AA34B107D9F710E0C2E6D0E004C0EF
:100100002197FE010E94ED17C136D107C9F70E9461
:10011000350D0C94F9190C940000FC01A089B189EB
:1001200082E08C93A485B5851C92A685B7858FEC5B
:100130008C93108EA489B5896C93A289B3898C9114
:1001400080618C93A289B3898C9188608C93A289F9
:10015000B3898C9180688C930288F389E02D80812B
:100160008F7D80830895482FECE4F3E020E08FEF4B
:100170009FEF241791F03191832738E0BC01617023
:10018000772796958795672B21F051E0852750EAD0
:100190009527315099F72F5FECCF0895833081F088
:1001A00028F4813099F08230A9F008958730A9F0C1
:1001B0008830C9F08430B1F4809180008F7D03C015
:1001C000809180008F7780938000089584B58F7729
:1001D00084BD089584B58F7DFBCF8091B0008F776B
:1001E0008093B00008958091B0008F7DF9CFCF93B8
:1001F000DF93282F30E0F901EE58FF4F8491F90189
:10020000E255FF4FD491F901E656FF4FC491CC233C
:10021000A1F081110E94CE00EC2FF0E0EE0FFF1F45
:10022000EA57FF4FA591B491EC91ED2381E090E066
:1002300009F480E0DF91CF91089580E090E0FACF5B
:100240001F93CF93DF93282F30E0F901EE58FF4F33
:100250008491F901E255FF4FD491F901E656FF4F21
:10026000C491CC23A9F0162F81110E94CE00EC2F4F
:10027000F0E0EE0FFF1FE057FF4FA591B4918FB74D
:10028000F894EC91111108C0D095DE23DC938FBF58
:10029000DF91CF911F910895DE2BF8CFCF93DF939D
:1002A00090914C03992309F44BC0C82F0E94B300CE
:1002B000D0E0FE01EB5BFC4F8783908780914B037E
:1002C0008F3F19F061E00E942001809149039091D5
:1002D0004A03AE014E5F5F4FDC01ED91FC9102805D
:1002E000F381E02D6CE473E00995809149039091CE
:1002F0004A03DC01ED91FC910680F781E02D099520
:1003000080914B038F3F19F060E00E9420018091A3
:10031000490390914A03DC01ED91FC910084F18541
:10032000E02D0995892B61F08091490390914A0352
:10033000DC01ED91FC910284F385E02D0995E7CF76
:10034000DF91CF910895E5E4F3E090859068908780
:10035000818783E00C944E01CF93DF9390E0FC0102
:10036000E255FF4F249186569F4FFC0184918823CC
:10037000C9F090E0880F991FFC01E859FF4FA59143
:10038000B491FC01E057FF4FC591D49161110DC0AC
:100390009FB7F8948C91209582238C938881282391
:1003A00028839FBFDF91CF910895623051F49FB7AA
:1003B000F8943C91822F809583238C93E8812E2B97
:1003C000EFCF8FB7F894EC912E2B2C938FBFEACF01
:1003D0008E3008F08E508770806480937C0080910E
:1003E0007A00806480937A0080917A0086FDFCCF49
:1003F000809178009091790008953FB7F8948091AA
:10040000180290911902A0911A02B0911B0226B510
:10041000A89B05C02F3F19F00196A11DB11D3FBF3C
:10042000BA2FA92F982F8827BC01CD01620F711D0B
:10043000811D911D42E0660F771F881F991F4A9505
:10044000D1F708958F929F92AF92BF92CF92DF9291
:10045000EF92FF924B015C010E94FD016B017C0158
:100460000E94FD016C197D098E099F09683E734049
:1004700081059105A8F321E0821A9108A108B1082D
:1004800088EEC80E83E0D81EE11CF11C8114910493
:10049000A104B10429F7FF90EF90DF90CF90BF90B7
:1004A000AF909F908F9008952FB7F89460911402A9
:1004B0007091150280911602909117022FBF089536
:1004C0000F931F9380912B0390912C03019709F0B8
:1004D00054C08091290390912A03019721F50E942D
:1004E0005402AB01BC018091250390912603A09199
:1004F0002703B0912803009121031091220320913A
:10050000230330912403801B910BA20BB30B840FA8
:10051000951FA61FB71F8093250390932603A093D2
:100520002703B09328038091290390912A03892BF4
:1005300021F50E94FD01AB01BC0180912503909142
:100540002603A0912703B091280300912103109165
:1005500022032091230330912403801B910BA20BD3
:10056000B30B840F951FA61FB71F8093250390938D
:100570002603A0932703B093280310922C03109214
:100580002B031F910F910895FC012481358162177F
:10059000730748F480819181009729F0860F971F97
:1005A000FC018081089580E00895AF92BF92CF92C0
:1005B000DF92EF92FF920F931F93CF93DF936C0123
:1005C0007B018B01040F151FEB015E01AE18BF0804
:1005D000C017D10759F06991D601ED91FC910190B6
:1005E000F081E02DC6010995892B79F7C501DF91CE
:1005F000CF911F910F91FF90EF90DF90CF90BF9020
:10060000AF900895FC01538D448D252F30E0842F49
:1006100090E0821B930B541710F0CF96089501972A
:100620000895FC01918D828D981761F0A28DAE0F17
:10063000BF2FB11D5D968C91928D9F5F9F73928F9E
:1006400090E008958FEF9FEF0895FC01918D828DCA
:10065000981731F0828DE80FF11D858D90E0089597
:100660008FEF9FEF0895FC01918D228D892F90E0EF
:10067000805C9F4F821B91098F73992708958CE6A8
:1006800092E00E94330321E0892B09F420E0822FBD
:10069000089580E090E0892B29F00E943F038111AA
:1006A0000C9400000895FC01A48DA80FB92FB11D72
:1006B000A35ABF4F2C91848D90E001968F73992798
:1006C000848FA689B7892C93A089B1898C91837076
:1006D00080648C93938D848D981306C00288F3896F
:1006E000E02D80818F7D80830895EF92FF920F939C
:1006F0001F93CF93DF93EC0181E0888F9B8D8C8DCE
:1007000098131AC0E889F989808185FF15C09FB7C1
:10071000F894EE89FF896083E889F9898081837084
:10072000806480839FBF81E090E0DF91CF911F9133
:100730000F91FF90EF900895F62E0B8D10E00F5F54
:100740001F4F0F731127E02E8C8D8E110CC00FB62A
:1007500007FCFACFE889F989808185FFF5CFCE01C2
:100760000E945303F1CFEB8DEC0FFD2FF11DE35AE7
:10077000FF4FF0829FB7F8940B8FEA89FB89808145
:100780008062CFCFCF93DF93EC01888D8823B9F0BF
:10079000AA89BB89E889F9898C9185FD03C080818C
:1007A00086FD0DC00FB607FCF7CF8C9185FFF2CF09
:1007B000808185FFEDCFCE010E945303E9CFDF9109
:1007C000CF9108952091D001260F3327331F213276
:1007D0003105ECF420914202FC0190E080E02430ED
:1007E00069F082E00895A091D0012191AC014255B9
:1007F0005E4FA40FB52FB11D2C930196861798F369
:100800008091D001680F6093D00180E0089581E06D
:1008100008951092420281E08093410210921C02DE
:1008200061E082E10E94200161E083E10E942001F9
:10083000E9EBF0E080818E7F808380818D7F8083F3
:1008400088E48093B80085E48093BC000895CF933A
:10085000DF9391E09093AD018823B9F0C091B80087
:10086000D091BA008091BC008A7B8093BC0060E08C
:1008700082E10E94200160E083E10E9420010E9449
:100880000904D093BA00C093B800DF91CF910895C6
:10089000CF92DF92EF92FF920F931F93CF93DF934C
:1008A000D0916B0281E0D13208F09CC0C0916A0205
:1008B0000E94FD016B017C018091420281116CC09C
:1008C00082E08093420281E0809341028FEF809327
:1008D000400210923F02D0933E02AAE4B2E0EEE161
:1008E000F2E080E0D8138DC010921D0280911D02AD
:1008F000CC0FC82BC0931D0280911C02813009F0DF
:1009000084C010921C020E94FD016B017C01809149
:100910001D028093BB008091440290914502A091FA
:100920004602B0914702892B8A2B8B2BA1F00E94A3
:10093000FD01009144021091450220914602309140
:1009400047026C197D098E099F09061717072807AA
:10095000390708F442C08091BC0083FDD8CF85ECF4
:100960008093BC000E94FD016B017C0180914202DA
:10097000823009F44CC0809140028F3F09F469C075
:1009800080914002803209F466C080914002803339
:1009900009F463C084E026C080914402909145022E
:1009A000A0914602B0914702892B8A2B8B2B09F428
:1009B00083CF0E94FD0100914402109145022091D5
:1009C0004602309147026C197D098E099F0906176E
:1009D00017072807390708F06FCF809143020E945C
:1009E000270485E01092490210926B02109248028F
:1009F000DF91CF911F910F91FF90EF90DF90CF90FB
:100A000008959D9191938F5F6DCF85EEA9CF8091D1
:100A1000440290914502A0914602B0914702892B71
:100A20008A2B8B2B09F4A2CF0E94FD010091440276
:100A30001091450220914602309147026C197D09C0
:100A40008E099F09061717072807390708F08ECF68
:100A5000C4CF80E0C7CF82E0C5CF83E0C3CF089585
:100A600008950895E091AC018091AB01E81730F44E
:100A7000F0E0E557FE4F808190E008958FEF9FEF03
:100A800008959091AC018091AB012FEF3FEF981743
:100A900048F4E92FF0E0E557FE4F208130E09F5FFA
:100AA0009093AC01C90108958091AB019091AC0184
:100AB000891B990B0895CF92DF92EF92FF920F93CB
:100AC0001F93CF93DF937C01CB018A0120914802D1
:100AD000222389F0EB016B01C40ED51ECC15DD0578
:100AE00069F06991D701ED91FC910190F081E02DC1
:100AF000C7010995F3CF642F0E94E203C801DF917B
:100B0000CF911F910F91FF90EF90DF90CF900895BC
:100B1000CF93DF931F92CDB7DEB769832091480250
:100B20002223F9F020916B02203258F021E030E0CE
:100B3000FC013383228390E080E00F90DF91CF911E
:100B4000089580914902E82FF0E0E65BFD4F99811E
:100B500090838F5F8093490280936B0281E090E0E5
:100B6000ECCF61E0CE0101960E94E203F7CF0F9334
:100B70001F93CF93DF93FC0122853385213031050C
:100B800031F5EC012085318521303105D9F40E9401
:100B90005402AB01BC018C819D81AE81BF81088173
:100BA00019812A813B81801B910BA20BB30B840F0F
:100BB000951FA61FB71FBC01CD01DF91CF911F91DB
:100BC0000F910895232B19F40E94FD01E2CFFC013F
:100BD00084819581A681B781EECFCF93DF93FC010D
:100BE0002285338522303105C9F4EC018085918559
:100BF000019731F40E945402688379838A839B832E
:100C000088859985892B31F40E94FD016883798359
:100C10008A839B8381E090E09B878A87DF91CF91D5
:100C20000895CF92DF92EF92FF920F931F93CF938D
:100C3000DF93FC012285338521303105C9F5EC01B4
:100C4000808591850197B1F4C480D580E680F780D6
:100C50000E945402088119812A813B81C01AD10A5D
:100C6000E20AF30AC60ED71EE81EF91ECC82DD8208
:100C7000EE82FF8288859985892BB1F4CC80DD8056
:100C8000EE80FF800E94FD01088119812A813B814D
:100C9000C01AD10AE20AF30AC60ED71EE81EF91ED0
:100CA000CC82DD82EE82FF8282E090E09B878A87A1
:100CB000DF91CF911F910F91FF90EF90DF90CF9038
:100CC0000895CF93DF93EC011C821D821E821F8248
:100CD00088859985019731F40E945402688379834D
:100CE0008A839B8388859985892B31F40E94FD0135
:100CF000688379838A839B8381E090E09B878A87DE
:100D0000DF91CF9108952091F7013091F8012817D4
:100D1000390771F49091F5018091F601981741F02F
:100D2000E091F501F0E0E55BFE4F808190E00895F1
:100D30008FEF9FEF0895EF92FF920F931F93CF9342
:100D4000DF93DC015C96ED90FC905D97E114F1047B
:100D500079F481E090E013969C938E93129790E043
:100D600080E0DF91CF911F910F91FF90EF90089558
:100D70005196ED91FC91529750968C915097982FE7
:100D800090950FB75E962C915E97122F127021FDF1
:100D90006095F8942081112319F1282B2083E70115
:100DA0002197F1F728E0462F50E0308160FF1AC00C
:100DB000382B3083E7012197F1F7BA0175956795D4
:100DC000215089F7112381F08081892380830FBF0F
:100DD0005C968D919C910197F1F781E090E0C1CFF5
:100DE0002923DCCF3923E5CF9081892BEFCF2091C8
:100DF000F7013091F8012817390761F48091F60165
:100E00002091F50190E0805C9F4F821B91098F73C8
:100E10009927089590E080E008952091F70130919E
:100E2000F80128173907B9F49091F5018091F6017E
:100E3000981789F0E091F501F0E0E55BFE4F8081C5
:100E40002091F50130E02F5F3F4F2F733327209320
:100E5000F50190E008958FEF9FEF089590E080E016
:100E600008958091FB01813091F018F08230E1F01B
:100E7000089560E08DE00E94200168EE73E080E05C
:100E800090E00E94220261E08DE00C94200160E07D
:100E900081E10E94200168EE73E080E090E00E9412
:100EA000220261E081E1F1CF60E08DE00E9420014B
:100EB00060E081E10E94200168EE73E080E090E054
:100EC0000E94220261E08DE00E942001EACF60E0F2
:100ED0008DE00E9420016AE070E080E090E00E94D6
:100EE000220261E08DE00E9420016AE070E080E073
:100EF00090E00E94220260E081E10E9420016AE00D
:100F000070E080E090E00E94220261E081E10E94B6
:100F100020016AE070E080E090E00E94220260E040
:100F20008DE00E9420016AE070E080E090E00E9485
:100F3000220261E08DE00E9420016AE070E080E022
:100F400090E00C942202CF92DF92EF92FF921F93D7
:100F5000CF93DF93FC01E65FFD4F2081EC01CC0FC6
:100F6000DD1F21113BC0162F862F0E94E8018BE95F
:100F7000E82E8FE0F82EC7010197F1F7812F0E942C
:100F8000E801C050DF4F19821882C7010197F1F7BD
:100F90009AE0E92EF12C2BECC22E27E0D22E812FE5
:100FA0000E94E80128813981820F931F99838883E9
:100FB000F6013197F1F721E0E21AF10881F76AE0D2
:100FC00070E00E94B71779836883A895DF91CF916D
:100FD0001F91FF90EF90DF90CF900895C050DF4FAA
:100FE00080E094E099838883F1CFCF93DF93C4E1CD
:100FF000D0E060E08DE00E94200169E170E080E0D7
:1010000090E00E94220261E08DE00E94200169E1EF
:1010100070E080E090E00E94220260E081E10E94A6
:10102000200169E170E080E090E00E94220261E02E
:1010300081E10E94200169E170E080E090E00E947F
:1010400022022197B1F6DF91CF910895CF92DF92DE
:10105000EF92FF920F931F93CF931092AC011092D7
:10106000AB011092490210926B020E9409048FE2B8
:1010700095E09093CF018093CE0180E395E090932B
:10108000D3018093D201C1E0C093480281E48093F0
:101090006A0263E089E093E00E94880567E089E0E6
:1010A00093E00E9488050E944804C0934802109271
:1010B000490210926B0260E089E093E00E9488058B
:1010C0000E9448040E94FD016B017C018091420254
:1010D000811163C081E080934202809341029FEFBF
:1010E0009093400210923F0210923E0280931D02A4
:1010F00080911D02826880931D0280911C028130C4
:1011000009F095C010921C020E94FD016B017C0148
:1011100080911D028093BB00809144029091450212
:10112000A0914602B0914702892B8A2B8B2BA1F00C
:101130000E94FD0100914402109145022091460257
:10114000309147026C197D098E099F090617170710
:101150002807390708F442C08091BC0083FDD8CF2E
:1011600085EC8093BC000E94FD016B017C018091A5
:101170004202813009F45DC080913F0281117BC041
:1011800080913F02AEE1B2E0EBE8F1E090E0981729
:1011900051F12D9121939F5FFACF8091440290915C
:1011A0004502A0914602B0914702892B8A2B8B2BD6
:1011B00009F48CCF0E94FD01009144021091450278
:1011C00020914602309147026C197D098E099F09D2
:1011D000061717072807390708F078CF80914302D0
:1011E0000E94270480E01092AC018093AB01882319
:1011F00031F089E093E00E94410580934A012091FB
:101200004A01822F217020930A0281FB992790F9CD
:1012100090930B0282FB882780F980930C02CF9178
:101220001F910F91FF90EF90DF90CF90089585EE82
:1012300098CF8091440290914502A0914602B091CE
:101240004702892B8A2B8B2B09F491CF0E94FD0139
:1012500000914402109145022091460230914702CC
:101260006C197D098E099F0906171707280739078A
:1012700008F07DCFB3CF81E085CFFC0180819181E3
:10128000009711F00C94A3180895CF92DF92EF927B
:10129000FF920F931F93CF93DF93CDB7DEB72997BC
:1012A0000FB6F894DEBF0FBECDBF8C01862FF801BC
:1012B0001182108213821282158214824AE09E01EA
:1012C0002F5F3F4F6901B90190E00E944017F6017E
:1012D00001900020E9F731977F01EC18FD08F80133
:1012E00080819181009729F0228133812E153F055D
:1012F00090F4B7016F5F7F4F0E942C19F80100979F
:1013000099F091838083F382E28224813581232BBB
:1013100011F4FC011082F801F582E482B6018081AB
:1013200091810E94F2190DC080819181009711F086
:101330000E94A318F8011182108215821482138270
:10134000128229960FB6F894DEBF0FBECDBFDF9193
:10135000CF911F910F91FF90EF90DF90CF90089564
:1013600085ED8093BC008091440290914502A0914C
:101370004602B09147020796A11DB11D23E0B69524
:10138000A795979587952A95D1F72091BC0024FDC4
:1013900003C01092420208954091440250914502C8
:1013A0006091460270914702452B462B472B69F30B
:1013B0000097A105B10541F02AE22A95F1F700C096
:1013C0000197A109B109E1CF809143020C94270450
:1013D0001F93CF93DF93EC01162F0E946A17181703
:1013E00039F0612FCE01DF91CF911F910C947217CC
:1013F000DF91CF911F9108951F920F920FB60F9218
:1014000011242F933F938F939F93AF93BF9380911A
:10141000140290911502A0911602B091170230911A
:10142000130223E0230F2D3758F50196A11DB11D9E
:10143000209313028093140290931502A093160236
:10144000B09317028091180290911902A0911A028C
:10145000B0911B020196A11DB11D809318029093BB
:101460001902A0931A02B0931B02BF91AF919F91F2
:101470008F913F912F910F900FBE0F901F90189555
:1014800026E8230F0296A11DB11DD2CF1F920F9205
:101490000FB60F9211242F933F934F935F936F9347
:1014A0007F938F939F93AF93BF93EF93FF938CE6BC
:1014B00092E00E945303FF91EF91BF91AF919F91F2
:1014C0008F917F916F915F914F913F912F910F90ED
:1014D0000FBE0F901F9018951F920F920FB60F928C
:1014E00011242F938F939F93EF93FF93E0917C02AE
:1014F000F0917D028081E0918202F091830282FD71
:101500001BC09081809185028F5F8F73209186022E
:10151000821741F0E0918502F0E0E459FD4F958F8C
:1015200080938502FF91EF919F918F912F910F9062
:101530000FBE0F901F9018958081F4CF1F920F92CD
:101540000FB60F9211242F933F934F935F936F9396
:101550007F938F939F93AF93BF93EF93FF9380916C
:10156000B900887F803609F44AC0F0F5883209F462
:10157000A7C018F5803109F49BC0B8F4882309F49A
:10158000F9C0883009F494C0FF91EF91BF91AF91F9
:101590009F918F917F916F915F914F913F912F918B
:1015A0000F900FBE0F901F901895883109F488C0D6
:1015B000803251F78093400214C0803409F49DC0FA
:1015C00040F48033B9F38833F9F68093400285EC18
:1015D000B0C0803509F485C0883509F496C08834D8
:1015E00099F60E94B009D0CF883909F48CC038F53B
:1015F000883729F050F4883611F0803729F683E0D7
:10160000809342021092F40157C0883809F47BC0DD
:10161000803919F0803809F0B7CF8091F401803219
:1016200008F071C0E091F40181E08E0F8093F40125
:101630008091BB00F0E0EC52FE4F80833DC0803BC8
:1016400039F0E0F4803A09F479C0883A09F09CCF87
:1016500084E0809342021092D1011092D001E09177
:10166000CE01F091CF0109958091D00181110FC079
:1016700081E08093D0011092AE0109C0803C09F452
:10168000A6CF883C09F4A3CF883B09F07DCFE09139
:10169000D10181E08E0F8093D101F0E0E255FE4F41
:1016A00080818093BB009091D1018091D00129C0AD
:1016B00080911D028093BB0085EC8093BC0064CFB9
:1016C00090913F0280913E02981758F5E0913F02B9
:1016D00081E08E0F80933F02F0E0E25EFD4F80815B
:1016E000E9CFE0913F0281E08E0F80933F0280912D
:1016F000BB00F0E0E25EFD4F808390913F0280915D
:101700003E029817C8F285E8D8CFE0913F0281E009
:101710008E0F80933F028091BB00F0E0E25EFD4FB0
:1017200080838091410281115CCF81E080931C0213
:1017300084EA8093BC001092420226CF85EC80930D
:10174000BC00109242028091F401803230F4E091AA
:10175000F401F0E0EC52FE4F10826091F40170E071
:10176000E091D201F091D30184ED91E009951092BE
:10177000F4010ACF1092400234CF1F920F920FB69D
:101780000F9211242F933F934F935F936F937F9307
:101790008F939F93AF93BF93EF93FF93E091F701E4
:1017A000F091F801309749F0A685B7858585968D2B
:1017B00091FF14C09C918923A1F4FF91EF91BF91F7
:1017C000AF919F918F917F916F915F914F913F91D9
:1017D0002F910F900FBE0F901F9018959C91892309
:1017E00061F7A389B4899C918589809589238C931D
:1017F000868997890197F1F7608D718DA685B785E8
:10180000558538E020E0CB010197F1F7822F90E079
:1018100095958795282F4C91452309F020683150E4
:1018200091F7868D81FD20958091F60190E00196DB
:101830008F7399273091F501381799F0A091F6012F
:10184000B0E0A55BBE4F2C938093F601828D938D03
:101850000197F1F7A389B4898C919589892B8C9391
:10186000ACCF868D8160868FF1CF10926F0210927F
:101870006E0288EE93E0A0E0B0E080937002909357
:101880007102A0937202B093730227E131E03093AA
:101890006D0220936C0225EC30E0309379022093A6
:1018A000780224EC30E030937B0220937A0220EC23
:1018B00030E030937D0220937C0221EC30E03093C5
:1018C0007F0220937E0222EC30E03093810220934D
:1018D000800226EC30E03093830220938202109243
:1018E000850210928602109287021092880210924E
:1018F0000C0310920B0380930D0390930E03A0939F
:101900000F03B093100329E231E030930A032093D0
:1019100009031092680410926704809369049093FD
:101920006A04A0936B04B0936C048BE391E09093F2
:1019300066048093650410927C0410927B041092DC
:101940007E0410927D041092800410927F04109205
:10195000820410928104609183046E7F6D7F609396
:1019600083046695617081E068278BE00E94200106
:1019700061E08BE00E94AC01E9EBF0E0E491E093E0
:101980007504E5EAF0E0E491F0E0EE0FFF1FE057A8
:10199000FF4F85919491909377048093760460E053
:1019A0008AE00E94AC018091830481FD04C061E063
:1019B0008AE00E94200185E694E02AE020937104E9
:1019C000E8EBF0E0E491E0937204E4EAF0E0E49103
:1019D000F0E0EE0FFF1FEA57FF4F2591349130934F
:1019E00074042093730410925504109254041092BE
:1019F00057041092560410925904109258041092F1
:101A00005B0410925A04109246031092450390937F
:101A100048038093470390934A03809349031092AD
:101A20004D0410924C0410924F0410924E041092E8
:101A3000510410925004109253041092520482E008
:101A400080934B0381E090E09093420380934103A5
:101A5000909336038093350390932A038093290350
:101A600090931E0380931D030895CF93DF9300D0BE
:101A700000D000D0CDB7DEB7789484B5826084BD45
:101A800084B5816084BD85B5826085BD85B5816082
:101A900085BD80916E00816080936E001092810000
:101AA00080918100826080938100809181008160BB
:101AB000809381008091800081608093800080917C
:101AC000B10084608093B1008091B0008160809308
:101AD000B00080917A00846080937A0080917A00CF
:101AE000826080937A0080917A00816080937A008E
:101AF00080917A00806880937A001092C10066E03D
:101B00008CE692E00E948D0080E490E00E946A17CB
:101B1000803479F060E480E490E00E94E80961E0BC
:101B200081E090E00E94E80962E082E090E00E949B
:101B3000E80981E090E00E946A17F82E8093FF0187
:101B400082E090E00E946A178093FB01E82FF0E0AA
:101B5000EE0FFF1FE35FFE4F808191819093FA01AA
:101B60008093F90162E082E00E94AC0162E083E0D0
:101B70000E94AC0162E084E00E94AC0161E08DE073
:101B80000E94AC0161E081E10E94AC0160E088E06C
:101B90000E94AC0160E089E00E94AC0161E087E056
:101BA0000E94AC0161E083E00E94AC0161E084E04E
:101BB0000E94AC0161E085E00E94AC0161E081E13E
:101BC0000E94200161E08DE00E9420010E94260811
:101BD000EAE0CE2EE2E0DE2E10E000E0D6018D91AC
:101BE0006D0181110CC060E084E00130110529F025
:101BF00083E00230110509F485E00E9420010F5FA7
:101C00001F4F0330110551F768EE73E080E090E05C
:101C10000E94220261E083E00E94200161E084E0F2
:101C20000E94200161E085E00E9420018DE092E0A9
:101C300090934F0480934E0486E090E09093570475
:101C40008093560481E092E0909351048093500475
:101C500010935904009358048FEF8F0D873F08F0BD
:101C60003EC2F0925C048091450390914603009738
:101C700009F438C24CE25AE060E070E040935D0441
:101C800050935E0460935F04709360044FE452E1EC
:101C900060E070E0409361045093620460936304D9
:101CA0007093640466E00E948D0080914B038F3F27
:101CB00041F061E00E94AC0160E080914B030E9422
:101CC00020010E94FD016B017C01809149039091EC
:101CD0004A03DC01ED91FC910084F185E02D09952A
:101CE000892B79F00E94FD016B017C0180914903F1
:101CF00090914A03DC01ED91FC910284F385E02D83
:101D000009950E94FD016C197D098E099F090091BA
:101D1000610410916204209163043091640460179F
:101D200071078207930788F289E393E00E946106B6
:101D30008DE293E00E94610685E193E00E946106D6
:101D400064E670E080E090E00E94220250EA252ED6
:101D50005FE0352E412C512CC12CD12C7601C3943F
:101D600085E193E00E94B705A20191010E94CB1783
:101D7000643F71408105910508F080C0EDE0F2E01C
:101D800046E0842E11928A94E9F70E94260880E0AA
:101D90000E94E801833F93400CF44AC280910A02FA
:101DA000811146C281E08093100281E00E94E80127
:101DB000833F93402CF080910B02882309F43BC2AF
:101DC0001092110282E00E94E801833F93402CF0C0
:101DD00080910C02882309F432C2109212026EE044
:101DE00070E090E080E00E94A30765E070E080E092
:101DF00090E00E9422026FE070E081E090E00E949B
:101E0000A30765E070E080E090E00E94220260E1BC
:101E100070E082E090E00E94A30765E070E080E05F
:101E200090E00E9422028091F9019091FA012091A4
:101E3000000130910101281739070CF004C221E09C
:101E400020930D02109210022091020130910301A3
:101E5000281739070CF0FEC121E020930E021092E2
:101E600011022091040130910501281739070CF067
:101E7000F8C181E080930F02109212020E94540276
:101E800024EF31E040E050E00E94CB176A3F71053B
:101E90008105910508F0ECC180910D02811104C00B
:101EA00080911002882321F080910A0260E0811164
:101EB00061E083E00E94200180910E02811104C044
:101EC00080911102882321F080910B0260E0811142
:101ED00061E084E00E94200180910F02811104C022
:101EE00080911202882321F080910C0260E0811120
:101EF00061E085E00E9420018091090260E081118B
:101F0000C4C180910D028111C4C180910E02811162
:101F1000C0C180910F028111BCC18091100281115A
:101F2000B8C1809111028111B4C180911202811156
:101F3000B0C11092090261E087E00E94200161E0D7
:101F40008DE00E9420010E945402A20191010E9492
:101F5000CB176C3271408105910508F0A1C18091C9
:101F6000080281119DC180910702811199C160E031
:101F700081E10E9420016AE070E080E090E00E9430
:101F8000220261E081E10E94200164E670E080E0CD
:101F900090E00E94220260E081E10E942001809195
:101FA000490390914A03DC01ED91FC910084F18595
:101FB000E02D0995892B09F4D9C1812C912C54016C
:101FC00010E000E08091490390914A03DC01ED911B
:101FD000FC910084F185E02D0995892BA9F00E94E0
:101FE000FD014B015C018091490390914A03DC01A2
:101FF000ED91FC910284F385E02D0995F801EB5BEE
:10200000FC4F87830F5F1F4F0E94FD0168197909FC
:102010008A099B0920915D0430915E0440915F0420
:1020200050916004261737074807590720F00F3FE3
:10203000110541F238F20E94FD01681979098A09F7
:102040009B09209161043091620440916304509196
:102050006404621773078407950768F38091490346
:1020600090914A03DC01ED91FC910084F185E02D13
:102070000995892B09F07AC180914C0390915C04F9
:10208000891711F0811172C18EEF800F0E94B30089
:10209000F801EB5BFC4F268135812327322723276C
:1020A0008217930709F062C1E0914D03E150E031DE
:1020B00008F013C1F0E0E15AFF4E0C94ED175211F5
:1020C0007A12DA122C137E13B1136D116D116D118A
:1020D0006D116D116D116D116D11D9133A141092AE
:1020E0005C04C1CDE0914703F0914803309709F4B7
:1020F000DCCD8CE29AE0A0E0B0E080935D049093A8
:102100005E04A0935F04B09360048FE492E1A0E0CA
:10211000B0E08093610490936204A0936304B09351
:102120006404138E128E118E108E178A168A8DE912
:1021300091E0958F848F84858631E0F52DEB30E03A
:10214000378B268B2BE931E0318F208F2CE231E069
:10215000338F228F90916800883008F45AC021E0B4
:102160008E3008F420E081E001C0880F2A95EAF75C
:10217000892B8093680094852DE630E0983050F0EC
:102180002BE630E09E3030F02CE630E0963110F057
:1021900030E020E0348B238B292F30E09830D8F5C5
:1021A00081E001C0880F9A95EAF7858B848D958D23
:1021B0000197F1F7828D938D892B09F476CD4091AB
:1021C000F7015091F801E417F50709F46ECD4115B8
:1021D000510569F0DA0153962D913C91D9019C91FA
:1021E000DA0155968C9180958923D9018C93868D3F
:1021F0008E7F868F1092F6011092F501F093F80110
:10220000E093F701A389B4898C919589892B8C93EC
:102210004CCD84E0ADCF9E3040F42850310981E0B0
:1022200001C0880F2A95EAF7C0CF2E503109F7CFA9
:1022300010921002BACD81E080931102C3CD81E0EB
:1022400080931202CCCD20910A022111FDCD109273
:102250000D02FACD20910B02211103CE10920E0235
:1022600000CE80910C02811109CE10920F0206CE91
:1022700061E083E00E94200161E084E00E9420018F
:1022800061E085E00E94200161E08DE00E94200174
:1022900038CE81E08093090260E087E00E9420014F
:1022A00061E07ACE60914E0370914F0376276727E5
:1022B000762780915003909151039827892798277A
:1022C000A0914C04B0914D04109739F04091540402
:1022D000509155044115510511F481E006C0FC01EF
:1022E0003197E03DF74020F083E00E94A3013EC01B
:1022F0004817590728F0481B590B4617570710F481
:1023000082E0F3CFAC01495F5F4F33E056954795CC
:102310003A95E1F740934E03A60FB71F50E040E017
:102320006D919A01277033274601570104C0880C2C
:10233000991CAA1CBB1C2A95D2F78401FA0123E040
:10234000F695E7952A95E1F7E85BFC4F77816623E0
:1023500009F4CCC0072B07834F5F5F4F481759071D
:10236000F9F680914E038D5F0E944E01809101022B
:1023700090910202803C9105F1F4809103029091CA
:10238000040280359105B9F460910502709106024E
:10239000663E710508F0C0C281E090E00E94E80945
:1023A0000E94F50768EE73E080E090E00E94220250
:1023B000F0E0E0E00995809101029091020201971E
:1023C000E1F480910302909104020197B1F48091AD
:1023D000050290910602019781F461E081E090E0AE
:1023E0000E94E8090E94F50768EE73E080E090E043
:1023F0000E942202F0E0E0E00995809101029091B4
:1024000002020A97B9F480910302909104020A979C
:1024100089F480910502909106020A9759F40E946E
:10242000F50768EE73E080E090E00E942202F0E0A1
:10243000E0E0099580910102909102020597F1F484
:1024400080910302909104020597C1F4A8956091D0
:102450000502709106026330710508F05FC282E0E8
:1024600090E00E94E8090E94F50768EE73E080E0C2
:1024700090E00E942202F0E0E0E0099580910102E4
:1024800090910202069751F4809103029091040208
:102490008636910519F4F0E0E0E009950FB6F8945E
:1024A000A895809160008861809360001092600020
:1024B0000FBE88E00E94F700892B49F48091070243
:1024C000811105C080910902882309F429C28091F5
:1024D00000028111FBC289E393E00E94610689E357
:1024E00093E00E9411061092000221C20095702311
:1024F000778332CF20914E0330914F033227232729
:10250000322780915003909151039827892798276B
:10251000A0914E04B0914F04109709F4DECE409183
:102520005604509157044115510509F4D6CEFC01CB
:102530003197E03DF74008F0D7CE4817590708F427
:10254000DFCE481B590B4217530708F4D9CEAC0114
:10255000495F5F4F03E0569547950A95E1F7409331
:102560004E03A20FB31F50E040E06D919A01277017
:1025700033274601570104C0880C991CAA1CBB1CB8
:102580002A95D2F78401FA0113E0F695E7951A959A
:10259000E1F7E85BFC4F7781662341F0072B078367
:1025A0004F5F5F4F4817590701F7DBCE0095702347
:1025B0007783F6CFE0914E03F0914F03FE27EF278C
:1025C000FE2740915004509151044115510509F4E2
:1025D00084CE20915804309159042115310509F415
:1025E0007CCE80915003909151039827892798279A
:1025F000BC01615071096D37710508F075CE28175F
:10260000390708F47DCE281B390B2E173F0708F435
:1026100077CE282F220F20934E03EE0FFF1FBF010E
:10262000640F751FA5E4B3E030E020E0FB014181B9
:102630006E5F7F4F1A964C931A97AB014250510927
:10264000FA0140811B964C931B972F5F3F4F1296C8
:102650002817390759F785CEE0914E03F0914F03C3
:10266000FE27EF27FE274091520450915304411555
:10267000510509F432CE20915A0430915B042115A2
:10268000310509F42ACE8091500390915103982787
:1026900089279827BC01615071096D37710508F0D1
:1026A00023CE2817390708F42BCE281B390B2E17F9
:1026B0003F0708F425CE282F220F20934E03EE0F5C
:1026C000FF1FBF01640F751FA5E4B3E030E020E0F9
:1026D000FB0141816E5F7F4F1A964C931A97AB01B5
:1026E00042505109FA0140811B964C931B972F5F72
:1026F0003F4F12968217930759F733CE40914E03FE
:1027000050914F03542745275427809150039091AF
:10271000510398278927982720914C0430914D0424
:102720002115310509F4D9CD6091540470915504F7
:102730006115710509F4D1CD009729F08115FFEFDE
:102740009F0709F0D1CD4617570708F0D9CD240FC0
:10275000351F41E0892B09F440E0D9014C9386E014
:1027600003CE80914E0390914F0398278927982795
:102770002091500330915103322723273227E091D3
:102780005004F0915104309709F4A7CD40915804BA
:10279000509159044115510509F49FCD84179507AF
:1027A00008F0AECD880F991FE80FF91F3183208301
:1027B000D6CF60914E0370914F0376276727762717
:1027C0008091500390915103982789279827209151
:1027D0004C0430914D04232B09F47FCD20915404F7
:1027E000309155042115310509F477CDAC014150E4
:1027F0005109403BB7E05B0708F076CDE09152030A
:10280000485F5F4F03E0569547950A95E1F7E41757
:10281000150609F069CD2817390708F471CD281B72
:10282000390B2617370708F46BCD50E040E0E091F4
:102830004C04F0914D04E40FF51FE60FF71FDA0189
:1028400013E0B695A7951A95E1F7AB5BBC4F1E96C2
:102850002C9130E0DA01A770BB2702C0359527958F
:10286000AA95E2F7217020834F5F5F4F4817590701
:10287000F1F675CF80914E0390914F0398278927E9
:102880009827209150033091510332272327322774
:102890004091500450915104452B09F41ECD4091B4
:1028A0005804509159044115510509F416CDB90148
:1028B000615071096B37710508F016CDE091520334
:1028C000B901660F771FE617170609F00DCD4217FD
:1028D000530708F415CD421B530B4817590708F44A
:1028E0000FCD880F991FE5E4F3E050E040E08554F8
:1028F0009340A0915004B0915104AE0FBF1FA80F98
:10290000B91F768567856D937C934F5F5F4F3296D5
:102910004217530771F723CF61E03ECD60E09FCDB2
:1029200081E08093000289E393E00E94ED0589E352
:1029300093E00E94B7056838734181059105C0F0A6
:102940008091080281110EC088E00E94F700892B57
:1029500049F40E94F50781E293E00E94610681E05C
:102960008093080264E670E080E090E00E9422021A
:1029700088E00E94F700892B09F040C0809108028E
:102980008823E1F180910902811138C00E94600220
:1029900080910601882309F49BC18091FE01893052
:1029A00008F093C18F5F8093FE0160E081E10E9497
:1029B000200164E670E080E090E00E94220261E085
:1029C00081E10E94200164E670E080E090E00E94D6
:1029D00022029091FD018091FE012AE0822E989DB5
:1029E000800D11248093FF0164E670E080E090E0A8
:1029F0000E94220281E293E00E94610689E00E9427
:102A0000F70020910802892B09F079C1222309F4EB
:102A100078C180910902811139C00E9460020AE0E8
:102A200010E060E08DE00E9420016CE070E080E04A
:102A300090E00E94220261E08DE00E9420016CE0A3
:102A400070E080E090E00E94220260E081E10E945C
:102A500020016CE070E080E090E00E94220261E0E2
:102A600081E10E9420016CE070E080E090E00E9433
:102A7000220201501109A9F68091060191E08927EF
:102A80008093060181E293E00E94610681E293E077
:102A90000E94B705613177428105910508F431C183
:102AA0001091FF01112339F081E090E00E946A1734
:102AB000612F181301C061E081E090E00E94E809F5
:102AC0000E94F507F0E0E0E009951BC18091080243
:102AD000811101CD0E9467076091FF01CE0101962F
:102AE0000E9445090D811E81CE0101960E943D097B
:102AF00002301105E1F10330110509F47FC0013006
:102B0000110509F0DBC06091FF01CE0101960E9422
:102B1000450970E060E0CE0101960E94C402082FD2
:102B2000CE0101960E943D09002309F4C7C0B12CD3
:102B3000A12C0053110BA016B1060CF0BFC060E031
:102B400081E10E94200164EF71E080E090E00E944A
:102B5000220261E081E10E94200164EF71E080E0E7
:102B600090E00E942202EFEFAE1ABE0AE4CF60911D
:102B7000FF01CE0101960E94450961E070E0CE019F
:102B800001960E94C402082FCE0101960E943D09C1
:102B90006091FF01CE0101960E94450970E060E05E
:102BA000CE0101960E94C402182FCE0101960E9408
:102BB0003D09112309F4B8CF912C812CA12FA053EA
:102BC000BB0B5D018A149B040CF0AECF60E08DE07E
:102BD0000E94200164EF71E080E090E00E942202F8
:102BE00061E08DE00E94200164EF71E080E090E000
:102BF0000E942202BFEF8B1A9B0AE4CF6091FF0173
:102C0000CE0101960E94450962E070E0CE01019676
:102C10000E94C402082FCE0101960E943D096091D6
:102C2000FF01CE0101960E94450961E070E0CE01EE
:102C300001960E94C402182FCE0101960E943D0900
:102C40006091FF01CE0101960E94450970E060E0AD
:102C5000CE0101960E94C402882ECE0101960E94E8
:102C60003D09882009F4A5CF712C612C882D805353
:102C7000990B4C01681479040CF09BCF60E08DE057
:102C80000E94200160E081E10E94200164EF71E078
:102C900080E090E00E94220261E08DE00E9420012D
:102CA00061E081E10E94200164EF71E080E090E04A
:102CB0000E9422029FEF691A790ADCCF64E670E075
:102CC00080E090E00E94220206CC1092FE016DCEC0
:102CD0008091FD01863180F48F5F8093FD0160E07B
:102CE0008DE00E94200164E670E080E090E00E94A8
:102CF000220261E08DE065CE1092FD01F0CF21113E
:102D0000C5CE89E00E94F700892B41F4809108022A
:102D1000811104C080910902882379F08091FC011F
:102D200081114EC08DE293E00E9461068DE293E036
:102D30000E9411061092FC0107C081E08093FC0103
:102D40008DE293E00E94ED058DE293E00E94B705CD
:102D50006838734181059105C0F0809107028111A7
:102D60000EC089E00E94F700892B49F481E293E0CC
:102D70000E9461060E94F50781E08093070264E6E5
:102D800070E080E090E00E94220288E00E94F7005C
:102D9000892BF9F480910702811139C080E0882ED7
:102DA00080E0982E892811F40C94B00E0E943F0305
:102DB000882311F40C94B00E0E9400000C94B00E05
:102DC000809107028111AECF0E9467070E943107F0
:102DD000A9CF89E00E94F700892BE1F280910702D8
:102DE0008823E1F281E293E00E94B70561317742E6
:102DF0008105910598F26091FB0182E090E00E94CC
:102E0000E8090E94F507F0E0E0E00995C7CF80915E
:102E100009028111E7CF0E9460028091FB018F5F60
:102E2000833078F48093FB010E94310781E293E0C4
:102E30000E94610664E670E080E090E00E94220259
:102E4000CDCF1092FB01F0CF8BE391E0909366041D
:102E5000809365048091F7019091F8018556944024
:102E600071F4E0917804F0917904908180917A0472
:102E70008095892380831092F8011092F7010895BC
:102E8000BB27FB015527AA27880F991FAA1FA41744
:102E900010F0A41B83955051B9F7A05DAA3308F038
:102EA000A95DA193009779F7B111B1931192CB016C
:102EB0000C945A17DC01FC01672F71917723E1F71D
:102EC000329704C07C916D9370836291AE17BF07F7
:102ED000C8F30895F999FECF92BD81BDF89A99275C
:102EE00080B50895262FF999FECF1FBA92BD81BDF6
:102EF00020BD0FB6F894FA9AF99A0FBE019608957C
:102F00002F923F924F925F926F927F928F929F92F9
:102F1000AF92BF92CF92DF92EF92FF920F931F93E7
:102F2000CF93DF93CDB7DEB7CA1BDB0B0FB6F89498
:102F3000DEBF0FBECDBF09942A88398848885F84D8
:102F40006E847D848C849B84AA84B984C884DF8049
:102F5000EE80FD800C811B81AA81B981CE0FD11D2D
:102F60000FB6F894DEBF0FBECDBFED01089597FBFD
:102F7000072E16F4009407D077FD09D00E94F317AE
:102F800007FC05D03EF4909581959F4F089570956C
:102F900061957F4F0895A1E21A2EAA1BBB1BFD016C
:102FA0000DC0AA1FBB1FEE1FFF1FA217B307E40728
:102FB000F50720F0A21BB30BE40BF50B661F771F80
:102FC000881F991F1A9469F7609570958095909560
:102FD0009B01AC01BD01CF010895EE0FFF1F0590CD
:102FE000F491E02D0994AA1BBB1B51E107C0AA1F55
:102FF000BB1FA617B70710F0A61BB70B881F991F9A
:103000005A95A9F780959095BC01CD0108950F932D
:103010001F93CF93DF938230910510F482E090E00C
:10302000E0918604F091870430E020E0B0E0A0E079
:10303000309799F42115310509F44AC0281B390B42
:1030400024303105D8F58A819B816115710589F19C
:10305000FB0193838283FE0111C040815181028173
:10306000138148175907E0F04817590799F410974A
:1030700061F012960C93129713961C933296CF011F
:10308000DF91CF911F910F910895009386041093C3
:103090008704F4CF2115310551F04217530738F05A
:1030A000A901DB019A01BD01DF01F801C1CFEF01E8
:1030B000F9CF9093870480938604CDCFFE01E20F71
:1030C000F31F819391932250310939832883D7CFFD
:1030D0002091840430918504232B41F4209109012F
:1030E00030910A01309385042093840420910701D4
:1030F000309108012115310541F42DB73EB74091BB
:103100000B0150910C01241B350BE0918404F091CC
:103110008504E217F307A0F42E1B3F0B281739078D
:1031200078F0AC014E5F5F4F2417350748F04E0F23
:103130005F1F5093850440938404819391939FCFA4
:10314000F0E0E0E09CCFCF93DF930097E9F0FC0143
:10315000329713821282A0918604B0918704ED0108
:1031600030E020E01097A1F420813181820F931F7D
:1031700020918404309185042817390709F061C033
:10318000F0938504E0938404DF91CF910895EA01E0
:10319000CE17DF07E8F54A815B819E014115510595
:1031A000B1F7E901FB83EA8349915991C40FD51F17
:1031B000EC17FD0761F4808191810296840F951FC1
:1031C000E90199838883828193819B838A83F0E0DC
:1031D000E0E012968D919C9113970097B9F52D918F
:1031E0003C911197CD010296820F931F2091840488
:1031F000309185042817390739F6309751F5109228
:10320000870410928604B0938504A0938404BCCFF5
:10321000D383C28340815181840F951FC817D9077A
:1032200061F44E5F5F4F88819981480F591F518328
:1032300040838A819B81938382832115310509F024
:10324000B0CFF0938704E09386049ECFFD01DC01AC
:10325000C0CF13821282D7CFB0E0A0E0E2E3F9E161
:103260000C9482178C01009751F4CB010E9407182F
:103270008C01C801CDB7DEB7E0E10C949E17FC01CC
:10328000E60FF71F9C0122503109E217F30708F4FB
:103290009DC0D901CD91DC911197C617D70798F041
:1032A000C530D10530F3CE0104978617970708F390
:1032B000C61BD70B2297C193D1936D937C93CF01FB
:1032C0000E94A318D6CF5B01AC1ABD0A4C018C0E2C
:1032D0009D1EA0918604B0918704512C412CF12CA5
:1032E000E12C109731F58091840490918504881524
:1032F000990509F05CC04616570608F058C0809141
:10330000070190910801009741F48DB79EB7409155
:103310000B0150910C01841B950BE817F90708F07D
:1033200055C0F0938504E0938404F90171836083B0
:10333000A0CF8D919C91119712966C901297139635
:103340007C901397A815B90559F56C0142E0C40E9D
:10335000D11CCA14DB0420F1AC014A195B09DA0163
:103360001296159780F06282738251834083D9014F
:103370006D937C93E114F10471F0D7011396FC93E3
:10338000EE93129776CF22968C0F9D1FF9019183B1
:103390008083F301EFCFF0938704E093860469CF35
:1033A0004816590608F42C017D01D3019ACFCB01B0
:1033B0000E9407187C01009749F0AE01B8010E94F5
:1033C000E919C8010E94A318870153CF10E000E05B
:1033D00050CFFB01DC0102C001900D9241505040E2
:1033E000D8F70895FB01DC0101900D920020E1F770
:1033F000089510E0C2E6D0E004C0FE010E94ED177F
:0C3400002196C336D107C9F7F894FFCF1E
:10340C00000400040004010000880480005E01F444
:10341C00018A02000000007503D5020203C20333C7
:10342C0003110325030000000088055B052E0731FE
:10343C0005540541053205000000009B06D5022EFF
:0A344C00073105F7060D078306009F
:00000001FF
