:100000000C9463000C948B000C948B000C94F00AFD
:100010000C94F00A0C94F00A0C948B000C948B0056
:100020000C948B000C948B000C948B000C948B0024
:100030000C948B000C948B000C948B000C948B0014
:100040000C942F090C948B000C949F090C94790943
:100050000C948B000C948B000C948B000C948B00F4
:100060000C94D1090C948B000000000024002700A0
:100070002A0000000008000201000003040700003D
:1000800000000000000000000000230026002900FE
:1000900000000000250028002B00040404040404D0
:1000A0000404020202020202030303030303010227
:1000B00004081020408001020408102001020408F6
:1000C0001020680B9E1611241FBECFEFD8E0DEBFB4
:1000D000CDBF24E0A0E5B1E001C01D92A238B20777
:1000E000E1F711E0A0E0B1E0E0EBF2E302C005903F
:1000F0000D92A035B107D9F710E0C2E6D0E004C0F8
:100100002197FE010E945317C136D107C9F70E94FB
:10011000640C0C944B190C940000FC01A089B1896B
:1001200082E08C93A485B5851C92A685B7858FEC5B
:100130008C93108EA489B5896C93A289B3898C9114
:1001400080618C93A289B3898C9188608C93A289F9
:10015000B3898C9180688C930288F389E02D80812B
:100160008F7D80830895482FE6E4F3E020E08FEF51
:100170009FEF241791F03191832738E0BC01617023
:10018000772796958795672B21F051E0852750EAD0
:100190009527315099F72F5FECCF0895833081F088
:1001A00028F4813099F08230A9F008958730A9F0C1
:1001B0008830C9F08430B1F4809180008F7D03C015
:1001C000809180008F7780938000089584B58F7729
:1001D00084BD089584B58F7DFBCF8091B0008F776B
:1001E0008093B00008958091B0008F7DF9CFCF93B8
:1001F000DF93282F30E0F901EE58FF4F8491F90189
:10020000E255FF4FD491F901E656FF4FC491CC233C
:10021000A1F081110E94CE00EC2FF0E0EE0FFF1F45
:10022000EA57FF4FA591B491EC91ED2381E090E066
:1002300009F480E0DF91CF91089580E090E0FACF5B
:100240001F93CF93DF93282F30E0F901EE58FF4F33
:100250008491F901E255FF4FD491F901E656FF4F21
:10026000C491CC23A9F0162F81110E94CE00EC2F4F
:10027000F0E0EE0FFF1FE057FF4FA591B4918FB74D
:10028000F894EC91111108C0D095DE23DC938FBF58
:10029000DF91CF911F910895DE2BF8CFCF93DF939D
:1002A00090914603992309F44BC0C82F0E94B300D4
:1002B000D0E0FE01E15CFC4F87839087809145038D
:1002C0008F3F19F061E00E942001809143039091DB
:1002D0004403AE014E5F5F4FDC01ED91FC91028063
:1002E000F381E02D66E473E00995809143039091DA
:1002F0004403DC01ED91FC910680F781E02D099526
:10030000809145038F3F19F060E00E9420018091A9
:10031000430390914403DC01ED91FC910084F1854D
:10032000E02D0995892B61F080914303909144035E
:10033000DC01ED91FC910284F385E02D0995E7CF76
:10034000DF91CF910895EFE3F3E090859068908777
:10035000818783E00C944E01CF93DF9390E0FC0102
:10036000E255FF4F249186569F4FFC0184918823CC
:10037000C9F090E0880F991FFC01E859FF4FA59143
:10038000B491FC01E057FF4FC591D49161110DC0AC
:100390009FB7F8948C91209582238C938881282391
:1003A00028839FBFDF91CF910895623051F49FB7AA
:1003B000F8943C91822F809583238C93E8812E2B97
:1003C000EFCF8FB7F894EC912E2B2C938FBFEACF01
:1003D0008E3008F08E508770806480937C0080910E
:1003E0007A00806480937A0080917A0086FDFCCF49
:1003F000809178009091790008953FB7F8948091AA
:100400001E0290911F02A0912002B091210226B5F8
:10041000A89B05C02F3F19F00196A11DB11D3FBF3C
:10042000BA2FA92F982F8827BC01CD01620F711D0B
:10043000811D911D42E0660F771F881F991F4A9505
:10044000D1F708958F929F92AF92BF92CF92DF9291
:10045000EF92FF924B015C010E94FD016B017C0158
:100460000E94FD016C197D098E099F09683E734049
:1004700081059105A8F321E0821A9108A108B1082D
:1004800088EEC80E83E0D81EE11CF11C8114910493
:10049000A104B10429F7FF90EF90DF90CF90BF90B7
:1004A000AF909F908F9008952FB7F89460911A02A3
:1004B00070911B0280911C0290911D022FBF089524
:1004C0000F931F938091310390913203019709F0AC
:1004D00054C080912F0390913003019721F50E9421
:1004E0005402AB01BC0180912B0390912C03A0918D
:1004F0002D03B0912E030091270310912803209122
:10050000290330912A03801B910BA20BB30B840F9C
:10051000951FA61FB71F80932B0390932C03A093C6
:100520002D03B0932E0380912F0390913003892BDC
:1005300021F50E94FD01AB01BC0180912B0390913C
:100540002C03A0912D03B0912E030091270310914D
:1005500028032091290330912A03801B910BA20BC1
:10056000B30B840F951FA61FB71F80932B03909387
:100570002C03A0932D03B0932E03109232031092FC
:1005800031031F910F910895FC0124813581621779
:10059000730748F480819181009729F0860F971F97
:1005A000FC018081089580E00895AF92BF92CF92C0
:1005B000DF92EF92FF920F931F93CF93DF936C0123
:1005C0007B018B01040F151FEB015E01AE18BF0804
:1005D000C017D10759F06991D601ED91FC910190B6
:1005E000F081E02DC6010995892B79F7C501DF91CE
:1005F000CF911F910F91FF90EF90DF90CF90BF9020
:10060000AF900895FC01538D448D252F30E0842F49
:1006100090E0821B930B541710F0CF96089501972A
:100620000895FC01918D828D981761F0A28DAE0F17
:10063000BF2FB11D5D968C91928D9F5F9F73928F9E
:1006400090E008958FEF9FEF0895FC01918D828DCA
:10065000981731F0828DE80FF11D858D90E0089597
:100660008FEF9FEF0895FC01918D228D892F90E0EF
:10067000805C9F4F821B91098F739927089582E7B1
:1006800092E00E94330321E0892B09F420E0822FBD
:10069000089580E090E0892B29F00E943F038111AA
:1006A0000C9400000895FC01A48DA80FB92FB11D72
:1006B000A35ABF4F2C91848D90E001968F73992798
:1006C000848FA689B7892C93A089B1898C91837076
:1006D00080648C93938D848D981306C00288F3896F
:1006E000E02D80818F7D80830895EF92FF920F939C
:1006F0001F93CF93DF93EC0181E0888F9B8D8C8DCE
:1007000098131AC0E889F989808185FF15C09FB7C1
:10071000F894EE89FF896083E889F9898081837084
:10072000806480839FBF81E090E0DF91CF911F9133
:100730000F91FF90EF900895F62E0B8D10E00F5F54
:100740001F4F0F731127E02E8C8D8E110CC00FB62A
:1007500007FCFACFE889F989808185FFF5CFCE01C2
:100760000E945303F1CFEB8DEC0FFD2FF11DE35AE7
:10077000FF4FF0829FB7F8940B8FEA89FB89808145
:100780008062CFCFCF93DF93EC01888D8823B9F0BF
:10079000AA89BB89E889F9898C9185FD03C080818C
:1007A00086FD0DC00FB607FCF7CF8C9185FFF2CF09
:1007B000808185FFEDCFCE010E945303E9CFDF9109
:1007C000CF9108952091D601260F3327331F213270
:1007D0003105ECF420914802FC0190E080E02430E7
:1007E00069F082E00895A091D6012191AC014C54AA
:1007F0005E4FA40FB52FB11D2C930196861798F369
:100800008091D601680F6093D60180E0089581E061
:1008100008951092480281E08093470210922202CC
:1008200061E082E10E94200161E083E10E942001F9
:10083000E9EBF0E080818E7F808380818D7F8083F3
:1008400088E48093B80085E48093BC000895CF933A
:10085000DF9391E09093B3018823B9F0C091B80081
:10086000D091BA008091BC008A7B8093BC0060E08C
:1008700082E10E94200160E083E10E9420010E9449
:100880000904D093BA00C093B800DF91CF910895C6
:10089000CF92DF92EF92FF920F931F93CF93DF934C
:1008A000D091710281E0D13208F09CC0C0917002F9
:1008B0000E94FD016B017C018091480281116CC096
:1008C00082E08093480281E0809347028FEF80931B
:1008D000460210924502D0934402A0E5B2E0E4E261
:1008E000F2E080E0D8138DC01092230280912302A1
:1008F000CC0FC82BC093230280912202813009F0D3
:1009000084C0109222020E94FD016B017C01809143
:1009100023028093BB0080914A0290914B02A091E8
:100920004C02B0914D02892B8A2B8B2BA1F00E9497
:10093000FD0100914A0210914B0220914C0230912E
:100940004D026C197D098E099F09061717072807A4
:10095000390708F442C08091BC0083FDD8CF85ECF4
:100960008093BC000E94FD016B017C0180914802D4
:10097000823009F44CC0809146028F3F09F469C06F
:1009800080914602803209F466C08091460280332D
:1009900009F463C084E026C080914A0290914B0222
:1009A000A0914C02B0914D02892B8A2B8B2B09F41C
:1009B00083CF0E94FD0100914A0210914B022091C9
:1009C0004C0230914D026C197D098E099F09061762
:1009D00017072807390708F06FCF809149020E9456
:1009E000270485E010924F021092710210924E027D
:1009F000DF91CF911F910F91FF90EF90DF90CF90FB
:100A000008959D9191938F5F6DCF85EEA9CF8091D1
:100A10004A0290914B02A0914C02B0914D02892B59
:100A20008A2B8B2B09F4A2CF0E94FD0100914A0270
:100A300010914B0220914C0230914D026C197D09AE
:100A40008E099F09061717072807390708F08ECF68
:100A5000C4CF80E0C7CF82E0C5CF83E0C3CF089585
:100A600008950895E091B2018091B101E81730F442
:100A7000F0E0EF56FE4F808190E008958FEF9FEFFA
:100A800008959091B2018091B1012FEF3FEF981737
:100A900048F4E92FF0E0EF56FE4F208130E09F5FF1
:100AA0009093B201C90108958091B1019091B20172
:100AB000891B990B0895CF92DF92EF92FF920F93CB
:100AC0001F93CF93DF937C01CB018A0120914E02CB
:100AD000222389F0EB016B01C40ED51ECC15DD0578
:100AE00069F06991D701ED91FC910190F081E02DC1
:100AF000C7010995F3CF642F0E94E203C801DF917B
:100B0000CF911F910F91FF90EF90DF90CF900895BC
:100B1000CF93DF931F92CDB7DEB7698320914E024A
:100B20002223F9F020917102203258F021E030E0C8
:100B3000FC013383228390E080E00F90DF91CF911E
:100B4000089580914F02E82FF0E0E05BFD4F99811E
:100B500090838F5F80934F028093710281E090E0D9
:100B6000ECCF61E0CE0101960E94E203F7CF0F9334
:100B70001F93CF93DF93FC0122853385213031050C
:100B800031F5EC012085318521303105D9F40E9401
:100B90005402AB01BC018C819D81AE81BF81088173
:100BA00019812A813B81801B910BA20BB30B840F0F
:100BB000951FA61FB71FBC01CD01DF91CF911F91DB
:100BC0000F910895232B19F40E94FD01E2CFFC013F
:100BD00084819581A681B781EECFCF93DF93EC011D
:100BE0001C821D821E821F8288859985019731F49F
:100BF0000E945402688379838A839B8388859985C0
:100C0000892B31F40E94FD01688379838A839B8359
:100C100081E090E09B878A87DF91CF9108952091B2
:100C2000FD013091FE012817390771F49091FB0105
:100C30008091FC01981741F0E091FB01F0E0EF5A40
:100C4000FE4F808190E008958FEF9FEF0895EF921F
:100C5000FF920F931F93CF93DF93DC015C96ED908F
:100C6000FC905D97E114F10479F481E090E0139633
:100C70009C938E93129790E080E0DF91CF911F912B
:100C80000F91FF90EF9008955196ED91FC9152973E
:100C900050968C915097982F90950FB75E962C9107
:100CA0005E97122F127021FD6095F8942081112318
:100CB00019F1282B2083E7012197F1F728E0462F2F
:100CC00050E0308160FF1AC0382B3083E701219754
:100CD000F1F7BA0175956795215089F7112381F0D5
:100CE0008081892380830FBF5C968D919C910197B1
:100CF000F1F781E090E0C1CF2923DCCF3923E5CFA4
:100D00009081892BEFCF2091FD013091FE012817B2
:100D1000390761F48091FC012091FB0190E0805C37
:100D20009F4F821B91098F739927089590E080E06F
:100D300008952091FD013091FE0128173907B9F47B
:100D40009091FB018091FC01981789F0E091FB01E3
:100D5000F0E0EF5AFE4F80812091FB0130E02F5FE1
:100D60003F4F2F7333272093FB0190E008958FEFBF
:100D70009FEF089590E080E008958F929F92AF9248
:100D8000BF92DF92EF92FF920F931F93CF93DF9367
:100D9000FC01E05FFD4F2081EC01CC0FDD1FCC0F8B
:100DA000DD1F21114AC0D62E862F0E94E8010BE9D3
:100DB0001FE0C8010197F1F78D2D0E94E801C05096
:100DC000DF4F188219821A821B82C8010197F1F73E
:100DD00008EE13E083E2E82EF12C8D2D0E94E8014D
:100DE000BC01990F880B990B88809980AA80BB80E1
:100DF000680D791D8A1D9B1D688379838A839B8377
:100E0000F7013197F1F70150110939F728EE33E076
:100E100040E050E00E943117288339834A835B8386
:100E2000A895DF91CF911F910F91FF90EF90DF90E8
:100E3000BF90AF909F908F900895C050DF4F80E09B
:100E400094E0A0E0B0E088839983AA83BB83E9CFD4
:100E5000CF93DF93C4E1D0E060E08DE00E942001F9
:100E600069E170E080E090E00E94220261E08DE0A4
:100E70000E94200169E170E080E090E00E9422027F
:100E800060E081E10E94200169E170E080E090E093
:100E90000E94220261E081E10E94200169E170E08C
:100EA00080E090E00E9422022197B1F6DF91CF917D
:100EB0000895CF92DF92EF92FF920F931F93CF93FB
:100EC0001092B2011092B10110924F021092710271
:100ED0000E9409048FE295E09093D5018093D4019C
:100EE00080E395E09093D9018093D801C1E0C0934D
:100EF0004E0281E48093700263E08FE093E00E94F1
:100F0000880567E08FE093E00E9488050E9448040E
:100F1000C0934E0210924F021092710260E08FE077
:100F200093E00E9488050E9448040E94FD016B0125
:100F30007C0180914802811163C081E08093480266
:100F4000809347029FEF90934602109245021092C1
:100F500044028093230280912302826880932302BB
:100F600080912202813009F095C0109222020E94E5
:100F7000FD016B017C01809123028093BB00809175
:100F80004A0290914B02A0914C02B0914D02892BE4
:100F90008A2B8B2BA1F00E94FD0100914A02109137
:100FA0004B0220914C0230914D026C197D098E0943
:100FB0009F09061717072807390708F442C08091D0
:100FC000BC0083FDD8CF85EC8093BC000E94FD015E
:100FD0006B017C0180914802813009F45DC08091F1
:100FE000450281117BC080914502A4E2B2E0E1E9B3
:100FF000F1E090E0981751F12D9121939F5FFACF86
:1010000080914A0290914B02A0914C02B0914D0206
:10101000892B8A2B8B2B09F48CCF0E94FD01009128
:101020004A0210914B0220914C0230914D026C19F2
:101030007D098E099F09061717072807390708F049
:1010400078CF809149020E94270480E01092B2017B
:101050008093B101882331F08FE093E00E94410535
:101060008093500120915001822F21702093100213
:1010700081FB992790F99093110282FB882780F9D0
:1010800080931202CF911F910F91FF90EF90DF900C
:10109000CF90089585EE98CF80914A0290914B02AF
:1010A000A0914C02B0914D02892B8A2B8B2B09F415
:1010B00091CF0E94FD0100914A0210914B022091B4
:1010C0004C0230914D026C197D098E099F0906175B
:1010D00017072807390708F07DCFB3CF81E085CF08
:1010E000FC0180819181009711F00C94F51708950F
:1010F000CF92DF92EF92FF920F931F93CF93DF93E4
:10110000CDB7DEB729970FB6F894DEBF0FBECDBFBF
:101110008C01862FF80111821082138212821582AF
:1011200014824AE09E012F5F3F4F6901B90190E0B0
:101130000E94BA16F60101900020E9F731977F016D
:10114000EC18FD08F80180819181009729F0228137
:1011500033812E153F0590F4B7016F5F7F4F0E94DA
:101160007E18F801009799F091838083F382E282E0
:1011700024813581232B11F4FC011082F801F582C2
:10118000E482B601808191810E9444190DC0808162
:101190009181009711F00E94F517F80111821082D9
:1011A000158214821382128229960FB6F894DEBF3C
:1011B0000FBECDBFDF91CF911F910F91FF90EF90A8
:1011C000DF90CF90089585ED8093BC0080914A0216
:1011D00090914B02A0914C02B0914D020796A11D37
:1011E000B11D23E0B695A795979587952A95D1F7D8
:1011F0002091BC0024FD03C0109248020895409144
:101200004A0250914B0260914C0270914D02452B65
:10121000462B472B69F30097A105B10541F02AE25F
:101220002A95F1F700C00197A109B109E1CF80919A
:1012300049020C9427041F93CF93DF93EC01162FE0
:101240000E94E416181739F0612FCE01DF91CF917B
:101250001F910C94EC16DF91CF911F9108951F926E
:101260000F920FB60F9211242F933F938F939F935A
:10127000AF93BF9380911A0290911B02A0911C0220
:10128000B0911D023091190223E0230F2D3758F53C
:101290000196A11DB11D2093190280931A0290930B
:1012A0001B02A0931C02B0931D0280911E0290911C
:1012B0001F02A0912002B09121020196A11DB11D33
:1012C00080931E0290931F02A0932002B0932102EC
:1012D000BF91AF919F918F913F912F910F900FBE32
:1012E0000F901F90189526E8230F0296A11DB11D9F
:1012F000D2CF1F920F920FB60F9211242F933F93CC
:101300004F935F936F937F938F939F93AF93BF930D
:10131000EF93FF9382E792E00E945303FF91EF91D6
:10132000BF91AF919F918F917F916F915F914F91FD
:101330003F912F910F900FBE0F901F9018951F9205
:101340000F920FB60F9211242F938F939F93EF93C9
:10135000FF93E0918202F09183028081E091880204
:10136000F091890282FD1BC0908180918B028F5F7A
:101370008F7320918C02821741F0E0918B02F0E094
:10138000EE58FD4F958F80938B02FF91EF919F91C7
:101390008F912F910F900FBE0F901F901895808105
:1013A000F4CF1F920F920FB60F9211242F933F93F9
:1013B0004F935F936F937F938F939F93AF93BF935D
:1013C000EF93FF938091B900887F803609F44AC07B
:1013D000F0F5883209F4A7C018F5803109F49BC0F4
:1013E000B8F4882309F4F9C0883009F494C0FF9157
:1013F000EF91BF91AF919F918F917F916F915F918D
:101400004F913F912F910F900FBE0F901F90189505
:10141000883109F488C0803251F78093460214C0A5
:10142000803409F49DC040F48033B9F38833F9F671
:101430008093460285ECB0C0803509F485C08835BC
:1014400009F496C0883499F60E94E308D0CF883911
:1014500009F48CC038F5883729F050F4883611F03B
:10146000803729F683E0809348021092FA0157C032
:10147000883809F47BC0803919F0803809F0B7CF7B
:101480008091FA01803208F071C0E091FA0181E0A8
:101490008E0F8093FA018091BB00F0E0E652FE4F80
:1014A00080833DC0803B39F0E0F4803A09F479C094
:1014B000883A09F09CCF84E0809348021092D701CB
:1014C0001092D601E091D401F091D5010995809157
:1014D000D60181110FC081E08093D6011092B40132
:1014E00009C0803C09F4A6CF883C09F4A3CF883B0F
:1014F00009F07DCFE091D70181E08E0F8093D70175
:10150000F0E0EC54FE4F80818093BB009091D701B6
:101510008091D60129C0809123028093BB0085EC85
:101520008093BC0064CF909145028091440298174B
:1015300058F5E091450281E08E0F80934502F0E07E
:10154000EC5DFD4F8081E9CFE091450281E08E0F97
:10155000809345028091BB00F0E0EC5DFD4F8083FD
:1015600090914502809144029817C8F285E8D8CF3F
:10157000E091450281E08E0F809345028091BB008F
:10158000F0E0EC5DFD4F80838091470281115CCFDC
:1015900081E08093220284EA8093BC00109248028A
:1015A00026CF85EC8093BC00109248028091FA010E
:1015B000803230F4E091FA01F0E0E652FE4F108202
:1015C0006091FA0170E0E091D801F091D9018AEDC3
:1015D00091E009951092FA010ACF1092460234CF99
:1015E0001F920F920FB60F9211242F933F934F9398
:1015F0005F936F937F938F939F93AF93BF93EF937B
:10160000FF93E091FD01F091FE01309749F0A6852E
:10161000B7858585968D91FF14C09C918923A1F48F
:10162000FF91EF91BF91AF919F918F917F916F91BA
:101630005F914F913F912F910F900FBE0F901F9090
:1016400018959C91892361F7A389B4899C91858918
:10165000809589238C93868997890197F1F7608D0E
:10166000718DA685B785558538E020E0CB010197BF
:10167000F1F7822F90E095958795282F4C9145237F
:1016800009F02068315091F7868D81FD2095809179
:10169000FC0190E001968F7399273091FB01381778
:1016A00099F0A091FC01B0E0AF5ABE4F2C9380930B
:1016B000FC01828D938D0197F1F7A389B4898C91F8
:1016C0009589892B8C93ACCF868D8160868FF1CFE5
:1016D000109275021092740288EE93E0A0E0B0E0E0
:1016E0008093760290937702A0937802B093790268
:1016F0002DE131E0309373022093720225EC30E04B
:1017000030937F0220937E0224EC30E030938102FC
:101710002093800220EC30E03093830220938202F9
:1017200021EC30E0309385022093840222EC30E0FB
:10173000309387022093860226EC30E030938902B2
:101740002093880210928B0210928C0210928D02CC
:1017500010928E02109212031092110380931303C1
:1017600090931403A0931503B09316032FE231E076
:101770003093100320930F031092620410926104BF
:101780008093630490936404A0936504B09366040B
:1017900081E491E09093600480935F04109276045A
:1017A00010927504109278041092770410927A04C3
:1017B0001092790410927C0410927B0460917D0455
:1017C0006E7F6D7F60937D046695617081E0682710
:1017D0008BE00E94200161E08BE00E94AC01E9EB0C
:1017E000F0E0E491E0936F04E5EAF0E0E491F0E0EA
:1017F000EE0FFF1FE057FF4F859194919093710476
:101800008093700460E08AE00E94AC0180917D04C6
:1018100081FD04C061E08AE00E9420018FE594E030
:101820002AE020936B04E8EBF0E0E491E0936C0491
:10183000E4EAF0E0E491F0E0EE0FFF1FEA57FF4F1B
:101840002591349130936E0420936D0410924F04CF
:1018500010924E04109251041092500410925304AE
:1018600010925204109255041092540410924003A6
:1018700010923F039093420380934103909344035B
:101880008093430310924704109246041092490437
:101890001092480410924B0410924A0410924D0486
:1018A00010924C0482E08093450381E090E0909395
:1018B0003C0380933B039093300380932F039093DA
:1018C0002403809323030895CF93DF9300D000D0A7
:1018D00000D0CDB7DEB7789484B5826084BD84B57E
:1018E000816084BD85B5826085BD85B5816085BD1B
:1018F00080916E00816080936E00109281008091D3
:10190000810082608093810080918100816080935A
:101910008100809180008160809380008091B1007F
:1019200084608093B1008091B00081608093B000AA
:1019300080917A00846080937A0080917A0082603E
:1019400080937A0080917A00816080937A00809100
:101950007A00806880937A001092C10066E082E786
:1019600092E00E948D0080E490E00E94E4168034B2
:1019700079F060E480E490E00E941B0961E081E07E
:1019800090E00E941B0962E082E090E00E941B0947
:1019900081E090E00E94E416F82E8093060282E037
:1019A00090E00E94E41680930102E82FF0E0EE0F31
:1019B000FF1FED5EFE4F8081918190930002809326
:1019C000FF0162E082E00E94AC0162E083E00E94DD
:1019D000AC0162E084E00E94AC0161E08DE00E9415
:1019E000AC0161E081E10E94AC0160E088E00E940E
:1019F000AC0160E089E00E94AC0161E087E00E94F8
:101A0000AC0161E083E00E94AC0161E084E00E94EF
:101A1000AC0161E085E00E94AC0161E081E10E94DF
:101A2000200161E08DE00E9420010E945907B0E191
:101A3000CB2EB2E0DB2E10E000E0D6018D916D01DF
:101A400081110CC060E084E00130110529F083E0D1
:101A50000230110509F485E00E9420010F5F1F4F3D
:101A60000330110551F768EE73E080E090E00E94CA
:101A7000220261E083E00E94200161E084E00E9494
:101A8000200161E085E00E94200183E192E09093D3
:101A900049048093480486E090E090935104809339
:101AA000500488E092E090934B0480934A04109392
:101AB0005304009352048FEF8F0D873F08F03FC20D
:101AC000F092560480913F0390914003009709F4EF
:101AD00039C24CE25AE060E070E040935704509302
:101AE00058046093590470935A044FE452E160E043
:101AF00070E040935B0450935C0460935D047093CA
:101B00005E0466E00E948D00809145038F3F41F0A6
:101B100061E00E94AC0160E0809145030E942001D9
:101B20000E94FD016B017C0180914303909144036D
:101B3000DC01ED91FC910084F185E02D0995892B64
:101B400079F00E94FD016B017C018091430390912B
:101B50004403DC01ED91FC910284F385E02D0995AD
:101B60000E94FD016C197D098E099F0900915B049B
:101B700010915C0420915D0430915E046017710740
:101B80008207930788F283E393E00E94ED058BE1DF
:101B900093E00E94ED0564E670E080E090E00E9432
:101BA000220270EA472E7FE0572E612C712C812C87
:101BB000912C54018394FAE02F2E8BE193E00E9444
:101BC000B705A30192010E943117643F714081055E
:101BD000910508F087C0109213021092140210921F
:101BE00015021092160210921702109218020E940B
:101BF000590780E00E94E8018B3793400CF448C2FB
:101C000080911002811144C281E08093160281E02C
:101C10000E94E8018B3793402CF0809111028823B9
:101C200009F439C21092170282E00E94E8018B3752
:101C300093402CF080911202882309F430C2109254
:101C400018026EE070E090E080E00E94BD066FE058
:101C500070E081E090E00E94BD0660E170E082E00B
:101C600090E00E94BD068091FF0190910002B0E0DB
:101C7000A0E040910001509101016091020170913A
:101C80000301481759076A077B0708F00CC221E0D7
:101C90002093130210921602409104015091050105
:101CA0006091060170910701481759076A077B0781
:101CB00008F000C221E02093140210921702409114
:101CC00008015091090160910A0170910B014817B8
:101CD00059076A077B0708F0F4C181E08093150279
:101CE000109218020E94540224EF31E040E050E0CC
:101CF0000E9431176B3F71058105910508F4E8C119
:101D000080911302811104C080911602882321F072
:101D10008091100260E0811161E083E00E94200167
:101D200080911402811104C080911702882321F050
:101D30008091110260E0811161E084E00E94200145
:101D400080911502811104C080911802882321F02E
:101D50008091120260E0811161E085E00E94200123
:101D600080910F0260E08111C0C180911302811146
:101D7000C0C1809114028111BCC1809115028111F2
:101D8000B8C1809116028111B4C1809117028111EE
:101D9000B0C1809118028111ACC110920F0261E0B4
:101DA00087E00E94200161E08DE00E9420010E94F6
:101DB0005402A30192010E9431176C3271408105D7
:101DC000910508F09DC180910E02811199C160E0DA
:101DD00081E10E9420016AE070E080E090E00E94D2
:101DE000220261E081E10E94200164E670E080E06F
:101DF00090E00E94220260E081E10E942001809137
:101E0000430390914403DC01ED91FC910084F18542
:101E1000E02D0995892B09F4DEC1C12CD12C760166
:101E200010E000E08091430390914403DC01ED91C8
:101E3000FC910084F185E02D0995892BA9F00E9481
:101E4000FD016B017C018091430390914403DC010F
:101E5000ED91FC910284F385E02D0995F801E15C98
:101E6000FC4F87830F5F1F4F0E94FD016C197D0996
:101E70008E099F09209157043091580440915904CC
:101E800050915A04261737074807590720F00F3F8B
:101E9000110541F238F20E94FD016C197D098E098D
:101EA0009F0920915B0430915C0440915D04509146
:101EB0005E04621773078407950768F380914303F4
:101EC00090914403DC01ED91FC910084F185E02DBB
:101ED0000995892B09F07FC18091460390915604A2
:101EE000891711F0811177C18EEF800F0E94B30026
:101EF000F801E15CFC4F2681358123273227232717
:101F00008217930709F067C1E0914703E150E03180
:101F100008F014C1F0E0E157F04F0C945317821011
:101F2000FA116012B112021335139E109E109E100A
:101F30009E109E109E109E109E105D13BD13109259
:101F40005604C0CDE0914103F0914203309709F46B
:101F5000DBCD8CE29AE0A0E0B0E080935704909350
:101F60005804A0935904B0935A048FE492E1A0E07E
:101F7000B0E080935B0490935C04A0935D04B09305
:101F80005E04138E128E118E108E178A168A8DE9BA
:101F900091E0958F848F84858631E0F52DEB30E0DC
:101FA000378B268B2BE931E0318F208F2CE231E00B
:101FB000338F228F90916800883008F45AC021E056
:101FC0008E3008F420E081E001C0880F2A95EAF7FE
:101FD000892B8093680094852DE630E0983050F08E
:101FE0002BE630E09E3030F02CE630E0963110F0F9
:101FF00030E020E0348B238B292F30E09830D8F567
:1020000081E001C0880F9A95EAF7858B848D958DC4
:102010000197F1F7828D938D892B09F475CD40914D
:10202000FD015091FE01E417F50709F46DCD41154E
:10203000510569F0DA0153962D913C91D9019C919B
:10204000DA0155968C9180958923D9018C93868DE0
:102050008E7F868F1092FC011092FB01F093FE019F
:10206000E093FD01A389B4898C919589892B8C9388
:102070004BCD84E0ADCF9E3040F42850310981E053
:1020800001C0880F2A95EAF7C0CF2E503109F7CF4B
:1020900010921602BCCD81E080931702C5CD81E07D
:1020A00080931802CECD209110022111F5CD10920F
:1020B0001302F2CD20911102211101CE10921402CF
:1020C000FECD8091120281110DCE109215020ACE22
:1020D00061E083E00E94200161E084E00E94200131
:1020E00061E085E00E94200161E08DE00E94200116
:1020F0003CCE81E080930F0260E087E00E942001E7
:1021000061E07ACEE0914803F0914903FE27EF2782
:10211000FE2780914A0390914B039827892798279F
:1021200020914604309147042115310539F0409142
:102130004E0450914F044115510511F481E007C040
:10214000BC0161507109603D774020F083E00E943E
:10215000A30141C04817590728F0481B590B4E17D7
:102160005F0710F482E0F3CFAC01495F5F4F63E09B
:10217000569547956A95E1F740934803E20FF31FA0
:1021800050E040E061919A012770332775016401A6
:1021900004C0CC0CDD1CEE1CFF1C2A95D2F7860176
:1021A000DA0123E0B695A7952A95E1F7AE5BBC4F1F
:1021B00017967C911797662309F417C1072B17967A
:1021C0000C934F5F5F4F48175907E1F68091480322
:1021D0008D5F0E944E018091080290910902803C1F
:1021E0009105F1F480910A0290910B0280359105DE
:1021F000B9F460910C0270910D02663E710508F011
:102200000FC381E090E00E941B090E94280768EE3E
:1022100073E080E090E00E942202F0E0E0E00995A7
:1022200080910802909109020197E1F480910A02DD
:1022300090910B020197B1F480910C0290910D02E4
:10224000019781F461E081E090E00E941B090E9407
:10225000280768EE73E080E090E00E942202F0E040
:10226000E0E0099580910802909109020A97B9F47B
:1022700080910A0290910B020A9789F480910C02D6
:1022800090910D020A9759F40E94280768EE73E0B6
:1022900080E090E00E942202F0E0E0E00995809169
:1022A0000802909109020597F1F480910A02909139
:1022B0000B020597C1F4A89560910C0270910D0274
:1022C0006330710508F0AEC282E090E00E941B0905
:1022D0000E94280768EE73E080E090E00E942202EE
:1022E000F0E0E0E0099580910802909109020697DC
:1022F00051F480910A0290910B028636910519F4EF
:10230000F0E0E0E0099588E00E94F700892B29F4CD
:1023100080910F02882309F487C2809107028111FE
:102320001FC383E393E00E94ED0580913D039091EC
:102330003E03019709F056C080913B0390913C0306
:10234000019711F5C0903703D0903803E09039031E
:10235000F0903A030E945402009133031091340329
:102360002091350330913603C01AD10AE20AF30AEC
:10237000C60ED71EE81EF91EC0923703D09238034E
:10238000E0923903F0923A0380913B0390913C0331
:10239000892B11F5C0903703D0903803E0903903B2
:1023A000F0903A030E94FD01009133031091340331
:1023B0002091350330913603C01AD10AE20AF30A9C
:1023C000C60ED71EE81EF91EC0923703D0923803FE
:1023D000E0923903F0923A0382E090E090933E035A
:1023E00080933D03109207024EC20095702317960A
:1023F0007C93E7CEE0914803F0914903FE27EF2755
:10240000FE2780914A0390914B03982789279827AC
:1024100020914804309149042115310509F48ECEEC
:1024200040915004509151044115510509F486CE54
:10243000BC0161507109603D774008F087CE4817B4
:10244000590708F48FCE481B590B4E175F0708F445
:1024500089CEAC01495F5F4F03E0569547950A95D9
:10246000E1F740934803E20FF31F50E040E0619131
:102470009A01277033277501640104C0CC0CDD1C60
:10248000EE1CFF1C2A95D2F78601DA0113E0B695FF
:10249000A7951A95E1F7AE5BBC4F17967C911797FD
:1024A000662349F0072B17960C934F5F5F4F8417F5
:1024B0009507E9F68BCE0095702317967C93F5CFA0
:1024C000E0914803F0914903FE27EF27FE27609132
:1024D0004A0470914B046115710509F42FCE2091C7
:1024E0005204309153042115310509F427CE80910F
:1024F0004A0390914B03982789279827AC014150B4
:1025000051094D37510508F021CE2817390708F435
:1025100029CE281B390B2E173F0708F423CE282F6E
:10252000220F20934803EE0FFF1F6E0F7F1FAFE3B4
:10253000B3E050E040E0FB0121816E5F7F4F1A96CF
:102540002C931A979B0122503109F90120811B9687
:102550002C931B974F5F5F4F12968417950759F77F
:1025600035CEE0914803F0914903FE27EF27FE277F
:1025700060914C0470914D046115710509F4DECD34
:1025800020915404309155042115310509F4D6CD1C
:1025900080914A0390914B03982789279827AC0193
:1025A000415051094D37510508F0D0CD2817390752
:1025B00008F4D8CD281B390B2E173F0708F4D2CDCD
:1025C000282F220F20934803EE0FFF1F6E0F7F1F4F
:1025D000AFE3B3E050E040E0FB0121816E5F7F4F4D
:1025E0001A962C931A979B0122503109F9012081E8
:1025F0001B962C931B974F5F5F4F1296841795077E
:1026000059F7E4CD40914803509149035427452799
:10261000542780914A0390914B0398278927982744
:1026200020914604309147042115310509F486CDE7
:1026300060914E0470914F046115710509F47ECDCF
:10264000009729F08115FFEF9F0709F07FCD46170E
:10265000570708F087CD240F351F41E0892B09F477
:1026600040E0D9014C9386E0B4CD8091480390912D
:10267000490398278927982720914A0330914B03D3
:10268000322723273227E0914A04F0914B043097F8
:1026900009F454CD40915204509153044115510511
:1026A00009F44CCD8417950708F05CCD880F991F6D
:1026B000E80FF91F31832083D6CF40914803509112
:1026C000490354274527542780914A0390914B038F
:1026D0009827892798272091460430914704232B77
:1026E00009F42CCD20914E0430914F042115310571
:1026F00009F424CDBC0161507109603BB7E07B0750
:1027000008F024CDE0914C03685F7F4F03E076959D
:1027100067950A95E1F7E617170609F017CD281710
:10272000390708F41FCD281B390B2417350708F487
:1027300019CD30E020E0A0914604B0914704A20FEB
:10274000B31FA40FB51FF90113E0F695E7951A958D
:10275000E1F7E15CFC4FE685F0E0B90167707727AF
:1027600002C0F595E7956A95E2F7E170EC932F5F6B
:102770003F4F28173907F9F676CF609148037091DB
:10278000490376276727762780914A0390914B0368
:1027900098278927982720914A0430914B04232BAE
:1027A00009F4CCCC20915204309153042115310509
:1027B00009F4C4CCAC01415051094B37510508F024
:1027C000C5CCE0914C03AC01440F551FE41715062E
:1027D00009F0BCCC2817390708F4C4CC281B390BE6
:1027E0002617370708F4BECC660F771FEFE3F3E038
:1027F00030E020E06F53734040914A0450914B0405
:102800004E0F5F1FDA01A60FB71F568547854D9300
:102810005C932F5F3F4F32962817390769F723CF14
:1028200061E0EFCC60E050CD81E0809307028091C1
:102830003D0390913E03029731F580913B039091C7
:102840003C03019751F40E94540260933303709348
:102850003403809335039093360380913B0390912A
:102860003C03892B51F40E94FD0160933303709364
:102870003403809335039093360381E090E0909386
:102880003E0380933D0383E393E00E94B7056838DD
:10289000734181059105C0F080910E0281110EC037
:1028A00088E00E94F700892B49F40E94280787E2FC
:1028B00093E00E94ED0581E080930E0264E670E0F3
:1028C00080E090E00E94220288E00E94F700892BBD
:1028D00049F480910E02882329F080910F02882309
:1028E00009F477C180910502882309F47BC10E9415
:1028F000600280910C01882309F4E0C180910402F8
:10290000893008F0D8C18F5F8093040260E081E1D4
:102910000E94200164E670E080E090E00E942202C4
:1029200061E081E10E94200164E670E080E090E0D7
:102930000E9422029091030280910402929D800DD8
:1029400011248093060264E670E080E090E00E942B
:10295000220287E293E00E94ED051092050242C137
:1029600080910E028111DDCC60E08DE00E9420019B
:102970006AE070E080E090E00E94220261E08DE079
:102980000E9420016AE070E080E090E00E94220254
:1029900060E081E10E9420016AE070E080E090E068
:1029A0000E94220261E081E10E9420016AE070E061
:1029B00080E090E00E94220260E08DE00E94200111
:1029C0006AE070E080E090E00E94220261E08DE029
:1029D0000E9420016AE070E080E090E00E94220204
:1029E00060910602CE0101960E9478080D811E8139
:1029F000CE0101960E94700802301105F1F10330FA
:102A0000110509F47FC00130110509F0DBC06091A8
:102A10000602CE0101960E94780870E060E0CE01C7
:102A200001960E94C402382ECE0101960E947008C1
:102A3000332009F4C7C0F12CE12CE32DE053FF0B48
:102A40008F01E016F1060CF0BDC060E081E10E944C
:102A5000200164EF71E080E090E00E94220261E0DA
:102A600081E10E94200164EF71E080E090E00E942B
:102A70002202FFEFEF1AFF0AE4CF60910602CE01B7
:102A800001960E94780861E070E0CE0101960E94F4
:102A9000C402382ECE0101960E9470086091060291
:102AA000CE0101960E94780870E060E0CE010196A8
:102AB0000E94C402082FCE0101960E9470080023D4
:102AC00009F4B6CFF12CE12C0053110BE016F106FE
:102AD0000CF0AECF60E08DE00E94200164EF71E069
:102AE00080E090E00E94220261E08DE00E942001DF
:102AF00064EF71E080E090E00E942202AFEFEA1AFA
:102B0000FA0AE4CF60910602CE0101960E9478088D
:102B100062E070E0CE0101960E94C402382ECE0120
:102B200001960E94700860910602CE0101960E94F3
:102B3000780861E070E0CE0101960E94C402082F7F
:102B4000CE0101960E94700860910602CE010196A6
:102B50000E94780870E060E0CE0101960E94C402F5
:102B6000182FCE0101960E947008112309F4A7CFF7
:102B7000D12CC12C812F8053990B7C01CE14DF0402
:102B80000CF09DCF60E08DE00E94200160E081E1CB
:102B90000E94200164EF71E080E090E00E94220238
:102BA00061E08DE00E94200161E081E10E9420014E
:102BB00064EF71E080E090E00E9422029FEFC91A6A
:102BC000D90ADCCF64E670E080E090E00E94220247
:102BD000A8CB62E370E080E090E00E94220281E0F6
:102BE0008093050289E00E94F700F0900E02892B85
:102BF00039F4FF2029F080910F02882309F475C071
:102C0000809102028823D9F10E9460020AE010E05C
:102C100060E08DE00E9420016CE070E080E090E0D8
:102C20000E94220261E08DE00E9420016CE070E0D1
:102C300080E090E00E94220260E081E10E94200199
:102C40006CE070E080E090E00E94220261E081E1AF
:102C50000E9420016CE070E080E090E00E9422027F
:102C600001501109A9F680910C0191E08927809308
:102C70000C0187E293E00E94ED0510920202F11030
:102C80003DC088E00E94F700892B19F089E00E947E
:102C9000F70080E0C82E80E0D82ECD2811F40C94E7
:102CA000DD0D0E943F03882311F40C94DD0D0E947A
:102CB00000000C94DD0D1092040228CE80910302D6
:102CC000863180F48F5F8093030260E08DE00E9484
:102CD000200164E670E080E090E00E94220261E062
:102CE0008DE020CE10920302F0CF62E370E080E02E
:102CF00090E00E94220281E08093020287E293E04A
:102D00000E94B705613177428105910508F4B9CF7A
:102D100010910602112339F081E090E00E94E41640
:102D2000612F181301C061E081E090E00E941B094F
:102D30000E942807F0E0E0E00995A3CF81E491E04C
:102D40009093600480935F048091FD019091FE0157
:102D50008F55944071F4E0917204F0917304908166
:102D6000809174048095892380831092FE011092D3
:102D7000FD010895BB27FB015527AA27880F991F3E
:102D8000AA1FA41710F0A41B83955051B9F7A05D9A
:102D9000AA3308F0A95DA193009779F7B111B19317
:102DA0001192CB010C94D416DC01FC01672F7191B8
:102DB0007723E1F7329704C07C916D937083629121
:102DC000AE17BF07C8F30895F999FECF92BD81BD34
:102DD000F89A992780B50895262FF999FECF1FBA42
:102DE00092BD81BD20BD0FB6F894FA9AF99A0FBE34
:102DF000019608952F923F924F925F926F927F9229
:102E00008F929F92AF92BF92CF92DF92EF92FF92FA
:102E10000F931F93CF93DF93CDB7DEB7CA1BDB0BA6
:102E20000FB6F894DEBF0FBECDBF09942A8839884B
:102E300048885F846E847D848C849B84AA84B98452
:102E4000C884DF80EE80FD800C811B81AA81B9815E
:102E5000CE0FD11D0FB6F894DEBF0FBECDBFED0172
:102E60000895A1E21A2EAA1BBB1BFD010DC0AA1FCB
:102E7000BB1FEE1FFF1FA217B307E407F50720F0E3
:102E8000A21BB30BE40BF50B661F771F881F991F5E
:102E90001A9469F760957095809590959B01AC01A7
:102EA000BD01CF010895EE0FFF1F0590F491E02DB5
:102EB00009940F931F93CF93DF938230910510F401
:102EC00082E090E0E0918004F091810430E020E025
:102ED000B0E0A0E0309799F42115310509F44AC01B
:102EE000281B390B24303105D8F58A819B81611567
:102EF000710589F1FB0193838283FE0111C040813A
:102F000051810281138148175907E0F0481759078A
:102F100099F4109761F012960C93129713961C93E4
:102F20003296CF01DF91CF911F910F9108950093B9
:102F3000800410938104F4CF2115310551F042171C
:102F4000530738F0A901DB019A01BD01DF01F80147
:102F5000C1CFEF01F9CF9093810480938004CDCF4E
:102F6000FE01E20FF31F81939193225031093983BF
:102F70002883D7CF20917E0430917F04232B41F406
:102F800020910F013091100130937F0420937E0433
:102F900020910D0130910E012115310541F42DB71D
:102FA0003EB74091110150911201241B350BE09165
:102FB0007E04F0917F04E217F307A0F42E1B3F0B71
:102FC0002817390778F0AC014E5F5F4F241735079B
:102FD00048F04E0F5F1F50937F0440937E0481930F
:102FE00091939FCFF0E0E0E09CCFCF93DF930097E9
:102FF000E9F0FC01329713821282A0918004B09113
:103000008104ED0130E020E01097A1F420813181AE
:10301000820F931F20917E0430917F042817390777
:1030200009F061C0F0937F04E0937E04DF91CF91BB
:103030000895EA01CE17DF07E8F54A815B819E011A
:1030400041155105B1F7E901FB83EA834991599193
:10305000C40FD51FEC17FD0761F4808191810296A2
:10306000840F951FE90199838883828193819B83D3
:103070008A83F0E0E0E012968D919C91139700977F
:10308000B9F52D913C911197CD010296820F931FB6
:1030900020917E0430917F042817390739F6309744
:1030A00051F51092810410928004B0937F04A09394
:1030B0007E04BCCFD383C28340815181840F951F8E
:1030C000C817D90761F44E5F5F4F88819981480F17
:1030D000591F518340838A819B8193838283211569
:1030E000310509F0B0CFF0938104E09380049ECFC6
:1030F000FD01DC01C0CF13821282D7CFB0E0A0E087
:10310000E4E8F8E10C94FC168C01009751F4CB0133
:103110000E9459178C01C801CDB7DEB7E0E10C94CD
:103120001817FC01E60FF71F9C0122503109E21726
:10313000F30708F49DC0D901CD91DC911197C61712
:10314000D70798F0C530D10530F3CE010497861724
:10315000970708F3C61BD70B2297C193D1936D93A2
:103160007C93CF010E94F517D6CF5B01AC1ABD0A44
:103170004C018C0E9D1EA0918004B0918104512CB5
:10318000412CF12CE12C109731F580917E04909127
:103190007F048815990509F05CC04616570608F0AB
:1031A00058C080910D0190910E01009741F48DB7A8
:1031B0009EB74091110150911201841B950BE817A5
:1031C000F90708F055C0F0937F04E0937E04F901FD
:1031D00071836083A0CF8D919C91119712966C9012
:1031E000129713967C901397A815B90559F56C01A1
:1031F00042E0C40ED11CCA14DB0420F1AC014A1910
:103200005B09DA011296159780F06282738251830E
:103210004083D9016D937C93E114F10471F0D701DF
:103220001396FC93EE93129776CF22968C0F9D1FE8
:10323000F90191838083F301EFCFF0938104E09350
:10324000800469CF4816590608F42C017D01D3018A
:103250009ACFCB010E9459177C01009749F0AE012B
:10326000B8010E943B19C8010E94F517870153CF8E
:1032700010E000E050CFFB01DC0102C001900D9294
:1032800041505040D8F70895FB01DC0101900D92A8
:103290000020E1F7089510E0C2E6D0E004C0FE018E
:1032A0000E9453172196C336D107C9F7F894FFCF70
:1032B000000400000004000000040000010000827F
:1032C000048000F401F401F401000000007503D54E
:1032D000020203C203330311032503000000008828
:1032E000055B05BA063105540541053205000000AD
:1032F000002706D502BA063105830699060F060097
:00000001FF
