:100000000C9463000C948B000C948B000C94F80AF5
:100010000C94F80A0C94F80A0C948B000C948B0046
:100020000C948B000C948B000C948B000C948B0024
:100030000C948B000C948B000C948B000C948B0014
:100040000C9437090C948B000C94A7090C9481092B
:100050000C948B000C948B000C948B000C948B00F4
:100060000C94D9090C948B00000000002400270098
:100070002A0000000008000201000003040700003D
:1000800000000000000000000000230026002900FE
:1000900000000000250028002B00040404040404D0
:1000A0000404020202020202030303030303010227
:1000B00004081020408001020408102001020408F6
:1000C0001020700BA61811241FBECFEFD8E0DEBFA2
:1000D000CDBF24E0AAE5B1E001C01D92A43AB20769
:1000E000E1F711E0A0E0B1E0E0ECF6E302C005903A
:1000F0000D92AA35B107D9F710E0C2E6D0E004C0EE
:100100002197FE010E945B19C136D107C9F70E94F1
:100110006C0C0C94531B0C940000FC01A089B18959
:1001200082E08C93A485B5851C92A685B7858FEC5B
:100130008C93108EA489B5896C93A289B3898C9114
:1001400080618C93A289B3898C9188608C93A289F9
:10015000B3898C9180688C930288F389E02D80812B
:100160008F7D80830895482FE8E6F3E020E08FEF4D
:100170009FEF241791F03191832738E0BC01617023
:10018000772796958795672B21F051E0852750EAD0
:100190009527315099F72F5FECCF0895833081F088
:1001A00028F4813099F08230A9F008958730A9F0C1
:1001B0008830C9F08430B1F4809180008F7D03C015
:1001C000809180008F7780938000089584B58F7729
:1001D00084BD089584B58F7DFBCF8091B0008F776B
:1001E0008093B00008958091B0008F7DF9CFCF93B8
:1001F000DF93282F30E0F901EE58FF4F8491F90189
:10020000E255FF4FD491F901E656FF4FC491CC233C
:10021000A1F081110E94CE00EC2FF0E0EE0FFF1F45
:10022000EA57FF4FA591B491EC91ED2381E090E066
:1002300009F480E0DF91CF91089580E090E0FACF5B
:100240001F93CF93DF93282F30E0F901EE58FF4F33
:100250008491F901E255FF4FD491F901E656FF4F21
:10026000C491CC23A9F0162F81110E94CE00EC2F4F
:10027000F0E0EE0FFF1FE057FF4FA591B4918FB74D
:10028000F894EC91111108C0D095DE23DC938FBF58
:10029000DF91CF911F910895DE2BF8CFCF93DF939D
:1002A00090916803992309F44BC0C82F0E94B300B2
:1002B000D0E0FE01EF59FC4F878390878091670360
:1002C0008F3F19F061E00E942001809165039091B9
:1002D0006603AE014E5F5F4FDC01ED91FC91028041
:1002E000F381E02D68E673E00995809165039091B4
:1002F0006603DC01ED91FC910680F781E02D099504
:10030000809167038F3F19F060E00E942001809187
:10031000650390916603DC01ED91FC910084F18509
:10032000E02D0995892B61F080916503909166031A
:10033000DC01ED91FC910284F385E02D0995E7CF76
:10034000DF91CF910895E1E6F3E090859068908782
:10035000818783E00C944E01CF93DF9390E0FC0102
:10036000E255FF4F249186569F4FFC0184918823CC
:10037000D1F090E0880F991FFC01E859FF4FA5913B
:10038000B491FC01E057FF4FC591D49161110EC0AB
:100390009FB7F8948C91E22FE0958E238C9328815F
:1003A000E223E8839FBFDF91CF9108958FB7F89440
:1003B000EC91E22BEC938FBFF6CF8E3008F08E508D
:1003C0008770806480937C0080917A008064809341
:1003D0007A0080917A0086FDFCCF80917800909120
:1003E000790008953FB7F8948091200290912102FE
:1003F000A0912202B091230226B5A89B05C02F3FF1
:1004000019F00196A11DB11D3FBFBA2FA92F982F3A
:100410008827BC01CD01620F711D811D911D42E035
:10042000660F771F881F991F4A95D1F708958F92FD
:100430009F92AF92BF92CF92DF92EF92FF924B01C9
:100440005C010E94F2016B017C010E94F2016C19B7
:100450007D098E099F09683E734081059105A8F3C7
:1004600021E0821A9108A108B10888EEC80E83E045
:10047000D81EE11CF11C81149104A104B10429F7D8
:10048000FF90EF90DF90CF90BF90AF909F908F90B4
:1004900008952FB7F89460911C0270911D0280910D
:1004A0001E0290911F022FBF08950F931F938091FA
:1004B000530390915403019709F054C08091510364
:1004C00090915203019721F50E944902AB01BC01B2
:1004D00080914D0390914E03A0914F03B091500332
:1004E0000091490310914A0320914B0330914C0332
:1004F000801B910BA20BB30B840F951FA61FB71F78
:1005000080934D0390934E03A0934F03B0935003F9
:100510008091510390915203892B21F50E94F201A1
:10052000AB01BC0180914D0390914E03A0914F030C
:10053000B09150030091490310914A0320914B035D
:1005400030914C03801B910BA20BB30B840F951FB2
:10055000A61FB71F80934D0390934E03A0934F03A4
:10056000B093500310925403109253031F910F91B4
:10057000089508950895FC01248135816217730759
:1005800048F480819181009729F0860F971FFC0124
:100590008081089580E00895AF92BF92CF92DF925C
:1005A000EF92FF920F931F93CF93DF936C017B0128
:1005B0008B01040F151FEB015E01AE18BF08C017B9
:1005C000D10759F06991D601ED91FC910190F0812C
:1005D000E02DC6010995892B79F7C501DF91CF91EF
:1005E0001F910F91FF90EF90DF90CF90BF90AF9051
:1005F0000895FC01538D448D252F30E0842F90E029
:10060000821B930B541710F0CF960895019708950D
:10061000FC01918D828D981761F0A28DAE0FBF2FD6
:10062000B11D5D968C91928D9F5F9F73928F90E02C
:1006300008958FEF9FEF0895FC01918D828D98179B
:1006400031F0828DE80FF11D858D90E008958FEFD8
:100650009FEF0895FC01918D228D892F90E0805CA1
:100660009F4F821B91098F739927089584E992E027
:100670000E942A0321E0892B09F420E0822F0895AB
:1006800080E090E0892B29F00E94360381110C94C0
:1006900000000895FC01A48DA80FB92FB11DA35A25
:1006A000BF4F2C91848D90E001968F739927848F92
:1006B000A689B7892C93A089B1898C9183708064B5
:1006C0008C93938D848D981306C00288F389E02D56
:1006D00080818F7D80830895EF92FF920F931F9307
:1006E000CF93DF93EC0181E0888F9B8D8C8D9813E5
:1006F0001AC0E889F989808185FF15C09FB7F894F1
:10070000EE89FF896083E889F9898081837080643C
:1007100080839FBF81E090E0DF91CF911F910F9187
:10072000FF90EF900895F62E0B8D10E00F5F1F4F96
:100730000F731127E02E8C8D8E110CC00FB607FCA5
:10074000FACFE889F989808185FFF5CFCE010E9433
:100750004A03F1CFEB8DEC0FFD2FF11DE35AFF4F54
:10076000F0829FB7F8940B8FEA89FB8980818062C1
:10077000CFCFCF93DF93EC01888D8823B9F0AA897E
:10078000BB89E889F9898C9185FD03C0808186FD4C
:100790000DC00FB607FCF7CF8C9185FFF2CF80819B
:1007A00085FFEDCFCE010E944A03E9CFDF91CF91C3
:1007B00008952091BD01260F3327331F21323105C3
:1007C000ECF420916A02FC0190E080E0243069F0B2
:1007D00082E00895A091BD012191AC0143565E4F86
:1007E000A40FB52FB11D2C930196861798F3809115
:1007F000BD01680F6093BD0180E0089581E0089518
:1008000010926A0281E0809369021092440261E0D2
:1008100082E10E94200161E083E10E942001E9EB76
:10082000F0E080818E7F808380818D7F808388E46B
:100830008093B80085E48093BC000895CF93DF9344
:1008400091E090939C018823B9F0C091B800D091B9
:10085000BA008091BC008A7B8093BC0060E082E19A
:100860000E94200160E083E10E9420010E940004B8
:10087000D093BA00C093B800DF91CF910895CF9282
:10088000DF92EF92FF920F931F93CF93DF93D0915C
:10089000930281E0D13208F09CC0C09192020E9484
:1008A000F2016B017C0180916A0281116CC082E0CF
:1008B00080936A0281E0809369028FEF80936802DF
:1008C00010926702D0936602A2E7B2E0E6E4F2E09B
:1008D00080E0D8138DC01092450280914502CC0F64
:1008E000C82BC093450280914402813009F084C036
:1008F000109244020E94F2016B017C01809145023A
:100900008093BB0080916C0290916D02A0916E0269
:10091000B0916F02892B8A2B8B2BA1F00E94F201E0
:1009200000916C0210916D0220916E0230916F0265
:100930006C197D098E099F090617170728073907C3
:1009400008F442C08091BC0083FDD8CF85EC809331
:10095000BC000E94F2016B017C0180916A0282302E
:1009600009F44CC0809168028F3F09F469C08091FE
:100970006802803209F466C080916802803309F40D
:1009800063C084E026C080916C0290916D02A091BA
:100990006E02B0916F02892B8A2B8B2B09F483CFC7
:1009A0000E94F20100916C0210916D0220916E0282
:1009B00030916F026C197D098E099F090617170780
:1009C0002807390708F06FCF80916B020E941E0440
:1009D00085E0109271021092930210927002DF91E2
:1009E000CF911F910F91FF90EF90DF90CF900895DE
:1009F0009D9191938F5F6DCF85EEA9CF80916C0211
:100A000090916D02A0916E02B0916F02892B8A2B9A
:100A10008B2B09F4A2CF0E94F20100916C0210917D
:100A20006D0220916E0230916F026C197D098E0962
:100A30009F09061717072807390708F08ECFC4CF7C
:100A400080E0C7CF82E0C5CF83E0C3CFCF92DF92F3
:100A5000EF92FF920F931F93CF93DF93D82FC62F60
:100A6000613208F098C00E94F2016B017C01809114
:100A70006A0281116BC081E080936A0280936902EF
:100A80009FEF90936802109267029C0F909366020A
:100A90008093450280914502DD0FD82BD09345020B
:100AA00080914402813009F078C0109244020E9483
:100AB000F2016B017C01809145028093BB00809123
:100AC0006C0290916D02A0916E02B0916F02892B21
:100AD0008A2B8B2BA1F00E94F20100916C021091E5
:100AE0006D0220916E0230916F026C197D098E09A2
:100AF0009F09061717072807390708F448C080918F
:100B0000BC0083FDD8CF85EC8093BC000E94F2012D
:100B10006B017C0180916A02813009F440C08091B0
:100B200067028C1710F4C0916702E6E4F2E0A4E2D9
:100B3000B2E080E08C1355C08C2FDF91CF911F91D4
:100B40000F91FF90EF90DF90CF90089580916C020D
:100B500090916D02A0916E02B0916F02892B8A2B49
:100B60008B2B09F484CF0E94F20100916C0210914A
:100B70006D0220916E0230916F026C197D098E0911
:100B80009F09061717072807390708F070CF8091CB
:100B90006B020E941E04C0E0CFCF85EEB5CF8091DE
:100BA0006C0290916D02A0916E02B0916F02892B40
:100BB0008A2B8B2B09F4AECF0E94F20100916C02BC
:100BC00010916D0220916E0230916F026C197D09B7
:100BD0008E099F09061717072807390708F09ACFCB
:100BE000D6CF91919D938F5FA5CF0895E091E901B4
:100BF0008091E801E81730F4F0E0EC5DFD4F808172
:100C000090E008958FEF9FEF08959091E901809112
:100C1000E8012FEF3FEF981748F4E92FF0E0EC5D83
:100C2000FD4F208130E09F5F9093E901C901089555
:100C30008091E8019091E901891B990B0895CF9269
:100C4000DF92EF92FF920F931F93CF93DF937C017C
:100C5000CB018A0120917002222389F0EB016B0104
:100C6000C40ED51ECC15DD0569F06991D701ED9153
:100C7000FC910190F081E02DC7010995F3CF642F1D
:100C80000E94D903C801DF91CF911F910F91FF906E
:100C9000EF90DF90CF900895CF93DF931F92CDB761
:100CA000DEB76983209170022223F9F0209193022C
:100CB000203258F021E030E0FC013383228390E0C1
:100CC00080E00F90DF91CF91089580917102E82F1D
:100CD000F0E0EE58FD4F998190838F5F8093710211
:100CE0008093930281E090E0ECCF61E0CE01019629
:100CF0000E94D903F7CF682F81E393E00C944C0650
:100D00000F931F93CF93DF93FC012285338521300E
:100D1000310531F5EC012085318521303105D9F4DB
:100D20000E944902AB01BC018C819D81AE81BF81D3
:100D3000088119812A813B81801B910BA20BB30B87
:100D4000840F951FA61FB71FBC01CD01DF91CF9166
:100D50001F910F910895232B19F40E94F201E2CF05
:100D6000FC0184819581A681B781EECFCF93DF937B
:100D7000EC011C821D821E821F8288859985019745
:100D800031F40E944902688379838A839B83888532
:100D90009985892B31F40E94F201688379838A83D3
:100DA0009B8381E090E09B878A87DF91CF910895B4
:100DB0002091E2013091E3012817390771F49091F5
:100DC000E0018091E101981741F0E091E001F0E04D
:100DD000E45AFE4F808190E008958FEF9FEF0895D1
:100DE000EF92FF920F931F93CF93DF93DC015C96FA
:100DF000ED90FC905D97E114F10479F481E090E0CE
:100E000013969C938E93129790E080E0DF91CF91A0
:100E10001F910F91FF90EF9008955196ED91FC91E5
:100E2000529750968C915097982F90950FB75E9649
:100E30002C915E97122F127021FD6095F8942081FD
:100E4000112319F1282B2083E7012197F1F728E0DE
:100E5000462F50E0308160FF1AC0382B3083E70105
:100E60002197F1F7BA0175956795215089F71123FC
:100E700081F08081892380830FBF5C968D919C9146
:100E80000197F1F781E090E0C1CF2923DCCF39232E
:100E9000E5CF9081892BEFCF2091E2013091E301E2
:100EA0002817390761F48091E1012091E00190E079
:100EB000805C9F4F821B91098F739927089590E062
:100EC00080E008952091E2013091E301281739076D
:100ED000B9F49091E0018091E101981789F0E091D7
:100EE000E001F0E0E45AFE4F80812091E00130E023
:100EF0002F5F3F4F2F7333272093E00190E0089539
:100F00008FEF9FEF089590E080E008958F929F9279
:100F1000AF92BF92FF920F931F93CF93DF93EC0199
:100F2000F62E862F0E94DD010BE91FE0C801019714
:100F3000F1F78F2D0E94DD01CC0FDD1FCC0FDD1FDF
:100F4000C050DF4F188219821A821B82C801019794
:100F5000F1F708EE13E08F2D0E94DD01BC01990F1F
:100F6000880B990B88809980AA80BB80680D791DB9
:100F70008A1D9B1D688379838A839B830150110995
:100F800051F728EE33E040E050E00E943919288301
:100F900039834A835B83A895DF91CF911F910F918D
:100FA000FF90BF90AF909F908F900895CF93DF9365
:100FB000C4E1D0E060E08DE00E94200169E170E0D2
:100FC00080E090E00E94170261E08DE00E94200125
:100FD00069E170E080E090E00E94170260E081E14A
:100FE0000E94200169E170E080E090E00E94170219
:100FF00061E081E10E94200169E170E080E090E021
:101000000E9417022197B1F6DF91CF9108951092B7
:10101000E90110927102109293020E94000489EB80
:1010200092E09093E7018093E6018AEB92E090933F
:10103000E5018093E40181E08093700280E2809377
:10104000920290E080E00E947B060E943F0461E0F3
:1010500080E20E9426058093E801882331F081E335
:1010600093E00E94050680935B0181E0809370020B
:10107000109271021092930281E090E00E947B0630
:101080000E943F0461E080E20E9426051092E9017F
:101090008093E801882331F081E393E00E94050604
:1010A00080935A0160915A0170E040915B0150E0D9
:1010B000ECEFF1E090E080E08530910574F49A0166
:1010C000082E02C0359527950A94E2F721702193E6
:1010D00001968A30910581F708959C0125503109C8
:1010E000DB0102C0B595A7952A95E2F79D01EECFE9
:1010F000FC0180819181009711F00C94FD190895F5
:10110000CF92DF92EF92FF920F931F93CF93DF93D3
:10111000CDB7DEB729970FB6F894DEBF0FBECDBFAF
:101120008C01862FF801118210821382128215829F
:1011300014824AE09E012F5F3F4F6901B90190E0A0
:101140000E94C218F60101900020E9F731977F0153
:10115000EC18FD08F80180819181009729F0228127
:1011600033812E153F0590F4B7016F5F7F4F0E94CA
:10117000861AF801009799F091838083F382E282C6
:1011800024813581232B11F4FC011082F801F582B2
:10119000E482B601808191810E944C1B0DC0808148
:1011A0009181009711F00E94FD19F80111821082BF
:1011B000158214821382128229960FB6F894DEBF2C
:1011C0000FBECDBFDF91CF911F910F91FF90EF9098
:1011D000DF90CF90089585ED8093BC0080916C02E4
:1011E00090916D02A0916E02B0916F020796A11DC1
:1011F000B11D23E0B695A795979587952A95D1F7C8
:101200002091BC0024FD03C010926A020895409111
:101210006C0250916D0260916E0270916F02452BCD
:10122000462B472B69F30097A105B10541F02AE24F
:101230002A95F1F700C00197A109B109E1CF80918A
:101240006B020C941E041F93CF93DF93EC01162FB7
:101250000E94EC18181739F0612FCE01DF91CF9161
:101260001F910C94F418DF91CF911F9108951F9254
:101270000F920FB60F9211242F933F938F939F934A
:10128000AF93BF9380911C0290911D02A0911E020A
:10129000B0911F0230911B0223E0230F2D3758F528
:1012A0000196A11DB11D20931B0280931C029093F7
:1012B0001D02A0931E02B0931F0280912002909104
:1012C0002102A0912202B09123020196A11DB11D1D
:1012D0008093200290932102A0932202B0932302D4
:1012E000BF91AF919F918F913F912F910F900FBE22
:1012F0000F901F90189526E8230F0296A11DB11D8F
:10130000D2CF1F920F920FB60F9211242F933F93BB
:101310004F935F936F937F938F939F93AF93BF93FD
:10132000EF93FF9384E992E00E944A03FF91EF91CB
:10133000BF91AF919F918F917F916F915F914F91ED
:101340003F912F910F900FBE0F901F9018951F92F5
:101350000F920FB60F9211242F938F939F93EF93B9
:10136000FF93E091A402F091A5028081E091AA028E
:10137000F091AB0282FD1BC090818091AD028F5F26
:101380008F732091AE02821741F0E091AD02F0E040
:10139000EC56FD4F958F8093AD02FF91EF919F9199
:1013A0008F912F910F900FBE0F901F9018958081F5
:1013B000F4CF1F920F920FB60F9211242F933F93E9
:1013C0004F935F936F937F938F939F93AF93BF934D
:1013D000EF93FF938091B900887F803609F44AC06B
:1013E000F0F5883209F4A7C018F5803109F49BC0E4
:1013F000B8F4882309F4F9C0883009F494C0FF9147
:10140000EF91BF91AF919F918F917F916F915F917C
:101410004F913F912F910F900FBE0F901F901895F5
:10142000883109F488C0803251F78093680214C073
:10143000803409F49DC040F48033B9F38833F9F661
:101440008093680285ECB0C0803509F485C088358A
:1014500009F496C0883499F60E94EB08D0CF8839F9
:1014600009F48CC038F5883729F050F4883611F02B
:10147000803729F683E080936A021092DF0157C01B
:10148000883809F47BC0803919F0803809F0B7CF6B
:101490008091DF01803208F071C0E091DF0181E0CE
:1014A0008E0F8093DF018091BB00F0E0E154FE4F8E
:1014B00080833DC0803B39F0E0F4803A09F479C084
:1014C000883A09F09CCF84E080936A021092BE01B2
:1014D0001092BD01E091E601F091E701099580913C
:1014E000BD0181110FC081E08093BD0110929D016B
:1014F00009C0803C09F4A6CF883C09F4A3CF883BFF
:1015000009F07DCFE091BE0181E08E0F8093BE0196
:10151000F0E0E356FE4F80818093BB009091BE01C6
:101520008091BD0129C0809145028093BB0085EC6C
:101530008093BC0064CF90916702809166029817F7
:1015400058F5E091670281E08E0F80936702F0E02A
:10155000EA5BFD4F8081E9CFE091670281E08E0F69
:10156000809367028091BB00F0E0EA5BFD4F8083CF
:1015700090916702809166029817C8F285E8D8CFEB
:10158000E091670281E08E0F809367028091BB003B
:10159000F0E0EA5BFD4F80838091690281115CCFAE
:1015A00081E08093440284EA8093BC0010926A0236
:1015B00026CF85EC8093BC0010926A028091DF01F7
:1015C000803230F4E091DF01F0E0E154FE4F108210
:1015D0006091DF0170E0E091E401F091E5018FEBB3
:1015E00091E009951092DF010ACF1092680234CF82
:1015F0001F920F920FB60F9211242F933F934F9388
:101600005F936F937F938F939F93AF93BF93EF936A
:10161000FF93E091E201F091E301309749F0A68554
:10162000B7858585968D91FF14C09C918923A1F47F
:10163000FF91EF91BF91AF919F918F917F916F91AA
:101640005F914F913F912F910F900FBE0F901F9080
:1016500018959C91892361F7A389B4899C91858908
:10166000809589238C93868997890197F1F7608DFE
:10167000718DA685B785558538E020E0CB010197AF
:10168000F1F7822F90E095958795282F4C9145236F
:1016900009F02068315091F7868D81FD2095809169
:1016A000E10190E001968F7399273091E00138179E
:1016B00099F0A091E101B0E0A45ABE4F2C93809321
:1016C000E101828D938D0197F1F7A389B4898C9103
:1016D0009589892B8C93ACCF868D8160868FF1CFD5
:1016E000109297021092960288EE93E0A0E0B0E08C
:1016F0008093980290939902A0939A02B0939B02D0
:1017000027E231E0309395022093940225EC30E0FB
:101710003093A1022093A00224EC30E03093A30286
:101720002093A20220EC30E03093A5022093A40283
:1017300021EC30E03093A7022093A60222EC30E0A7
:101740003093A9022093A80226EC30E03093AB023C
:101750002093AA021092AD021092AE021092AF0234
:101760001092B00210923403109233038093350329
:1017700090933603A0933703B093380329E331E005
:101780003093320320933103109284041092830427
:101790008093850490938604A0938704B093880473
:1017A0008BE491E0909382048093810410929804DA
:1017B0001092970410929A041092990410929C042B
:1017C00010929B0410929E0410929D0460919F04BD
:1017D0006E7F6D7F60939F046695617081E06827DE
:1017E0008BE00E94200161E08BE00E94AC01E9EBFC
:1017F000F0E0E491E0939104E5EAF0E0E491F0E0B8
:10180000EE0FFF1FE057FF4F859194919093930443
:101810008093920460E08AE00E94AC0180919F0472
:1018200081FD04C061E08AE00E94200181E894E02B
:101830002AE020938D04E8EBF0E0E491E0938E043D
:10184000E4EAF0E0E491F0E0EE0FFF1FEA57FF4F0B
:10185000259134913093900420938F041092710459
:101860001092700410927304109272041092750416
:10187000109274041092770410927604109262030E
:1018800010926103909364038093630390936603C3
:1018900080936503109269041092680410926B049F
:1018A00010926A0410926D0410926C0410926F04EE
:1018B00010926E0482E08093670381E090E0909341
:1018C0005E0380935D039093520380935103909342
:1018D0004603809345030895CF93DF9300D000D053
:1018E00000D0CDB7DEB7789484B5826084BD84B56E
:1018F000816084BD85B5826085BD85B5816085BD0B
:1019000080916E00816080936E00109281008091C2
:10191000810082608093810080918100816080934A
:101920008100809180008160809380008091B1006F
:1019300084608093B1008091B00081608093B0009A
:1019400080917A00846080937A0080917A0082602E
:1019500080937A0080917A00816080937A008091F0
:101960007A00806880937A001092C10080E490E051
:101970000E94EC188034A1F060E480E490E00E94C2
:10198000230961E081E090E00E94230962E082E0A7
:1019900090E00E94230961E083E090E00E94230927
:1019A00081E090E00E94EC18D82E8093F20182E052
:1019B00090E00E94EC18E82FF0E0EE0FFF1FEB5EC6
:1019C000FE4F808191819093ED018093EC0183E043
:1019D00090E00E94EC1891E0811101C090E090939A
:1019E000060261E08DE00E94AC0161E081E10E94AD
:1019F000AC0160E088E00E94AC0160E089E00E94F8
:101A0000AC0161E087E00E94AC0161E083E00E94EC
:101A1000AC0161E084E00E94AC0161E085E00E94DD
:101A2000AC0161E086E00E94AC0161E08CE00E94C4
:101A3000AC0160E08CE00E94200161E081E10E9445
:101A4000200161E08DE00E94200166E084E992E0DF
:101A50000E948D000E9407081CEFA12E11E0B12EFC
:101A60000FEF1FEFF12CE12CCC24C39487E2982ECA
:101A7000C0927002909292021092710210929302A0
:101A800082E090E00E947B06D5018D915D0181117D
:101A900013C0F7013197E930F10568F4EE5AF24FBF
:101AA0000C945B192E0F300F320F340F360F380F96
:101AB0003A0F3C0F3E0F1F7E602F81E393E00E94A0
:101AC0004C06612F81E393E00E944C060E943F0484
:101AD000BFEFEB1AFB0AEAE0EE16F10409F0C8CFFB
:101AE00068EE73E080E090E00E94170281E080934E
:101AF0007002109271021092930282E090E00E94B4
:101B00007B068FEF90E00E947B068FEF90E00E94B3
:101B10007B060E943F0487E092E090936B048093E1
:101B20006A0484E190E0909373048093720484EFDC
:101B300091E090936D0480936C0483E090E0909327
:101B40007504809374048FEF8D0D873F08F098C162
:101B5000D09278048091610390916203009709F418
:101B600092C14CE25AE060E070E0409379045093F7
:101B70007A0460937B0470937C044FE452E160E04C
:101B800070E040937D0450937E0460937F047093D3
:101B9000800466E00E948D00809167038F3F41F0D2
:101BA00061E00E94AC0160E0809167030E94200127
:101BB0000E94F2016B017C018091650390916603A4
:101BC000DC01ED91FC910084F185E02D0995892BD4
:101BD00079F00E94F2016B017C0180916503909184
:101BE0006603DC01ED91FC910284F385E02D0995FB
:101BF0000E94F2016C197D098E099F0900917D04F4
:101C000010917E0420917F04309180046017710749
:101C10008207930788F21092E9011092E8010E946E
:101C2000000489EB92E09093E7018093E6018AEB50
:101C300092E09093E5018093E4018CE08093B800FA
:101C400081E08093700287E2809392021092710289
:101C50001092930286E090E00E947B0690E080E084
:101C60000E947B0690E080E00E947B060E943F0479
:101C700085E593E00E94B6068DE393E00E94B606E8
:101C800064E670E080E090E00E941702312C212C85
:101C9000412C512C3201439401E011E08DE393E09B
:101CA0000E94800620EA3FE040E050E00E9439199F
:101CB000643F71408105910508F0BCC11092070294
:101CC000109208021092090210920A0210920B025E
:101CD00010920C020E94070880E00E94DD018B3701
:101CE00093400CF476C18091FC01811172C1109374
:101CF000110281E00E94DD018B3793402CF080912E
:101D0000FD01882309F468C1109212026EE070E0B0
:101D100090E080E00E94860765E070E080E090E05F
:101D20000E9417026FE070E081E090E00E94860759
:101D300065E070E080E090E00E9417028091EC0185
:101D40009091ED01B0E0A0E04091000150910101BF
:101D50006091020170910301481759076A077B07D8
:101D600008F03DC110930702109211024091040146
:101D700050910501609106017091070148175907BC
:101D80006A077B0708F032C1109308021092120212
:101D90001092EB011092EA01E090EA01F090EB0161
:101DA00028E0E216F1040CF035C16E2D617083E07D
:101DB0000E942001B70175956795617084E00E94CB
:101DC0002001B7017595679575956795617085E0F8
:101DD0000E94200160E170E082E090E00E948607AE
:101DE00065E070E080E090E00E941702D12CC12CE9
:101DF00038E0E316F10428F4F701E55EFE4FC080F9
:101E0000D12C82E00E94DD01F601E450FE4F2081DA
:101E1000F601EF5EFD4F8B3793401CF0222309F44F
:101E2000ECC010824091EC015091ED0170E060E057
:101E30008090080190900901A0900A01B0900B01D8
:101E4000D601A95FBD4F84169506A606B70608F011
:101E5000D6C02111D4C00C931082D4C0177F2CCED1
:101E60000E7F2ACE0D7F28CE0B7F26CE077F24CE75
:101E70000F7E22CE1E7F20CE1D7F1ECE1B7F1CCE4E
:101E80001092780467CEE0916303F0916403309779
:101E900009F482CE8CE29AE0A0E0B0E0809379046D
:101EA00090937A04A0937B04B0937C048FE492E136
:101EB000A0E0B0E080937D0490937E04A0937F0423
:101EC000B0938004138E128E118E108E178A168A8C
:101ED0008DE991E0958F848F84858631E0F52DEB37
:101EE00030E0378B268B2BE931E0318F208F2CE2CD
:101EF00031E0338F228F90916800883008F45AC007
:101F000021E08E3008F420E081E001C0880F2A959E
:101F1000EAF7892B8093680094852DE630E09830AD
:101F200050F02BE630E09E3030F02CE630E0963179
:101F300010F030E020E0348B238B292F30E09830F4
:101F4000D8F581E001C0880F9A95EAF7858B848DDA
:101F5000958D0197F1F7828D938D892B09F41CCE15
:101F60004091E2015091E301E417F50709F414CE22
:101F70004115510569F0DA0153962D913C91D90133
:101F80009C91DA0155968C9180958923D9018C9387
:101F9000868D8E7F868F1092E1011092E001F09382
:101FA000E301E093E201A389B4898C919589892B9F
:101FB0008C93F2CD84E0ADCF9E3040F428503109AF
:101FC00081E001C0880F2A95EAF7C0CF2E50310971
:101FD000F7CF109211028DCE1093120297CE20915E
:101FE000FC012111C3CE10920702C0CE8091FD01E9
:101FF0008111CECE10920802CBCE008313CF1C925B
:1020000021112ACF8FEFE81AF80AF092EB01E09243
:10201000EA01C2CE80910602882311F40C94A21822
:1020200010921602109217021092180210921902C2
:1020300010921A0290910702809106028111CFC17D
:1020400080910E01911105C090911102992309F41C
:10205000B2C19091FC019111AEC18F7E80930E01AF
:102060009091080280910E01911105C09091120289
:10207000992309F4A2C19091FD0191119EC1877F1E
:1020800080930E019091090280910D01911105C07C
:1020900090911302992309F492C19091FE0191113C
:1020A0008EC18E7F80930D0190910A0280910D0167
:1020B000911105C090911402992309F482C1909165
:1020C000FF0191117EC18D7F80930D0190910B02D4
:1020D00080910D01911105C090911502992309F489
:1020E00072C19091000291116EC18B7F80930D019E
:1020F00090910C0280910D01911105C090911602F2
:10210000992309F462C19091010291115EC1877F08
:1021100080930D0190910D0280910D01911105C0E8
:1021200090911702992309F452C1909102029111E2
:102130004EC18F7E80930D0190910E0280910E0111
:10214000911105C090911802992309F442C1909110
:10215000030291113EC18E7F80930E0190910F0278
:1021600080910E01911105C090911902992309F4F3
:1021700032C19091040291112EC18D7F80930E0186
:102180009091100280910E01911105C090911A0258
:10219000992309F422C19091050291111EC18B7FF0
:1021A00080930E011093700297E290939202109226
:1021B00071021092930282E090E00E947B060E94DE
:1021C0004902F0900D0124EF31E040E050E00E9420
:1021D00039196A3F71058105910508F05FC16F2DBE
:1021E00081E393E00E944C0660910E0181E393E04D
:1021F0000E944C068091FB0160E0811158C10E9451
:102200003F04AFEFFA1257C180910E018F3F09F0E2
:1022100052C11092FB0161E087E00E9420010E9400
:10222000490220EA3FE040E050E00E9439196C3258
:1022300071408105910508F044C18091FA01811136
:1022400040C160E081E10E9420016AE070E080E02E
:1022500090E00E94170261E081E10E94200164E6A3
:1022600070E080E090E00E94170260E081E10E944F
:1022700020018091650390916603DC01ED91FC9152
:102280000084F185E02D0995892B09F47FC1812C0B
:10229000912C5401F12CE12C8091650390916603FF
:1022A000DC01ED91FC910084F185E02D0995892BED
:1022B000B1F00E94F2014B015C01809165039091A5
:1022C0006603DC01ED91FC910284F385E02D099514
:1022D000F701EF59FC4F8783BFEFEB1AFB0A0E940F
:1022E000F201681979098A099B09209179043091D2
:1022F0007A0440917B0450917C04261737074807E5
:10230000590728F0EFEFEE16F10431F228F20E949F
:10231000F201681979098A099B0920917D0430919D
:102320007E0440917F0450918004621773078407F4
:10233000950768F38091650390916603DC01ED9148
:10234000FC910084F185E02D0995892B09F01EC1CF
:102350008091680390917804891711F0811116C15A
:102360008EEF8E0D0E94B300F701EF59FC4F2681CE
:1023700035812327322723278217930709F006C1C7
:10238000E0916903E150E03108F0B8C0F0E0E553B6
:10239000FE4E0C945B19631206146514B7140915EC
:1023A0003C157E127E127E127E127E127E127E12EC
:1023B0007E126415C515806151CE886061CE816042
:1023C00071CE826081CE846091CE8860A1CE806122
:1023D000B1CE8160C1CE8260D1CE8460E1CE8091E9
:1023E0000D01911105C090911102992309F44CC07F
:1023F0009091FC01911148C08E7F80930D019091C6
:10240000080280910D01911104C09091120299234C
:10241000E9F19091FD01911139C08D7F80930D01FB
:102420009091090280910D01911104C090911302C5
:10243000992371F19091FE0191112AC08B7F8093B5
:102440000D0190910A0280910D01911104C09091AB
:1024500014029923F9F09091FF0191111BC0877F1D
:1024600080930D0190910B0280910D01911104C098
:1024700090911502992381F09091000291110CC066
:102480008F7E80930D018ECE8160B7CF8260C6CFE4
:102490008460D5CF8860E4CF8061F3CF8FEF90E088
:1024A0000E947B068FEF90E00E947B0661E08DE04A
:1024B0000E942001A4CE1093FB0160E087E00E94FF
:1024C000200161E0D3CE60916A0370916B0376279F
:1024D0006727762780916C0390916D039827892751
:1024E0009827A0916804B0916904109739F0409141
:1024F0007004509171044115510511F481E006C03A
:10250000FC013197E03DF74020F083E00E94A301F9
:102510003DC04817590728F0481B590B4617570765
:1025200010F482E0F3CFAC01495F5F4FE3E05695D2
:102530004795EA95E1F740936A03A60FB71F50E06D
:1025400040E06D919A01277033277301620104C046
:10255000CC0CDD1CEE1CFF1C2A95D2F7FA0173E0AF
:10256000F695E7957A95E1F7EC59FC4F27816623BC
:1025700009F448C1C22AC7824F5F5F4F4817590705
:1025800001F780916A038D5F0E944E018091F401F2
:102590009091F501803C9105E9F48091F6019091CC
:1025A000F70180359105B1F46091F8017091F9015E
:1025B000663E710508F03BC381E090E00E9423096C
:1025C0000E94D60768EE73E080E090E00E94170258
:1025D000F10109958091F4019091F5010197D9F4E9
:1025E0008091F6019091F7010197A9F48091F8018B
:1025F0009091F901019779F461E081E090E00E9407
:1026000023090E94D60768EE73E080E090E00E9404
:102610001702F10109958091F4019091F5010A9753
:10262000B1F48091F6019091F7010A9781F48091BD
:10263000F8019091F9010A9751F40E94D60768EECB
:1026400073E080E090E00E941702F101099580910B
:10265000F4019091F5010597E9F48091F6019091CC
:10266000F7010597B9F4A8956091F8017091F90107
:102670006330710508F0DDC282E090E00E9423091A
:102680000E94D60768EE73E080E090E00E94170297
:10269000F10109958091F4019091F501069749F4B3
:1026A0008091F6019091F7018636910511F4F101C0
:1026B00009958091F4019091F501C39731F58091CE
:1026C000F6019091F701C39701F58091F80190917F
:1026D000F901892B29F460E083E090E00E9423094E
:1026E0008091F8019091F901019729F461E083E06C
:1026F00090E00E9423090E94D60768EE73E080E014
:1027000090E00E941702F10109950FB6F894A89580
:1027100080916000886180936000109260000FBE1D
:1027200088E00E94F700892B29F48091FB0188231F
:1027300009F481C28091F30181111EC385E593E004
:102740000E94B60680915F0390916003019709F0A3
:1027500056C080915D0390915E03019711F5C09082
:102760005903D0905A03E0905B03F0905C030E9401
:1027700049028090550390905603A0905703B09063
:102780005803C818D908EA08FB08C60ED71EE81E69
:10279000F91EC0925903D0925A03E0925B03F09263
:1027A0005C0380915D0390915E03892B11F5C090CD
:1027B0005903D0905A03E0905B03F0905C030E94B1
:1027C000F2018090550390905603A0905703B0906B
:1027D0005803C818D908EA08FB08C60ED71EE81E19
:1027E000F91EC0925903D0925A03E0925B03F09213
:1027F0005C0382E090E09093600380935F0310920B
:10280000F3014DC2C0942C212783B6CE20916A03D8
:1028100030916B0332272327322780916C039091EC
:102820006D03982789279827A0916A04B0916B04BB
:10283000109709F463CE40917204509173044115CE
:10284000510509F45BCEFC013197E03DF74008F0FB
:102850005CCE4817590708F464CE481B590B421741
:10286000530708F45ECEAC01495F5F4F63E05695B5
:1028700047956A95E1F740936A03A20FB31F50E0B2
:1028800040E06D919A01277033277301620104C003
:10289000CC0CDD1CEE1CFF1C2A95D2F7FA0133E0AC
:1028A000F695E7953A95E1F7EC59FC4F27816623B9
:1028B00041F0C22AC7824F5F5F4F4817590709F797
:1028C00060CEC0942C212783F6CFE0916A03F0916B
:1028D0006B03FE27EF27FE2740916C0450916D0497
:1028E0004115510509F40ACE209174043091750404
:1028F0002115310509F402CE80916C0390916D038E
:10290000982789279827BC01615071096D37710597
:1029100008F0FBCD2817390708F403CE281B390B24
:102920002E173F0708F4FDCD282F220F20936A03AE
:10293000EE0FFF1FBF01640F751FA1E6B3E030E08B
:1029400020E0FB0141816E5F7F4F1A964C931A97EE
:10295000AB0142505109FA0140811B964C931B97E1
:102960002F5F3F4F12968217930759F70ACEE091D7
:102970006A03F0916B03FE27EF27FE2740916E0458
:1029800050916F044115510509F4B8CD209176049A
:10299000309177042115310509F4B0CD80916C0395
:1029A00090916D03982789279827BC016150710980
:1029B0006D37710508F0A9CD2817390708F4B1CD96
:1029C000281B390B2E173F0708F4ABCD282F220FF9
:1029D00020936A03EE0FFF1FBF01640F751FA1E66E
:1029E000B3E030E020E0FB0141816E5F7F4F1A963B
:1029F0004C931A97AB0142505109FA0140811B9642
:102A00004C931B972F5F3F4F12962817390759F7A2
:102A1000B8CD40916A0350916B0354274527542742
:102A200080916C0390916D039827892798272091B6
:102A30006804309169042115310509F45FCD609176
:102A40007004709171046115710509F457CD0097F8
:102A500029F08115FFEF9F0709F057CD461757075B
:102A600008F05FCD240F351F41E0892B09F440E0C9
:102A7000D9014C9386E088CD80916A0390916B03D5
:102A800098278927982720916C0330916D0332276E
:102A900023273227E0916C04F0916D04309709F4FC
:102AA0002DCD40917404509175044115510509F4E0
:102AB00025CD8417950708F034CD880F991FE80FAE
:102AC000F91F31832083D6CF60916A0370916B0325
:102AD00076276727762780916C0390916D0398275E
:102AE000892798272091680430916904232B09F4E1
:102AF00005CD20917004309171042115310509F440
:102B0000FDCCAC0141505109403BB7E05B0708F0F8
:102B1000FCCCE0916E03485F5F4FF3E0569547951C
:102B2000FA95E1F7E417150609F0EFCC28173907F5
:102B300008F4F7CC281B390B2617370708F4F1CC1B
:102B400050E040E0E0916804F0916904E60FF71F5F
:102B5000E40FF51FDA0123E0B695A7952A95E1F772
:102B6000AF59BC4F1E962C9130E0DA01A770BB27FD
:102B700002C035952795AA95E2F7217020834F5F13
:102B80005F4F84179507F1F675CF80916A03909196
:102B90006B0398278927982720916C0330916D0348
:102BA00032272327322740916C0450916D04452B26
:102BB00009F4A4CC40917404509175044115510559
:102BC00009F49CCCB901615071096B37710508F0AB
:102BD0009CCCE0916E03B901660F771FE6171706CC
:102BE00009F093CC4217530708F49BCC421B530BBC
:102BF0004817590708F495CC880F991FE1E6F3E0D0
:102C000050E040E081569340A0916C04B0916D0477
:102C1000AE0FBF1FA80FB91F768567856D937C9394
:102C20004F5F5F4F32964217530771F723CF61E032
:102C3000C3CC60E021CD62E370E080E090E00E94D0
:102C400017021093F30180915F0390916003029744
:102C500031F580915D0390915E03019751F40E94DC
:102C600049026093550370935603809357039093E2
:102C7000580380915D0390915E03892B51F40E946B
:102C8000F20160935503709356038093570390931A
:102C9000580381E090E09093600380935F0385E5A3
:102CA00093E00E9480066838734181059105B8F071
:102CB0008091FA0181110DC088E00E94F700892BF4
:102CC00041F40E94D60789E493E00E94B60610936F
:102CD000FA0164E670E080E090E00E94170288E06C
:102CE0000E94F700892B49F48091FA01882329F08A
:102CF0008091FB01882309F47DC18091F101882333
:102D000009F480C10E94550280910C01882309F4C6
:102D1000DCC18091F001893008F0D4C18F5F8093CD
:102D2000F00160E081E10E94200164E670E080E053
:102D300090E00E94170261E081E10E94200164E6B8
:102D400070E080E090E00E9417029091EF01809186
:102D5000F0013AE0939F800D11248093F20164E624
:102D600070E080E090E00E94170289E493E00E9406
:102D7000B6061092F10146C18091FA018111DECCB4
:102D800060E08DE00E9420016AE070E080E090E069
:102D90000E94170261E08DE00E9420016AE070E06D
:102DA00080E090E00E94170260E081E10E94200133
:102DB0006AE070E080E090E00E94170261E081E14B
:102DC0000E9420016AE070E080E090E00E9417021B
:102DD00060E08DE00E9420016AE070E080E090E019
:102DE0000E94170261E08DE00E9420016AE070E01D
:102DF00080E090E00E9417026091F201CE010196FE
:102E00000E948008ED80FE80CE0101960E94780825
:102E1000F2E0EF16F10409F43FC023E0E216F104FA
:102E200009F481C0EA94EF2809F0DDC06091F20155
:102E3000CE0101960E94800870E060E0CE0101960C
:102E40000E94BB02E82ECE0101960E947808EE2077
:102E500009F4C9C0D12CC12CEE2DE053FF0B7F012A
:102E6000CE14DF040CF0BFC060E081E10E942001BD
:102E700064EF71E080E090E00E94170261E081E180
:102E80000E94200164EF71E080E090E00E94170250
:102E9000FFEFCF1ADF0AE4CF6091F201CE01019675
:102EA0000E94800861E070E0CE0101960E94BB02A2
:102EB000E82ECE0101960E9478086091F201CE01C1
:102EC00001960E94800870E060E0CE0101960E94A9
:102ED000BB02C82ECE0101960E947808CC2009F4CE
:102EE000B6CFB12CA12CAC2DA053BB0B6D01AC14F3
:102EF000BD040CF0ACCF60E08DE00E94200164EFD7
:102F000071E080E090E00E94170261E08DE00E9495
:102F1000200164EF71E080E090E00E941702BFEFB3
:102F2000AB1ABB0AE4CF6091F201CE0101960E9478
:102F3000800862E070E0CE0101960E94BB02E82E9C
:102F4000CE0101960E9478086091F201CE010196AF
:102F50000E94800861E070E0CE0101960E94BB02F1
:102F6000C82ECE0101960E9478086091F201CE0130
:102F700001960E94800870E060E0CE0101960E94F8
:102F8000BB02A82ECE0101960E947808AA2009F45F
:102F9000A5CF912C812C8A2D8053990B5C018A142A
:102FA0009B040CF09BCF60E08DE00E94200160E06C
:102FB00081E10E94200164EF71E080E090E00E94D6
:102FC000170261E08DE00E94200161E081E10E9432
:102FD000200164EF71E080E090E00E9417029FEF13
:102FE000891A990ADCCF64E670E080E090E00E94E4
:102FF0001702A4CB62E370E080E090E00E94170229
:103000001093F10189E00E94F700D090FA01892B1A
:1030100039F4DD2029F08091FB01882309F46CC08C
:103020008091EE018823E1F10E9455028AE0E82EAA
:10303000F12C60E08DE00E9420016CE070E080E007
:1030400090E00E94170261E08DE00E9420016CE098
:1030500070E080E090E00E94170260E081E10E9451
:1030600020016CE070E080E090E00E94170261E0D7
:1030700081E10E9420016CE070E080E090E00E941D
:10308000170261E0E61AF108A1F680910C01802791
:1030900080930C0189E493E00E94B6061092EE0141
:1030A000D11032C020E030E0232B11F40C944E0EEE
:1030B0000E943603882311F40C944E0E0E940000E7
:1030C0000C944C0E1092F0012CCE8091EF018631C1
:1030D00080F48F5F8093EF0160E08DE00E9420011B
:1030E00064E670E080E090E00E94170261E08DE00D
:1030F00024CE1092EF01F0CF62E370E080E090E028
:103100000E9417021093EE0189E493E00E9480066A
:10311000613177428105910528F2F090F201FF209C
:1031200039F081E090E00E94EC186F2DF81201C098
:1031300061E081E090E00E9423090E94D607F1013E
:103140000995B0CF909107020C9420108BE491E088
:1031500090938204809381048091E2019091E30135
:103160008158944071F4E0919404F0919504908119
:10317000809196048095892380831092E3011092B8
:10318000E2010895BB27FB015527AA27880F991F45
:10319000AA1FA41710F0A41B83955051B9F7A05D86
:1031A000AA3308F0A95DA193009779F7B111B19303
:1031B0001192CB010C94DC18DC01FC01672F71919A
:1031C0007723E1F7329704C07C916D93708362910D
:1031D000AE17BF07C8F30895F999FECF92BD81BD20
:1031E000F89A992780B50895262FF999FECF1FBA2E
:1031F00092BD81BD20BD0FB6F894FA9AF99A0FBE20
:10320000019608952F923F924F925F926F927F9214
:103210008F929F92AF92BF92CF92DF92EF92FF92E6
:103220000F931F93CF93DF93CDB7DEB7CA1BDB0B92
:103230000FB6F894DEBF0FBECDBF09942A88398837
:1032400048885F846E847D848C849B84AA84B9843E
:10325000C884DF80EE80FD800C811B81AA81B9814A
:10326000CE0FD11D0FB6F894DEBF0FBECDBFED015E
:103270000895A1E21A2EAA1BBB1BFD010DC0AA1FB7
:10328000BB1FEE1FFF1FA217B307E407F50720F0CF
:10329000A21BB30BE40BF50B661F771F881F991F4A
:1032A0001A9469F760957095809590959B01AC0193
:1032B000BD01CF010895EE0FFF1F0590F491E02DA1
:1032C00009940F931F93CF93DF938230910510F4ED
:1032D00082E090E0E091A204F091A30430E020E0CD
:1032E000B0E0A0E0309799F42115310509F44AC007
:1032F000281B390B24303105D8F58A819B81611553
:10330000710589F1FB0193838283FE0111C0408125
:1033100051810281138148175907E0F04817590776
:1033200099F4109761F012960C93129713961C93D0
:103330003296CF01DF91CF911F910F9108950093A5
:10334000A2041093A304F4CF2115310551F04217C4
:10335000530738F0A901DB019A01BD01DF01F80133
:10336000C1CFEF01F9CF9093A3048093A204CDCFF6
:10337000FE01E20FF31F81939193225031093983AB
:103380002883D7CF2091A0043091A104232B41F4AE
:1033900020911101309112013093A1042093A004D7
:1033A00020910F01309110012115310541F42DB705
:1033B0003EB74091130150911401241B350BE0914D
:1033C000A004F091A104E217F307A0F42E1B3F0B19
:1033D0002817390778F0AC014E5F5F4F2417350787
:1033E00048F04E0F5F1F5093A1044093A0048193B7
:1033F00091939FCFF0E0E0E09CCFCF93DF930097D5
:10340000E9F0FC01329713821282A091A204B091DC
:10341000A304ED0130E020E01097A1F42081318178
:10342000820F931F2091A0043091A104281739071F
:1034300009F061C0F093A104E093A004DF91CF9163
:103440000895EA01CE17DF07E8F54A815B819E0106
:1034500041155105B1F7E901FB83EA83499159917F
:10346000C40FD51FEC17FD0761F48081918102968E
:10347000840F951FE90199838883828193819B83BF
:103480008A83F0E0E0E012968D919C91139700976B
:10349000B9F52D913C911197CD010296820F931FA2
:1034A0002091A0043091A1042817390739F63097EC
:1034B00051F51092A3041092A204B093A104A0931A
:1034C000A004BCCFD383C28340815181840F951F58
:1034D000C817D90761F44E5F5F4F88819981480F03
:1034E000591F518340838A819B8193838283211555
:1034F000310509F0B0CFF093A304E093A2049ECF6E
:10350000FD01DC01C0CF13821282D7CFB0E0A0E072
:10351000ECE8FAE10C9404198C01009751F4CB010A
:103520000E9461198C01C801CDB7DEB7E0E10C94AF
:103530002019FC01E60FF71F9C0122503109E21708
:10354000F30708F49DC0D901CD91DC911197C617FE
:10355000D70798F0C530D10530F3CE010497861710
:10356000970708F3C61BD70B2297C193D1936D938E
:103570007C93CF010E94FD19D6CF5B01AC1ABD0A26
:103580004C018C0E9D1EA091A204B091A304512C5D
:10359000412CF12CE12C109731F58091A0049091F1
:1035A000A1048815990509F05CC04616570608F075
:1035B00058C080910F0190911001009741F48DB790
:1035C0009EB74091130150911401841B950BE8178D
:1035D000F90708F055C0F093A104E093A004F901A5
:1035E00071836083A0CF8D919C91119712966C90FE
:1035F000129713967C901397A815B90559F56C018D
:1036000042E0C40ED11CCA14DB0420F1AC014A19FB
:103610005B09DA011296159780F0628273825183FA
:103620004083D9016D937C93E114F10471F0D701CB
:103630001396FC93EE93129776CF22968C0F9D1FD4
:10364000F90191838083F301EFCFF093A304E0931A
:10365000A20469CF4816590608F42C017D01D30154
:103660009ACFCB010E9461197C01009749F0AE010D
:10367000B8010E94431BC8010E94FD19870153CF66
:1036800010E000E050CFFB01DC0102C001900D9280
:1036900041505040D8F70895FB01DC0101900D9294
:1036A0000020E1F7089510E0C2E6D0E004C0FE017A
:1036B0000E945B192196C336D107C9F7F894FFCF52
:1036C00000040000000400000004000001FFFF00EF
:1036D00000A4048000F401F401F4010203040908C9
:1036E000070605000000006C03CC02F902B9032AAA
:1036F0000308031C03000000004C061F068307F5A7
:103700000518060506F60500000000F006CC028349
:0A37100007F5054C076207D8060014
:00000001FF
